{
  "_format": "hh-sol-artifact-1",
  "contractName": "ERC20",
  "sourceName": "contracts/ERC20.sol",
  "abi": [
    {
      "anonymous": false,
      "inputs": [
        {
          "indexed": true,
          "internalType": "address",
          "name": "owner",
          "type": "address"
        },
        {
          "indexed": true,
          "internalType": "address",
          "name": "sender",
          "type": "address"
        },
        {
          "indexed": false,
          "internalType": "uint256",
          "name": "amount",
          "type": "uint256"
        }
      ],
      "name": "Approval",
      "type": "event"
    },
    {
      "anonymous": false,
      "inputs": [
        {
          "indexed": false,
          "internalType": "uint256",
          "name": "amount",
          "type": "uint256"
        }
      ],
      "name": "Log",
      "type": "event"
    },
    {
      "anonymous": false,
      "inputs": [
        {
          "indexed": true,
          "internalType": "address",
          "name": "user",
          "type": "address"
        },
        {
          "indexed": false,
          "internalType": "uint256",
          "name": "amount",
          "type": "uint256"
        },
        {
          "indexed": false,
          "internalType": "uint256",
          "name": "index",
          "type": "uint256"
        },
        {
          "indexed": false,
          "internalType": "uint256",
          "name": "timestamp",
          "type": "uint256"
        }
      ],
      "name": "Staked",
      "type": "event"
    },
    {
      "anonymous": false,
      "inputs": [
        {
          "indexed": true,
          "internalType": "address",
          "name": "from",
          "type": "address"
        },
        {
          "indexed": true,
          "internalType": "address",
          "name": "to",
          "type": "address"
        },
        {
          "indexed": false,
          "internalType": "uint256",
          "name": "amount",
          "type": "uint256"
        }
      ],
      "name": "Transfer",
      "type": "event"
    },
    {
      "inputs": [
        {
          "internalType": "address",
          "name": "",
          "type": "address"
        },
        {
          "internalType": "address",
          "name": "",
          "type": "address"
        }
      ],
      "name": "allowance",
      "outputs": [
        {
          "internalType": "uint256",
          "name": "",
          "type": "uint256"
        }
      ],
      "stateMutability": "view",
      "type": "function"
    },
    {
      "inputs": [],
      "name": "amountStaked",
      "outputs": [
        {
          "internalType": "uint256",
          "name": "",
          "type": "uint256"
        }
      ],
      "stateMutability": "view",
      "type": "function"
    },
    {
      "inputs": [
        {
          "internalType": "address",
          "name": "sender",
          "type": "address"
        },
        {
          "internalType": "uint256",
          "name": "amount",
          "type": "uint256"
        }
      ],
      "name": "approve",
      "outputs": [
        {
          "internalType": "bool",
          "name": "",
          "type": "bool"
        }
      ],
      "stateMutability": "nonpayable",
      "type": "function"
    },
    {
      "inputs": [
        {
          "internalType": "address",
          "name": "",
          "type": "address"
        }
      ],
      "name": "balanceOf",
      "outputs": [
        {
          "internalType": "uint256",
          "name": "",
          "type": "uint256"
        }
      ],
      "stateMutability": "view",
      "type": "function"
    },
    {
      "inputs": [
        {
          "internalType": "uint256",
          "name": "amount",
          "type": "uint256"
        }
      ],
      "name": "burn",
      "outputs": [],
      "stateMutability": "nonpayable",
      "type": "function"
    },
    {
      "inputs": [
        {
          "internalType": "uint256",
          "name": "since",
          "type": "uint256"
        },
        {
          "internalType": "uint256",
          "name": "amount",
          "type": "uint256"
        }
      ],
      "name": "calculateStakeReward",
      "outputs": [
        {
          "internalType": "uint256",
          "name": "",
          "type": "uint256"
        }
      ],
      "stateMutability": "view",
      "type": "function"
    },
    {
      "inputs": [],
      "name": "circulatingSupply",
      "outputs": [
        {
          "internalType": "uint256",
          "name": "",
          "type": "uint256"
        }
      ],
      "stateMutability": "view",
      "type": "function"
    },
    {
      "inputs": [],
      "name": "decimal",
      "outputs": [
        {
          "internalType": "uint8",
          "name": "",
          "type": "uint8"
        }
      ],
      "stateMutability": "view",
      "type": "function"
    },
    {
      "inputs": [
        {
          "internalType": "address",
          "name": "adr",
          "type": "address"
        }
      ],
      "name": "getSummary",
      "outputs": [
        {
          "internalType": "uint256",
          "name": "",
          "type": "uint256"
        }
      ],
      "stateMutability": "view",
      "type": "function"
    },
    {
      "inputs": [],
      "name": "getTotalAmountStaked",
      "outputs": [
        {
          "internalType": "uint256",
          "name": "",
          "type": "uint256"
        }
      ],
      "stateMutability": "view",
      "type": "function"
    },
    {
      "inputs": [
        {
          "internalType": "address",
          "name": "_staker",
          "type": "address"
        }
      ],
      "name": "hasStake",
      "outputs": [
        {
          "internalType": "uint256",
          "name": "",
          "type": "uint256"
        }
      ],
      "stateMutability": "view",
      "type": "function"
    },
    {
      "inputs": [
        {
          "internalType": "uint256",
          "name": "amount",
          "type": "uint256"
        }
      ],
      "name": "mint",
      "outputs": [],
      "stateMutability": "nonpayable",
      "type": "function"
    },
    {
      "inputs": [],
      "name": "name",
      "outputs": [
        {
          "internalType": "string",
          "name": "",
          "type": "string"
        }
      ],
      "stateMutability": "view",
      "type": "function"
    },
    {
      "inputs": [
        {
          "internalType": "address",
          "name": "sender",
          "type": "address"
        },
        {
          "internalType": "address",
          "name": "recipient",
          "type": "address"
        },
        {
          "internalType": "uint256",
          "name": "amount",
          "type": "uint256"
        }
      ],
      "name": "sendToAddress",
      "outputs": [],
      "stateMutability": "nonpayable",
      "type": "function"
    },
    {
      "inputs": [
        {
          "internalType": "address",
          "name": "recipient",
          "type": "address"
        },
        {
          "internalType": "uint256",
          "name": "amount",
          "type": "uint256"
        }
      ],
      "name": "sendToContract",
      "outputs": [],
      "stateMutability": "nonpayable",
      "type": "function"
    },
    {
      "inputs": [
        {
          "internalType": "uint256",
          "name": "_amount",
          "type": "uint256"
        },
        {
          "internalType": "address",
          "name": "adr",
          "type": "address"
        }
      ],
      "name": "stake",
      "outputs": [],
      "stateMutability": "nonpayable",
      "type": "function"
    },
    {
      "inputs": [
        {
          "internalType": "uint256",
          "name": "",
          "type": "uint256"
        }
      ],
      "name": "stakeholders",
      "outputs": [
        {
          "internalType": "address",
          "name": "user",
          "type": "address"
        }
      ],
      "stateMutability": "view",
      "type": "function"
    },
    {
      "inputs": [],
      "name": "symbol",
      "outputs": [
        {
          "internalType": "string",
          "name": "",
          "type": "string"
        }
      ],
      "stateMutability": "view",
      "type": "function"
    },
    {
      "inputs": [],
      "name": "totalSupply",
      "outputs": [
        {
          "internalType": "uint256",
          "name": "",
          "type": "uint256"
        }
      ],
      "stateMutability": "view",
      "type": "function"
    },
    {
      "inputs": [],
      "name": "total_amount_stacked",
      "outputs": [
        {
          "internalType": "uint256",
          "name": "",
          "type": "uint256"
        }
      ],
      "stateMutability": "view",
      "type": "function"
    },
    {
      "inputs": [
        {
          "internalType": "address",
          "name": "recipient",
          "type": "address"
        },
        {
          "internalType": "uint256",
          "name": "amount",
          "type": "uint256"
        }
      ],
      "name": "transfer",
      "outputs": [
        {
          "internalType": "bool",
          "name": "",
          "type": "bool"
        }
      ],
      "stateMutability": "nonpayable",
      "type": "function"
    },
    {
      "inputs": [
        {
          "internalType": "address",
          "name": "sender",
          "type": "address"
        },
        {
          "internalType": "address",
          "name": "recipient",
          "type": "address"
        },
        {
          "internalType": "uint256",
          "name": "amount",
          "type": "uint256"
        }
      ],
      "name": "transferFrom",
      "outputs": [
        {
          "internalType": "bool",
          "name": "",
          "type": "bool"
        }
      ],
      "stateMutability": "nonpayable",
      "type": "function"
    },
    {
      "inputs": [
        {
          "internalType": "uint256",
          "name": "initialAmount",
          "type": "uint256"
        },
        {
          "internalType": "uint256",
          "name": "_amount",
          "type": "uint256"
        },
        {
          "internalType": "uint256",
          "name": "_amountMint",
          "type": "uint256"
        },
        {
          "internalType": "address",
          "name": "adr",
          "type": "address"
        }
      ],
      "name": "withdrawStake",
      "outputs": [],
      "stateMutability": "nonpayable",
      "type": "function"
    }
  ],
  "bytecode": "0x60806040526103e860005560006003556040518060400160405280600481526020017f5465737400000000000000000000000000000000000000000000000000000000815250600890805190602001906200005c929190620000f8565b506040518060400160405280600481526020017f544553540000000000000000000000000000000000000000000000000000000081525060099080519060200190620000aa929190620000f8565b506012600a60006101000a81548160ff021916908360ff160217905550348015620000d457600080fd5b5060018081600181540180825580915050039060005260206000209050506200020d565b8280546200010690620001d7565b90600052602060002090601f0160209004810192826200012a576000855562000176565b82601f106200014557805160ff191683800117855562000176565b8280016001018555821562000176579182015b828111156200017557825182559160200191906001019062000158565b5b50905062000185919062000189565b5090565b5b80821115620001a45760008160009055506001016200018a565b5090565b7f4e487b7100000000000000000000000000000000000000000000000000000000600052602260045260246000fd5b60006002820490506001821680620001f057607f821691505b60208210811415620002075762000206620001a8565b5b50919050565b611d71806200021d6000396000f3fe608060405234801561001057600080fd5b506004361061014d5760003560e01c806370a08231116100c3578063a9059cbb1161007c578063a9059cbb146103b4578063dd62ed3e146103e4578063e22f9ea614610414578063e73e14bf14610430578063fab1e74714610460578063fbd95a391461047e5761014d565b806370a08231146102f257806376809ce3146103225780637acb7757146103405780639358928b1461035c57806395d89b411461037a578063a0712d68146103985761014d565b806323b872dd1161011557806323b872dd1461020a578063246d9fe81461023a5780633eb0db3b146102585780633f733e481461028857806342966c68146102b857806367d759fb146102d45761014d565b806306fdde0314610152578063095ea7b31461017057806318160ddd146101a05780631d6b8b72146101be5780632135d109146101ee575b600080fd5b61015a61049a565b604051610167919061162d565b60405180910390f35b61018a600480360381019061018591906116e8565b610528565b6040516101979190611743565b60405180910390f35b6101a861061a565b6040516101b5919061176d565b60405180910390f35b6101d860048036038101906101d39190611788565b610620565b6040516101e591906117c4565b60405180910390f35b610208600480360381019061020391906117df565b61066e565b005b610224600480360381019061021f9190611846565b610759565b6040516102319190611743565b60405180910390f35b610242610877565b60405161024f919061176d565b60405180910390f35b610272600480360381019061026d9190611899565b610881565b60405161027f919061176d565b60405180910390f35b6102a2600480360381019061029d91906118d9565b6108ba565b6040516102af919061176d565b60405180910390f35b6102d260048036038101906102cd9190611788565b6108d1565b005b6102dc6109a9565b6040516102e9919061176d565b60405180910390f35b61030c600480360381019061030791906118d9565b6109af565b604051610319919061176d565b60405180910390f35b61032a6109c7565b6040516103379190611922565b60405180910390f35b61035a6004803603810190610355919061193d565b6109da565b005b610364610ad8565b604051610371919061176d565b60405180910390f35b610382610ade565b60405161038f919061162d565b60405180910390f35b6103b260048036038101906103ad9190611788565b610b6c565b005b6103ce60048036038101906103c991906116e8565b610c44565b6040516103db9190611743565b60405180910390f35b6103fe60048036038101906103f9919061197d565b610d61565b60405161040b919061176d565b60405180910390f35b61042e600480360381019061042991906116e8565b610d86565b005b61044a600480360381019061044591906118d9565b610f43565b604051610457919061176d565b60405180910390f35b610468611175565b604051610475919061176d565b60405180910390f35b61049860048036038101906104939190611846565b61117b565b005b600880546104a7906119ec565b80601f01602080910402602001604051908101604052809291908181526020018280546104d3906119ec565b80156105205780601f106104f557610100808354040283529160200191610520565b820191906000526020600020905b81548152906001019060200180831161050357829003601f168201915b505050505081565b600081600760003373ffffffffffffffffffffffffffffffffffffffff1673ffffffffffffffffffffffffffffffffffffffff16815260200190815260200160002060008573ffffffffffffffffffffffffffffffffffffffff1673ffffffffffffffffffffffffffffffffffffffff168152602001908152602001600020819055508273ffffffffffffffffffffffffffffffffffffffff163373ffffffffffffffffffffffffffffffffffffffff167f8c5be1e5ebec7d5bd14f71427d1e84f3dd0314c0f7b2291e5b200ac8c7c3b92584604051610608919061176d565b60405180910390a36001905092915050565b60045481565b6001818154811061063057600080fd5b90600052602060002090600202016000915090508060000160009054906101000a900473ffffffffffffffffffffffffffffffffffffffff16905081565b60045482106106b2576040517f08c379a00000000000000000000000000000000000000000000000000000000081526004016106a990611a6a565b60405180910390fd5b81600660008373ffffffffffffffffffffffffffffffffffffffff1673ffffffffffffffffffffffffffffffffffffffff16815260200190815260200160002060008282546107019190611ab9565b92505081905550826004600082825461071a9190611b0f565b9250508190555081600560008282546107339190611ab9565b92505081905550836003600082825461074c9190611b0f565b9250508190555050505050565b600081600660008673ffffffffffffffffffffffffffffffffffffffff1673ffffffffffffffffffffffffffffffffffffffff16815260200190815260200160002060008282546107aa9190611b0f565b9250508190555081600660008573ffffffffffffffffffffffffffffffffffffffff1673ffffffffffffffffffffffffffffffffffffffff16815260200190815260200160002060008282546108009190611ab9565b925050819055508273ffffffffffffffffffffffffffffffffffffffff168473ffffffffffffffffffffffffffffffffffffffff167fddf252ad1be2c89b69c2b068fc378daa952ba7f163c4a11628f55a4df523b3ef84604051610864919061176d565b60405180910390a3600190509392505050565b6000600354905090565b6000805482603c85426108949190611b0f565b61089e9190611b72565b6108a89190611ba3565b6108b29190611b72565b905092915050565b6000806108c683610f43565b905080915050919050565b80600660003373ffffffffffffffffffffffffffffffffffffffff1673ffffffffffffffffffffffffffffffffffffffff16815260200190815260200160002060008282546109209190611b0f565b9250508190555080600560008282546109399190611b0f565b92505081905550600073ffffffffffffffffffffffffffffffffffffffff163373ffffffffffffffffffffffffffffffffffffffff167fddf252ad1be2c89b69c2b068fc378daa952ba7f163c4a11628f55a4df523b3ef8360405161099e919061176d565b60405180910390a350565b60035481565b60066020528060005260406000206000915090505481565b600a60009054906101000a900460ff1681565b600660008273ffffffffffffffffffffffffffffffffffffffff1673ffffffffffffffffffffffffffffffffffffffff16815260200190815260200160002054821115610a5c576040517f08c379a0000000000000000000000000000000000000000000000000000000008152600401610a5390611c49565b60405180910390fd5b610a65826112b1565b81600660008373ffffffffffffffffffffffffffffffffffffffff1673ffffffffffffffffffffffffffffffffffffffff1681526020019081526020016000206000828254610ab49190611b0f565b925050819055508160056000828254610acd9190611b0f565b925050819055505050565b60055481565b60098054610aeb906119ec565b80601f0160208091040260200160405190810160405280929190818152602001828054610b17906119ec565b8015610b645780601f10610b3957610100808354040283529160200191610b64565b820191906000526020600020905b815481529060010190602001808311610b4757829003601f168201915b505050505081565b80600660003073ffffffffffffffffffffffffffffffffffffffff1673ffffffffffffffffffffffffffffffffffffffff1681526020019081526020016000206000828254610bbb9190611ab9565b925050819055508060046000828254610bd49190611ab9565b925050819055503073ffffffffffffffffffffffffffffffffffffffff16600073ffffffffffffffffffffffffffffffffffffffff167fddf252ad1be2c89b69c2b068fc378daa952ba7f163c4a11628f55a4df523b3ef83604051610c39919061176d565b60405180910390a350565b600081600660003373ffffffffffffffffffffffffffffffffffffffff1673ffffffffffffffffffffffffffffffffffffffff1681526020019081526020016000206000828254610c959190611b0f565b9250508190555081600660008573ffffffffffffffffffffffffffffffffffffffff1673ffffffffffffffffffffffffffffffffffffffff1681526020019081526020016000206000828254610ceb9190611ab9565b925050819055508273ffffffffffffffffffffffffffffffffffffffff163373ffffffffffffffffffffffffffffffffffffffff167fddf252ad1be2c89b69c2b068fc378daa952ba7f163c4a11628f55a4df523b3ef84604051610d4f919061176d565b60405180910390a36001905092915050565b6007602052816000526040600020602052806000526040600020600091509150505481565b7f909c57d5c6ac08245cf2a6de3900e2b868513fa59099b92b27d8db823d92df9c600660003073ffffffffffffffffffffffffffffffffffffffff1673ffffffffffffffffffffffffffffffffffffffff16815260200190815260200160002054604051610df4919061176d565b60405180910390a180600660003073ffffffffffffffffffffffffffffffffffffffff1673ffffffffffffffffffffffffffffffffffffffff1681526020019081526020016000206000828254610e4b9190611b0f565b9250508190555080600660008473ffffffffffffffffffffffffffffffffffffffff1673ffffffffffffffffffffffffffffffffffffffff1681526020019081526020016000206000828254610ea19190611ab9565b925050819055508060046000828254610eba9190611b0f565b925050819055508060056000828254610ed39190611ab9565b925050819055508173ffffffffffffffffffffffffffffffffffffffff163073ffffffffffffffffffffffffffffffffffffffff167fddf252ad1be2c89b69c2b068fc378daa952ba7f163c4a11628f55a4df523b3ef83604051610f37919061176d565b60405180910390a35050565b60008060006040518060400160405280600081526020016001600260008873ffffffffffffffffffffffffffffffffffffffff1673ffffffffffffffffffffffffffffffffffffffff1681526020019081526020016000205481548110610fad57610fac611c69565b5b9060005260206000209060020201600101805480602002602001604051908101604052809291908181526020016000905b8282101561108457838290600052602060002090600402016040518060800160405290816000820160009054906101000a900473ffffffffffffffffffffffffffffffffffffffff1673ffffffffffffffffffffffffffffffffffffffff1673ffffffffffffffffffffffffffffffffffffffff168152602001600182015481526020016002820154815260200160038201548152505081526020019060010190610fde565b50505050815250905060005b81602001515181101561115c5760006110ed836020015183815181106110b9576110b8611c69565b5b602002602001015160400151846020015184815181106110dc576110db611c69565b5b602002602001015160200151610881565b9050808360200151838151811061110757611106611c69565b5b602002602001015160600181815250508260200151828151811061112e5761112d611c69565b5b602002602001015160600151846111459190611ab9565b9350506001816111559190611ab9565b9050611090565b5081816000018181525050806000015192505050919050565b600b5481565b80600454116111bf576040517f08c379a00000000000000000000000000000000000000000000000000000000081526004016111b690611a6a565b60405180910390fd5b80600460008282546111d19190611b0f565b9250508190555080600560008282546111ea9190611ab9565b9250508190555080600660008473ffffffffffffffffffffffffffffffffffffffff1673ffffffffffffffffffffffffffffffffffffffff16815260200190815260200160002060008282546112409190611ab9565b925050819055508173ffffffffffffffffffffffffffffffffffffffff168373ffffffffffffffffffffffffffffffffffffffff167fddf252ad1be2c89b69c2b068fc378daa952ba7f163c4a11628f55a4df523b3ef836040516112a4919061176d565b60405180910390a3505050565b600081116112f4576040517f08c379a00000000000000000000000000000000000000000000000000000000081526004016112eb90611ce4565b60405180910390fd5b6000600260003373ffffffffffffffffffffffffffffffffffffffff1673ffffffffffffffffffffffffffffffffffffffff168152602001908152602001600020549050600042905060008214156113525761134f336114af565b91505b6001828154811061136657611365611c69565b5b906000526020600020906002020160010160405180608001604052803373ffffffffffffffffffffffffffffffffffffffff1681526020018581526020018381526020016000815250908060018154018082558091505060019003906000526020600020906004020160009091909190915060008201518160000160006101000a81548173ffffffffffffffffffffffffffffffffffffffff021916908373ffffffffffffffffffffffffffffffffffffffff160217905550602082015181600101556040820151816002015560608201518160030155505082600360008282546114519190611ab9565b925050819055503373ffffffffffffffffffffffffffffffffffffffff167fb4caaf29adda3eefee3ad552a8e85058589bf834c7466cae4ee58787f70589ed8484846040516114a293929190611d04565b60405180910390a2505050565b600060018081600181540180825580915050039060005260206000209050506000600180805490506114e19190611b0f565b905082600182815481106114f8576114f7611c69565b5b906000526020600020906002020160000160006101000a81548173ffffffffffffffffffffffffffffffffffffffff021916908373ffffffffffffffffffffffffffffffffffffffff16021790555080600260008573ffffffffffffffffffffffffffffffffffffffff1673ffffffffffffffffffffffffffffffffffffffff1681526020019081526020016000208190555080915050919050565b600081519050919050565b600082825260208201905092915050565b60005b838110156115ce5780820151818401526020810190506115b3565b838111156115dd576000848401525b50505050565b6000601f19601f8301169050919050565b60006115ff82611594565b611609818561159f565b93506116198185602086016115b0565b611622816115e3565b840191505092915050565b6000602082019050818103600083015261164781846115f4565b905092915050565b600080fd5b600073ffffffffffffffffffffffffffffffffffffffff82169050919050565b600061167f82611654565b9050919050565b61168f81611674565b811461169a57600080fd5b50565b6000813590506116ac81611686565b92915050565b6000819050919050565b6116c5816116b2565b81146116d057600080fd5b50565b6000813590506116e2816116bc565b92915050565b600080604083850312156116ff576116fe61164f565b5b600061170d8582860161169d565b925050602061171e858286016116d3565b9150509250929050565b60008115159050919050565b61173d81611728565b82525050565b60006020820190506117586000830184611734565b92915050565b611767816116b2565b82525050565b6000602082019050611782600083018461175e565b92915050565b60006020828403121561179e5761179d61164f565b5b60006117ac848285016116d3565b91505092915050565b6117be81611674565b82525050565b60006020820190506117d960008301846117b5565b92915050565b600080600080608085870312156117f9576117f861164f565b5b6000611807878288016116d3565b9450506020611818878288016116d3565b9350506040611829878288016116d3565b925050606061183a8782880161169d565b91505092959194509250565b60008060006060848603121561185f5761185e61164f565b5b600061186d8682870161169d565b935050602061187e8682870161169d565b925050604061188f868287016116d3565b9150509250925092565b600080604083850312156118b0576118af61164f565b5b60006118be858286016116d3565b92505060206118cf858286016116d3565b9150509250929050565b6000602082840312156118ef576118ee61164f565b5b60006118fd8482850161169d565b91505092915050565b600060ff82169050919050565b61191c81611906565b82525050565b60006020820190506119376000830184611913565b92915050565b600080604083850312156119545761195361164f565b5b6000611962858286016116d3565b92505060206119738582860161169d565b9150509250929050565b600080604083850312156119945761199361164f565b5b60006119a28582860161169d565b92505060206119b38582860161169d565b9150509250929050565b7f4e487b7100000000000000000000000000000000000000000000000000000000600052602260045260246000fd5b60006002820490506001821680611a0457607f821691505b60208210811415611a1857611a176119bd565b5b50919050565b7f4e6f7420656e6f75676820737570706c79000000000000000000000000000000600082015250565b6000611a5460118361159f565b9150611a5f82611a1e565b602082019050919050565b60006020820190508181036000830152611a8381611a47565b9050919050565b7f4e487b7100000000000000000000000000000000000000000000000000000000600052601160045260246000fd5b6000611ac4826116b2565b9150611acf836116b2565b9250827fffffffffffffffffffffffffffffffffffffffffffffffffffffffffffffffff03821115611b0457611b03611a8a565b5b828201905092915050565b6000611b1a826116b2565b9150611b25836116b2565b925082821015611b3857611b37611a8a565b5b828203905092915050565b7f4e487b7100000000000000000000000000000000000000000000000000000000600052601260045260246000fd5b6000611b7d826116b2565b9150611b88836116b2565b925082611b9857611b97611b43565b5b828204905092915050565b6000611bae826116b2565b9150611bb9836116b2565b9250817fffffffffffffffffffffffffffffffffffffffffffffffffffffffffffffffff0483118215151615611bf257611bf1611a8a565b5b828202905092915050565b7f4e6f7420656e6f75676820746f6b656e73000000000000000000000000000000600082015250565b6000611c3360118361159f565b9150611c3e82611bfd565b602082019050919050565b60006020820190508181036000830152611c6281611c26565b9050919050565b7f4e487b7100000000000000000000000000000000000000000000000000000000600052603260045260246000fd5b7f43616e6e6f74207374616b65206e6f7468696e67000000000000000000000000600082015250565b6000611cce60148361159f565b9150611cd982611c98565b602082019050919050565b60006020820190508181036000830152611cfd81611cc1565b9050919050565b6000606082019050611d19600083018661175e565b611d26602083018561175e565b611d33604083018461175e565b94935050505056fea2646970667358221220aeda356bfe10e37f5ef218f8cb1e480ba18ae05c4c894845875d1c27dc2d9ac264736f6c634300080a0033",
  "linkReferences": {},
  "deployedLinkReferences": {}
}