{
  "_format": "hh-sol-artifact-1",
  "contractName": "ERC20",
  "sourceName": "contracts/ERC20.sol",
  "abi": [
    {
      "anonymous": false,
      "inputs": [
        {
          "indexed": true,
          "internalType": "address",
          "name": "owner",
          "type": "address"
        },
        {
          "indexed": true,
          "internalType": "address",
          "name": "sender",
          "type": "address"
        },
        {
          "indexed": false,
          "internalType": "uint256",
          "name": "amount",
          "type": "uint256"
        }
      ],
      "name": "Approval",
      "type": "event"
    },
    {
      "anonymous": false,
      "inputs": [
        {
          "indexed": false,
          "internalType": "uint256",
          "name": "amount",
          "type": "uint256"
        }
      ],
      "name": "Log",
      "type": "event"
    },
    {
      "anonymous": false,
      "inputs": [
        {
          "indexed": true,
          "internalType": "address",
          "name": "user",
          "type": "address"
        },
        {
          "indexed": false,
          "internalType": "uint256",
          "name": "amount",
          "type": "uint256"
        },
        {
          "indexed": false,
          "internalType": "uint256",
          "name": "index",
          "type": "uint256"
        },
        {
          "indexed": false,
          "internalType": "uint256",
          "name": "timestamp",
          "type": "uint256"
        }
      ],
      "name": "Staked",
      "type": "event"
    },
    {
      "anonymous": false,
      "inputs": [
        {
          "indexed": true,
          "internalType": "address",
          "name": "from",
          "type": "address"
        },
        {
          "indexed": true,
          "internalType": "address",
          "name": "to",
          "type": "address"
        },
        {
          "indexed": false,
          "internalType": "uint256",
          "name": "amount",
          "type": "uint256"
        }
      ],
      "name": "Transfer",
      "type": "event"
    },
    {
      "inputs": [
        {
          "internalType": "address",
          "name": "",
          "type": "address"
        },
        {
          "internalType": "address",
          "name": "",
          "type": "address"
        }
      ],
      "name": "allowance",
      "outputs": [
        {
          "internalType": "uint256",
          "name": "",
          "type": "uint256"
        }
      ],
      "stateMutability": "view",
      "type": "function"
    },
    {
      "inputs": [],
      "name": "amountStaked",
      "outputs": [
        {
          "internalType": "uint256",
          "name": "",
          "type": "uint256"
        }
      ],
      "stateMutability": "view",
      "type": "function"
    },
    {
      "inputs": [
        {
          "internalType": "address",
          "name": "sender",
          "type": "address"
        },
        {
          "internalType": "uint256",
          "name": "amount",
          "type": "uint256"
        }
      ],
      "name": "approve",
      "outputs": [
        {
          "internalType": "bool",
          "name": "",
          "type": "bool"
        }
      ],
      "stateMutability": "nonpayable",
      "type": "function"
    },
    {
      "inputs": [
        {
          "internalType": "address",
          "name": "",
          "type": "address"
        }
      ],
      "name": "balanceOf",
      "outputs": [
        {
          "internalType": "uint256",
          "name": "",
          "type": "uint256"
        }
      ],
      "stateMutability": "view",
      "type": "function"
    },
    {
      "inputs": [
        {
          "internalType": "uint256",
          "name": "amount",
          "type": "uint256"
        }
      ],
      "name": "burn",
      "outputs": [],
      "stateMutability": "nonpayable",
      "type": "function"
    },
    {
      "inputs": [
        {
          "internalType": "uint256",
          "name": "since",
          "type": "uint256"
        },
        {
          "internalType": "uint256",
          "name": "amount",
          "type": "uint256"
        }
      ],
      "name": "calculateStakeReward",
      "outputs": [
        {
          "internalType": "uint256",
          "name": "",
          "type": "uint256"
        }
      ],
      "stateMutability": "view",
      "type": "function"
    },
    {
      "inputs": [],
      "name": "circulatingSupply",
      "outputs": [
        {
          "internalType": "uint256",
          "name": "",
          "type": "uint256"
        }
      ],
      "stateMutability": "view",
      "type": "function"
    },
    {
      "inputs": [],
      "name": "decimal",
      "outputs": [
        {
          "internalType": "uint8",
          "name": "",
          "type": "uint8"
        }
      ],
      "stateMutability": "view",
      "type": "function"
    },
    {
      "inputs": [
        {
          "internalType": "address",
          "name": "adr",
          "type": "address"
        }
      ],
      "name": "getSummary",
      "outputs": [
        {
          "internalType": "uint256",
          "name": "",
          "type": "uint256"
        }
      ],
      "stateMutability": "view",
      "type": "function"
    },
    {
      "inputs": [],
      "name": "getTotalAmountStaked",
      "outputs": [
        {
          "internalType": "uint256",
          "name": "",
          "type": "uint256"
        }
      ],
      "stateMutability": "view",
      "type": "function"
    },
    {
      "inputs": [],
      "name": "getTotalStakes",
      "outputs": [
        {
          "internalType": "uint256",
          "name": "",
          "type": "uint256"
        }
      ],
      "stateMutability": "view",
      "type": "function"
    },
    {
      "inputs": [
        {
          "internalType": "address",
          "name": "adr",
          "type": "address"
        }
      ],
      "name": "getUserStakes",
      "outputs": [
        {
          "components": [
            {
              "internalType": "address",
              "name": "user",
              "type": "address"
            },
            {
              "internalType": "uint256",
              "name": "amount",
              "type": "uint256"
            },
            {
              "internalType": "uint256",
              "name": "since",
              "type": "uint256"
            },
            {
              "internalType": "bool",
              "name": "claimable",
              "type": "bool"
            },
            {
              "internalType": "uint256",
              "name": "id",
              "type": "uint256"
            }
          ],
          "internalType": "struct Staking.Stake[]",
          "name": "",
          "type": "tuple[]"
        }
      ],
      "stateMutability": "view",
      "type": "function"
    },
    {
      "inputs": [
        {
          "internalType": "address",
          "name": "_staker",
          "type": "address"
        }
      ],
      "name": "hasStake",
      "outputs": [
        {
          "internalType": "uint256",
          "name": "",
          "type": "uint256"
        }
      ],
      "stateMutability": "view",
      "type": "function"
    },
    {
      "inputs": [
        {
          "internalType": "uint256",
          "name": "amount",
          "type": "uint256"
        }
      ],
      "name": "mint",
      "outputs": [],
      "stateMutability": "nonpayable",
      "type": "function"
    },
    {
      "inputs": [],
      "name": "name",
      "outputs": [
        {
          "internalType": "string",
          "name": "",
          "type": "string"
        }
      ],
      "stateMutability": "view",
      "type": "function"
    },
    {
      "inputs": [
        {
          "internalType": "address",
          "name": "sender",
          "type": "address"
        },
        {
          "internalType": "address",
          "name": "recipient",
          "type": "address"
        },
        {
          "internalType": "uint256",
          "name": "amount",
          "type": "uint256"
        }
      ],
      "name": "sendToAddress",
      "outputs": [],
      "stateMutability": "nonpayable",
      "type": "function"
    },
    {
      "inputs": [
        {
          "internalType": "address",
          "name": "recipient",
          "type": "address"
        },
        {
          "internalType": "uint256",
          "name": "amount",
          "type": "uint256"
        }
      ],
      "name": "sendToContract",
      "outputs": [],
      "stateMutability": "nonpayable",
      "type": "function"
    },
    {
      "inputs": [
        {
          "internalType": "uint256",
          "name": "_amount",
          "type": "uint256"
        },
        {
          "internalType": "address",
          "name": "adr",
          "type": "address"
        },
        {
          "internalType": "uint256",
          "name": "id",
          "type": "uint256"
        }
      ],
      "name": "stake",
      "outputs": [],
      "stateMutability": "nonpayable",
      "type": "function"
    },
    {
      "inputs": [
        {
          "internalType": "uint256",
          "name": "",
          "type": "uint256"
        }
      ],
      "name": "stakeholders",
      "outputs": [
        {
          "internalType": "address",
          "name": "user",
          "type": "address"
        }
      ],
      "stateMutability": "view",
      "type": "function"
    },
    {
      "inputs": [],
      "name": "symbol",
      "outputs": [
        {
          "internalType": "string",
          "name": "",
          "type": "string"
        }
      ],
      "stateMutability": "view",
      "type": "function"
    },
    {
      "inputs": [],
      "name": "totalSupply",
      "outputs": [
        {
          "internalType": "uint256",
          "name": "",
          "type": "uint256"
        }
      ],
      "stateMutability": "view",
      "type": "function"
    },
    {
      "inputs": [],
      "name": "total_amount_stacked",
      "outputs": [
        {
          "internalType": "uint256",
          "name": "",
          "type": "uint256"
        }
      ],
      "stateMutability": "view",
      "type": "function"
    },
    {
      "inputs": [
        {
          "internalType": "address",
          "name": "recipient",
          "type": "address"
        },
        {
          "internalType": "uint256",
          "name": "amount",
          "type": "uint256"
        }
      ],
      "name": "transfer",
      "outputs": [
        {
          "internalType": "bool",
          "name": "",
          "type": "bool"
        }
      ],
      "stateMutability": "nonpayable",
      "type": "function"
    },
    {
      "inputs": [
        {
          "internalType": "address",
          "name": "sender",
          "type": "address"
        },
        {
          "internalType": "address",
          "name": "recipient",
          "type": "address"
        },
        {
          "internalType": "uint256",
          "name": "amount",
          "type": "uint256"
        }
      ],
      "name": "transferFrom",
      "outputs": [
        {
          "internalType": "bool",
          "name": "",
          "type": "bool"
        }
      ],
      "stateMutability": "nonpayable",
      "type": "function"
    },
    {
      "inputs": [
        {
          "internalType": "uint256",
          "name": "initialAmount",
          "type": "uint256"
        },
        {
          "internalType": "uint256",
          "name": "_amount",
          "type": "uint256"
        },
        {
          "internalType": "uint256",
          "name": "_amountMint",
          "type": "uint256"
        },
        {
          "internalType": "address",
          "name": "adr",
          "type": "address"
        },
        {
          "internalType": "uint256",
          "name": "id",
          "type": "uint256"
        }
      ],
      "name": "withdrawStake",
      "outputs": [],
      "stateMutability": "nonpayable",
      "type": "function"
    }
  ],
  "bytecode": "0x60806040526103e8600055600060015560006004556040518060400160405280600881526020017f47656d73746f6e650000000000000000000000000000000000000000000000008152506009908051906020019062000061929190620000fe565b506040518060400160405280600381526020017f474d530000000000000000000000000000000000000000000000000000000000815250600a9080519060200190620000af929190620000fe565b506012600b60006101000a81548160ff021916908360ff160217905550348015620000d957600080fd5b5060026001816001815401808255809150500390600052602060002090505062000213565b8280546200010c90620001dd565b90600052602060002090601f0160209004810192826200013057600085556200017c565b82601f106200014b57805160ff19168380011785556200017c565b828001600101855582156200017c579182015b828111156200017b5782518255916020019190600101906200015e565b5b5090506200018b91906200018f565b5090565b5b80821115620001aa57600081600090555060010162000190565b5090565b7f4e487b7100000000000000000000000000000000000000000000000000000000600052602260045260246000fd5b60006002820490506001821680620001f657607f821691505b602082108114156200020d576200020c620001ae565b5b50919050565b61219280620002236000396000f3fe608060405234801561001057600080fd5b50600436106101735760003560e01c806370a08231116100de578063a0712d6811610097578063e22f9ea611610071578063e22f9ea614610488578063e73e14bf146104a4578063fab1e747146104d4578063fbd95a39146104f257610173565b8063a0712d681461040c578063a9059cbb14610428578063dd62ed3e1461045857610173565b806370a082311461033657806376809ce31461036657806378dbb0bc14610384578063842e2981146103a05780639358928b146103d057806395d89b41146103ee57610173565b80633eb0db3b116101305780633eb0db3b146102625780633f733e481461029257806342966c68146102c257806367d759fb146102de57806368c33627146102fc5780636e9c931c1461031a57610173565b806306fdde0314610178578063095ea7b31461019657806318160ddd146101c65780631d6b8b72146101e457806323b872dd14610214578063246d9fe814610244575b600080fd5b61018061050e565b60405161018d91906118c1565b60405180910390f35b6101b060048036038101906101ab919061197c565b61059c565b6040516101bd91906119d7565b60405180910390f35b6101ce61068e565b6040516101db9190611a01565b60405180910390f35b6101fe60048036038101906101f99190611a1c565b610694565b60405161020b9190611a58565b60405180910390f35b61022e60048036038101906102299190611a73565b6106e2565b60405161023b91906119d7565b60405180910390f35b61024c610800565b6040516102599190611a01565b60405180910390f35b61027c60048036038101906102779190611ac6565b61080a565b6040516102899190611a01565b60405180910390f35b6102ac60048036038101906102a79190611b06565b610843565b6040516102b99190611a01565b60405180910390f35b6102dc60048036038101906102d79190611a1c565b61085a565b005b6102e6610932565b6040516102f39190611a01565b60405180910390f35b610304610938565b6040516103119190611a01565b60405180910390f35b610334600480360381019061032f9190611b33565b610942565b005b610350600480360381019061034b9190611b06565b610a43565b60405161035d9190611a01565b60405180910390f35b61036e610a5b565b60405161037b9190611ba2565b60405180910390f35b61039e60048036038101906103999190611bbd565b610a6e565b005b6103ba60048036038101906103b59190611b06565b610c06565b6040516103c79190611d7c565b60405180910390f35b6103d8610d64565b6040516103e59190611a01565b60405180910390f35b6103f6610d6a565b60405161040391906118c1565b60405180910390f35b61042660048036038101906104219190611a1c565b610df8565b005b610442600480360381019061043d919061197c565b610ed0565b60405161044f91906119d7565b60405180910390f35b610472600480360381019061046d9190611d9e565b610fed565b60405161047f9190611a01565b60405180910390f35b6104a2600480360381019061049d919061197c565b611012565b005b6104be60048036038101906104b99190611b06565b6111cf565b6040516104cb9190611a01565b60405180910390f35b6104dc6113c4565b6040516104e99190611a01565b60405180910390f35b61050c60048036038101906105079190611a73565b6113ca565b005b6009805461051b90611e0d565b80601f016020809104026020016040519081016040528092919081815260200182805461054790611e0d565b80156105945780601f1061056957610100808354040283529160200191610594565b820191906000526020600020905b81548152906001019060200180831161057757829003601f168201915b505050505081565b600081600860003373ffffffffffffffffffffffffffffffffffffffff1673ffffffffffffffffffffffffffffffffffffffff16815260200190815260200160002060008573ffffffffffffffffffffffffffffffffffffffff1673ffffffffffffffffffffffffffffffffffffffff168152602001908152602001600020819055508273ffffffffffffffffffffffffffffffffffffffff163373ffffffffffffffffffffffffffffffffffffffff167f8c5be1e5ebec7d5bd14f71427d1e84f3dd0314c0f7b2291e5b200ac8c7c3b9258460405161067c9190611a01565b60405180910390a36001905092915050565b60055481565b600281815481106106a457600080fd5b90600052602060002090600202016000915090508060000160009054906101000a900473ffffffffffffffffffffffffffffffffffffffff16905081565b600081600760008673ffffffffffffffffffffffffffffffffffffffff1673ffffffffffffffffffffffffffffffffffffffff16815260200190815260200160002060008282546107339190611e6e565b9250508190555081600760008573ffffffffffffffffffffffffffffffffffffffff1673ffffffffffffffffffffffffffffffffffffffff16815260200190815260200160002060008282546107899190611ea2565b925050819055508273ffffffffffffffffffffffffffffffffffffffff168473ffffffffffffffffffffffffffffffffffffffff167fddf252ad1be2c89b69c2b068fc378daa952ba7f163c4a11628f55a4df523b3ef846040516107ed9190611a01565b60405180910390a3600190509392505050565b6000600454905090565b6000805482603c854261081d9190611e6e565b6108279190611f27565b6108319190611f58565b61083b9190611f27565b905092915050565b60008061084f836111cf565b905080915050919050565b80600760003373ffffffffffffffffffffffffffffffffffffffff1673ffffffffffffffffffffffffffffffffffffffff16815260200190815260200160002060008282546108a99190611e6e565b9250508190555080600660008282546108c29190611e6e565b92505081905550600073ffffffffffffffffffffffffffffffffffffffff163373ffffffffffffffffffffffffffffffffffffffff167fddf252ad1be2c89b69c2b068fc378daa952ba7f163c4a11628f55a4df523b3ef836040516109279190611a01565b60405180910390a350565b60045481565b6000600154905090565b600760008373ffffffffffffffffffffffffffffffffffffffff1673ffffffffffffffffffffffffffffffffffffffff168152602001908152602001600020548311156109c4576040517f08c379a00000000000000000000000000000000000000000000000000000000081526004016109bb90611ffe565b60405180910390fd5b6109cf838383611500565b82600760008473ffffffffffffffffffffffffffffffffffffffff1673ffffffffffffffffffffffffffffffffffffffff1681526020019081526020016000206000828254610a1e9190611e6e565b925050819055508260066000828254610a379190611e6e565b92505081905550505050565b60076020528060005260406000206000915090505481565b600b60009054906101000a900460ff1681565b6005548310610ab2576040517f08c379a0000000000000000000000000000000000000000000000000000000008152600401610aa99061206a565b60405180910390fd5b6000600360008473ffffffffffffffffffffffffffffffffffffffff1673ffffffffffffffffffffffffffffffffffffffff168152602001908152602001600020549050600060028281548110610b0c57610b0b61208a565b5b90600052602060002090600202016001018381548110610b2f57610b2e61208a565b5b9060005260206000209060050201905060008160030160006101000a81548160ff02191690831515021790555084600760008673ffffffffffffffffffffffffffffffffffffffff1673ffffffffffffffffffffffffffffffffffffffff1681526020019081526020016000206000828254610bab9190611ea2565b925050819055508560056000828254610bc49190611e6e565b925050819055508460066000828254610bdd9190611ea2565b925050819055508660046000828254610bf69190611e6e565b9250508190555050505050505050565b60606000600360008473ffffffffffffffffffffffffffffffffffffffff1673ffffffffffffffffffffffffffffffffffffffff168152602001908152602001600020549050600060028281548110610c6257610c6161208a565b5b9060005260206000209060020201600101805480602002602001604051908101604052809291908181526020016000905b82821015610d5457838290600052602060002090600502016040518060a00160405290816000820160009054906101000a900473ffffffffffffffffffffffffffffffffffffffff1673ffffffffffffffffffffffffffffffffffffffff1673ffffffffffffffffffffffffffffffffffffffff16815260200160018201548152602001600282015481526020016003820160009054906101000a900460ff1615151515815260200160048201548152505081526020019060010190610c93565b5050505090508092505050919050565b60065481565b600a8054610d7790611e0d565b80601f0160208091040260200160405190810160405280929190818152602001828054610da390611e0d565b8015610df05780601f10610dc557610100808354040283529160200191610df0565b820191906000526020600020905b815481529060010190602001808311610dd357829003601f168201915b505050505081565b80600760003073ffffffffffffffffffffffffffffffffffffffff1673ffffffffffffffffffffffffffffffffffffffff1681526020019081526020016000206000828254610e479190611ea2565b925050819055508060056000828254610e609190611ea2565b925050819055503073ffffffffffffffffffffffffffffffffffffffff16600073ffffffffffffffffffffffffffffffffffffffff167fddf252ad1be2c89b69c2b068fc378daa952ba7f163c4a11628f55a4df523b3ef83604051610ec59190611a01565b60405180910390a350565b600081600760003373ffffffffffffffffffffffffffffffffffffffff1673ffffffffffffffffffffffffffffffffffffffff1681526020019081526020016000206000828254610f219190611e6e565b9250508190555081600760008573ffffffffffffffffffffffffffffffffffffffff1673ffffffffffffffffffffffffffffffffffffffff1681526020019081526020016000206000828254610f779190611ea2565b925050819055508273ffffffffffffffffffffffffffffffffffffffff163373ffffffffffffffffffffffffffffffffffffffff167fddf252ad1be2c89b69c2b068fc378daa952ba7f163c4a11628f55a4df523b3ef84604051610fdb9190611a01565b60405180910390a36001905092915050565b6008602052816000526040600020602052806000526040600020600091509150505481565b7f909c57d5c6ac08245cf2a6de3900e2b868513fa59099b92b27d8db823d92df9c600760003073ffffffffffffffffffffffffffffffffffffffff1673ffffffffffffffffffffffffffffffffffffffff168152602001908152602001600020546040516110809190611a01565b60405180910390a180600760003073ffffffffffffffffffffffffffffffffffffffff1673ffffffffffffffffffffffffffffffffffffffff16815260200190815260200160002060008282546110d79190611e6e565b9250508190555080600760008473ffffffffffffffffffffffffffffffffffffffff1673ffffffffffffffffffffffffffffffffffffffff168152602001908152602001600020600082825461112d9190611ea2565b9250508190555080600560008282546111469190611e6e565b92505081905550806006600082825461115f9190611ea2565b925050819055508173ffffffffffffffffffffffffffffffffffffffff163073ffffffffffffffffffffffffffffffffffffffff167fddf252ad1be2c89b69c2b068fc378daa952ba7f163c4a11628f55a4df523b3ef836040516111c39190611a01565b60405180910390a35050565b60008060006040518060400160405280600081526020016002600360008873ffffffffffffffffffffffffffffffffffffffff1673ffffffffffffffffffffffffffffffffffffffff16815260200190815260200160002054815481106112395761123861208a565b5b9060005260206000209060020201600101805480602002602001604051908101604052809291908181526020016000905b8282101561132b57838290600052602060002090600502016040518060a00160405290816000820160009054906101000a900473ffffffffffffffffffffffffffffffffffffffff1673ffffffffffffffffffffffffffffffffffffffff1673ffffffffffffffffffffffffffffffffffffffff16815260200160018201548152602001600282015481526020016003820160009054906101000a900460ff161515151581526020016004820154815250508152602001906001019061126a565b50505050815250905060005b8160200151518110156113ab576000611394836020015183815181106113605761135f61208a565b5b602002602001015160400151846020015184815181106113835761138261208a565b5b60200260200101516020015161080a565b9050506001816113a49190611ea2565b9050611337565b5081816000018181525050806000015192505050919050565b600c5481565b806005541161140e576040517f08c379a00000000000000000000000000000000000000000000000000000000081526004016114059061206a565b60405180910390fd5b80600560008282546114209190611e6e565b9250508190555080600660008282546114399190611ea2565b9250508190555080600760008473ffffffffffffffffffffffffffffffffffffffff1673ffffffffffffffffffffffffffffffffffffffff168152602001908152602001600020600082825461148f9190611ea2565b925050819055508173ffffffffffffffffffffffffffffffffffffffff168373ffffffffffffffffffffffffffffffffffffffff167fddf252ad1be2c89b69c2b068fc378daa952ba7f163c4a11628f55a4df523b3ef836040516114f39190611a01565b60405180910390a3505050565b60008311611543576040517f08c379a000000000000000000000000000000000000000000000000000000000815260040161153a90612105565b60405180910390fd5b6000600360008473ffffffffffffffffffffffffffffffffffffffff1673ffffffffffffffffffffffffffffffffffffffff168152602001908152602001600020549050600042905060008214156115a15761159e84611741565b91505b600282815481106115b5576115b461208a565b5b90600052602060002090600202016001016040518060a001604052808673ffffffffffffffffffffffffffffffffffffffff16815260200187815260200183815260200160011515815260200185815250908060018154018082558091505060019003906000526020600020906005020160009091909190915060008201518160000160006101000a81548173ffffffffffffffffffffffffffffffffffffffff021916908373ffffffffffffffffffffffffffffffffffffffff160217905550602082015181600101556040820151816002015560608201518160030160006101000a81548160ff02191690831515021790555060808201518160040155505084600460008282546116c89190611ea2565b9250508190555060018060008282546116e19190611ea2565b925050819055508373ffffffffffffffffffffffffffffffffffffffff167fb4caaf29adda3eefee3ad552a8e85058589bf834c7466cae4ee58787f70589ed86848460405161173293929190612125565b60405180910390a25050505050565b6000600260018160018154018082558091505003906000526020600020905050600060016002805490506117759190611e6e565b9050826002828154811061178c5761178b61208a565b5b906000526020600020906002020160000160006101000a81548173ffffffffffffffffffffffffffffffffffffffff021916908373ffffffffffffffffffffffffffffffffffffffff16021790555080600360008573ffffffffffffffffffffffffffffffffffffffff1673ffffffffffffffffffffffffffffffffffffffff1681526020019081526020016000208190555080915050919050565b600081519050919050565b600082825260208201905092915050565b60005b83811015611862578082015181840152602081019050611847565b83811115611871576000848401525b50505050565b6000601f19601f8301169050919050565b600061189382611828565b61189d8185611833565b93506118ad818560208601611844565b6118b681611877565b840191505092915050565b600060208201905081810360008301526118db8184611888565b905092915050565b600080fd5b600073ffffffffffffffffffffffffffffffffffffffff82169050919050565b6000611913826118e8565b9050919050565b61192381611908565b811461192e57600080fd5b50565b6000813590506119408161191a565b92915050565b6000819050919050565b61195981611946565b811461196457600080fd5b50565b60008135905061197681611950565b92915050565b60008060408385031215611993576119926118e3565b5b60006119a185828601611931565b92505060206119b285828601611967565b9150509250929050565b60008115159050919050565b6119d1816119bc565b82525050565b60006020820190506119ec60008301846119c8565b92915050565b6119fb81611946565b82525050565b6000602082019050611a1660008301846119f2565b92915050565b600060208284031215611a3257611a316118e3565b5b6000611a4084828501611967565b91505092915050565b611a5281611908565b82525050565b6000602082019050611a6d6000830184611a49565b92915050565b600080600060608486031215611a8c57611a8b6118e3565b5b6000611a9a86828701611931565b9350506020611aab86828701611931565b9250506040611abc86828701611967565b9150509250925092565b60008060408385031215611add57611adc6118e3565b5b6000611aeb85828601611967565b9250506020611afc85828601611967565b9150509250929050565b600060208284031215611b1c57611b1b6118e3565b5b6000611b2a84828501611931565b91505092915050565b600080600060608486031215611b4c57611b4b6118e3565b5b6000611b5a86828701611967565b9350506020611b6b86828701611931565b9250506040611b7c86828701611967565b9150509250925092565b600060ff82169050919050565b611b9c81611b86565b82525050565b6000602082019050611bb76000830184611b93565b92915050565b600080600080600060a08688031215611bd957611bd86118e3565b5b6000611be788828901611967565b9550506020611bf888828901611967565b9450506040611c0988828901611967565b9350506060611c1a88828901611931565b9250506080611c2b88828901611967565b9150509295509295909350565b600081519050919050565b600082825260208201905092915050565b6000819050602082019050919050565b611c6d81611908565b82525050565b611c7c81611946565b82525050565b611c8b816119bc565b82525050565b60a082016000820151611ca76000850182611c64565b506020820151611cba6020850182611c73565b506040820151611ccd6040850182611c73565b506060820151611ce06060850182611c82565b506080820151611cf36080850182611c73565b50505050565b6000611d058383611c91565b60a08301905092915050565b6000602082019050919050565b6000611d2982611c38565b611d338185611c43565b9350611d3e83611c54565b8060005b83811015611d6f578151611d568882611cf9565b9750611d6183611d11565b925050600181019050611d42565b5085935050505092915050565b60006020820190508181036000830152611d968184611d1e565b905092915050565b60008060408385031215611db557611db46118e3565b5b6000611dc385828601611931565b9250506020611dd485828601611931565b9150509250929050565b7f4e487b7100000000000000000000000000000000000000000000000000000000600052602260045260246000fd5b60006002820490506001821680611e2557607f821691505b60208210811415611e3957611e38611dde565b5b50919050565b7f4e487b7100000000000000000000000000000000000000000000000000000000600052601160045260246000fd5b6000611e7982611946565b9150611e8483611946565b925082821015611e9757611e96611e3f565b5b828203905092915050565b6000611ead82611946565b9150611eb883611946565b9250827fffffffffffffffffffffffffffffffffffffffffffffffffffffffffffffffff03821115611eed57611eec611e3f565b5b828201905092915050565b7f4e487b7100000000000000000000000000000000000000000000000000000000600052601260045260246000fd5b6000611f3282611946565b9150611f3d83611946565b925082611f4d57611f4c611ef8565b5b828204905092915050565b6000611f6382611946565b9150611f6e83611946565b9250817fffffffffffffffffffffffffffffffffffffffffffffffffffffffffffffffff0483118215151615611fa757611fa6611e3f565b5b828202905092915050565b7f4e6f7420656e6f75676820746f6b656e73000000000000000000000000000000600082015250565b6000611fe8601183611833565b9150611ff382611fb2565b602082019050919050565b6000602082019050818103600083015261201781611fdb565b9050919050565b7f4e6f7420656e6f75676820737570706c79000000000000000000000000000000600082015250565b6000612054601183611833565b915061205f8261201e565b602082019050919050565b6000602082019050818103600083015261208381612047565b9050919050565b7f4e487b7100000000000000000000000000000000000000000000000000000000600052603260045260246000fd5b7f43616e6e6f74207374616b65206e6f7468696e67000000000000000000000000600082015250565b60006120ef601483611833565b91506120fa826120b9565b602082019050919050565b6000602082019050818103600083015261211e816120e2565b9050919050565b600060608201905061213a60008301866119f2565b61214760208301856119f2565b61215460408301846119f2565b94935050505056fea2646970667358221220db7a58476a84d6c807ecb4a131fe2d8feea22d8f8eb9bdf6c7d29dea39569b8764736f6c634300080a0033",
  "linkReferences": {},
  "deployedLinkReferences": {}
}