{
  "_format": "hh-sol-artifact-1",
  "contractName": "ERC20",
  "sourceName": "contracts/ERC20.sol",
  "abi": [
    {
      "anonymous": false,
      "inputs": [
        {
          "indexed": true,
          "internalType": "address",
          "name": "owner",
          "type": "address"
        },
        {
          "indexed": true,
          "internalType": "address",
          "name": "sender",
          "type": "address"
        },
        {
          "indexed": false,
          "internalType": "uint256",
          "name": "amount",
          "type": "uint256"
        }
      ],
      "name": "Approval",
      "type": "event"
    },
    {
      "anonymous": false,
      "inputs": [
        {
          "indexed": false,
          "internalType": "uint256",
          "name": "amount",
          "type": "uint256"
        }
      ],
      "name": "Log",
      "type": "event"
    },
    {
      "anonymous": false,
      "inputs": [
        {
          "indexed": true,
          "internalType": "address",
          "name": "user",
          "type": "address"
        },
        {
          "indexed": false,
          "internalType": "uint256",
          "name": "amount",
          "type": "uint256"
        },
        {
          "indexed": false,
          "internalType": "uint256",
          "name": "index",
          "type": "uint256"
        },
        {
          "indexed": false,
          "internalType": "uint256",
          "name": "timestamp",
          "type": "uint256"
        }
      ],
      "name": "Staked",
      "type": "event"
    },
    {
      "anonymous": false,
      "inputs": [
        {
          "indexed": true,
          "internalType": "address",
          "name": "from",
          "type": "address"
        },
        {
          "indexed": true,
          "internalType": "address",
          "name": "to",
          "type": "address"
        },
        {
          "indexed": false,
          "internalType": "uint256",
          "name": "amount",
          "type": "uint256"
        }
      ],
      "name": "Transfer",
      "type": "event"
    },
    {
      "inputs": [
        {
          "internalType": "address",
          "name": "",
          "type": "address"
        },
        {
          "internalType": "address",
          "name": "",
          "type": "address"
        }
      ],
      "name": "allowance",
      "outputs": [
        {
          "internalType": "uint256",
          "name": "",
          "type": "uint256"
        }
      ],
      "stateMutability": "view",
      "type": "function"
    },
    {
      "inputs": [],
      "name": "amountStaked",
      "outputs": [
        {
          "internalType": "uint256",
          "name": "",
          "type": "uint256"
        }
      ],
      "stateMutability": "view",
      "type": "function"
    },
    {
      "inputs": [
        {
          "internalType": "address",
          "name": "sender",
          "type": "address"
        },
        {
          "internalType": "uint256",
          "name": "amount",
          "type": "uint256"
        }
      ],
      "name": "approve",
      "outputs": [
        {
          "internalType": "bool",
          "name": "",
          "type": "bool"
        }
      ],
      "stateMutability": "nonpayable",
      "type": "function"
    },
    {
      "inputs": [
        {
          "internalType": "address",
          "name": "",
          "type": "address"
        }
      ],
      "name": "balanceOf",
      "outputs": [
        {
          "internalType": "uint256",
          "name": "",
          "type": "uint256"
        }
      ],
      "stateMutability": "view",
      "type": "function"
    },
    {
      "inputs": [
        {
          "internalType": "uint256",
          "name": "amount",
          "type": "uint256"
        }
      ],
      "name": "burn",
      "outputs": [],
      "stateMutability": "nonpayable",
      "type": "function"
    },
    {
      "inputs": [],
      "name": "circulatingSupply",
      "outputs": [
        {
          "internalType": "uint256",
          "name": "",
          "type": "uint256"
        }
      ],
      "stateMutability": "view",
      "type": "function"
    },
    {
      "inputs": [],
      "name": "decimal",
      "outputs": [
        {
          "internalType": "uint8",
          "name": "",
          "type": "uint8"
        }
      ],
      "stateMutability": "view",
      "type": "function"
    },
    {
      "inputs": [
        {
          "internalType": "address",
          "name": "adr",
          "type": "address"
        }
      ],
      "name": "getSummary",
      "outputs": [
        {
          "internalType": "uint256",
          "name": "",
          "type": "uint256"
        }
      ],
      "stateMutability": "view",
      "type": "function"
    },
    {
      "inputs": [],
      "name": "getTotalAmountStaked",
      "outputs": [
        {
          "internalType": "uint256",
          "name": "",
          "type": "uint256"
        }
      ],
      "stateMutability": "view",
      "type": "function"
    },
    {
      "inputs": [
        {
          "internalType": "address",
          "name": "_staker",
          "type": "address"
        }
      ],
      "name": "hasStake",
      "outputs": [
        {
          "internalType": "uint256",
          "name": "",
          "type": "uint256"
        }
      ],
      "stateMutability": "view",
      "type": "function"
    },
    {
      "inputs": [
        {
          "internalType": "uint256",
          "name": "amount",
          "type": "uint256"
        }
      ],
      "name": "mint",
      "outputs": [],
      "stateMutability": "nonpayable",
      "type": "function"
    },
    {
      "inputs": [],
      "name": "name",
      "outputs": [
        {
          "internalType": "string",
          "name": "",
          "type": "string"
        }
      ],
      "stateMutability": "view",
      "type": "function"
    },
    {
      "inputs": [
        {
          "internalType": "address",
          "name": "sender",
          "type": "address"
        },
        {
          "internalType": "address",
          "name": "recipient",
          "type": "address"
        },
        {
          "internalType": "uint256",
          "name": "amount",
          "type": "uint256"
        }
      ],
      "name": "sendToAddress",
      "outputs": [],
      "stateMutability": "nonpayable",
      "type": "function"
    },
    {
      "inputs": [
        {
          "internalType": "address",
          "name": "recipient",
          "type": "address"
        },
        {
          "internalType": "uint256",
          "name": "amount",
          "type": "uint256"
        }
      ],
      "name": "sendToContract",
      "outputs": [],
      "stateMutability": "nonpayable",
      "type": "function"
    },
    {
      "inputs": [
        {
          "internalType": "uint256",
          "name": "_amount",
          "type": "uint256"
        },
        {
          "internalType": "address",
          "name": "adr",
          "type": "address"
        }
      ],
      "name": "stake",
      "outputs": [],
      "stateMutability": "nonpayable",
      "type": "function"
    },
    {
      "inputs": [
        {
          "internalType": "uint256",
          "name": "",
          "type": "uint256"
        }
      ],
      "name": "stakeholders",
      "outputs": [
        {
          "internalType": "address",
          "name": "user",
          "type": "address"
        }
      ],
      "stateMutability": "view",
      "type": "function"
    },
    {
      "inputs": [],
      "name": "symbol",
      "outputs": [
        {
          "internalType": "string",
          "name": "",
          "type": "string"
        }
      ],
      "stateMutability": "view",
      "type": "function"
    },
    {
      "inputs": [],
      "name": "totalSupply",
      "outputs": [
        {
          "internalType": "uint256",
          "name": "",
          "type": "uint256"
        }
      ],
      "stateMutability": "view",
      "type": "function"
    },
    {
      "inputs": [],
      "name": "total_amount_stacked",
      "outputs": [
        {
          "internalType": "uint256",
          "name": "",
          "type": "uint256"
        }
      ],
      "stateMutability": "view",
      "type": "function"
    },
    {
      "inputs": [
        {
          "internalType": "address",
          "name": "recipient",
          "type": "address"
        },
        {
          "internalType": "uint256",
          "name": "amount",
          "type": "uint256"
        }
      ],
      "name": "transfer",
      "outputs": [
        {
          "internalType": "bool",
          "name": "",
          "type": "bool"
        }
      ],
      "stateMutability": "nonpayable",
      "type": "function"
    },
    {
      "inputs": [
        {
          "internalType": "address",
          "name": "sender",
          "type": "address"
        },
        {
          "internalType": "address",
          "name": "recipient",
          "type": "address"
        },
        {
          "internalType": "uint256",
          "name": "amount",
          "type": "uint256"
        }
      ],
      "name": "transferFrom",
      "outputs": [
        {
          "internalType": "bool",
          "name": "",
          "type": "bool"
        }
      ],
      "stateMutability": "nonpayable",
      "type": "function"
    },
    {
      "inputs": [
        {
          "internalType": "uint256",
          "name": "_amount",
          "type": "uint256"
        },
        {
          "internalType": "uint256",
          "name": "stake_index",
          "type": "uint256"
        }
      ],
      "name": "withdrawStake",
      "outputs": [],
      "stateMutability": "nonpayable",
      "type": "function"
    }
  ],
  "bytecode": "0x60806040526103e860005560006003556040518060400160405280600481526020017f5465737400000000000000000000000000000000000000000000000000000000815250600890805190602001906200005c929190620000f8565b506040518060400160405280600481526020017f544553540000000000000000000000000000000000000000000000000000000081525060099080519060200190620000aa929190620000f8565b506012600a60006101000a81548160ff021916908360ff160217905550348015620000d457600080fd5b5060018081600181540180825580915050039060005260206000209050506200020d565b8280546200010690620001d7565b90600052602060002090601f0160209004810192826200012a576000855562000176565b82601f106200014557805160ff191683800117855562000176565b8280016001018555821562000176579182015b828111156200017557825182559160200191906001019062000158565b5b50905062000185919062000189565b5090565b5b80821115620001a45760008160009055506001016200018a565b5090565b7f4e487b7100000000000000000000000000000000000000000000000000000000600052602260045260246000fd5b60006002820490506001821680620001f057607f821691505b60208210811415620002075762000206620001a8565b5b50919050565b611f93806200021d6000396000f3fe608060405234801561001057600080fd5b50600436106101425760003560e01c80637acb7757116100b8578063dd62ed3e1161007c578063dd62ed3e1461038d578063e22f9ea6146103bd578063e73e14bf146103d9578063f1fdf46914610409578063fab1e74714610425578063fbd95a391461044357610142565b80637acb7757146102e95780639358928b1461030557806395d89b4114610323578063a0712d6814610341578063a9059cbb1461035d57610142565b8063246d9fe81161010a578063246d9fe8146102135780633f733e481461023157806342966c681461026157806367d759fb1461027d57806370a082311461029b57806376809ce3146102cb57610142565b806306fdde0314610147578063095ea7b31461016557806318160ddd146101955780631d6b8b72146101b357806323b872dd146101e3575b600080fd5b61014f61045f565b60405161015c9190611890565b60405180910390f35b61017f600480360381019061017a919061194b565b6104ed565b60405161018c91906119a6565b60405180910390f35b61019d6105df565b6040516101aa91906119d0565b60405180910390f35b6101cd60048036038101906101c891906119eb565b6105e5565b6040516101da9190611a27565b60405180910390f35b6101fd60048036038101906101f89190611a42565b610633565b60405161020a91906119a6565b60405180910390f35b61021b6107e4565b60405161022891906119d0565b60405180910390f35b61024b60048036038101906102469190611a95565b6107ee565b60405161025891906119d0565b60405180910390f35b61027b600480360381019061027691906119eb565b610805565b005b6102856108dd565b60405161029291906119d0565b60405180910390f35b6102b560048036038101906102b09190611a95565b6108e3565b6040516102c291906119d0565b60405180910390f35b6102d36108fb565b6040516102e09190611ade565b60405180910390f35b61030360048036038101906102fe9190611af9565b61090e565b005b61030d610a0b565b60405161031a91906119d0565b60405180910390f35b61032b610a11565b6040516103389190611890565b60405180910390f35b61035b600480360381019061035691906119eb565b610a9f565b005b6103776004803603810190610372919061194b565b610b90565b60405161038491906119a6565b60405180910390f35b6103a760048036038101906103a29190611b39565b610cad565b6040516103b491906119d0565b60405180910390f35b6103d760048036038101906103d2919061194b565b610cd2565b005b6103f360048036038101906103ee9190611a95565b610e5d565b60405161040091906119d0565b60405180910390f35b610423600480360381019061041e9190611b79565b61108f565b005b61042d61112a565b60405161043a91906119d0565b60405180910390f35b61045d60048036038101906104589190611a42565b611130565b005b6008805461046c90611be8565b80601f016020809104026020016040519081016040528092919081815260200182805461049890611be8565b80156104e55780601f106104ba576101008083540402835291602001916104e5565b820191906000526020600020905b8154815290600101906020018083116104c857829003601f168201915b505050505081565b600081600760003373ffffffffffffffffffffffffffffffffffffffff1673ffffffffffffffffffffffffffffffffffffffff16815260200190815260200160002060008573ffffffffffffffffffffffffffffffffffffffff1673ffffffffffffffffffffffffffffffffffffffff168152602001908152602001600020819055508273ffffffffffffffffffffffffffffffffffffffff163373ffffffffffffffffffffffffffffffffffffffff167f8c5be1e5ebec7d5bd14f71427d1e84f3dd0314c0f7b2291e5b200ac8c7c3b925846040516105cd91906119d0565b60405180910390a36001905092915050565b60045481565b600181815481106105f557600080fd5b90600052602060002090600202016000915090508060000160009054906101000a900473ffffffffffffffffffffffffffffffffffffffff16905081565b600081600760008673ffffffffffffffffffffffffffffffffffffffff1673ffffffffffffffffffffffffffffffffffffffff16815260200190815260200160002060003373ffffffffffffffffffffffffffffffffffffffff1673ffffffffffffffffffffffffffffffffffffffff16815260200190815260200160002060008282546106c19190611c49565b9250508190555081600660008673ffffffffffffffffffffffffffffffffffffffff1673ffffffffffffffffffffffffffffffffffffffff16815260200190815260200160002060008282546107179190611c49565b9250508190555081600660008573ffffffffffffffffffffffffffffffffffffffff1673ffffffffffffffffffffffffffffffffffffffff168152602001908152602001600020600082825461076d9190611c7d565b925050819055508273ffffffffffffffffffffffffffffffffffffffff168473ffffffffffffffffffffffffffffffffffffffff167fddf252ad1be2c89b69c2b068fc378daa952ba7f163c4a11628f55a4df523b3ef846040516107d191906119d0565b60405180910390a3600190509392505050565b6000600354905090565b6000806107fa83610e5d565b905080915050919050565b80600660003373ffffffffffffffffffffffffffffffffffffffff1673ffffffffffffffffffffffffffffffffffffffff16815260200190815260200160002060008282546108549190611c49565b92505081905550806005600082825461086d9190611c49565b92505081905550600073ffffffffffffffffffffffffffffffffffffffff163373ffffffffffffffffffffffffffffffffffffffff167fddf252ad1be2c89b69c2b068fc378daa952ba7f163c4a11628f55a4df523b3ef836040516108d291906119d0565b60405180910390a350565b60035481565b60066020528060005260406000206000915090505481565b600a60009054906101000a900460ff1681565b600660008273ffffffffffffffffffffffffffffffffffffffff1673ffffffffffffffffffffffffffffffffffffffff16815260200190815260200160002054821061098f576040517f08c379a000000000000000000000000000000000000000000000000000000000815260040161098690611d1f565b60405180910390fd5b610998826111f0565b81600660008373ffffffffffffffffffffffffffffffffffffffff1673ffffffffffffffffffffffffffffffffffffffff16815260200190815260200160002060008282546109e79190611c49565b925050819055508160056000828254610a009190611c49565b925050819055505050565b60055481565b60098054610a1e90611be8565b80601f0160208091040260200160405190810160405280929190818152602001828054610a4a90611be8565b8015610a975780601f10610a6c57610100808354040283529160200191610a97565b820191906000526020600020905b815481529060010190602001808311610a7a57829003601f168201915b505050505081565b80600660003073ffffffffffffffffffffffffffffffffffffffff1673ffffffffffffffffffffffffffffffffffffffff1681526020019081526020016000206000828254610aee9190611c7d565b925050819055508060046000828254610b079190611c7d565b925050819055508060056000828254610b209190611c7d565b925050819055503073ffffffffffffffffffffffffffffffffffffffff16600073ffffffffffffffffffffffffffffffffffffffff167fddf252ad1be2c89b69c2b068fc378daa952ba7f163c4a11628f55a4df523b3ef83604051610b8591906119d0565b60405180910390a350565b600081600660003373ffffffffffffffffffffffffffffffffffffffff1673ffffffffffffffffffffffffffffffffffffffff1681526020019081526020016000206000828254610be19190611c49565b9250508190555081600660008573ffffffffffffffffffffffffffffffffffffffff1673ffffffffffffffffffffffffffffffffffffffff1681526020019081526020016000206000828254610c379190611c7d565b925050819055508273ffffffffffffffffffffffffffffffffffffffff163373ffffffffffffffffffffffffffffffffffffffff167fddf252ad1be2c89b69c2b068fc378daa952ba7f163c4a11628f55a4df523b3ef84604051610c9b91906119d0565b60405180910390a36001905092915050565b6007602052816000526040600020602052806000526040600020600091509150505481565b7f909c57d5c6ac08245cf2a6de3900e2b868513fa59099b92b27d8db823d92df9c600660003073ffffffffffffffffffffffffffffffffffffffff1673ffffffffffffffffffffffffffffffffffffffff16815260200190815260200160002054604051610d4091906119d0565b60405180910390a180600660003073ffffffffffffffffffffffffffffffffffffffff1673ffffffffffffffffffffffffffffffffffffffff1681526020019081526020016000206000828254610d979190611c49565b9250508190555080600660008473ffffffffffffffffffffffffffffffffffffffff1673ffffffffffffffffffffffffffffffffffffffff1681526020019081526020016000206000828254610ded9190611c7d565b925050819055508173ffffffffffffffffffffffffffffffffffffffff163073ffffffffffffffffffffffffffffffffffffffff167fddf252ad1be2c89b69c2b068fc378daa952ba7f163c4a11628f55a4df523b3ef83604051610e5191906119d0565b60405180910390a35050565b60008060006040518060400160405280600081526020016001600260008873ffffffffffffffffffffffffffffffffffffffff1673ffffffffffffffffffffffffffffffffffffffff1681526020019081526020016000205481548110610ec757610ec6611d3f565b5b9060005260206000209060020201600101805480602002602001604051908101604052809291908181526020016000905b82821015610f9e57838290600052602060002090600402016040518060800160405290816000820160009054906101000a900473ffffffffffffffffffffffffffffffffffffffff1673ffffffffffffffffffffffffffffffffffffffff1673ffffffffffffffffffffffffffffffffffffffff168152602001600182015481526020016002820154815260200160038201548152505081526020019060010190610ef8565b50505050815250905060005b81602001515181101561107657600061100783602001518381518110610fd357610fd2611d3f565b5b60200260200101516040015184602001518481518110610ff657610ff5611d3f565b5b6020026020010151602001516113ee565b9050808360200151838151811061102157611020611d3f565b5b602002602001015160600181815250508260200151828151811061104857611047611d3f565b5b6020026020010151606001518461105f9190611c7d565b93505060018161106f9190611c7d565b9050610faa565b5081816000018181525050806000015192505050919050565b600061109b8383611427565b905080600660003373ffffffffffffffffffffffffffffffffffffffff1673ffffffffffffffffffffffffffffffffffffffff16815260200190815260200160002060008282546110ec9190611c7d565b9250508190555080600460008282546111059190611c7d565b92505081905550806005600082825461111e9190611c7d565b92505081905550505050565b600b5481565b80600660008473ffffffffffffffffffffffffffffffffffffffff1673ffffffffffffffffffffffffffffffffffffffff168152602001908152602001600020600082825461117f9190611c7d565b925050819055508173ffffffffffffffffffffffffffffffffffffffff168373ffffffffffffffffffffffffffffffffffffffff167fddf252ad1be2c89b69c2b068fc378daa952ba7f163c4a11628f55a4df523b3ef836040516111e391906119d0565b60405180910390a3505050565b60008111611233576040517f08c379a000000000000000000000000000000000000000000000000000000000815260040161122a90611dba565b60405180910390fd5b6000600260003373ffffffffffffffffffffffffffffffffffffffff1673ffffffffffffffffffffffffffffffffffffffff168152602001908152602001600020549050600042905060008214156112915761128e33611712565b91505b600182815481106112a5576112a4611d3f565b5b906000526020600020906002020160010160405180608001604052803373ffffffffffffffffffffffffffffffffffffffff1681526020018581526020018381526020016000815250908060018154018082558091505060019003906000526020600020906004020160009091909190915060008201518160000160006101000a81548173ffffffffffffffffffffffffffffffffffffffff021916908373ffffffffffffffffffffffffffffffffffffffff160217905550602082015181600101556040820151816002015560608201518160030155505082600360008282546113909190611c7d565b925050819055503373ffffffffffffffffffffffffffffffffffffffff167fb4caaf29adda3eefee3ad552a8e85058589bf834c7466cae4ee58787f70589ed8484846040516113e193929190611dda565b60405180910390a2505050565b6000805482603c85426114019190611c49565b61140b9190611e40565b6114159190611e71565b61141f9190611e40565b905092915050565b600080600260003373ffffffffffffffffffffffffffffffffffffffff1673ffffffffffffffffffffffffffffffffffffffff16815260200190815260200160002054905060006001828154811061148257611481611d3f565b5b906000526020600020906002020160010184815481106114a5576114a4611d3f565b5b90600052602060002090600402016040518060800160405290816000820160009054906101000a900473ffffffffffffffffffffffffffffffffffffffff1673ffffffffffffffffffffffffffffffffffffffff1673ffffffffffffffffffffffffffffffffffffffff16815260200160018201548152602001600282015481526020016003820154815250509050848160200151101561157b576040517f08c379a000000000000000000000000000000000000000000000000000000000815260040161157290611f3d565b60405180910390fd5b600061158f826040015183602001516113ee565b905085600360008282546115a39190611c49565b925050819055508582602001516115ba9190611c49565b82602001818152505060008260200151141561165c57600183815481106115e4576115e3611d3f565b5b9060005260206000209060020201600101858154811061160757611606611d3f565b5b9060005260206000209060040201600080820160006101000a81549073ffffffffffffffffffffffffffffffffffffffff021916905560018201600090556002820160009055600382016000905550506116fb565b81602001516001848154811061167557611674611d3f565b5b9060005260206000209060020201600101868154811061169857611697611d3f565b5b90600052602060002090600402016001018190555042600184815481106116c2576116c1611d3f565b5b906000526020600020906002020160010186815481106116e5576116e4611d3f565b5b9060005260206000209060040201600201819055505b80866117079190611c7d565b935050505092915050565b600060018081600181540180825580915050039060005260206000209050506000600180805490506117449190611c49565b9050826001828154811061175b5761175a611d3f565b5b906000526020600020906002020160000160006101000a81548173ffffffffffffffffffffffffffffffffffffffff021916908373ffffffffffffffffffffffffffffffffffffffff16021790555080600260008573ffffffffffffffffffffffffffffffffffffffff1673ffffffffffffffffffffffffffffffffffffffff1681526020019081526020016000208190555080915050919050565b600081519050919050565b600082825260208201905092915050565b60005b83811015611831578082015181840152602081019050611816565b83811115611840576000848401525b50505050565b6000601f19601f8301169050919050565b6000611862826117f7565b61186c8185611802565b935061187c818560208601611813565b61188581611846565b840191505092915050565b600060208201905081810360008301526118aa8184611857565b905092915050565b600080fd5b600073ffffffffffffffffffffffffffffffffffffffff82169050919050565b60006118e2826118b7565b9050919050565b6118f2816118d7565b81146118fd57600080fd5b50565b60008135905061190f816118e9565b92915050565b6000819050919050565b61192881611915565b811461193357600080fd5b50565b6000813590506119458161191f565b92915050565b60008060408385031215611962576119616118b2565b5b600061197085828601611900565b925050602061198185828601611936565b9150509250929050565b60008115159050919050565b6119a08161198b565b82525050565b60006020820190506119bb6000830184611997565b92915050565b6119ca81611915565b82525050565b60006020820190506119e560008301846119c1565b92915050565b600060208284031215611a0157611a006118b2565b5b6000611a0f84828501611936565b91505092915050565b611a21816118d7565b82525050565b6000602082019050611a3c6000830184611a18565b92915050565b600080600060608486031215611a5b57611a5a6118b2565b5b6000611a6986828701611900565b9350506020611a7a86828701611900565b9250506040611a8b86828701611936565b9150509250925092565b600060208284031215611aab57611aaa6118b2565b5b6000611ab984828501611900565b91505092915050565b600060ff82169050919050565b611ad881611ac2565b82525050565b6000602082019050611af36000830184611acf565b92915050565b60008060408385031215611b1057611b0f6118b2565b5b6000611b1e85828601611936565b9250506020611b2f85828601611900565b9150509250929050565b60008060408385031215611b5057611b4f6118b2565b5b6000611b5e85828601611900565b9250506020611b6f85828601611900565b9150509250929050565b60008060408385031215611b9057611b8f6118b2565b5b6000611b9e85828601611936565b9250506020611baf85828601611936565b9150509250929050565b7f4e487b7100000000000000000000000000000000000000000000000000000000600052602260045260246000fd5b60006002820490506001821680611c0057607f821691505b60208210811415611c1457611c13611bb9565b5b50919050565b7f4e487b7100000000000000000000000000000000000000000000000000000000600052601160045260246000fd5b6000611c5482611915565b9150611c5f83611915565b925082821015611c7257611c71611c1a565b5b828203905092915050565b6000611c8882611915565b9150611c9383611915565b9250827fffffffffffffffffffffffffffffffffffffffffffffffffffffffffffffffff03821115611cc857611cc7611c1a565b5b828201905092915050565b7f4e6f7420656e6f75676820746f6b656e73000000000000000000000000000000600082015250565b6000611d09601183611802565b9150611d1482611cd3565b602082019050919050565b60006020820190508181036000830152611d3881611cfc565b9050919050565b7f4e487b7100000000000000000000000000000000000000000000000000000000600052603260045260246000fd5b7f43616e6e6f74207374616b65206e6f7468696e67000000000000000000000000600082015250565b6000611da4601483611802565b9150611daf82611d6e565b602082019050919050565b60006020820190508181036000830152611dd381611d97565b9050919050565b6000606082019050611def60008301866119c1565b611dfc60208301856119c1565b611e0960408301846119c1565b949350505050565b7f4e487b7100000000000000000000000000000000000000000000000000000000600052601260045260246000fd5b6000611e4b82611915565b9150611e5683611915565b925082611e6657611e65611e11565b5b828204905092915050565b6000611e7c82611915565b9150611e8783611915565b9250817fffffffffffffffffffffffffffffffffffffffffffffffffffffffffffffffff0483118215151615611ec057611ebf611c1a565b5b828202905092915050565b7f5374616b696e673a2043616e6e6f74207769746864726177206d6f726520746860008201527f616e20796f752068617665207374616b65640000000000000000000000000000602082015250565b6000611f27603283611802565b9150611f3282611ecb565b604082019050919050565b60006020820190508181036000830152611f5681611f1a565b905091905056fea26469706673582212203161f5c2898934c172528e0acffbda4dbcec1129217549928e23c005ca3b0f4164736f6c634300080a0033",
  "linkReferences": {},
  "deployedLinkReferences": {}
}