{
  "_format": "hh-sol-artifact-1",
  "contractName": "Staking",
  "sourceName": "contracts/Staking.sol",
  "abi": [
    {
      "inputs": [],
      "stateMutability": "nonpayable",
      "type": "constructor"
    },
    {
      "anonymous": false,
      "inputs": [
        {
          "indexed": true,
          "internalType": "address",
          "name": "user",
          "type": "address"
        },
        {
          "indexed": false,
          "internalType": "uint256",
          "name": "amount",
          "type": "uint256"
        },
        {
          "indexed": false,
          "internalType": "uint256",
          "name": "index",
          "type": "uint256"
        },
        {
          "indexed": false,
          "internalType": "uint256",
          "name": "timestamp",
          "type": "uint256"
        }
      ],
      "name": "Staked",
      "type": "event"
    },
    {
      "inputs": [
        {
          "internalType": "address",
          "name": "_staker",
          "type": "address"
        }
      ],
      "name": "hasStake",
      "outputs": [
        {
          "internalType": "uint256",
          "name": "",
          "type": "uint256"
        }
      ],
      "stateMutability": "view",
      "type": "function"
    },
    {
      "inputs": [
        {
          "internalType": "uint256",
          "name": "",
          "type": "uint256"
        }
      ],
      "name": "stakeholders",
      "outputs": [
        {
          "internalType": "address",
          "name": "user",
          "type": "address"
        }
      ],
      "stateMutability": "view",
      "type": "function"
    },
    {
      "inputs": [],
      "name": "total_amount_stacked",
      "outputs": [
        {
          "internalType": "uint256",
          "name": "",
          "type": "uint256"
        }
      ],
      "stateMutability": "view",
      "type": "function"
    }
  ],
  "bytecode": "0x60806040526103e8600055600060035534801561001b57600080fd5b5060018081600181540180825580915050039060005260206000209050506106a2806100486000396000f3fe608060405234801561001057600080fd5b50600436106100415760003560e01c80631d6b8b721461004657806367d759fb14610076578063e73e14bf14610094575b600080fd5b610060600480360381019061005b91906103be565b6100c4565b60405161006d919061042c565b60405180910390f35b61007e610112565b60405161008b9190610456565b60405180910390f35b6100ae60048036038101906100a9919061049d565b610118565b6040516100bb9190610456565b60405180910390f35b600181815481106100d457600080fd5b90600052602060002090600202016000915090508060000160009054906101000a900473ffffffffffffffffffffffffffffffffffffffff16905081565b60035481565b60008060006040518060400160405280600081526020016001600260008873ffffffffffffffffffffffffffffffffffffffff1673ffffffffffffffffffffffffffffffffffffffff1681526020019081526020016000205481548110610182576101816104ca565b5b9060005260206000209060020201600101805480602002602001604051908101604052809291908181526020016000905b8282101561025957838290600052602060002090600402016040518060800160405290816000820160009054906101000a900473ffffffffffffffffffffffffffffffffffffffff1673ffffffffffffffffffffffffffffffffffffffff1673ffffffffffffffffffffffffffffffffffffffff1681526020016001820154815260200160028201548152602001600382015481525050815260200190600101906101b3565b50505050815250905060005b8160200151518110156103315760006102c28360200151838151811061028e5761028d6104ca565b5b602002602001015160400151846020015184815181106102b1576102b06104ca565b5b60200260200101516020015161034a565b905080836020015183815181106102dc576102db6104ca565b5b6020026020010151606001818152505082602001518281518110610303576103026104ca565b5b6020026020010151606001518461031a9190610528565b93505060018161032a9190610528565b9050610265565b5081816000018181525050806000015192505050919050565b6000805482603c854261035d919061057e565b61036791906105e1565b6103719190610612565b61037b91906105e1565b905092915050565b600080fd5b6000819050919050565b61039b81610388565b81146103a657600080fd5b50565b6000813590506103b881610392565b92915050565b6000602082840312156103d4576103d3610383565b5b60006103e2848285016103a9565b91505092915050565b600073ffffffffffffffffffffffffffffffffffffffff82169050919050565b6000610416826103eb565b9050919050565b6104268161040b565b82525050565b6000602082019050610441600083018461041d565b92915050565b61045081610388565b82525050565b600060208201905061046b6000830184610447565b92915050565b61047a8161040b565b811461048557600080fd5b50565b60008135905061049781610471565b92915050565b6000602082840312156104b3576104b2610383565b5b60006104c184828501610488565b91505092915050565b7f4e487b7100000000000000000000000000000000000000000000000000000000600052603260045260246000fd5b7f4e487b7100000000000000000000000000000000000000000000000000000000600052601160045260246000fd5b600061053382610388565b915061053e83610388565b9250827fffffffffffffffffffffffffffffffffffffffffffffffffffffffffffffffff03821115610573576105726104f9565b5b828201905092915050565b600061058982610388565b915061059483610388565b9250828210156105a7576105a66104f9565b5b828203905092915050565b7f4e487b7100000000000000000000000000000000000000000000000000000000600052601260045260246000fd5b60006105ec82610388565b91506105f783610388565b925082610607576106066105b2565b5b828204905092915050565b600061061d82610388565b915061062883610388565b9250817fffffffffffffffffffffffffffffffffffffffffffffffffffffffffffffffff0483118215151615610661576106606104f9565b5b82820290509291505056fea264697066735822122018585feb2d450766942e7135c60c3aed7a04063b94218e81f221067f19504e1364736f6c634300080a0033",
  "linkReferences": {},
  "deployedLinkReferences": {}
}