{
  "_format": "hh-sol-artifact-1",
  "contractName": "Staking",
  "sourceName": "contracts/Staking.sol",
  "abi": [
    {
      "inputs": [],
      "stateMutability": "nonpayable",
      "type": "constructor"
    },
    {
      "anonymous": false,
      "inputs": [
        {
          "indexed": true,
          "internalType": "address",
          "name": "user",
          "type": "address"
        },
        {
          "indexed": false,
          "internalType": "uint256",
          "name": "amount",
          "type": "uint256"
        },
        {
          "indexed": false,
          "internalType": "uint256",
          "name": "index",
          "type": "uint256"
        },
        {
          "indexed": false,
          "internalType": "uint256",
          "name": "timestamp",
          "type": "uint256"
        }
      ],
      "name": "Staked",
      "type": "event"
    },
    {
      "inputs": [
        {
          "internalType": "uint256",
          "name": "since",
          "type": "uint256"
        },
        {
          "internalType": "uint256",
          "name": "amount",
          "type": "uint256"
        }
      ],
      "name": "calculateStakeReward",
      "outputs": [
        {
          "internalType": "uint256",
          "name": "",
          "type": "uint256"
        }
      ],
      "stateMutability": "view",
      "type": "function"
    },
    {
      "inputs": [
        {
          "internalType": "address",
          "name": "_staker",
          "type": "address"
        }
      ],
      "name": "hasStake",
      "outputs": [
        {
          "internalType": "uint256",
          "name": "",
          "type": "uint256"
        }
      ],
      "stateMutability": "view",
      "type": "function"
    },
    {
      "inputs": [
        {
          "internalType": "uint256",
          "name": "",
          "type": "uint256"
        }
      ],
      "name": "stakeholders",
      "outputs": [
        {
          "internalType": "address",
          "name": "user",
          "type": "address"
        }
      ],
      "stateMutability": "view",
      "type": "function"
    },
    {
      "inputs": [],
      "name": "total_amount_stacked",
      "outputs": [
        {
          "internalType": "uint256",
          "name": "",
          "type": "uint256"
        }
      ],
      "stateMutability": "view",
      "type": "function"
    }
  ],
  "bytecode": "0x60806040526103e8600055600060035534801561001b57600080fd5b50600180816001815401808255809150500390600052602060002090505061071d806100486000396000f3fe608060405234801561001057600080fd5b506004361061004c5760003560e01c80631d6b8b72146100515780633eb0db3b1461008157806367d759fb146100b1578063e73e14bf146100cf575b600080fd5b61006b600480360381019061006691906103f9565b6100ff565b6040516100789190610467565b60405180910390f35b61009b60048036038101906100969190610482565b61014d565b6040516100a891906104d1565b60405180910390f35b6100b9610186565b6040516100c691906104d1565b60405180910390f35b6100e960048036038101906100e49190610518565b61018c565b6040516100f691906104d1565b60405180910390f35b6001818154811061010f57600080fd5b90600052602060002090600202016000915090508060000160009054906101000a900473ffffffffffffffffffffffffffffffffffffffff16905081565b6000805482603c85426101609190610574565b61016a91906105d7565b6101749190610608565b61017e91906105d7565b905092915050565b60035481565b60008060006040518060400160405280600081526020016001600260008873ffffffffffffffffffffffffffffffffffffffff1673ffffffffffffffffffffffffffffffffffffffff16815260200190815260200160002054815481106101f6576101f5610662565b5b9060005260206000209060020201600101805480602002602001604051908101604052809291908181526020016000905b828210156102cd57838290600052602060002090600402016040518060800160405290816000820160009054906101000a900473ffffffffffffffffffffffffffffffffffffffff1673ffffffffffffffffffffffffffffffffffffffff1673ffffffffffffffffffffffffffffffffffffffff168152602001600182015481526020016002820154815260200160038201548152505081526020019060010190610227565b50505050815250905060005b8160200151518110156103a55760006103368360200151838151811061030257610301610662565b5b6020026020010151604001518460200151848151811061032557610324610662565b5b60200260200101516020015161014d565b905080836020015183815181106103505761034f610662565b5b602002602001015160600181815250508260200151828151811061037757610376610662565b5b6020026020010151606001518461038e9190610691565b93505060018161039e9190610691565b90506102d9565b5081816000018181525050806000015192505050919050565b600080fd5b6000819050919050565b6103d6816103c3565b81146103e157600080fd5b50565b6000813590506103f3816103cd565b92915050565b60006020828403121561040f5761040e6103be565b5b600061041d848285016103e4565b91505092915050565b600073ffffffffffffffffffffffffffffffffffffffff82169050919050565b600061045182610426565b9050919050565b61046181610446565b82525050565b600060208201905061047c6000830184610458565b92915050565b60008060408385031215610499576104986103be565b5b60006104a7858286016103e4565b92505060206104b8858286016103e4565b9150509250929050565b6104cb816103c3565b82525050565b60006020820190506104e660008301846104c2565b92915050565b6104f581610446565b811461050057600080fd5b50565b600081359050610512816104ec565b92915050565b60006020828403121561052e5761052d6103be565b5b600061053c84828501610503565b91505092915050565b7f4e487b7100000000000000000000000000000000000000000000000000000000600052601160045260246000fd5b600061057f826103c3565b915061058a836103c3565b92508282101561059d5761059c610545565b5b828203905092915050565b7f4e487b7100000000000000000000000000000000000000000000000000000000600052601260045260246000fd5b60006105e2826103c3565b91506105ed836103c3565b9250826105fd576105fc6105a8565b5b828204905092915050565b6000610613826103c3565b915061061e836103c3565b9250817fffffffffffffffffffffffffffffffffffffffffffffffffffffffffffffffff048311821515161561065757610656610545565b5b828202905092915050565b7f4e487b7100000000000000000000000000000000000000000000000000000000600052603260045260246000fd5b600061069c826103c3565b91506106a7836103c3565b9250827fffffffffffffffffffffffffffffffffffffffffffffffffffffffffffffffff038211156106dc576106db610545565b5b82820190509291505056fea26469706673582212207247bf68eb5d3516fe07e395825367886bca82b5966c1e13c3addc54d73905b264736f6c634300080a0033",
  "linkReferences": {},
  "deployedLinkReferences": {}
}