{
  "_format": "hh-sol-artifact-1",
  "contractName": "Staking",
  "sourceName": "contracts/Staking.sol",
  "abi": [
    {
      "inputs": [],
      "stateMutability": "nonpayable",
      "type": "constructor"
    },
    {
      "anonymous": false,
      "inputs": [
        {
          "indexed": true,
          "internalType": "address",
          "name": "user",
          "type": "address"
        },
        {
          "indexed": false,
          "internalType": "uint256",
          "name": "amount",
          "type": "uint256"
        },
        {
          "indexed": false,
          "internalType": "uint256",
          "name": "index",
          "type": "uint256"
        },
        {
          "indexed": false,
          "internalType": "uint256",
          "name": "timestamp",
          "type": "uint256"
        }
      ],
      "name": "Staked",
      "type": "event"
    },
    {
      "inputs": [
        {
          "internalType": "uint256",
          "name": "since",
          "type": "uint256"
        },
        {
          "internalType": "uint256",
          "name": "amount",
          "type": "uint256"
        }
      ],
      "name": "calculateStakeReward",
      "outputs": [
        {
          "internalType": "uint256",
          "name": "",
          "type": "uint256"
        }
      ],
      "stateMutability": "view",
      "type": "function"
    },
    {
      "inputs": [
        {
          "internalType": "address",
          "name": "_staker",
          "type": "address"
        }
      ],
      "name": "hasStake",
      "outputs": [
        {
          "internalType": "uint256",
          "name": "",
          "type": "uint256"
        }
      ],
      "stateMutability": "view",
      "type": "function"
    },
    {
      "inputs": [
        {
          "internalType": "uint256",
          "name": "",
          "type": "uint256"
        }
      ],
      "name": "stakeholders",
      "outputs": [
        {
          "internalType": "address",
          "name": "user",
          "type": "address"
        }
      ],
      "stateMutability": "view",
      "type": "function"
    },
    {
      "inputs": [],
      "name": "total_amount_stacked",
      "outputs": [
        {
          "internalType": "uint256",
          "name": "",
          "type": "uint256"
        }
      ],
      "stateMutability": "view",
      "type": "function"
    }
  ],
  "bytecode": "0x60806040526103e8600055600060035534801561001b57600080fd5b5060018081600181540180825580915050039060005260206000209050506106d6806100486000396000f3fe608060405234801561001057600080fd5b506004361061004c5760003560e01c80631d6b8b72146100515780633eb0db3b1461008157806367d759fb146100b1578063e73e14bf146100cf575b600080fd5b61006b600480360381019061006691906103b2565b6100ff565b6040516100789190610420565b60405180910390f35b61009b6004803603810190610096919061043b565b61014d565b6040516100a8919061048a565b60405180910390f35b6100b9610186565b6040516100c6919061048a565b60405180910390f35b6100e960048036038101906100e491906104d1565b61018c565b6040516100f6919061048a565b60405180910390f35b6001818154811061010f57600080fd5b90600052602060002090600202016000915090508060000160009054906101000a900473ffffffffffffffffffffffffffffffffffffffff16905081565b6000805482603c8542610160919061052d565b61016a9190610590565b61017491906105c1565b61017e9190610590565b905092915050565b60035481565b60008060006040518060400160405280600081526020016001600260008873ffffffffffffffffffffffffffffffffffffffff1673ffffffffffffffffffffffffffffffffffffffff16815260200190815260200160002054815481106101f6576101f561061b565b5b9060005260206000209060020201600101805480602002602001604051908101604052809291908181526020016000905b828210156102de57838290600052602060002090600402016040518060800160405290816000820160009054906101000a900473ffffffffffffffffffffffffffffffffffffffff1673ffffffffffffffffffffffffffffffffffffffff1673ffffffffffffffffffffffffffffffffffffffff16815260200160018201548152602001600282015481526020016003820160009054906101000a900460ff16151515158152505081526020019060010190610227565b50505050815250905060005b81602001515181101561035e576000610347836020015183815181106103135761031261061b565b5b602002602001015160400151846020015184815181106103365761033561061b565b5b60200260200101516020015161014d565b905050600181610357919061064a565b90506102ea565b5081816000018181525050806000015192505050919050565b600080fd5b6000819050919050565b61038f8161037c565b811461039a57600080fd5b50565b6000813590506103ac81610386565b92915050565b6000602082840312156103c8576103c7610377565b5b60006103d68482850161039d565b91505092915050565b600073ffffffffffffffffffffffffffffffffffffffff82169050919050565b600061040a826103df565b9050919050565b61041a816103ff565b82525050565b60006020820190506104356000830184610411565b92915050565b6000806040838503121561045257610451610377565b5b60006104608582860161039d565b92505060206104718582860161039d565b9150509250929050565b6104848161037c565b82525050565b600060208201905061049f600083018461047b565b92915050565b6104ae816103ff565b81146104b957600080fd5b50565b6000813590506104cb816104a5565b92915050565b6000602082840312156104e7576104e6610377565b5b60006104f5848285016104bc565b91505092915050565b7f4e487b7100000000000000000000000000000000000000000000000000000000600052601160045260246000fd5b60006105388261037c565b91506105438361037c565b925082821015610556576105556104fe565b5b828203905092915050565b7f4e487b7100000000000000000000000000000000000000000000000000000000600052601260045260246000fd5b600061059b8261037c565b91506105a68361037c565b9250826105b6576105b5610561565b5b828204905092915050565b60006105cc8261037c565b91506105d78361037c565b9250817fffffffffffffffffffffffffffffffffffffffffffffffffffffffffffffffff04831182151516156106105761060f6104fe565b5b828202905092915050565b7f4e487b7100000000000000000000000000000000000000000000000000000000600052603260045260246000fd5b60006106558261037c565b91506106608361037c565b9250827fffffffffffffffffffffffffffffffffffffffffffffffffffffffffffffffff03821115610695576106946104fe565b5b82820190509291505056fea2646970667358221220d1e7d0f7d02b8990fd7bc0bc8d018bc38a88f2011d27b4d1605cbc74e733bcc664736f6c634300080a0033",
  "linkReferences": {},
  "deployedLinkReferences": {}
}