{
  "_format": "hh-sol-artifact-1",
  "contractName": "CPAMM",
  "sourceName": "contracts/CPAMM.sol",
  "abi": [
    {
      "inputs": [
        {
          "internalType": "address",
          "name": "_token",
          "type": "address"
        }
      ],
      "stateMutability": "nonpayable",
      "type": "constructor"
    },
    {
      "anonymous": false,
      "inputs": [
        {
          "indexed": true,
          "internalType": "address",
          "name": "user",
          "type": "address"
        },
        {
          "indexed": false,
          "internalType": "uint256",
          "name": "amount",
          "type": "uint256"
        },
        {
          "indexed": false,
          "internalType": "uint256",
          "name": "index",
          "type": "uint256"
        },
        {
          "indexed": false,
          "internalType": "uint256",
          "name": "timestamp",
          "type": "uint256"
        }
      ],
      "name": "Staked",
      "type": "event"
    },
    {
      "inputs": [],
      "name": "GMS",
      "outputs": [
        {
          "internalType": "contract IERC20",
          "name": "",
          "type": "address"
        }
      ],
      "stateMutability": "view",
      "type": "function"
    },
    {
      "inputs": [
        {
          "internalType": "uint256",
          "name": "amountGMS",
          "type": "uint256"
        },
        {
          "internalType": "uint256",
          "name": "amountETH",
          "type": "uint256"
        }
      ],
      "name": "addLiquidity",
      "outputs": [
        {
          "internalType": "uint256",
          "name": "shares",
          "type": "uint256"
        }
      ],
      "stateMutability": "payable",
      "type": "function"
    },
    {
      "inputs": [
        {
          "internalType": "address",
          "name": "",
          "type": "address"
        }
      ],
      "name": "balanceOf",
      "outputs": [
        {
          "internalType": "uint256",
          "name": "",
          "type": "uint256"
        }
      ],
      "stateMutability": "view",
      "type": "function"
    },
    {
      "inputs": [
        {
          "internalType": "uint256",
          "name": "since",
          "type": "uint256"
        },
        {
          "internalType": "uint256",
          "name": "amount",
          "type": "uint256"
        }
      ],
      "name": "calculateStakeReward",
      "outputs": [
        {
          "internalType": "uint256",
          "name": "",
          "type": "uint256"
        }
      ],
      "stateMutability": "view",
      "type": "function"
    },
    {
      "inputs": [
        {
          "internalType": "address",
          "name": "adr",
          "type": "address"
        }
      ],
      "name": "getSummary",
      "outputs": [
        {
          "internalType": "uint256",
          "name": "",
          "type": "uint256"
        }
      ],
      "stateMutability": "view",
      "type": "function"
    },
    {
      "inputs": [],
      "name": "getTotalStakes",
      "outputs": [
        {
          "internalType": "uint256",
          "name": "",
          "type": "uint256"
        }
      ],
      "stateMutability": "view",
      "type": "function"
    },
    {
      "inputs": [
        {
          "internalType": "address",
          "name": "adr",
          "type": "address"
        }
      ],
      "name": "getUserStakes",
      "outputs": [
        {
          "components": [
            {
              "internalType": "address",
              "name": "user",
              "type": "address"
            },
            {
              "internalType": "uint256",
              "name": "amount",
              "type": "uint256"
            },
            {
              "internalType": "uint256",
              "name": "since",
              "type": "uint256"
            },
            {
              "internalType": "bool",
              "name": "claimable",
              "type": "bool"
            },
            {
              "internalType": "uint256",
              "name": "id",
              "type": "uint256"
            }
          ],
          "internalType": "struct Staking.Stake[]",
          "name": "",
          "type": "tuple[]"
        }
      ],
      "stateMutability": "view",
      "type": "function"
    },
    {
      "inputs": [
        {
          "internalType": "address",
          "name": "_staker",
          "type": "address"
        }
      ],
      "name": "hasStake",
      "outputs": [
        {
          "internalType": "uint256",
          "name": "",
          "type": "uint256"
        }
      ],
      "stateMutability": "view",
      "type": "function"
    },
    {
      "inputs": [
        {
          "internalType": "uint256",
          "name": "_shares",
          "type": "uint256"
        }
      ],
      "name": "removeLiquidity",
      "outputs": [
        {
          "internalType": "uint256",
          "name": "amountGMS",
          "type": "uint256"
        },
        {
          "internalType": "uint256",
          "name": "amountETH",
          "type": "uint256"
        }
      ],
      "stateMutability": "nonpayable",
      "type": "function"
    },
    {
      "inputs": [],
      "name": "reserve_ETH",
      "outputs": [
        {
          "internalType": "uint256",
          "name": "",
          "type": "uint256"
        }
      ],
      "stateMutability": "view",
      "type": "function"
    },
    {
      "inputs": [],
      "name": "reserve_GMS",
      "outputs": [
        {
          "internalType": "uint256",
          "name": "",
          "type": "uint256"
        }
      ],
      "stateMutability": "view",
      "type": "function"
    },
    {
      "inputs": [
        {
          "internalType": "uint256",
          "name": "_amount",
          "type": "uint256"
        },
        {
          "internalType": "uint256",
          "name": "id",
          "type": "uint256"
        }
      ],
      "name": "stake",
      "outputs": [],
      "stateMutability": "nonpayable",
      "type": "function"
    },
    {
      "inputs": [
        {
          "internalType": "uint256",
          "name": "",
          "type": "uint256"
        }
      ],
      "name": "stakeholders",
      "outputs": [
        {
          "internalType": "address",
          "name": "user",
          "type": "address"
        }
      ],
      "stateMutability": "view",
      "type": "function"
    },
    {
      "inputs": [
        {
          "internalType": "address",
          "name": "tokenIn",
          "type": "address"
        },
        {
          "internalType": "uint256",
          "name": "amountIn",
          "type": "uint256"
        }
      ],
      "name": "swap",
      "outputs": [
        {
          "internalType": "uint256",
          "name": "amountOut",
          "type": "uint256"
        }
      ],
      "stateMutability": "payable",
      "type": "function"
    },
    {
      "inputs": [],
      "name": "totalSupply",
      "outputs": [
        {
          "internalType": "uint256",
          "name": "",
          "type": "uint256"
        }
      ],
      "stateMutability": "view",
      "type": "function"
    },
    {
      "inputs": [],
      "name": "total_amount_stacked",
      "outputs": [
        {
          "internalType": "uint256",
          "name": "",
          "type": "uint256"
        }
      ],
      "stateMutability": "view",
      "type": "function"
    },
    {
      "inputs": [
        {
          "internalType": "uint256",
          "name": "initialAmount",
          "type": "uint256"
        },
        {
          "internalType": "uint256",
          "name": "_amount",
          "type": "uint256"
        },
        {
          "internalType": "address",
          "name": "adr",
          "type": "address"
        },
        {
          "internalType": "uint256",
          "name": "id",
          "type": "uint256"
        }
      ],
      "name": "withdrawStake",
      "outputs": [],
      "stateMutability": "nonpayable",
      "type": "function"
    },
    {
      "stateMutability": "payable",
      "type": "receive"
    }
  ],
  "bytecode": "0x60a06040526103e8600055600060015560006004553480156200002157600080fd5b50604051620029e2380380620029e283398181016040528101906200004791906200010a565b6002600181600181540180825580915050039060005260206000209050508073ffffffffffffffffffffffffffffffffffffffff1660808173ffffffffffffffffffffffffffffffffffffffff1681525050506200013c565b600080fd5b600073ffffffffffffffffffffffffffffffffffffffff82169050919050565b6000620000d282620000a5565b9050919050565b620000e481620000c5565b8114620000f057600080fd5b50565b6000815190506200010481620000d9565b92915050565b600060208284031215620001235762000122620000a0565b5b60006200013384828501620000f3565b91505092915050565b6080516128446200019e600039600081816105af0152818161096001528181610aa201528181610c4501528181610ebf01528181610f7301528181610fdd01528181611034015281816112af01528181611399015261144e01526128446000f3fe6080604052600436106101025760003560e01c80637b0472f0116100955780639cd441da116100645780639cd441da1461037b578063ab394176146103ab578063d004f0f7146103d6578063e73e14bf14610406578063f5ef2deb1461044357610109565b80637b0472f0146102ac578063842e2981146102d5578063988d2294146103125780639c8f9f231461033d57610109565b80633f733e48116100d15780633f733e48146101dc57806367d759fb1461021957806368c336271461024457806370a082311461026f57610109565b8063118499da1461010e57806318160ddd146101375780631d6b8b72146101625780633eb0db3b1461019f57610109565b3661010957005b600080fd5b34801561011a57600080fd5b5061013560048036038101906101309190611d8d565b61046e565b005b34801561014357600080fd5b5061014c610642565b6040516101599190611e03565b60405180910390f35b34801561016e57600080fd5b5061018960048036038101906101849190611e1e565b610648565b6040516101969190611e5a565b60405180910390f35b3480156101ab57600080fd5b506101c660048036038101906101c19190611e75565b610696565b6040516101d39190611e03565b60405180910390f35b3480156101e857600080fd5b5061020360048036038101906101fe9190611eb5565b6106cf565b6040516102109190611e03565b60405180910390f35b34801561022557600080fd5b5061022e6106e6565b60405161023b9190611e03565b60405180910390f35b34801561025057600080fd5b506102596106ec565b6040516102669190611e03565b60405180910390f35b34801561027b57600080fd5b5061029660048036038101906102919190611eb5565b6106f6565b6040516102a39190611e03565b60405180910390f35b3480156102b857600080fd5b506102d360048036038101906102ce9190611e75565b61070e565b005b3480156102e157600080fd5b506102fc60048036038101906102f79190611eb5565b6107f5565b6040516103099190612032565b60405180910390f35b34801561031e57600080fd5b50610327610953565b6040516103349190611e03565b60405180910390f35b34801561034957600080fd5b50610364600480360381019061035f9190611e1e565b610959565b604051610372929190612054565b60405180910390f35b61039560048036038101906103909190611e75565b610bf3565b6040516103a29190611e03565b60405180910390f35b3480156103b757600080fd5b506103c0610f71565b6040516103cd91906120dc565b60405180910390f35b6103f060048036038101906103eb91906120f7565b610f95565b6040516103fd9190611e03565b60405180910390f35b34801561041257600080fd5b5061042d60048036038101906104289190611eb5565b611502565b60405161043a9190611e03565b60405180910390f35b34801561044f57600080fd5b506104586116f7565b6040516104659190611e03565b60405180910390f35b6000600360008473ffffffffffffffffffffffffffffffffffffffff1673ffffffffffffffffffffffffffffffffffffffff1681526020019081526020016000205490506104f16040518060400160405280600781526020017f696e6465783a2000000000000000000000000000000000000000000000000000815250826116fd565b60006002828154811061050757610506612137565b5b9060005260206000209060020201600101838154811061052a57610529612137565b5b9060005260206000209060050201905060008160030160006101000a81548160ff02191690831515021790555085600860008673ffffffffffffffffffffffffffffffffffffffff1673ffffffffffffffffffffffffffffffffffffffff16815260200190815260200160002060008282546105a69190612195565b925050819055507f000000000000000000000000000000000000000000000000000000000000000073ffffffffffffffffffffffffffffffffffffffff1663e22f9ea633876040518363ffffffff1660e01b81526004016106089291906121eb565b600060405180830381600087803b15801561062257600080fd5b505af1158015610636573d6000803e3d6000fd5b50505050505050505050565b60075481565b6002818154811061065857600080fd5b90600052602060002090600202016000915090508060000160009054906101000a900473ffffffffffffffffffffffffffffffffffffffff16905081565b6000805482603c85426106a99190612214565b6106b39190612277565b6106bd91906122a8565b6106c79190612277565b905092915050565b6000806106db83611502565b905080915050919050565b60045481565b6000600154905090565b60086020528060005260406000206000915090505481565b600860003373ffffffffffffffffffffffffffffffffffffffff1673ffffffffffffffffffffffffffffffffffffffff16815260200190815260200160002054821115610790576040517f08c379a00000000000000000000000000000000000000000000000000000000081526004016107879061235f565b60405180910390fd5b61079b823383611799565b81600860003373ffffffffffffffffffffffffffffffffffffffff1673ffffffffffffffffffffffffffffffffffffffff16815260200190815260200160002060008282546107ea9190612214565b925050819055505050565b60606000600360008473ffffffffffffffffffffffffffffffffffffffff1673ffffffffffffffffffffffffffffffffffffffff16815260200190815260200160002054905060006002828154811061085157610850612137565b5b9060005260206000209060020201600101805480602002602001604051908101604052809291908181526020016000905b8282101561094357838290600052602060002090600502016040518060a00160405290816000820160009054906101000a900473ffffffffffffffffffffffffffffffffffffffff1673ffffffffffffffffffffffffffffffffffffffff1673ffffffffffffffffffffffffffffffffffffffff16815260200160018201548152602001600282015481526020016003820160009054906101000a900460ff1615151515815260200160048201548152505081526020019060010190610882565b5050505090508092505050919050565b60055481565b60008060007f000000000000000000000000000000000000000000000000000000000000000073ffffffffffffffffffffffffffffffffffffffff166370a08231306040518263ffffffff1660e01b81526004016109b79190611e5a565b602060405180830381865afa1580156109d4573d6000803e3d6000fd5b505050506040513d601f19601f820116820180604052508101906109f89190612394565b9050600060065490506007548286610a1091906122a8565b610a1a9190612277565b93506007548186610a2b91906122a8565b610a359190612277565b9250610a766040518060400160405280601681526020017f416d6f756e747420474d532077697468647265773a2000000000000000000000815250856116fd565b610a8033866119da565b610aa08483610a8f9190612214565b8483610a9b9190612214565b611a4d565b7f000000000000000000000000000000000000000000000000000000000000000073ffffffffffffffffffffffffffffffffffffffff1663a9059cbb33866040518363ffffffff1660e01b8152600401610afb9291906121eb565b6020604051808303816000875af1158015610b1a573d6000803e3d6000fd5b505050506040513d601f19601f82011682018060405250810190610b3e91906123ed565b5060003373ffffffffffffffffffffffffffffffffffffffff1684604051610b659061244b565b60006040518083038185875af1925050503d8060008114610ba2576040519150601f19603f3d011682016040523d82523d6000602084013e610ba7565b606091505b5050905080610beb576040517f08c379a0000000000000000000000000000000000000000000000000000000008152600401610be2906124ac565b60405180910390fd5b505050915091565b60008083118015610c045750600082115b610c43576040517f08c379a0000000000000000000000000000000000000000000000000000000008152600401610c3a90612518565b60405180910390fd5b7f000000000000000000000000000000000000000000000000000000000000000073ffffffffffffffffffffffffffffffffffffffff166323b872dd3330866040518463ffffffff1660e01b8152600401610ca093929190612538565b6020604051808303816000875af1158015610cbf573d6000803e3d6000fd5b505050506040513d601f19601f82011682018060405250810190610ce391906123ed565b5060003073ffffffffffffffffffffffffffffffffffffffff1683604051610d0a9061244b565b60006040518083038185875af1925050503d8060008114610d47576040519150601f19603f3d011682016040523d82523d6000602084013e610d4c565b606091505b5050905080610d90576040517f08c379a0000000000000000000000000000000000000000000000000000000008152600401610d87906124ac565b60405180910390fd5b6000600654118015610da457506000600554115b15610e065782600654610db791906122a8565b84600554610dc591906122a8565b14610e05576040517f08c379a0000000000000000000000000000000000000000000000000000000008152600401610dfc906125bb565b60405180910390fd5b5b60006007541415610e2c57610e258385610e2091906122a8565b611add565b9150610e6d565b610e6a60055460075486610e4091906122a8565b610e4a9190612277565b60065460075486610e5b91906122a8565b610e659190612277565b611b57565b91505b60008211610eb0576040517f08c379a0000000000000000000000000000000000000000000000000000000008152600401610ea790612627565b60405180910390fd5b610eba3383611b71565b610f6a7f000000000000000000000000000000000000000000000000000000000000000073ffffffffffffffffffffffffffffffffffffffff166370a08231306040518263ffffffff1660e01b8152600401610f169190611e5a565b602060405180830381865afa158015610f33573d6000803e3d6000fd5b505050506040513d601f19601f82011682018060405250810190610f579190612394565b60065485610f659190612195565b611a4d565b5092915050565b7f000000000000000000000000000000000000000000000000000000000000000081565b6000808211610fd9576040517f08c379a0000000000000000000000000000000000000000000000000000000008152600401610fd090612693565b60405180910390fd5b60007f000000000000000000000000000000000000000000000000000000000000000073ffffffffffffffffffffffffffffffffffffffff168473ffffffffffffffffffffffffffffffffffffffff1614905080156110d8577f000000000000000000000000000000000000000000000000000000000000000073ffffffffffffffffffffffffffffffffffffffff166323b872dd3330866040518463ffffffff1660e01b815260040161108f93929190612538565b6020604051808303816000875af11580156110ae573d6000803e3d6000fd5b505050506040513d601f19601f820116820180604052508101906110d291906123ed565b50611186565b60003073ffffffffffffffffffffffffffffffffffffffff16846040516110fe9061244b565b60006040518083038185875af1925050503d806000811461113b576040519150601f19603f3d011682016040523d82523d6000602084013e611140565b606091505b5050905080611184576040517f08c379a000000000000000000000000000000000000000000000000000000000815260040161117b906124ac565b60405180910390fd5b505b60006103e86103e58561119991906122a8565b6111a39190612277565b9050811561128557806005546111b99190612195565b816006546111c791906122a8565b6111d19190612277565b925060003373ffffffffffffffffffffffffffffffffffffffff16846040516111f99061244b565b60006040518083038185875af1925050503d8060008114611236576040519150601f19603f3d011682016040523d82523d6000602084013e61123b565b606091505b505090508061127f576040517f08c379a0000000000000000000000000000000000000000000000000000000008152600401611276906124ac565b60405180910390fd5b5061134f565b806006546112939190612195565b816005546112a191906122a8565b6112ab9190612277565b92507f000000000000000000000000000000000000000000000000000000000000000073ffffffffffffffffffffffffffffffffffffffff166323b872dd3033866040518463ffffffff1660e01b815260040161130a93929190612538565b6020604051808303816000875af1158015611329573d6000803e3d6000fd5b505050506040513d601f19601f8201168201806040525081019061134d91906123ed565b505b61138e6040518060400160405280600c81526020017f616d6f756e74206f75743a200000000000000000000000000000000000000000815250846116fd565b8115611449576114447f000000000000000000000000000000000000000000000000000000000000000073ffffffffffffffffffffffffffffffffffffffff166370a08231306040518263ffffffff1660e01b81526004016113f09190611e5a565b602060405180830381865afa15801561140d573d6000803e3d6000fd5b505050506040513d601f19601f820116820180604052508101906114319190612394565b8460065461143f9190612214565b611a4d565b6114fa565b6114f97f000000000000000000000000000000000000000000000000000000000000000073ffffffffffffffffffffffffffffffffffffffff166370a08231306040518263ffffffff1660e01b81526004016114a59190611e5a565b602060405180830381865afa1580156114c2573d6000803e3d6000fd5b505050506040513d601f19601f820116820180604052508101906114e69190612394565b856006546114f49190612195565b611a4d565b5b505092915050565b60008060006040518060400160405280600081526020016002600360008873ffffffffffffffffffffffffffffffffffffffff1673ffffffffffffffffffffffffffffffffffffffff168152602001908152602001600020548154811061156c5761156b612137565b5b9060005260206000209060020201600101805480602002602001604051908101604052809291908181526020016000905b8282101561165e57838290600052602060002090600502016040518060a00160405290816000820160009054906101000a900473ffffffffffffffffffffffffffffffffffffffff1673ffffffffffffffffffffffffffffffffffffffff1673ffffffffffffffffffffffffffffffffffffffff16815260200160018201548152602001600282015481526020016003820160009054906101000a900460ff161515151581526020016004820154815250508152602001906001019061159d565b50505050815250905060005b8160200151518110156116de5760006116c78360200151838151811061169357611692612137565b5b602002602001015160400151846020015184815181106116b6576116b5612137565b5b602002602001015160200151610696565b9050506001816116d79190612195565b905061166a565b5081816000018181525050806000015192505050919050565b60065481565b611795828260405160240161171392919061273b565b6040516020818303038152906040527f9710a9d0000000000000000000000000000000000000000000000000000000007bffffffffffffffffffffffffffffffffffffffffffffffffffffffff19166020820180517bffffffffffffffffffffffffffffffffffffffffffffffffffffffff8381831617835250505050611be4565b5050565b600083116117dc576040517f08c379a00000000000000000000000000000000000000000000000000000000081526004016117d3906127b7565b60405180910390fd5b6000600360008473ffffffffffffffffffffffffffffffffffffffff1673ffffffffffffffffffffffffffffffffffffffff1681526020019081526020016000205490506000429050600082141561183a5761183784611c0d565b91505b6002828154811061184e5761184d612137565b5b90600052602060002090600202016001016040518060a001604052808673ffffffffffffffffffffffffffffffffffffffff16815260200187815260200183815260200160011515815260200185815250908060018154018082558091505060019003906000526020600020906005020160009091909190915060008201518160000160006101000a81548173ffffffffffffffffffffffffffffffffffffffff021916908373ffffffffffffffffffffffffffffffffffffffff160217905550602082015181600101556040820151816002015560608201518160030160006101000a81548160ff02191690831515021790555060808201518160040155505084600460008282546119619190612195565b92505081905550600180600082825461197a9190612195565b925050819055508373ffffffffffffffffffffffffffffffffffffffff167fb4caaf29adda3eefee3ad552a8e85058589bf834c7466cae4ee58787f70589ed8684846040516119cb939291906127d7565b60405180910390a25050505050565b80600860008473ffffffffffffffffffffffffffffffffffffffff1673ffffffffffffffffffffffffffffffffffffffff1681526020019081526020016000206000828254611a299190612214565b925050819055508060076000828254611a429190612214565b925050819055505050565b611a8c6040518060400160405280600881526020017f726573474d533a20000000000000000000000000000000000000000000000000815250836116fd565b611acb6040518060400160405280600881526020017f7265734554483a20000000000000000000000000000000000000000000000000815250826116fd565b81600581905550806006819055505050565b60006003821115611b445781905060006001600284611afc9190612277565b611b069190612195565b90505b81811015611b3e578091506002818285611b239190612277565b611b2d9190612195565b611b379190612277565b9050611b09565b50611b52565b60008214611b5157600190505b5b919050565b600081831115611b675781611b69565b825b905092915050565b80600860008473ffffffffffffffffffffffffffffffffffffffff1673ffffffffffffffffffffffffffffffffffffffff1681526020019081526020016000206000828254611bc09190612195565b925050819055508060076000828254611bd99190612195565b925050819055505050565b60008151905060006a636f6e736f6c652e6c6f679050602083016000808483855afa5050505050565b600060026001816001815401808255809150500390600052602060002090505060006001600280549050611c419190612214565b90508260028281548110611c5857611c57612137565b5b906000526020600020906002020160000160006101000a81548173ffffffffffffffffffffffffffffffffffffffff021916908373ffffffffffffffffffffffffffffffffffffffff16021790555080600360008573ffffffffffffffffffffffffffffffffffffffff1673ffffffffffffffffffffffffffffffffffffffff1681526020019081526020016000208190555080915050919050565b600080fd5b6000819050919050565b611d0c81611cf9565b8114611d1757600080fd5b50565b600081359050611d2981611d03565b92915050565b600073ffffffffffffffffffffffffffffffffffffffff82169050919050565b6000611d5a82611d2f565b9050919050565b611d6a81611d4f565b8114611d7557600080fd5b50565b600081359050611d8781611d61565b92915050565b60008060008060808587031215611da757611da6611cf4565b5b6000611db587828801611d1a565b9450506020611dc687828801611d1a565b9350506040611dd787828801611d78565b9250506060611de887828801611d1a565b91505092959194509250565b611dfd81611cf9565b82525050565b6000602082019050611e186000830184611df4565b92915050565b600060208284031215611e3457611e33611cf4565b5b6000611e4284828501611d1a565b91505092915050565b611e5481611d4f565b82525050565b6000602082019050611e6f6000830184611e4b565b92915050565b60008060408385031215611e8c57611e8b611cf4565b5b6000611e9a85828601611d1a565b9250506020611eab85828601611d1a565b9150509250929050565b600060208284031215611ecb57611eca611cf4565b5b6000611ed984828501611d78565b91505092915050565b600081519050919050565b600082825260208201905092915050565b6000819050602082019050919050565b611f1781611d4f565b82525050565b611f2681611cf9565b82525050565b60008115159050919050565b611f4181611f2c565b82525050565b60a082016000820151611f5d6000850182611f0e565b506020820151611f706020850182611f1d565b506040820151611f836040850182611f1d565b506060820151611f966060850182611f38565b506080820151611fa96080850182611f1d565b50505050565b6000611fbb8383611f47565b60a08301905092915050565b6000602082019050919050565b6000611fdf82611ee2565b611fe98185611eed565b9350611ff483611efe565b8060005b8381101561202557815161200c8882611faf565b975061201783611fc7565b925050600181019050611ff8565b5085935050505092915050565b6000602082019050818103600083015261204c8184611fd4565b905092915050565b60006040820190506120696000830185611df4565b6120766020830184611df4565b9392505050565b6000819050919050565b60006120a261209d61209884611d2f565b61207d565b611d2f565b9050919050565b60006120b482612087565b9050919050565b60006120c6826120a9565b9050919050565b6120d6816120bb565b82525050565b60006020820190506120f160008301846120cd565b92915050565b6000806040838503121561210e5761210d611cf4565b5b600061211c85828601611d78565b925050602061212d85828601611d1a565b9150509250929050565b7f4e487b7100000000000000000000000000000000000000000000000000000000600052603260045260246000fd5b7f4e487b7100000000000000000000000000000000000000000000000000000000600052601160045260246000fd5b60006121a082611cf9565b91506121ab83611cf9565b9250827fffffffffffffffffffffffffffffffffffffffffffffffffffffffffffffffff038211156121e0576121df612166565b5b828201905092915050565b60006040820190506122006000830185611e4b565b61220d6020830184611df4565b9392505050565b600061221f82611cf9565b915061222a83611cf9565b92508282101561223d5761223c612166565b5b828203905092915050565b7f4e487b7100000000000000000000000000000000000000000000000000000000600052601260045260246000fd5b600061228282611cf9565b915061228d83611cf9565b92508261229d5761229c612248565b5b828204905092915050565b60006122b382611cf9565b91506122be83611cf9565b9250817fffffffffffffffffffffffffffffffffffffffffffffffffffffffffffffffff04831182151516156122f7576122f6612166565b5b828202905092915050565b600082825260208201905092915050565b7f4e6f7420656e6f75676820746f6b656e73000000000000000000000000000000600082015250565b6000612349601183612302565b915061235482612313565b602082019050919050565b600060208201905081810360008301526123788161233c565b9050919050565b60008151905061238e81611d03565b92915050565b6000602082840312156123aa576123a9611cf4565b5b60006123b88482850161237f565b91505092915050565b6123ca81611f2c565b81146123d557600080fd5b50565b6000815190506123e7816123c1565b92915050565b60006020828403121561240357612402611cf4565b5b6000612411848285016123d8565b91505092915050565b600081905092915050565b50565b600061243560008361241a565b915061244082612425565b600082019050919050565b600061245682612428565b9150819050919050565b7f43616c6c206661696c6564000000000000000000000000000000000000000000600082015250565b6000612496600b83612302565b91506124a182612460565b602082019050919050565b600060208201905081810360008301526124c581612489565b9050919050565b7f4c657373205468616e2031000000000000000000000000000000000000000000600082015250565b6000612502600b83612302565b915061250d826124cc565b602082019050919050565b60006020820190508181036000830152612531816124f5565b9050919050565b600060608201905061254d6000830186611e4b565b61255a6020830185611e4b565b6125676040830184611df4565b949350505050565b7f78202f207920213d206478202f20647900000000000000000000000000000000600082015250565b60006125a5601083612302565b91506125b08261256f565b602082019050919050565b600060208201905081810360008301526125d481612598565b9050919050565b7f736861726573203d203000000000000000000000000000000000000000000000600082015250565b6000612611600a83612302565b915061261c826125db565b602082019050919050565b6000602082019050818103600083015261264081612604565b9050919050565b7f63616e27742073776170203020746f6b656e7300000000000000000000000000600082015250565b600061267d601383612302565b915061268882612647565b602082019050919050565b600060208201905081810360008301526126ac81612670565b9050919050565b600081519050919050565b60005b838110156126dc5780820151818401526020810190506126c1565b838111156126eb576000848401525b50505050565b6000601f19601f8301169050919050565b600061270d826126b3565b6127178185612302565b93506127278185602086016126be565b612730816126f1565b840191505092915050565b600060408201905081810360008301526127558185612702565b90506127646020830184611df4565b9392505050565b7f43616e6e6f74207374616b65206e6f7468696e67000000000000000000000000600082015250565b60006127a1601483612302565b91506127ac8261276b565b602082019050919050565b600060208201905081810360008301526127d081612794565b9050919050565b60006060820190506127ec6000830186611df4565b6127f96020830185611df4565b6128066040830184611df4565b94935050505056fea26469706673582212208bcf95a5d4ede5a054595f2272e7fd3923ab1f0a275f897cd78ffb9838ec698b64736f6c634300080a0033",
  "linkReferences": {},
  "deployedLinkReferences": {}
}