{
  "_format": "hh-sol-artifact-1",
  "contractName": "CPAMM",
  "sourceName": "contracts/CPAMM.sol",
  "abi": [
    {
      "inputs": [
        {
          "internalType": "address",
          "name": "_token",
          "type": "address"
        }
      ],
      "stateMutability": "nonpayable",
      "type": "constructor"
    },
    {
      "inputs": [],
      "name": "GMS",
      "outputs": [
        {
          "internalType": "contract IERC20",
          "name": "",
          "type": "address"
        }
      ],
      "stateMutability": "view",
      "type": "function"
    },
    {
      "inputs": [
        {
          "internalType": "uint256",
          "name": "amountGMS",
          "type": "uint256"
        },
        {
          "internalType": "uint256",
          "name": "amountETH",
          "type": "uint256"
        }
      ],
      "name": "addLiquidity",
      "outputs": [
        {
          "internalType": "uint256",
          "name": "shares",
          "type": "uint256"
        }
      ],
      "stateMutability": "payable",
      "type": "function"
    },
    {
      "inputs": [
        {
          "internalType": "address",
          "name": "",
          "type": "address"
        }
      ],
      "name": "balanceOf",
      "outputs": [
        {
          "internalType": "uint256",
          "name": "",
          "type": "uint256"
        }
      ],
      "stateMutability": "view",
      "type": "function"
    },
    {
      "inputs": [
        {
          "internalType": "uint256",
          "name": "_shares",
          "type": "uint256"
        }
      ],
      "name": "removeLiquidity",
      "outputs": [
        {
          "internalType": "uint256",
          "name": "amountGMS",
          "type": "uint256"
        },
        {
          "internalType": "uint256",
          "name": "amountETH",
          "type": "uint256"
        }
      ],
      "stateMutability": "nonpayable",
      "type": "function"
    },
    {
      "inputs": [],
      "name": "reserve_ETH",
      "outputs": [
        {
          "internalType": "uint256",
          "name": "",
          "type": "uint256"
        }
      ],
      "stateMutability": "view",
      "type": "function"
    },
    {
      "inputs": [],
      "name": "reserve_GMS",
      "outputs": [
        {
          "internalType": "uint256",
          "name": "",
          "type": "uint256"
        }
      ],
      "stateMutability": "view",
      "type": "function"
    },
    {
      "inputs": [
        {
          "internalType": "address",
          "name": "tokenIn",
          "type": "address"
        },
        {
          "internalType": "uint256",
          "name": "amountIn",
          "type": "uint256"
        }
      ],
      "name": "swap",
      "outputs": [
        {
          "internalType": "uint256",
          "name": "amountOut",
          "type": "uint256"
        }
      ],
      "stateMutability": "payable",
      "type": "function"
    },
    {
      "inputs": [],
      "name": "totalSupply",
      "outputs": [
        {
          "internalType": "uint256",
          "name": "",
          "type": "uint256"
        }
      ],
      "stateMutability": "view",
      "type": "function"
    },
    {
      "stateMutability": "payable",
      "type": "receive"
    }
  ],
  "bytecode": "0x60a06040523480156200001157600080fd5b5060405162001a2238038062001a228339818101604052810190620000379190620000dc565b8073ffffffffffffffffffffffffffffffffffffffff1660808173ffffffffffffffffffffffffffffffffffffffff1681525050506200010e565b600080fd5b600073ffffffffffffffffffffffffffffffffffffffff82169050919050565b6000620000a48262000077565b9050919050565b620000b68162000097565b8114620000c257600080fd5b50565b600081519050620000d681620000ab565b92915050565b600060208284031215620000f557620000f462000072565b5b60006200010584828501620000c5565b91505092915050565b6080516118b9620001696000396000818161023d01528181610340015281816104e30152818161075c015281816108100152818161087a015281816108d101528181610b4c01528181610c360152610ceb01526118b96000f3fe60806040526004361061007f5760003560e01c80639cd441da1161004e5780639cd441da1461015c578063ab3941761461018c578063d004f0f7146101b7578063f5ef2deb146101e757610086565b806318160ddd1461008b57806370a08231146100b6578063988d2294146100f35780639c8f9f231461011e57610086565b3661008657005b600080fd5b34801561009757600080fd5b506100a0610212565b6040516100ad919061108d565b60405180910390f35b3480156100c257600080fd5b506100dd60048036038101906100d8919061110b565b610218565b6040516100ea919061108d565b60405180910390f35b3480156100ff57600080fd5b50610108610230565b604051610115919061108d565b60405180910390f35b34801561012a57600080fd5b5061014560048036038101906101409190611164565b610236565b604051610153929190611191565b60405180910390f35b610176600480360381019061017191906111ba565b610491565b604051610183919061108d565b60405180910390f35b34801561019857600080fd5b506101a161080e565b6040516101ae9190611259565b60405180910390f35b6101d160048036038101906101cc9190611274565b610832565b6040516101de919061108d565b60405180910390f35b3480156101f357600080fd5b506101fc610d9f565b604051610209919061108d565b60405180910390f35b60025481565b60036020528060005260406000206000915090505481565b60005481565b60008060007f000000000000000000000000000000000000000000000000000000000000000073ffffffffffffffffffffffffffffffffffffffff166370a08231306040518263ffffffff1660e01b815260040161029491906112c3565b602060405180830381865afa1580156102b1573d6000803e3d6000fd5b505050506040513d601f19601f820116820180604052508101906102d591906112f3565b90506000600154905060025482866102ed919061134f565b6102f791906113d8565b93506002548186610308919061134f565b61031291906113d8565b925061031e3386610da5565b61033e848361032d9190611409565b84836103399190611409565b610e18565b7f000000000000000000000000000000000000000000000000000000000000000073ffffffffffffffffffffffffffffffffffffffff1663a9059cbb33866040518363ffffffff1660e01b815260040161039992919061143d565b6020604051808303816000875af11580156103b8573d6000803e3d6000fd5b505050506040513d601f19601f820116820180604052508101906103dc919061149e565b5060003373ffffffffffffffffffffffffffffffffffffffff1684604051610403906114fc565b60006040518083038185875af1925050503d8060008114610440576040519150601f19603f3d011682016040523d82523d6000602084013e610445565b606091505b5050905080610489576040517f08c379a00000000000000000000000000000000000000000000000000000000081526004016104809061156e565b60405180910390fd5b505050915091565b600080831180156104a25750600082115b6104e1576040517f08c379a00000000000000000000000000000000000000000000000000000000081526004016104d8906115da565b60405180910390fd5b7f000000000000000000000000000000000000000000000000000000000000000073ffffffffffffffffffffffffffffffffffffffff166323b872dd3330866040518463ffffffff1660e01b815260040161053e939291906115fa565b6020604051808303816000875af115801561055d573d6000803e3d6000fd5b505050506040513d601f19601f82011682018060405250810190610581919061149e565b5060003073ffffffffffffffffffffffffffffffffffffffff16836040516105a8906114fc565b60006040518083038185875af1925050503d80600081146105e5576040519150601f19603f3d011682016040523d82523d6000602084013e6105ea565b606091505b505090508061062e576040517f08c379a00000000000000000000000000000000000000000000000000000000081526004016106259061156e565b60405180910390fd5b6000600154118015610641575060008054115b156106a35782600154610654919061134f565b84600054610662919061134f565b146106a2576040517f08c379a00000000000000000000000000000000000000000000000000000000081526004016106999061167d565b60405180910390fd5b5b600060025414156106c9576106c283856106bd919061134f565b610ea8565b915061070a565b610707600054600254866106dd919061134f565b6106e791906113d8565b600154600254866106f8919061134f565b61070291906113d8565b610f22565b91505b6000821161074d576040517f08c379a0000000000000000000000000000000000000000000000000000000008152600401610744906116e9565b60405180910390fd5b6107573383610f3c565b6108077f000000000000000000000000000000000000000000000000000000000000000073ffffffffffffffffffffffffffffffffffffffff166370a08231306040518263ffffffff1660e01b81526004016107b391906112c3565b602060405180830381865afa1580156107d0573d6000803e3d6000fd5b505050506040513d601f19601f820116820180604052508101906107f491906112f3565b600154856108029190611709565b610e18565b5092915050565b7f000000000000000000000000000000000000000000000000000000000000000081565b6000808211610876576040517f08c379a000000000000000000000000000000000000000000000000000000000815260040161086d906117ab565b60405180910390fd5b60007f000000000000000000000000000000000000000000000000000000000000000073ffffffffffffffffffffffffffffffffffffffff168473ffffffffffffffffffffffffffffffffffffffff161490508015610975577f000000000000000000000000000000000000000000000000000000000000000073ffffffffffffffffffffffffffffffffffffffff166323b872dd3330866040518463ffffffff1660e01b815260040161092c939291906115fa565b6020604051808303816000875af115801561094b573d6000803e3d6000fd5b505050506040513d601f19601f8201168201806040525081019061096f919061149e565b50610a23565b60003073ffffffffffffffffffffffffffffffffffffffff168460405161099b906114fc565b60006040518083038185875af1925050503d80600081146109d8576040519150601f19603f3d011682016040523d82523d6000602084013e6109dd565b606091505b5050905080610a21576040517f08c379a0000000000000000000000000000000000000000000000000000000008152600401610a189061156e565b60405180910390fd5b505b60006103e86103e585610a36919061134f565b610a4091906113d8565b90508115610b225780600054610a569190611709565b81600154610a64919061134f565b610a6e91906113d8565b925060003373ffffffffffffffffffffffffffffffffffffffff1684604051610a96906114fc565b60006040518083038185875af1925050503d8060008114610ad3576040519150601f19603f3d011682016040523d82523d6000602084013e610ad8565b606091505b5050905080610b1c576040517f08c379a0000000000000000000000000000000000000000000000000000000008152600401610b139061156e565b60405180910390fd5b50610bec565b80600154610b309190611709565b81600054610b3e919061134f565b610b4891906113d8565b92507f000000000000000000000000000000000000000000000000000000000000000073ffffffffffffffffffffffffffffffffffffffff166323b872dd3033866040518463ffffffff1660e01b8152600401610ba7939291906115fa565b6020604051808303816000875af1158015610bc6573d6000803e3d6000fd5b505050506040513d601f19601f82011682018060405250810190610bea919061149e565b505b610c2b6040518060400160405280600c81526020017f616d6f756e74206f75743a20000000000000000000000000000000000000000081525084610faf565b8115610ce657610ce17f000000000000000000000000000000000000000000000000000000000000000073ffffffffffffffffffffffffffffffffffffffff166370a08231306040518263ffffffff1660e01b8152600401610c8d91906112c3565b602060405180830381865afa158015610caa573d6000803e3d6000fd5b505050506040513d601f19601f82011682018060405250810190610cce91906112f3565b84600154610cdc9190611409565b610e18565b610d97565b610d967f000000000000000000000000000000000000000000000000000000000000000073ffffffffffffffffffffffffffffffffffffffff166370a08231306040518263ffffffff1660e01b8152600401610d4291906112c3565b602060405180830381865afa158015610d5f573d6000803e3d6000fd5b505050506040513d601f19601f82011682018060405250810190610d8391906112f3565b85600154610d919190611709565b610e18565b5b505092915050565b60015481565b80600360008473ffffffffffffffffffffffffffffffffffffffff1673ffffffffffffffffffffffffffffffffffffffff1681526020019081526020016000206000828254610df49190611409565b925050819055508060026000828254610e0d9190611409565b925050819055505050565b610e576040518060400160405280600881526020017f726573474d533a2000000000000000000000000000000000000000000000000081525083610faf565b610e966040518060400160405280600881526020017f7265734554483a2000000000000000000000000000000000000000000000000081525082610faf565b81600081905550806001819055505050565b60006003821115610f0f5781905060006001600284610ec791906113d8565b610ed19190611709565b90505b81811015610f09578091506002818285610eee91906113d8565b610ef89190611709565b610f0291906113d8565b9050610ed4565b50610f1d565b60008214610f1c57600190505b5b919050565b600081831115610f325781610f34565b825b905092915050565b80600360008473ffffffffffffffffffffffffffffffffffffffff1673ffffffffffffffffffffffffffffffffffffffff1681526020019081526020016000206000828254610f8b9190611709565b925050819055508060026000828254610fa49190611709565b925050819055505050565b6110478282604051602401610fc5929190611853565b6040516020818303038152906040527f9710a9d0000000000000000000000000000000000000000000000000000000007bffffffffffffffffffffffffffffffffffffffffffffffffffffffff19166020820180517bffffffffffffffffffffffffffffffffffffffffffffffffffffffff838183161783525050505061104b565b5050565b60008151905060006a636f6e736f6c652e6c6f679050602083016000808483855afa5050505050565b6000819050919050565b61108781611074565b82525050565b60006020820190506110a2600083018461107e565b92915050565b600080fd5b600073ffffffffffffffffffffffffffffffffffffffff82169050919050565b60006110d8826110ad565b9050919050565b6110e8816110cd565b81146110f357600080fd5b50565b600081359050611105816110df565b92915050565b600060208284031215611121576111206110a8565b5b600061112f848285016110f6565b91505092915050565b61114181611074565b811461114c57600080fd5b50565b60008135905061115e81611138565b92915050565b60006020828403121561117a576111796110a8565b5b60006111888482850161114f565b91505092915050565b60006040820190506111a6600083018561107e565b6111b3602083018461107e565b9392505050565b600080604083850312156111d1576111d06110a8565b5b60006111df8582860161114f565b92505060206111f08582860161114f565b9150509250929050565b6000819050919050565b600061121f61121a611215846110ad565b6111fa565b6110ad565b9050919050565b600061123182611204565b9050919050565b600061124382611226565b9050919050565b61125381611238565b82525050565b600060208201905061126e600083018461124a565b92915050565b6000806040838503121561128b5761128a6110a8565b5b6000611299858286016110f6565b92505060206112aa8582860161114f565b9150509250929050565b6112bd816110cd565b82525050565b60006020820190506112d860008301846112b4565b92915050565b6000815190506112ed81611138565b92915050565b600060208284031215611309576113086110a8565b5b6000611317848285016112de565b91505092915050565b7f4e487b7100000000000000000000000000000000000000000000000000000000600052601160045260246000fd5b600061135a82611074565b915061136583611074565b9250817fffffffffffffffffffffffffffffffffffffffffffffffffffffffffffffffff048311821515161561139e5761139d611320565b5b828202905092915050565b7f4e487b7100000000000000000000000000000000000000000000000000000000600052601260045260246000fd5b60006113e382611074565b91506113ee83611074565b9250826113fe576113fd6113a9565b5b828204905092915050565b600061141482611074565b915061141f83611074565b92508282101561143257611431611320565b5b828203905092915050565b600060408201905061145260008301856112b4565b61145f602083018461107e565b9392505050565b60008115159050919050565b61147b81611466565b811461148657600080fd5b50565b60008151905061149881611472565b92915050565b6000602082840312156114b4576114b36110a8565b5b60006114c284828501611489565b91505092915050565b600081905092915050565b50565b60006114e66000836114cb565b91506114f1826114d6565b600082019050919050565b6000611507826114d9565b9150819050919050565b600082825260208201905092915050565b7f43616c6c206661696c6564000000000000000000000000000000000000000000600082015250565b6000611558600b83611511565b915061156382611522565b602082019050919050565b600060208201905081810360008301526115878161154b565b9050919050565b7f4c657373205468616e2031000000000000000000000000000000000000000000600082015250565b60006115c4600b83611511565b91506115cf8261158e565b602082019050919050565b600060208201905081810360008301526115f3816115b7565b9050919050565b600060608201905061160f60008301866112b4565b61161c60208301856112b4565b611629604083018461107e565b949350505050565b7f78202f207920213d206478202f20647900000000000000000000000000000000600082015250565b6000611667601083611511565b915061167282611631565b602082019050919050565b600060208201905081810360008301526116968161165a565b9050919050565b7f736861726573203d203000000000000000000000000000000000000000000000600082015250565b60006116d3600a83611511565b91506116de8261169d565b602082019050919050565b60006020820190508181036000830152611702816116c6565b9050919050565b600061171482611074565b915061171f83611074565b9250827fffffffffffffffffffffffffffffffffffffffffffffffffffffffffffffffff0382111561175457611753611320565b5b828201905092915050565b7f63616e27742073776170203020746f6b656e7300000000000000000000000000600082015250565b6000611795601383611511565b91506117a08261175f565b602082019050919050565b600060208201905081810360008301526117c481611788565b9050919050565b600081519050919050565b60005b838110156117f45780820151818401526020810190506117d9565b83811115611803576000848401525b50505050565b6000601f19601f8301169050919050565b6000611825826117cb565b61182f8185611511565b935061183f8185602086016117d6565b61184881611809565b840191505092915050565b6000604082019050818103600083015261186d818561181a565b905061187c602083018461107e565b939250505056fea2646970667358221220ec17c2356b2fa97c07461b796ba69214b6f43934f37990b10c275407a23c7c1d64736f6c634300080a0033",
  "linkReferences": {},
  "deployedLinkReferences": {}
}