{
  "_format": "hh-sol-artifact-1",
  "contractName": "CPAMM",
  "sourceName": "contracts/CPAMM.sol",
  "abi": [
    {
      "inputs": [
        {
          "internalType": "address",
          "name": "_token",
          "type": "address"
        }
      ],
      "stateMutability": "nonpayable",
      "type": "constructor"
    },
    {
      "anonymous": false,
      "inputs": [
        {
          "indexed": true,
          "internalType": "address",
          "name": "user",
          "type": "address"
        },
        {
          "indexed": false,
          "internalType": "uint256",
          "name": "amount",
          "type": "uint256"
        },
        {
          "indexed": false,
          "internalType": "uint256",
          "name": "index",
          "type": "uint256"
        },
        {
          "indexed": false,
          "internalType": "uint256",
          "name": "timestamp",
          "type": "uint256"
        }
      ],
      "name": "Staked",
      "type": "event"
    },
    {
      "inputs": [
        {
          "internalType": "address",
          "name": "",
          "type": "address"
        }
      ],
      "name": "EthAdded",
      "outputs": [
        {
          "internalType": "uint256",
          "name": "",
          "type": "uint256"
        }
      ],
      "stateMutability": "view",
      "type": "function"
    },
    {
      "inputs": [],
      "name": "GMS",
      "outputs": [
        {
          "internalType": "contract IERC20",
          "name": "",
          "type": "address"
        }
      ],
      "stateMutability": "view",
      "type": "function"
    },
    {
      "inputs": [
        {
          "internalType": "address",
          "name": "",
          "type": "address"
        }
      ],
      "name": "GmsAdded",
      "outputs": [
        {
          "internalType": "uint256",
          "name": "",
          "type": "uint256"
        }
      ],
      "stateMutability": "view",
      "type": "function"
    },
    {
      "inputs": [
        {
          "internalType": "uint256",
          "name": "amountGMS",
          "type": "uint256"
        },
        {
          "internalType": "uint256",
          "name": "amountETH",
          "type": "uint256"
        }
      ],
      "name": "addLiquidity",
      "outputs": [
        {
          "internalType": "uint256",
          "name": "shares",
          "type": "uint256"
        }
      ],
      "stateMutability": "payable",
      "type": "function"
    },
    {
      "inputs": [
        {
          "internalType": "address",
          "name": "",
          "type": "address"
        }
      ],
      "name": "balanceOf",
      "outputs": [
        {
          "internalType": "uint256",
          "name": "",
          "type": "uint256"
        }
      ],
      "stateMutability": "view",
      "type": "function"
    },
    {
      "inputs": [
        {
          "internalType": "uint256",
          "name": "since",
          "type": "uint256"
        },
        {
          "internalType": "uint256",
          "name": "amount",
          "type": "uint256"
        }
      ],
      "name": "calculateStakeReward",
      "outputs": [
        {
          "internalType": "uint256",
          "name": "",
          "type": "uint256"
        }
      ],
      "stateMutability": "view",
      "type": "function"
    },
    {
      "inputs": [
        {
          "internalType": "address",
          "name": "adr",
          "type": "address"
        }
      ],
      "name": "getSummary",
      "outputs": [
        {
          "internalType": "uint256",
          "name": "",
          "type": "uint256"
        }
      ],
      "stateMutability": "view",
      "type": "function"
    },
    {
      "inputs": [],
      "name": "getTotalStakes",
      "outputs": [
        {
          "internalType": "uint256",
          "name": "",
          "type": "uint256"
        }
      ],
      "stateMutability": "view",
      "type": "function"
    },
    {
      "inputs": [
        {
          "internalType": "address",
          "name": "adr",
          "type": "address"
        }
      ],
      "name": "getUserStakes",
      "outputs": [
        {
          "components": [
            {
              "internalType": "address",
              "name": "user",
              "type": "address"
            },
            {
              "internalType": "uint256",
              "name": "amount",
              "type": "uint256"
            },
            {
              "internalType": "uint256",
              "name": "since",
              "type": "uint256"
            },
            {
              "internalType": "bool",
              "name": "claimable",
              "type": "bool"
            },
            {
              "internalType": "uint256",
              "name": "id",
              "type": "uint256"
            }
          ],
          "internalType": "struct Staking.Stake[]",
          "name": "",
          "type": "tuple[]"
        }
      ],
      "stateMutability": "view",
      "type": "function"
    },
    {
      "inputs": [
        {
          "internalType": "address",
          "name": "_staker",
          "type": "address"
        }
      ],
      "name": "hasStake",
      "outputs": [
        {
          "internalType": "uint256",
          "name": "",
          "type": "uint256"
        }
      ],
      "stateMutability": "view",
      "type": "function"
    },
    {
      "inputs": [
        {
          "internalType": "uint256",
          "name": "_shares",
          "type": "uint256"
        }
      ],
      "name": "removeLiquidity",
      "outputs": [
        {
          "internalType": "uint256",
          "name": "amountGMS",
          "type": "uint256"
        },
        {
          "internalType": "uint256",
          "name": "amountETH",
          "type": "uint256"
        }
      ],
      "stateMutability": "nonpayable",
      "type": "function"
    },
    {
      "inputs": [],
      "name": "reserve_ETH",
      "outputs": [
        {
          "internalType": "uint256",
          "name": "",
          "type": "uint256"
        }
      ],
      "stateMutability": "view",
      "type": "function"
    },
    {
      "inputs": [],
      "name": "reserve_GMS",
      "outputs": [
        {
          "internalType": "uint256",
          "name": "",
          "type": "uint256"
        }
      ],
      "stateMutability": "view",
      "type": "function"
    },
    {
      "inputs": [
        {
          "internalType": "uint256",
          "name": "_amount",
          "type": "uint256"
        },
        {
          "internalType": "uint256",
          "name": "id",
          "type": "uint256"
        }
      ],
      "name": "stake",
      "outputs": [],
      "stateMutability": "nonpayable",
      "type": "function"
    },
    {
      "inputs": [
        {
          "internalType": "uint256",
          "name": "",
          "type": "uint256"
        }
      ],
      "name": "stakeholders",
      "outputs": [
        {
          "internalType": "address",
          "name": "user",
          "type": "address"
        }
      ],
      "stateMutability": "view",
      "type": "function"
    },
    {
      "inputs": [
        {
          "internalType": "address",
          "name": "tokenIn",
          "type": "address"
        },
        {
          "internalType": "uint256",
          "name": "amountIn",
          "type": "uint256"
        }
      ],
      "name": "swap",
      "outputs": [
        {
          "internalType": "uint256",
          "name": "amountOut",
          "type": "uint256"
        }
      ],
      "stateMutability": "payable",
      "type": "function"
    },
    {
      "inputs": [],
      "name": "totalSupply",
      "outputs": [
        {
          "internalType": "uint256",
          "name": "",
          "type": "uint256"
        }
      ],
      "stateMutability": "view",
      "type": "function"
    },
    {
      "inputs": [],
      "name": "total_amount_stacked",
      "outputs": [
        {
          "internalType": "uint256",
          "name": "",
          "type": "uint256"
        }
      ],
      "stateMutability": "view",
      "type": "function"
    },
    {
      "inputs": [
        {
          "internalType": "uint256",
          "name": "initialAmount",
          "type": "uint256"
        },
        {
          "internalType": "uint256",
          "name": "_amount",
          "type": "uint256"
        },
        {
          "internalType": "address",
          "name": "adr",
          "type": "address"
        },
        {
          "internalType": "uint256",
          "name": "id",
          "type": "uint256"
        }
      ],
      "name": "withdrawStake",
      "outputs": [],
      "stateMutability": "nonpayable",
      "type": "function"
    },
    {
      "stateMutability": "payable",
      "type": "receive"
    }
  ],
  "bytecode": "0x60a06040526103e8600055600060015560006004553480156200002157600080fd5b5060405162002bfa38038062002bfa83398181016040528101906200004791906200010a565b6002600181600181540180825580915050039060005260206000209050508073ffffffffffffffffffffffffffffffffffffffff1660808173ffffffffffffffffffffffffffffffffffffffff1681525050506200013c565b600080fd5b600073ffffffffffffffffffffffffffffffffffffffff82169050919050565b6000620000d282620000a5565b9050919050565b620000e481620000c5565b8114620000f057600080fd5b50565b6000815190506200010481620000d9565b92915050565b600060208284031215620001235762000122620000a0565b5b60006200013384828501620000f3565b91505092915050565b608051612a5c6200019e6000396000818161063f01528181610a2001528181610b6201528181610db1015281816110d70152818161118b015281816111f50152818161124c015281816114c7015281816115b101526116660152612a5c6000f3fe6080604052600436106101185760003560e01c806370a08231116100a05780639cd441da116100645780639cd441da1461040b578063ab3941761461043b578063d004f0f714610466578063e73e14bf14610496578063f5ef2deb146104d35761011f565b806370a08231146102ff5780637b0472f01461033c578063842e298114610365578063988d2294146103a25780639c8f9f23146103cd5761011f565b80633f733e48116100e75780633f733e48146101f25780634eb1c7d61461022f57806357244c931461026c57806367d759fb146102a957806368c33627146102d45761011f565b8063118499da1461012457806318160ddd1461014d5780631d6b8b72146101785780633eb0db3b146101b55761011f565b3661011f57005b600080fd5b34801561013057600080fd5b5061014b60048036038101906101469190611fa5565b6104fe565b005b34801561015957600080fd5b506101626106d2565b60405161016f919061201b565b60405180910390f35b34801561018457600080fd5b5061019f600480360381019061019a9190612036565b6106d8565b6040516101ac9190612072565b60405180910390f35b3480156101c157600080fd5b506101dc60048036038101906101d7919061208d565b610726565b6040516101e9919061201b565b60405180910390f35b3480156101fe57600080fd5b50610219600480360381019061021491906120cd565b61075f565b604051610226919061201b565b60405180910390f35b34801561023b57600080fd5b50610256600480360381019061025191906120cd565b610776565b604051610263919061201b565b60405180910390f35b34801561027857600080fd5b50610293600480360381019061028e91906120cd565b61078e565b6040516102a0919061201b565b60405180910390f35b3480156102b557600080fd5b506102be6107a6565b6040516102cb919061201b565b60405180910390f35b3480156102e057600080fd5b506102e96107ac565b6040516102f6919061201b565b60405180910390f35b34801561030b57600080fd5b50610326600480360381019061032191906120cd565b6107b6565b604051610333919061201b565b60405180910390f35b34801561034857600080fd5b50610363600480360381019061035e919061208d565b6107ce565b005b34801561037157600080fd5b5061038c600480360381019061038791906120cd565b6108b5565b604051610399919061224a565b60405180910390f35b3480156103ae57600080fd5b506103b7610a13565b6040516103c4919061201b565b60405180910390f35b3480156103d957600080fd5b506103f460048036038101906103ef9190612036565b610a19565b60405161040292919061226c565b60405180910390f35b6104256004803603810190610420919061208d565b610d5f565b604051610432919061201b565b60405180910390f35b34801561044757600080fd5b50610450611189565b60405161045d91906122f4565b60405180910390f35b610480600480360381019061047b919061230f565b6111ad565b60405161048d919061201b565b60405180910390f35b3480156104a257600080fd5b506104bd60048036038101906104b891906120cd565b61171a565b6040516104ca919061201b565b60405180910390f35b3480156104df57600080fd5b506104e861190f565b6040516104f5919061201b565b60405180910390f35b6000600360008473ffffffffffffffffffffffffffffffffffffffff1673ffffffffffffffffffffffffffffffffffffffff1681526020019081526020016000205490506105816040518060400160405280600781526020017f696e6465783a200000000000000000000000000000000000000000000000000081525082611915565b6000600282815481106105975761059661234f565b5b906000526020600020906002020160010183815481106105ba576105b961234f565b5b9060005260206000209060050201905060008160030160006101000a81548160ff02191690831515021790555085600860008673ffffffffffffffffffffffffffffffffffffffff1673ffffffffffffffffffffffffffffffffffffffff168152602001908152602001600020600082825461063691906123ad565b925050819055507f000000000000000000000000000000000000000000000000000000000000000073ffffffffffffffffffffffffffffffffffffffff1663e22f9ea633876040518363ffffffff1660e01b8152600401610698929190612403565b600060405180830381600087803b1580156106b257600080fd5b505af11580156106c6573d6000803e3d6000fd5b50505050505050505050565b60075481565b600281815481106106e857600080fd5b90600052602060002090600202016000915090508060000160009054906101000a900473ffffffffffffffffffffffffffffffffffffffff16905081565b6000805482603c8542610739919061242c565b610743919061248f565b61074d91906124c0565b610757919061248f565b905092915050565b60008061076b8361171a565b905080915050919050565b60096020528060005260406000206000915090505481565b600a6020528060005260406000206000915090505481565b60045481565b6000600154905090565b60086020528060005260406000206000915090505481565b600860003373ffffffffffffffffffffffffffffffffffffffff1673ffffffffffffffffffffffffffffffffffffffff16815260200190815260200160002054821115610850576040517f08c379a000000000000000000000000000000000000000000000000000000000815260040161084790612577565b60405180910390fd5b61085b8233836119b1565b81600860003373ffffffffffffffffffffffffffffffffffffffff1673ffffffffffffffffffffffffffffffffffffffff16815260200190815260200160002060008282546108aa919061242c565b925050819055505050565b60606000600360008473ffffffffffffffffffffffffffffffffffffffff1673ffffffffffffffffffffffffffffffffffffffff1681526020019081526020016000205490506000600282815481106109115761091061234f565b5b9060005260206000209060020201600101805480602002602001604051908101604052809291908181526020016000905b82821015610a0357838290600052602060002090600502016040518060a00160405290816000820160009054906101000a900473ffffffffffffffffffffffffffffffffffffffff1673ffffffffffffffffffffffffffffffffffffffff1673ffffffffffffffffffffffffffffffffffffffff16815260200160018201548152602001600282015481526020016003820160009054906101000a900460ff1615151515815260200160048201548152505081526020019060010190610942565b5050505090508092505050919050565b60055481565b60008060007f000000000000000000000000000000000000000000000000000000000000000073ffffffffffffffffffffffffffffffffffffffff166370a08231306040518263ffffffff1660e01b8152600401610a779190612072565b602060405180830381865afa158015610a94573d6000803e3d6000fd5b505050506040513d601f19601f82011682018060405250810190610ab891906125ac565b9050600060065490506007548286610ad091906124c0565b610ada919061248f565b93506007548186610aeb91906124c0565b610af5919061248f565b9250610b366040518060400160405280601681526020017f416d6f756e747420474d532077697468647265773a200000000000000000000081525085611915565b610b403386611bf2565b610b608483610b4f919061242c565b8483610b5b919061242c565b611c65565b7f000000000000000000000000000000000000000000000000000000000000000073ffffffffffffffffffffffffffffffffffffffff1663a9059cbb33866040518363ffffffff1660e01b8152600401610bbb929190612403565b6020604051808303816000875af1158015610bda573d6000803e3d6000fd5b505050506040513d601f19601f82011682018060405250810190610bfe9190612605565b5060003373ffffffffffffffffffffffffffffffffffffffff1684604051610c2590612663565b60006040518083038185875af1925050503d8060008114610c62576040519150601f19603f3d011682016040523d82523d6000602084013e610c67565b606091505b5050905080610cab576040517f08c379a0000000000000000000000000000000000000000000000000000000008152600401610ca2906126c4565b60405180910390fd5b84600960003373ffffffffffffffffffffffffffffffffffffffff1673ffffffffffffffffffffffffffffffffffffffff1681526020019081526020016000206000828254610cfa919061242c565b9250508190555083600a60003373ffffffffffffffffffffffffffffffffffffffff1673ffffffffffffffffffffffffffffffffffffffff1681526020019081526020016000206000828254610d50919061242c565b92505081905550505050915091565b60008083118015610d705750600082115b610daf576040517f08c379a0000000000000000000000000000000000000000000000000000000008152600401610da690612730565b60405180910390fd5b7f000000000000000000000000000000000000000000000000000000000000000073ffffffffffffffffffffffffffffffffffffffff166323b872dd3330866040518463ffffffff1660e01b8152600401610e0c93929190612750565b6020604051808303816000875af1158015610e2b573d6000803e3d6000fd5b505050506040513d601f19601f82011682018060405250810190610e4f9190612605565b5060003073ffffffffffffffffffffffffffffffffffffffff1683604051610e7690612663565b60006040518083038185875af1925050503d8060008114610eb3576040519150601f19603f3d011682016040523d82523d6000602084013e610eb8565b606091505b5050905080610efc576040517f08c379a0000000000000000000000000000000000000000000000000000000008152600401610ef3906126c4565b60405180910390fd5b6000600654118015610f1057506000600554115b15610f725782600654610f2391906124c0565b84600554610f3191906124c0565b14610f71576040517f08c379a0000000000000000000000000000000000000000000000000000000008152600401610f68906127d3565b60405180910390fd5b5b60006007541415610f9857610f918385610f8c91906124c0565b611cf5565b9150610fd9565b610fd660055460075486610fac91906124c0565b610fb6919061248f565b60065460075486610fc791906124c0565b610fd1919061248f565b611d6f565b91505b6000821161101c576040517f08c379a00000000000000000000000000000000000000000000000000000000081526004016110139061283f565b60405180910390fd5b6110263383611d89565b83600960003373ffffffffffffffffffffffffffffffffffffffff1673ffffffffffffffffffffffffffffffffffffffff168152602001908152602001600020600082825461107591906123ad565b9250508190555082600a60003373ffffffffffffffffffffffffffffffffffffffff1673ffffffffffffffffffffffffffffffffffffffff16815260200190815260200160002060008282546110cb91906123ad565b925050819055506111827f000000000000000000000000000000000000000000000000000000000000000073ffffffffffffffffffffffffffffffffffffffff166370a08231306040518263ffffffff1660e01b815260040161112e9190612072565b602060405180830381865afa15801561114b573d6000803e3d6000fd5b505050506040513d601f19601f8201168201806040525081019061116f91906125ac565b6006548561117d91906123ad565b611c65565b5092915050565b7f000000000000000000000000000000000000000000000000000000000000000081565b60008082116111f1576040517f08c379a00000000000000000000000000000000000000000000000000000000081526004016111e8906128ab565b60405180910390fd5b60007f000000000000000000000000000000000000000000000000000000000000000073ffffffffffffffffffffffffffffffffffffffff168473ffffffffffffffffffffffffffffffffffffffff1614905080156112f0577f000000000000000000000000000000000000000000000000000000000000000073ffffffffffffffffffffffffffffffffffffffff166323b872dd3330866040518463ffffffff1660e01b81526004016112a793929190612750565b6020604051808303816000875af11580156112c6573d6000803e3d6000fd5b505050506040513d601f19601f820116820180604052508101906112ea9190612605565b5061139e565b60003073ffffffffffffffffffffffffffffffffffffffff168460405161131690612663565b60006040518083038185875af1925050503d8060008114611353576040519150601f19603f3d011682016040523d82523d6000602084013e611358565b606091505b505090508061139c576040517f08c379a0000000000000000000000000000000000000000000000000000000008152600401611393906126c4565b60405180910390fd5b505b60006103e86103e5856113b191906124c0565b6113bb919061248f565b9050811561149d57806005546113d191906123ad565b816006546113df91906124c0565b6113e9919061248f565b925060003373ffffffffffffffffffffffffffffffffffffffff168460405161141190612663565b60006040518083038185875af1925050503d806000811461144e576040519150601f19603f3d011682016040523d82523d6000602084013e611453565b606091505b5050905080611497576040517f08c379a000000000000000000000000000000000000000000000000000000000815260040161148e906126c4565b60405180910390fd5b50611567565b806006546114ab91906123ad565b816005546114b991906124c0565b6114c3919061248f565b92507f000000000000000000000000000000000000000000000000000000000000000073ffffffffffffffffffffffffffffffffffffffff166323b872dd3033866040518463ffffffff1660e01b815260040161152293929190612750565b6020604051808303816000875af1158015611541573d6000803e3d6000fd5b505050506040513d601f19601f820116820180604052508101906115659190612605565b505b6115a66040518060400160405280600c81526020017f616d6f756e74206f75743a20000000000000000000000000000000000000000081525084611915565b81156116615761165c7f000000000000000000000000000000000000000000000000000000000000000073ffffffffffffffffffffffffffffffffffffffff166370a08231306040518263ffffffff1660e01b81526004016116089190612072565b602060405180830381865afa158015611625573d6000803e3d6000fd5b505050506040513d601f19601f8201168201806040525081019061164991906125ac565b84600654611657919061242c565b611c65565b611712565b6117117f000000000000000000000000000000000000000000000000000000000000000073ffffffffffffffffffffffffffffffffffffffff166370a08231306040518263ffffffff1660e01b81526004016116bd9190612072565b602060405180830381865afa1580156116da573d6000803e3d6000fd5b505050506040513d601f19601f820116820180604052508101906116fe91906125ac565b8560065461170c91906123ad565b611c65565b5b505092915050565b60008060006040518060400160405280600081526020016002600360008873ffffffffffffffffffffffffffffffffffffffff1673ffffffffffffffffffffffffffffffffffffffff16815260200190815260200160002054815481106117845761178361234f565b5b9060005260206000209060020201600101805480602002602001604051908101604052809291908181526020016000905b8282101561187657838290600052602060002090600502016040518060a00160405290816000820160009054906101000a900473ffffffffffffffffffffffffffffffffffffffff1673ffffffffffffffffffffffffffffffffffffffff1673ffffffffffffffffffffffffffffffffffffffff16815260200160018201548152602001600282015481526020016003820160009054906101000a900460ff16151515158152602001600482015481525050815260200190600101906117b5565b50505050815250905060005b8160200151518110156118f65760006118df836020015183815181106118ab576118aa61234f565b5b602002602001015160400151846020015184815181106118ce576118cd61234f565b5b602002602001015160200151610726565b9050506001816118ef91906123ad565b9050611882565b5081816000018181525050806000015192505050919050565b60065481565b6119ad828260405160240161192b929190612953565b6040516020818303038152906040527f9710a9d0000000000000000000000000000000000000000000000000000000007bffffffffffffffffffffffffffffffffffffffffffffffffffffffff19166020820180517bffffffffffffffffffffffffffffffffffffffffffffffffffffffff8381831617835250505050611dfc565b5050565b600083116119f4576040517f08c379a00000000000000000000000000000000000000000000000000000000081526004016119eb906129cf565b60405180910390fd5b6000600360008473ffffffffffffffffffffffffffffffffffffffff1673ffffffffffffffffffffffffffffffffffffffff16815260200190815260200160002054905060004290506000821415611a5257611a4f84611e25565b91505b60028281548110611a6657611a6561234f565b5b90600052602060002090600202016001016040518060a001604052808673ffffffffffffffffffffffffffffffffffffffff16815260200187815260200183815260200160011515815260200185815250908060018154018082558091505060019003906000526020600020906005020160009091909190915060008201518160000160006101000a81548173ffffffffffffffffffffffffffffffffffffffff021916908373ffffffffffffffffffffffffffffffffffffffff160217905550602082015181600101556040820151816002015560608201518160030160006101000a81548160ff0219169083151502179055506080820151816004015550508460046000828254611b7991906123ad565b925050819055506001806000828254611b9291906123ad565b925050819055508373ffffffffffffffffffffffffffffffffffffffff167fb4caaf29adda3eefee3ad552a8e85058589bf834c7466cae4ee58787f70589ed868484604051611be3939291906129ef565b60405180910390a25050505050565b80600860008473ffffffffffffffffffffffffffffffffffffffff1673ffffffffffffffffffffffffffffffffffffffff1681526020019081526020016000206000828254611c41919061242c565b925050819055508060076000828254611c5a919061242c565b925050819055505050565b611ca46040518060400160405280600881526020017f726573474d533a2000000000000000000000000000000000000000000000000081525083611915565b611ce36040518060400160405280600881526020017f7265734554483a2000000000000000000000000000000000000000000000000081525082611915565b81600581905550806006819055505050565b60006003821115611d5c5781905060006001600284611d14919061248f565b611d1e91906123ad565b90505b81811015611d56578091506002818285611d3b919061248f565b611d4591906123ad565b611d4f919061248f565b9050611d21565b50611d6a565b60008214611d6957600190505b5b919050565b600081831115611d7f5781611d81565b825b905092915050565b80600860008473ffffffffffffffffffffffffffffffffffffffff1673ffffffffffffffffffffffffffffffffffffffff1681526020019081526020016000206000828254611dd891906123ad565b925050819055508060076000828254611df191906123ad565b925050819055505050565b60008151905060006a636f6e736f6c652e6c6f679050602083016000808483855afa5050505050565b600060026001816001815401808255809150500390600052602060002090505060006001600280549050611e59919061242c565b90508260028281548110611e7057611e6f61234f565b5b906000526020600020906002020160000160006101000a81548173ffffffffffffffffffffffffffffffffffffffff021916908373ffffffffffffffffffffffffffffffffffffffff16021790555080600360008573ffffffffffffffffffffffffffffffffffffffff1673ffffffffffffffffffffffffffffffffffffffff1681526020019081526020016000208190555080915050919050565b600080fd5b6000819050919050565b611f2481611f11565b8114611f2f57600080fd5b50565b600081359050611f4181611f1b565b92915050565b600073ffffffffffffffffffffffffffffffffffffffff82169050919050565b6000611f7282611f47565b9050919050565b611f8281611f67565b8114611f8d57600080fd5b50565b600081359050611f9f81611f79565b92915050565b60008060008060808587031215611fbf57611fbe611f0c565b5b6000611fcd87828801611f32565b9450506020611fde87828801611f32565b9350506040611fef87828801611f90565b925050606061200087828801611f32565b91505092959194509250565b61201581611f11565b82525050565b6000602082019050612030600083018461200c565b92915050565b60006020828403121561204c5761204b611f0c565b5b600061205a84828501611f32565b91505092915050565b61206c81611f67565b82525050565b60006020820190506120876000830184612063565b92915050565b600080604083850312156120a4576120a3611f0c565b5b60006120b285828601611f32565b92505060206120c385828601611f32565b9150509250929050565b6000602082840312156120e3576120e2611f0c565b5b60006120f184828501611f90565b91505092915050565b600081519050919050565b600082825260208201905092915050565b6000819050602082019050919050565b61212f81611f67565b82525050565b61213e81611f11565b82525050565b60008115159050919050565b61215981612144565b82525050565b60a0820160008201516121756000850182612126565b5060208201516121886020850182612135565b50604082015161219b6040850182612135565b5060608201516121ae6060850182612150565b5060808201516121c16080850182612135565b50505050565b60006121d3838361215f565b60a08301905092915050565b6000602082019050919050565b60006121f7826120fa565b6122018185612105565b935061220c83612116565b8060005b8381101561223d57815161222488826121c7565b975061222f836121df565b925050600181019050612210565b5085935050505092915050565b6000602082019050818103600083015261226481846121ec565b905092915050565b6000604082019050612281600083018561200c565b61228e602083018461200c565b9392505050565b6000819050919050565b60006122ba6122b56122b084611f47565b612295565b611f47565b9050919050565b60006122cc8261229f565b9050919050565b60006122de826122c1565b9050919050565b6122ee816122d3565b82525050565b600060208201905061230960008301846122e5565b92915050565b6000806040838503121561232657612325611f0c565b5b600061233485828601611f90565b925050602061234585828601611f32565b9150509250929050565b7f4e487b7100000000000000000000000000000000000000000000000000000000600052603260045260246000fd5b7f4e487b7100000000000000000000000000000000000000000000000000000000600052601160045260246000fd5b60006123b882611f11565b91506123c383611f11565b9250827fffffffffffffffffffffffffffffffffffffffffffffffffffffffffffffffff038211156123f8576123f761237e565b5b828201905092915050565b60006040820190506124186000830185612063565b612425602083018461200c565b9392505050565b600061243782611f11565b915061244283611f11565b9250828210156124555761245461237e565b5b828203905092915050565b7f4e487b7100000000000000000000000000000000000000000000000000000000600052601260045260246000fd5b600061249a82611f11565b91506124a583611f11565b9250826124b5576124b4612460565b5b828204905092915050565b60006124cb82611f11565b91506124d683611f11565b9250817fffffffffffffffffffffffffffffffffffffffffffffffffffffffffffffffff048311821515161561250f5761250e61237e565b5b828202905092915050565b600082825260208201905092915050565b7f4e6f7420656e6f75676820746f6b656e73000000000000000000000000000000600082015250565b600061256160118361251a565b915061256c8261252b565b602082019050919050565b6000602082019050818103600083015261259081612554565b9050919050565b6000815190506125a681611f1b565b92915050565b6000602082840312156125c2576125c1611f0c565b5b60006125d084828501612597565b91505092915050565b6125e281612144565b81146125ed57600080fd5b50565b6000815190506125ff816125d9565b92915050565b60006020828403121561261b5761261a611f0c565b5b6000612629848285016125f0565b91505092915050565b600081905092915050565b50565b600061264d600083612632565b91506126588261263d565b600082019050919050565b600061266e82612640565b9150819050919050565b7f43616c6c206661696c6564000000000000000000000000000000000000000000600082015250565b60006126ae600b8361251a565b91506126b982612678565b602082019050919050565b600060208201905081810360008301526126dd816126a1565b9050919050565b7f4c657373205468616e2031000000000000000000000000000000000000000000600082015250565b600061271a600b8361251a565b9150612725826126e4565b602082019050919050565b600060208201905081810360008301526127498161270d565b9050919050565b60006060820190506127656000830186612063565b6127726020830185612063565b61277f604083018461200c565b949350505050565b7f78202f207920213d206478202f20647900000000000000000000000000000000600082015250565b60006127bd60108361251a565b91506127c882612787565b602082019050919050565b600060208201905081810360008301526127ec816127b0565b9050919050565b7f736861726573203d203000000000000000000000000000000000000000000000600082015250565b6000612829600a8361251a565b9150612834826127f3565b602082019050919050565b600060208201905081810360008301526128588161281c565b9050919050565b7f63616e27742073776170203020746f6b656e7300000000000000000000000000600082015250565b600061289560138361251a565b91506128a08261285f565b602082019050919050565b600060208201905081810360008301526128c481612888565b9050919050565b600081519050919050565b60005b838110156128f45780820151818401526020810190506128d9565b83811115612903576000848401525b50505050565b6000601f19601f8301169050919050565b6000612925826128cb565b61292f818561251a565b935061293f8185602086016128d6565b61294881612909565b840191505092915050565b6000604082019050818103600083015261296d818561291a565b905061297c602083018461200c565b9392505050565b7f43616e6e6f74207374616b65206e6f7468696e67000000000000000000000000600082015250565b60006129b960148361251a565b91506129c482612983565b602082019050919050565b600060208201905081810360008301526129e8816129ac565b9050919050565b6000606082019050612a04600083018661200c565b612a11602083018561200c565b612a1e604083018461200c565b94935050505056fea26469706673582212205e8fc5867cc6616fbd95807c72c580b1487d513552a710dcf2ba1aacebe7be5564736f6c634300080a0033",
  "linkReferences": {},
  "deployedLinkReferences": {}
}