{
  "_format": "hh-sol-artifact-1",
  "contractName": "Crowdfund",
  "sourceName": "contracts/Crowdfund.sol",
  "abi": [
    {
      "inputs": [
        {
          "internalType": "address",
          "name": "_token",
          "type": "address"
        }
      ],
      "stateMutability": "nonpayable",
      "type": "constructor"
    },
    {
      "anonymous": false,
      "inputs": [
        {
          "indexed": true,
          "internalType": "address",
          "name": "owner",
          "type": "address"
        },
        {
          "indexed": true,
          "internalType": "address",
          "name": "sender",
          "type": "address"
        },
        {
          "indexed": false,
          "internalType": "uint256",
          "name": "amount",
          "type": "uint256"
        }
      ],
      "name": "Approval",
      "type": "event"
    },
    {
      "anonymous": false,
      "inputs": [
        {
          "indexed": false,
          "internalType": "uint256",
          "name": "id",
          "type": "uint256"
        }
      ],
      "name": "Cancel",
      "type": "event"
    },
    {
      "anonymous": false,
      "inputs": [
        {
          "indexed": false,
          "internalType": "uint256",
          "name": "id",
          "type": "uint256"
        }
      ],
      "name": "Claim",
      "type": "event"
    },
    {
      "anonymous": false,
      "inputs": [
        {
          "indexed": false,
          "internalType": "uint256",
          "name": "id",
          "type": "uint256"
        },
        {
          "indexed": true,
          "internalType": "address",
          "name": "creator",
          "type": "address"
        },
        {
          "indexed": false,
          "internalType": "uint256",
          "name": "goal",
          "type": "uint256"
        },
        {
          "indexed": false,
          "internalType": "uint32",
          "name": "startAt",
          "type": "uint32"
        },
        {
          "indexed": false,
          "internalType": "uint32",
          "name": "endAt",
          "type": "uint32"
        }
      ],
      "name": "Launch",
      "type": "event"
    },
    {
      "anonymous": false,
      "inputs": [
        {
          "indexed": false,
          "internalType": "uint256",
          "name": "amount",
          "type": "uint256"
        },
        {
          "indexed": false,
          "internalType": "uint256",
          "name": "gas",
          "type": "uint256"
        }
      ],
      "name": "Log",
      "type": "event"
    },
    {
      "anonymous": false,
      "inputs": [
        {
          "indexed": false,
          "internalType": "uint256",
          "name": "amount",
          "type": "uint256"
        }
      ],
      "name": "Log",
      "type": "event"
    },
    {
      "anonymous": false,
      "inputs": [
        {
          "indexed": true,
          "internalType": "uint256",
          "name": "id",
          "type": "uint256"
        },
        {
          "indexed": true,
          "internalType": "address",
          "name": "caller",
          "type": "address"
        },
        {
          "indexed": false,
          "internalType": "uint256",
          "name": "amount",
          "type": "uint256"
        }
      ],
      "name": "Pledge",
      "type": "event"
    },
    {
      "anonymous": false,
      "inputs": [
        {
          "indexed": true,
          "internalType": "uint256",
          "name": "id",
          "type": "uint256"
        },
        {
          "indexed": true,
          "internalType": "address",
          "name": "caller",
          "type": "address"
        },
        {
          "indexed": false,
          "internalType": "uint256",
          "name": "amount",
          "type": "uint256"
        }
      ],
      "name": "Refund",
      "type": "event"
    },
    {
      "anonymous": false,
      "inputs": [
        {
          "indexed": true,
          "internalType": "address",
          "name": "user",
          "type": "address"
        },
        {
          "indexed": false,
          "internalType": "uint256",
          "name": "amount",
          "type": "uint256"
        },
        {
          "indexed": false,
          "internalType": "uint256",
          "name": "index",
          "type": "uint256"
        },
        {
          "indexed": false,
          "internalType": "uint256",
          "name": "timestamp",
          "type": "uint256"
        }
      ],
      "name": "Staked",
      "type": "event"
    },
    {
      "anonymous": false,
      "inputs": [
        {
          "indexed": true,
          "internalType": "address",
          "name": "from",
          "type": "address"
        },
        {
          "indexed": true,
          "internalType": "address",
          "name": "to",
          "type": "address"
        },
        {
          "indexed": false,
          "internalType": "uint256",
          "name": "amount",
          "type": "uint256"
        }
      ],
      "name": "Transfer",
      "type": "event"
    },
    {
      "anonymous": false,
      "inputs": [
        {
          "indexed": true,
          "internalType": "uint256",
          "name": "id",
          "type": "uint256"
        },
        {
          "indexed": true,
          "internalType": "address",
          "name": "caller",
          "type": "address"
        },
        {
          "indexed": false,
          "internalType": "uint256",
          "name": "amount",
          "type": "uint256"
        }
      ],
      "name": "Unpledge",
      "type": "event"
    },
    {
      "inputs": [
        {
          "internalType": "address",
          "name": "",
          "type": "address"
        },
        {
          "internalType": "address",
          "name": "",
          "type": "address"
        }
      ],
      "name": "allowance",
      "outputs": [
        {
          "internalType": "uint256",
          "name": "",
          "type": "uint256"
        }
      ],
      "stateMutability": "view",
      "type": "function"
    },
    {
      "inputs": [],
      "name": "amountStaked",
      "outputs": [
        {
          "internalType": "uint256",
          "name": "",
          "type": "uint256"
        }
      ],
      "stateMutability": "view",
      "type": "function"
    },
    {
      "inputs": [
        {
          "internalType": "address",
          "name": "sender",
          "type": "address"
        },
        {
          "internalType": "uint256",
          "name": "amount",
          "type": "uint256"
        }
      ],
      "name": "approve",
      "outputs": [
        {
          "internalType": "bool",
          "name": "",
          "type": "bool"
        }
      ],
      "stateMutability": "nonpayable",
      "type": "function"
    },
    {
      "inputs": [
        {
          "internalType": "address",
          "name": "",
          "type": "address"
        }
      ],
      "name": "balanceOf",
      "outputs": [
        {
          "internalType": "uint256",
          "name": "",
          "type": "uint256"
        }
      ],
      "stateMutability": "view",
      "type": "function"
    },
    {
      "inputs": [
        {
          "internalType": "uint256",
          "name": "amount",
          "type": "uint256"
        }
      ],
      "name": "burn",
      "outputs": [],
      "stateMutability": "nonpayable",
      "type": "function"
    },
    {
      "inputs": [
        {
          "internalType": "uint256",
          "name": "",
          "type": "uint256"
        }
      ],
      "name": "campaigns",
      "outputs": [
        {
          "internalType": "address",
          "name": "creator",
          "type": "address"
        },
        {
          "internalType": "uint256",
          "name": "numberOfInvestors",
          "type": "uint256"
        },
        {
          "internalType": "uint256",
          "name": "goal",
          "type": "uint256"
        },
        {
          "internalType": "uint256",
          "name": "pledged",
          "type": "uint256"
        },
        {
          "internalType": "uint32",
          "name": "startAt",
          "type": "uint32"
        },
        {
          "internalType": "uint32",
          "name": "endAt",
          "type": "uint32"
        },
        {
          "internalType": "bool",
          "name": "claimed",
          "type": "bool"
        }
      ],
      "stateMutability": "view",
      "type": "function"
    },
    {
      "inputs": [
        {
          "internalType": "uint256",
          "name": "_id",
          "type": "uint256"
        }
      ],
      "name": "cancel",
      "outputs": [],
      "stateMutability": "nonpayable",
      "type": "function"
    },
    {
      "inputs": [],
      "name": "circulatingSupply",
      "outputs": [
        {
          "internalType": "uint256",
          "name": "",
          "type": "uint256"
        }
      ],
      "stateMutability": "view",
      "type": "function"
    },
    {
      "inputs": [
        {
          "internalType": "uint256",
          "name": "_id",
          "type": "uint256"
        },
        {
          "internalType": "uint256",
          "name": "amount",
          "type": "uint256"
        },
        {
          "internalType": "address",
          "name": "adr",
          "type": "address"
        }
      ],
      "name": "claim",
      "outputs": [],
      "stateMutability": "payable",
      "type": "function"
    },
    {
      "inputs": [
        {
          "internalType": "uint256",
          "name": "_id",
          "type": "uint256"
        },
        {
          "internalType": "address",
          "name": "adr",
          "type": "address"
        }
      ],
      "name": "claimShares",
      "outputs": [],
      "stateMutability": "nonpayable",
      "type": "function"
    },
    {
      "inputs": [],
      "name": "count",
      "outputs": [
        {
          "internalType": "uint256",
          "name": "",
          "type": "uint256"
        }
      ],
      "stateMutability": "view",
      "type": "function"
    },
    {
      "inputs": [],
      "name": "decimal",
      "outputs": [
        {
          "internalType": "uint8",
          "name": "",
          "type": "uint8"
        }
      ],
      "stateMutability": "view",
      "type": "function"
    },
    {
      "inputs": [
        {
          "internalType": "address",
          "name": "adr",
          "type": "address"
        }
      ],
      "name": "getSummary",
      "outputs": [
        {
          "internalType": "uint256",
          "name": "",
          "type": "uint256"
        }
      ],
      "stateMutability": "view",
      "type": "function"
    },
    {
      "inputs": [
        {
          "internalType": "uint256",
          "name": "amount",
          "type": "uint256"
        }
      ],
      "name": "getTokens",
      "outputs": [],
      "stateMutability": "payable",
      "type": "function"
    },
    {
      "inputs": [],
      "name": "getTotalAmountStaked",
      "outputs": [
        {
          "internalType": "uint256",
          "name": "",
          "type": "uint256"
        }
      ],
      "stateMutability": "view",
      "type": "function"
    },
    {
      "inputs": [
        {
          "internalType": "address",
          "name": "_staker",
          "type": "address"
        }
      ],
      "name": "hasStake",
      "outputs": [
        {
          "internalType": "uint256",
          "name": "",
          "type": "uint256"
        }
      ],
      "stateMutability": "view",
      "type": "function"
    },
    {
      "inputs": [
        {
          "internalType": "uint256",
          "name": "_goal",
          "type": "uint256"
        },
        {
          "internalType": "uint32",
          "name": "_startAt",
          "type": "uint32"
        },
        {
          "internalType": "uint32",
          "name": "_endAt",
          "type": "uint32"
        }
      ],
      "name": "launch",
      "outputs": [
        {
          "internalType": "uint256",
          "name": "",
          "type": "uint256"
        }
      ],
      "stateMutability": "nonpayable",
      "type": "function"
    },
    {
      "inputs": [
        {
          "internalType": "uint256",
          "name": "amount",
          "type": "uint256"
        }
      ],
      "name": "mint",
      "outputs": [],
      "stateMutability": "nonpayable",
      "type": "function"
    },
    {
      "inputs": [],
      "name": "name",
      "outputs": [
        {
          "internalType": "string",
          "name": "",
          "type": "string"
        }
      ],
      "stateMutability": "view",
      "type": "function"
    },
    {
      "inputs": [
        {
          "internalType": "uint256",
          "name": "_id",
          "type": "uint256"
        },
        {
          "internalType": "uint256",
          "name": "_amount",
          "type": "uint256"
        }
      ],
      "name": "pledge",
      "outputs": [],
      "stateMutability": "payable",
      "type": "function"
    },
    {
      "inputs": [
        {
          "internalType": "uint256",
          "name": "",
          "type": "uint256"
        },
        {
          "internalType": "address",
          "name": "",
          "type": "address"
        }
      ],
      "name": "pledgedAmount",
      "outputs": [
        {
          "internalType": "uint256",
          "name": "",
          "type": "uint256"
        }
      ],
      "stateMutability": "view",
      "type": "function"
    },
    {
      "inputs": [
        {
          "internalType": "uint256",
          "name": "_id",
          "type": "uint256"
        }
      ],
      "name": "refund",
      "outputs": [],
      "stateMutability": "nonpayable",
      "type": "function"
    },
    {
      "inputs": [
        {
          "internalType": "address",
          "name": "sender",
          "type": "address"
        },
        {
          "internalType": "address",
          "name": "recipient",
          "type": "address"
        },
        {
          "internalType": "uint256",
          "name": "amount",
          "type": "uint256"
        }
      ],
      "name": "sendToAddress",
      "outputs": [],
      "stateMutability": "nonpayable",
      "type": "function"
    },
    {
      "inputs": [
        {
          "internalType": "address",
          "name": "recipient",
          "type": "address"
        },
        {
          "internalType": "uint256",
          "name": "amount",
          "type": "uint256"
        }
      ],
      "name": "sendToContract",
      "outputs": [],
      "stateMutability": "nonpayable",
      "type": "function"
    },
    {
      "inputs": [
        {
          "internalType": "uint256",
          "name": "_amount",
          "type": "uint256"
        },
        {
          "internalType": "address",
          "name": "adr",
          "type": "address"
        }
      ],
      "name": "stake",
      "outputs": [],
      "stateMutability": "nonpayable",
      "type": "function"
    },
    {
      "inputs": [
        {
          "internalType": "uint256",
          "name": "",
          "type": "uint256"
        }
      ],
      "name": "stakeholders",
      "outputs": [
        {
          "internalType": "address",
          "name": "user",
          "type": "address"
        }
      ],
      "stateMutability": "view",
      "type": "function"
    },
    {
      "inputs": [],
      "name": "symbol",
      "outputs": [
        {
          "internalType": "string",
          "name": "",
          "type": "string"
        }
      ],
      "stateMutability": "view",
      "type": "function"
    },
    {
      "inputs": [],
      "name": "token",
      "outputs": [
        {
          "internalType": "contract IERC20",
          "name": "",
          "type": "address"
        }
      ],
      "stateMutability": "view",
      "type": "function"
    },
    {
      "inputs": [],
      "name": "tokenAddress",
      "outputs": [
        {
          "internalType": "address",
          "name": "",
          "type": "address"
        }
      ],
      "stateMutability": "view",
      "type": "function"
    },
    {
      "inputs": [],
      "name": "totalSupply",
      "outputs": [
        {
          "internalType": "uint256",
          "name": "",
          "type": "uint256"
        }
      ],
      "stateMutability": "view",
      "type": "function"
    },
    {
      "inputs": [],
      "name": "total_amount_stacked",
      "outputs": [
        {
          "internalType": "uint256",
          "name": "",
          "type": "uint256"
        }
      ],
      "stateMutability": "view",
      "type": "function"
    },
    {
      "inputs": [
        {
          "internalType": "address",
          "name": "recipient",
          "type": "address"
        },
        {
          "internalType": "uint256",
          "name": "amount",
          "type": "uint256"
        }
      ],
      "name": "transfer",
      "outputs": [
        {
          "internalType": "bool",
          "name": "",
          "type": "bool"
        }
      ],
      "stateMutability": "nonpayable",
      "type": "function"
    },
    {
      "inputs": [
        {
          "internalType": "address",
          "name": "sender",
          "type": "address"
        },
        {
          "internalType": "address",
          "name": "recipient",
          "type": "address"
        },
        {
          "internalType": "uint256",
          "name": "amount",
          "type": "uint256"
        }
      ],
      "name": "transferFrom",
      "outputs": [
        {
          "internalType": "bool",
          "name": "",
          "type": "bool"
        }
      ],
      "stateMutability": "nonpayable",
      "type": "function"
    },
    {
      "inputs": [
        {
          "internalType": "uint256",
          "name": "_id",
          "type": "uint256"
        },
        {
          "internalType": "uint256",
          "name": "_amount",
          "type": "uint256"
        }
      ],
      "name": "unpledge",
      "outputs": [],
      "stateMutability": "nonpayable",
      "type": "function"
    },
    {
      "inputs": [
        {
          "internalType": "uint256",
          "name": "_amount",
          "type": "uint256"
        },
        {
          "internalType": "uint256",
          "name": "stake_index",
          "type": "uint256"
        }
      ],
      "name": "withdrawStake",
      "outputs": [],
      "stateMutability": "nonpayable",
      "type": "function"
    },
    {
      "stateMutability": "payable",
      "type": "receive"
    }
  ],
  "bytecode": "0x60c06040526103e860005560006003556040518060400160405280600481526020017f5465737400000000000000000000000000000000000000000000000000000000815250600890805190602001906200005c92919062000186565b506040518060400160405280600481526020017f544553540000000000000000000000000000000000000000000000000000000081525060099080519060200190620000aa92919062000186565b506012600a60006101000a81548160ff021916908360ff160217905550348015620000d457600080fd5b5060405162003dab38038062003dab8339818101604052810190620000fa9190620002a0565b60018081600181540180825580915050039060005260206000209050508073ffffffffffffffffffffffffffffffffffffffff1660808173ffffffffffffffffffffffffffffffffffffffff16815250508073ffffffffffffffffffffffffffffffffffffffff1660a08173ffffffffffffffffffffffffffffffffffffffff16815250505062000337565b828054620001949062000301565b90600052602060002090601f016020900481019282620001b8576000855562000204565b82601f10620001d357805160ff191683800117855562000204565b8280016001018555821562000204579182015b8281111562000203578251825591602001919060010190620001e6565b5b50905062000213919062000217565b5090565b5b808211156200023257600081600090555060010162000218565b5090565b600080fd5b600073ffffffffffffffffffffffffffffffffffffffff82169050919050565b600062000268826200023b565b9050919050565b6200027a816200025b565b81146200028657600080fd5b50565b6000815190506200029a816200026f565b92915050565b600060208284031215620002b957620002b862000236565b5b6000620002c98482850162000289565b91505092915050565b7f4e487b7100000000000000000000000000000000000000000000000000000000600052602260045260246000fd5b600060028204905060018216806200031a57607f821691505b60208210811415620003315762000330620002d2565b5b50919050565b60805160a051613a3962000372600039600081816118210152611c65015260008181611c2901528181611d9401526123670152613a396000f3fe6080604052600436106102085760003560e01c80637acb775711610118578063d3c9cc26116100a0578063f1fdf4691161006f578063f1fdf469146107f5578063fab1e7471461081e578063fbd95a3914610849578063fc0c546a14610872578063fde327be1461089d57610248565b8063d3c9cc2614610736578063dd62ed3e14610752578063e22f9ea61461078f578063e73e14bf146107b857610248565b8063a0712d68116100e7578063a0712d681461064e578063a9059cbb14610677578063aa4fb63a146106b4578063ac44ff31146106f1578063ace1f5e11461070d57610248565b80637acb7757146105a45780639358928b146105cd57806395d89b41146105f85780639d76ea581461062357610248565b8063278ecde11161019b57806342966c681161016a57806342966c68146104bf57806367d759fb146104e857806370a0823114610513578063711853ab1461055057806376809ce31461057957610248565b8063278ecde1146103f35780632c63f1461461041c5780633f733e481461045957806340e58ee51461049657610248565b806318160ddd116101d757806318160ddd146103235780631d6b8b721461034e57806323b872dd1461038b578063246d9fe8146103c857610248565b806306661abd1461024d57806306fdde0314610278578063095ea7b3146102a3578063141961bc146102e057610248565b36610248577fbd0faddf87043dd749c1b9d4dca8a12589b8cb5e2106832111ce23f219b14367345a60405161023e929190612bfc565b60405180910390a1005b600080fd5b34801561025957600080fd5b506102626108b9565b60405161026f9190612c25565b60405180910390f35b34801561028457600080fd5b5061028d6108bf565b60405161029a9190612cd9565b60405180910390f35b3480156102af57600080fd5b506102ca60048036038101906102c59190612d8a565b61094d565b6040516102d79190612de5565b60405180910390f35b3480156102ec57600080fd5b5061030760048036038101906103029190612e00565b610a3f565b60405161031a9796959493929190612e5b565b60405180910390f35b34801561032f57600080fd5b50610338610ace565b6040516103459190612c25565b60405180910390f35b34801561035a57600080fd5b5061037560048036038101906103709190612e00565b610ad4565b6040516103829190612eca565b60405180910390f35b34801561039757600080fd5b506103b260048036038101906103ad9190612ee5565b610b22565b6040516103bf9190612de5565b60405180910390f35b3480156103d457600080fd5b506103dd610cd3565b6040516103ea9190612c25565b60405180910390f35b3480156103ff57600080fd5b5061041a60048036038101906104159190612e00565b610cdd565b005b34801561042857600080fd5b50610443600480360381019061043e9190612f64565b610ea0565b6040516104509190612c25565b60405180910390f35b34801561046557600080fd5b50610480600480360381019061047b9190612fb7565b6110ea565b60405161048d9190612c25565b60405180910390f35b3480156104a257600080fd5b506104bd60048036038101906104b89190612e00565b611101565b005b3480156104cb57600080fd5b506104e660048036038101906104e19190612e00565b61138e565b005b3480156104f457600080fd5b506104fd611466565b60405161050a9190612c25565b60405180910390f35b34801561051f57600080fd5b5061053a60048036038101906105359190612fb7565b61146c565b6040516105479190612c25565b60405180910390f35b34801561055c57600080fd5b5061057760048036038101906105729190612fe4565b611484565b005b34801561058557600080fd5b5061058e61167b565b60405161059b9190613040565b60405180910390f35b3480156105b057600080fd5b506105cb60048036038101906105c6919061305b565b61168e565b005b3480156105d957600080fd5b506105e261178b565b6040516105ef9190612c25565b60405180910390f35b34801561060457600080fd5b5061060d611791565b60405161061a9190612cd9565b60405180910390f35b34801561062f57600080fd5b5061063861181f565b6040516106459190612eca565b60405180910390f35b34801561065a57600080fd5b5061067560048036038101906106709190612e00565b611843565b005b34801561068357600080fd5b5061069e60048036038101906106999190612d8a565b611934565b6040516106ab9190612de5565b60405180910390f35b3480156106c057600080fd5b506106db60048036038101906106d6919061305b565b611a51565b6040516106e89190612c25565b60405180910390f35b61070b6004803603810190610706919061309b565b611a76565b005b34801561071957600080fd5b50610734600480360381019061072f919061305b565b611b94565b005b610750600480360381019061074b9190612e00565b611d92565b005b34801561075e57600080fd5b50610779600480360381019061077491906130ee565b611e22565b6040516107869190612c25565b60405180910390f35b34801561079b57600080fd5b506107b660048036038101906107b19190612d8a565b611e47565b005b3480156107c457600080fd5b506107df60048036038101906107da9190612fb7565b611fd2565b6040516107ec9190612c25565b60405180910390f35b34801561080157600080fd5b5061081c60048036038101906108179190612fe4565b612204565b005b34801561082a57600080fd5b5061083361229f565b6040516108409190612c25565b60405180910390f35b34801561085557600080fd5b50610870600480360381019061086b9190612ee5565b6122a5565b005b34801561087e57600080fd5b50610887612365565b604051610894919061318d565b60405180910390f35b6108b760048036038101906108b29190612fe4565b612389565b005b600c5481565b600880546108cc906131d7565b80601f01602080910402602001604051908101604052809291908181526020018280546108f8906131d7565b80156109455780601f1061091a57610100808354040283529160200191610945565b820191906000526020600020905b81548152906001019060200180831161092857829003601f168201915b505050505081565b600081600760003373ffffffffffffffffffffffffffffffffffffffff1673ffffffffffffffffffffffffffffffffffffffff16815260200190815260200160002060008573ffffffffffffffffffffffffffffffffffffffff1673ffffffffffffffffffffffffffffffffffffffff168152602001908152602001600020819055508273ffffffffffffffffffffffffffffffffffffffff163373ffffffffffffffffffffffffffffffffffffffff167f8c5be1e5ebec7d5bd14f71427d1e84f3dd0314c0f7b2291e5b200ac8c7c3b92584604051610a2d9190612c25565b60405180910390a36001905092915050565b600d6020528060005260406000206000915090508060000160009054906101000a900473ffffffffffffffffffffffffffffffffffffffff16908060010154908060020154908060030154908060040160009054906101000a900463ffffffff16908060040160049054906101000a900463ffffffff16908060040160089054906101000a900460ff16905087565b60045481565b60018181548110610ae457600080fd5b90600052602060002090600202016000915090508060000160009054906101000a900473ffffffffffffffffffffffffffffffffffffffff16905081565b600081600760008673ffffffffffffffffffffffffffffffffffffffff1673ffffffffffffffffffffffffffffffffffffffff16815260200190815260200160002060003373ffffffffffffffffffffffffffffffffffffffff1673ffffffffffffffffffffffffffffffffffffffff1681526020019081526020016000206000828254610bb09190613238565b9250508190555081600660008673ffffffffffffffffffffffffffffffffffffffff1673ffffffffffffffffffffffffffffffffffffffff1681526020019081526020016000206000828254610c069190613238565b9250508190555081600660008573ffffffffffffffffffffffffffffffffffffffff1673ffffffffffffffffffffffffffffffffffffffff1681526020019081526020016000206000828254610c5c919061326c565b925050819055508273ffffffffffffffffffffffffffffffffffffffff168473ffffffffffffffffffffffffffffffffffffffff167fddf252ad1be2c89b69c2b068fc378daa952ba7f163c4a11628f55a4df523b3ef84604051610cc09190612c25565b60405180910390a3600190509392505050565b6000600354905090565b6000600d600083815260200190815260200160002090506000600e600084815260200190815260200160002060003373ffffffffffffffffffffffffffffffffffffffff1673ffffffffffffffffffffffffffffffffffffffff16815260200190815260200160002054905060003373ffffffffffffffffffffffffffffffffffffffff1682604051610d6f906132f3565b60006040518083038185875af1925050503d8060008114610dac576040519150601f19603f3d011682016040523d82523d6000602084013e610db1565b606091505b5050905080610df5576040517f08c379a0000000000000000000000000000000000000000000000000000000008152600401610dec90613354565b60405180910390fd5b6000600e600086815260200190815260200160002060003373ffffffffffffffffffffffffffffffffffffffff1673ffffffffffffffffffffffffffffffffffffffff168152602001908152602001600020819055503373ffffffffffffffffffffffffffffffffffffffff16847f21e12a7cad0da5928167e1084ea4d5fdf8d9af66657a2543a9ac76a0ca08147784604051610e929190612c25565b60405180910390a350505050565b6000428363ffffffff161015610eeb576040517f08c379a0000000000000000000000000000000000000000000000000000000008152600401610ee2906133c0565b60405180910390fd5b8263ffffffff168263ffffffff161015610f3a576040517f08c379a0000000000000000000000000000000000000000000000000000000008152600401610f319061342c565b60405180910390fd5b6276a70042610f49919061326c565b8263ffffffff161115610f91576040517f08c379a0000000000000000000000000000000000000000000000000000000008152600401610f8890613498565b60405180910390fd5b6001600c6000828254610fa4919061326c565b925050819055506000600d6000600c5481526020019081526020016000209050338160000160006101000a81548173ffffffffffffffffffffffffffffffffffffffff021916908373ffffffffffffffffffffffffffffffffffffffff1602179055506000816001018190555084816002018190555060008160030181905550838160040160006101000a81548163ffffffff021916908363ffffffff160217905550828160040160046101000a81548163ffffffff021916908363ffffffff16021790555060008160040160086101000a81548160ff0219169083151502179055503373ffffffffffffffffffffffffffffffffffffffff167f0601cd0d650b473037e838a2696d41e654433d065b3f56b28d1d3302e44a304f600c548787876040516110d594939291906134b8565b60405180910390a2600c549150509392505050565b6000806110f683611fd2565b905080915050919050565b6000600d60008381526020019081526020016000206040518060e00160405290816000820160009054906101000a900473ffffffffffffffffffffffffffffffffffffffff1673ffffffffffffffffffffffffffffffffffffffff1673ffffffffffffffffffffffffffffffffffffffff1681526020016001820154815260200160028201548152602001600382015481526020016004820160009054906101000a900463ffffffff1663ffffffff1663ffffffff1681526020016004820160049054906101000a900463ffffffff1663ffffffff1663ffffffff1681526020016004820160089054906101000a900460ff1615151515815250509050806000015173ffffffffffffffffffffffffffffffffffffffff163373ffffffffffffffffffffffffffffffffffffffff1614611270576040517f08c379a000000000000000000000000000000000000000000000000000000000815260040161126790613549565b60405180910390fd5b806080015163ffffffff1642106112bc576040517f08c379a00000000000000000000000000000000000000000000000000000000081526004016112b3906135b5565b60405180910390fd5b600d6000838152602001908152602001600020600080820160006101000a81549073ffffffffffffffffffffffffffffffffffffffff02191690556001820160009055600282016000905560038201600090556004820160006101000a81549063ffffffff02191690556004820160046101000a81549063ffffffff02191690556004820160086101000a81549060ff021916905550507f8bf30e7ff26833413be5f69e1d373744864d600b664204b4a2f9844a8eedb9ed826040516113829190612c25565b60405180910390a15050565b80600660003373ffffffffffffffffffffffffffffffffffffffff1673ffffffffffffffffffffffffffffffffffffffff16815260200190815260200160002060008282546113dd9190613238565b9250508190555080600560008282546113f69190613238565b92505081905550600073ffffffffffffffffffffffffffffffffffffffff163373ffffffffffffffffffffffffffffffffffffffff167fddf252ad1be2c89b69c2b068fc378daa952ba7f163c4a11628f55a4df523b3ef8360405161145b9190612c25565b60405180910390a350565b60035481565b60066020528060005260406000206000915090505481565b6000600d600084815260200190815260200160002090508060040160049054906101000a900463ffffffff1663ffffffff164211156114f8576040517f08c379a00000000000000000000000000000000000000000000000000000000081526004016114ef90613621565b60405180910390fd5b60003373ffffffffffffffffffffffffffffffffffffffff168360405161151e906132f3565b60006040518083038185875af1925050503d806000811461155b576040519150601f19603f3d011682016040523d82523d6000602084013e611560565b606091505b50509050806115a4576040517f08c379a000000000000000000000000000000000000000000000000000000000815260040161159b90613354565b60405180910390fd5b828260030160008282546115b89190613238565b9250508190555082600e600086815260200190815260200160002060003373ffffffffffffffffffffffffffffffffffffffff1673ffffffffffffffffffffffffffffffffffffffff168152602001908152602001600020600082825461161f9190613238565b925050819055503373ffffffffffffffffffffffffffffffffffffffff16847f2eeeab891b26a214d1b25749f88a406bdea852bd8c9bfda977e0ef8114c180ba8560405161166d9190612c25565b60405180910390a350505050565b600a60009054906101000a900460ff1681565b600660008273ffffffffffffffffffffffffffffffffffffffff1673ffffffffffffffffffffffffffffffffffffffff16815260200190815260200160002054821061170f576040517f08c379a00000000000000000000000000000000000000000000000000000000081526004016117069061368d565b60405180910390fd5b611718826125dc565b81600660008373ffffffffffffffffffffffffffffffffffffffff1673ffffffffffffffffffffffffffffffffffffffff16815260200190815260200160002060008282546117679190613238565b9250508190555081600560008282546117809190613238565b925050819055505050565b60055481565b6009805461179e906131d7565b80601f01602080910402602001604051908101604052809291908181526020018280546117ca906131d7565b80156118175780601f106117ec57610100808354040283529160200191611817565b820191906000526020600020905b8154815290600101906020018083116117fa57829003601f168201915b505050505081565b7f000000000000000000000000000000000000000000000000000000000000000081565b80600660003073ffffffffffffffffffffffffffffffffffffffff1673ffffffffffffffffffffffffffffffffffffffff1681526020019081526020016000206000828254611892919061326c565b9250508190555080600460008282546118ab919061326c565b9250508190555080600560008282546118c4919061326c565b925050819055503073ffffffffffffffffffffffffffffffffffffffff16600073ffffffffffffffffffffffffffffffffffffffff167fddf252ad1be2c89b69c2b068fc378daa952ba7f163c4a11628f55a4df523b3ef836040516119299190612c25565b60405180910390a350565b600081600660003373ffffffffffffffffffffffffffffffffffffffff1673ffffffffffffffffffffffffffffffffffffffff16815260200190815260200160002060008282546119859190613238565b9250508190555081600660008573ffffffffffffffffffffffffffffffffffffffff1673ffffffffffffffffffffffffffffffffffffffff16815260200190815260200160002060008282546119db919061326c565b925050819055508273ffffffffffffffffffffffffffffffffffffffff163373ffffffffffffffffffffffffffffffffffffffff167fddf252ad1be2c89b69c2b068fc378daa952ba7f163c4a11628f55a4df523b3ef84604051611a3f9190612c25565b60405180910390a36001905092915050565b600e602052816000526040600020602052806000526040600020600091509150505481565b6000600d6000858152602001908152602001600020905060008273ffffffffffffffffffffffffffffffffffffffff1684604051611ab3906132f3565b60006040518083038185875af1925050503d8060008114611af0576040519150601f19603f3d011682016040523d82523d6000602084013e611af5565b606091505b5050905080611b39576040517f08c379a0000000000000000000000000000000000000000000000000000000008152600401611b3090613354565b60405180910390fd5b60018260040160086101000a81548160ff0219169083151502179055507f7bb2b3c10797baccb6f8c4791f1edd6ca2f0d028ee0eda64b01a9a57e3a653f785604051611b859190612c25565b60405180910390a15050505050565b6000600e600084815260200190815260200160002060008373ffffffffffffffffffffffffffffffffffffffff1673ffffffffffffffffffffffffffffffffffffffff1681526020019081526020016000205411611c27576040517f08c379a0000000000000000000000000000000000000000000000000000000008152600401611c1e906136f9565b60405180910390fd5b7f000000000000000000000000000000000000000000000000000000000000000073ffffffffffffffffffffffffffffffffffffffff1663fbd95a397f00000000000000000000000000000000000000000000000000000000000000008366038d7ea4c68000600e600088815260200190815260200160002060008773ffffffffffffffffffffffffffffffffffffffff1673ffffffffffffffffffffffffffffffffffffffff16815260200190815260200160002054611ce89190613748565b6040518463ffffffff1660e01b8152600401611d0693929190613779565b600060405180830381600087803b158015611d2057600080fd5b505af1158015611d34573d6000803e3d6000fd5b505050506000600e600084815260200190815260200160002060008373ffffffffffffffffffffffffffffffffffffffff1673ffffffffffffffffffffffffffffffffffffffff168152602001908152602001600020819055505050565b7f000000000000000000000000000000000000000000000000000000000000000073ffffffffffffffffffffffffffffffffffffffff1663e22f9ea630836040518363ffffffff1660e01b8152600401611ded9291906137b0565b600060405180830381600087803b158015611e0757600080fd5b505af1158015611e1b573d6000803e3d6000fd5b5050505050565b6007602052816000526040600020602052806000526040600020600091509150505481565b7f909c57d5c6ac08245cf2a6de3900e2b868513fa59099b92b27d8db823d92df9c600660003073ffffffffffffffffffffffffffffffffffffffff1673ffffffffffffffffffffffffffffffffffffffff16815260200190815260200160002054604051611eb59190612c25565b60405180910390a180600660003073ffffffffffffffffffffffffffffffffffffffff1673ffffffffffffffffffffffffffffffffffffffff1681526020019081526020016000206000828254611f0c9190613238565b9250508190555080600660008473ffffffffffffffffffffffffffffffffffffffff1673ffffffffffffffffffffffffffffffffffffffff1681526020019081526020016000206000828254611f62919061326c565b925050819055508173ffffffffffffffffffffffffffffffffffffffff163073ffffffffffffffffffffffffffffffffffffffff167fddf252ad1be2c89b69c2b068fc378daa952ba7f163c4a11628f55a4df523b3ef83604051611fc69190612c25565b60405180910390a35050565b60008060006040518060400160405280600081526020016001600260008873ffffffffffffffffffffffffffffffffffffffff1673ffffffffffffffffffffffffffffffffffffffff168152602001908152602001600020548154811061203c5761203b6137d9565b5b9060005260206000209060020201600101805480602002602001604051908101604052809291908181526020016000905b8282101561211357838290600052602060002090600402016040518060800160405290816000820160009054906101000a900473ffffffffffffffffffffffffffffffffffffffff1673ffffffffffffffffffffffffffffffffffffffff1673ffffffffffffffffffffffffffffffffffffffff16815260200160018201548152602001600282015481526020016003820154815250508152602001906001019061206d565b50505050815250905060005b8160200151518110156121eb57600061217c83602001518381518110612148576121476137d9565b5b6020026020010151604001518460200151848151811061216b5761216a6137d9565b5b6020026020010151602001516127da565b90508083602001518381518110612196576121956137d9565b5b60200260200101516060018181525050826020015182815181106121bd576121bc6137d9565b5b602002602001015160600151846121d4919061326c565b9350506001816121e4919061326c565b905061211f565b5081816000018181525050806000015192505050919050565b60006122108383612813565b905080600660003373ffffffffffffffffffffffffffffffffffffffff1673ffffffffffffffffffffffffffffffffffffffff1681526020019081526020016000206000828254612261919061326c565b92505081905550806004600082825461227a919061326c565b925050819055508060056000828254612293919061326c565b92505081905550505050565b600b5481565b80600660008473ffffffffffffffffffffffffffffffffffffffff1673ffffffffffffffffffffffffffffffffffffffff16815260200190815260200160002060008282546122f4919061326c565b925050819055508173ffffffffffffffffffffffffffffffffffffffff168373ffffffffffffffffffffffffffffffffffffffff167fddf252ad1be2c89b69c2b068fc378daa952ba7f163c4a11628f55a4df523b3ef836040516123589190612c25565b60405180910390a3505050565b7f000000000000000000000000000000000000000000000000000000000000000081565b6000600d60008481526020019081526020016000209050600082116123e3576040517f08c379a00000000000000000000000000000000000000000000000000000000081526004016123da90613854565b60405180910390fd5b6000600e600085815260200190815260200160002060003373ffffffffffffffffffffffffffffffffffffffff1673ffffffffffffffffffffffffffffffffffffffff168152602001908152602001600020541415612459576001816001016000828254612451919061326c565b925050819055505b60003073ffffffffffffffffffffffffffffffffffffffff168360405161247f906132f3565b60006040518083038185875af1925050503d80600081146124bc576040519150601f19603f3d011682016040523d82523d6000602084013e6124c1565b606091505b5050905080612505576040517f08c379a00000000000000000000000000000000000000000000000000000000081526004016124fc90613354565b60405180910390fd5b82826003016000828254612519919061326c565b9250508190555082600e600086815260200190815260200160002060003373ffffffffffffffffffffffffffffffffffffffff1673ffffffffffffffffffffffffffffffffffffffff1681526020019081526020016000206000828254612580919061326c565b925050819055503373ffffffffffffffffffffffffffffffffffffffff16847f06bdb975df800a73232998e71ed585d536222f1dfeaa622d7f62a23ada686c82856040516125ce9190612c25565b60405180910390a350505050565b6000811161261f576040517f08c379a0000000000000000000000000000000000000000000000000000000008152600401612616906138c0565b60405180910390fd5b6000600260003373ffffffffffffffffffffffffffffffffffffffff1673ffffffffffffffffffffffffffffffffffffffff1681526020019081526020016000205490506000429050600082141561267d5761267a33612afe565b91505b60018281548110612691576126906137d9565b5b906000526020600020906002020160010160405180608001604052803373ffffffffffffffffffffffffffffffffffffffff1681526020018581526020018381526020016000815250908060018154018082558091505060019003906000526020600020906004020160009091909190915060008201518160000160006101000a81548173ffffffffffffffffffffffffffffffffffffffff021916908373ffffffffffffffffffffffffffffffffffffffff1602179055506020820151816001015560408201518160020155606082015181600301555050826003600082825461277c919061326c565b925050819055503373ffffffffffffffffffffffffffffffffffffffff167fb4caaf29adda3eefee3ad552a8e85058589bf834c7466cae4ee58787f70589ed8484846040516127cd939291906138e0565b60405180910390a2505050565b6000805482603c85426127ed9190613238565b6127f79190613748565b6128019190613917565b61280b9190613748565b905092915050565b600080600260003373ffffffffffffffffffffffffffffffffffffffff1673ffffffffffffffffffffffffffffffffffffffff16815260200190815260200160002054905060006001828154811061286e5761286d6137d9565b5b90600052602060002090600202016001018481548110612891576128906137d9565b5b90600052602060002090600402016040518060800160405290816000820160009054906101000a900473ffffffffffffffffffffffffffffffffffffffff1673ffffffffffffffffffffffffffffffffffffffff1673ffffffffffffffffffffffffffffffffffffffff168152602001600182015481526020016002820154815260200160038201548152505090508481602001511015612967576040517f08c379a000000000000000000000000000000000000000000000000000000000815260040161295e906139e3565b60405180910390fd5b600061297b826040015183602001516127da565b9050856003600082825461298f9190613238565b925050819055508582602001516129a69190613238565b826020018181525050600082602001511415612a4857600183815481106129d0576129cf6137d9565b5b906000526020600020906002020160010185815481106129f3576129f26137d9565b5b9060005260206000209060040201600080820160006101000a81549073ffffffffffffffffffffffffffffffffffffffff02191690556001820160009055600282016000905560038201600090555050612ae7565b816020015160018481548110612a6157612a606137d9565b5b90600052602060002090600202016001018681548110612a8457612a836137d9565b5b9060005260206000209060040201600101819055504260018481548110612aae57612aad6137d9565b5b90600052602060002090600202016001018681548110612ad157612ad06137d9565b5b9060005260206000209060040201600201819055505b8086612af3919061326c565b935050505092915050565b60006001808160018154018082558091505003906000526020600020905050600060018080549050612b309190613238565b90508260018281548110612b4757612b466137d9565b5b906000526020600020906002020160000160006101000a81548173ffffffffffffffffffffffffffffffffffffffff021916908373ffffffffffffffffffffffffffffffffffffffff16021790555080600260008573ffffffffffffffffffffffffffffffffffffffff1673ffffffffffffffffffffffffffffffffffffffff1681526020019081526020016000208190555080915050919050565b6000819050919050565b612bf681612be3565b82525050565b6000604082019050612c116000830185612bed565b612c1e6020830184612bed565b9392505050565b6000602082019050612c3a6000830184612bed565b92915050565b600081519050919050565b600082825260208201905092915050565b60005b83811015612c7a578082015181840152602081019050612c5f565b83811115612c89576000848401525b50505050565b6000601f19601f8301169050919050565b6000612cab82612c40565b612cb58185612c4b565b9350612cc5818560208601612c5c565b612cce81612c8f565b840191505092915050565b60006020820190508181036000830152612cf38184612ca0565b905092915050565b600080fd5b600073ffffffffffffffffffffffffffffffffffffffff82169050919050565b6000612d2b82612d00565b9050919050565b612d3b81612d20565b8114612d4657600080fd5b50565b600081359050612d5881612d32565b92915050565b612d6781612be3565b8114612d7257600080fd5b50565b600081359050612d8481612d5e565b92915050565b60008060408385031215612da157612da0612cfb565b5b6000612daf85828601612d49565b9250506020612dc085828601612d75565b9150509250929050565b60008115159050919050565b612ddf81612dca565b82525050565b6000602082019050612dfa6000830184612dd6565b92915050565b600060208284031215612e1657612e15612cfb565b5b6000612e2484828501612d75565b91505092915050565b612e3681612d20565b82525050565b600063ffffffff82169050919050565b612e5581612e3c565b82525050565b600060e082019050612e70600083018a612e2d565b612e7d6020830189612bed565b612e8a6040830188612bed565b612e976060830187612bed565b612ea46080830186612e4c565b612eb160a0830185612e4c565b612ebe60c0830184612dd6565b98975050505050505050565b6000602082019050612edf6000830184612e2d565b92915050565b600080600060608486031215612efe57612efd612cfb565b5b6000612f0c86828701612d49565b9350506020612f1d86828701612d49565b9250506040612f2e86828701612d75565b9150509250925092565b612f4181612e3c565b8114612f4c57600080fd5b50565b600081359050612f5e81612f38565b92915050565b600080600060608486031215612f7d57612f7c612cfb565b5b6000612f8b86828701612d75565b9350506020612f9c86828701612f4f565b9250506040612fad86828701612f4f565b9150509250925092565b600060208284031215612fcd57612fcc612cfb565b5b6000612fdb84828501612d49565b91505092915050565b60008060408385031215612ffb57612ffa612cfb565b5b600061300985828601612d75565b925050602061301a85828601612d75565b9150509250929050565b600060ff82169050919050565b61303a81613024565b82525050565b60006020820190506130556000830184613031565b92915050565b6000806040838503121561307257613071612cfb565b5b600061308085828601612d75565b925050602061309185828601612d49565b9150509250929050565b6000806000606084860312156130b4576130b3612cfb565b5b60006130c286828701612d75565b93505060206130d386828701612d75565b92505060406130e486828701612d49565b9150509250925092565b6000806040838503121561310557613104612cfb565b5b600061311385828601612d49565b925050602061312485828601612d49565b9150509250929050565b6000819050919050565b600061315361314e61314984612d00565b61312e565b612d00565b9050919050565b600061316582613138565b9050919050565b60006131778261315a565b9050919050565b6131878161316c565b82525050565b60006020820190506131a2600083018461317e565b92915050565b7f4e487b7100000000000000000000000000000000000000000000000000000000600052602260045260246000fd5b600060028204905060018216806131ef57607f821691505b60208210811415613203576132026131a8565b5b50919050565b7f4e487b7100000000000000000000000000000000000000000000000000000000600052601160045260246000fd5b600061324382612be3565b915061324e83612be3565b92508282101561326157613260613209565b5b828203905092915050565b600061327782612be3565b915061328283612be3565b9250827fffffffffffffffffffffffffffffffffffffffffffffffffffffffffffffffff038211156132b7576132b6613209565b5b828201905092915050565b600081905092915050565b50565b60006132dd6000836132c2565b91506132e8826132cd565b600082019050919050565b60006132fe826132d0565b9150819050919050565b7f43616c6c206661696c6564000000000000000000000000000000000000000000600082015250565b600061333e600b83612c4b565b915061334982613308565b602082019050919050565b6000602082019050818103600083015261336d81613331565b9050919050565b7f5374617274206174203c206e6f77000000000000000000000000000000000000600082015250565b60006133aa600e83612c4b565b91506133b582613374565b602082019050919050565b600060208201905081810360008301526133d98161339d565b9050919050565b7f656e64206174203c207374617274206174000000000000000000000000000000600082015250565b6000613416601183612c4b565b9150613421826133e0565b602082019050919050565b6000602082019050818103600083015261344581613409565b9050919050565b7f656e64206174203e206d6178206475726174696f6e0000000000000000000000600082015250565b6000613482601583612c4b565b915061348d8261344c565b602082019050919050565b600060208201905081810360008301526134b181613475565b9050919050565b60006080820190506134cd6000830187612bed565b6134da6020830186612bed565b6134e76040830185612e4c565b6134f46060830184612e4c565b95945050505050565b7f4e6f742063726561746f72000000000000000000000000000000000000000000600082015250565b6000613533600b83612c4b565b915061353e826134fd565b602082019050919050565b6000602082019050818103600083015261356281613526565b9050919050565b7f7374617274656400000000000000000000000000000000000000000000000000600082015250565b600061359f600783612c4b565b91506135aa82613569565b602082019050919050565b600060208201905081810360008301526135ce81613592565b9050919050565b7f456e646564000000000000000000000000000000000000000000000000000000600082015250565b600061360b600583612c4b565b9150613616826135d5565b602082019050919050565b6000602082019050818103600083015261363a816135fe565b9050919050565b7f4e6f7420656e6f75676820746f6b656e73000000000000000000000000000000600082015250565b6000613677601183612c4b565b915061368282613641565b602082019050919050565b600060208201905081810360008301526136a68161366a565b9050919050565b7f4e6f7468696e6720706c65646765640000000000000000000000000000000000600082015250565b60006136e3600f83612c4b565b91506136ee826136ad565b602082019050919050565b60006020820190508181036000830152613712816136d6565b9050919050565b7f4e487b7100000000000000000000000000000000000000000000000000000000600052601260045260246000fd5b600061375382612be3565b915061375e83612be3565b92508261376e5761376d613719565b5b828204905092915050565b600060608201905061378e6000830186612e2d565b61379b6020830185612e2d565b6137a86040830184612bed565b949350505050565b60006040820190506137c56000830185612e2d565b6137d26020830184612bed565b9392505050565b7f4e487b7100000000000000000000000000000000000000000000000000000000600052603260045260246000fd5b7f416d6f756e742073686f756c6420626520626967676572207468616e20300000600082015250565b600061383e601e83612c4b565b915061384982613808565b602082019050919050565b6000602082019050818103600083015261386d81613831565b9050919050565b7f43616e6e6f74207374616b65206e6f7468696e67000000000000000000000000600082015250565b60006138aa601483612c4b565b91506138b582613874565b602082019050919050565b600060208201905081810360008301526138d98161389d565b9050919050565b60006060820190506138f56000830186612bed565b6139026020830185612bed565b61390f6040830184612bed565b949350505050565b600061392282612be3565b915061392d83612be3565b9250817fffffffffffffffffffffffffffffffffffffffffffffffffffffffffffffffff048311821515161561396657613965613209565b5b828202905092915050565b7f5374616b696e673a2043616e6e6f74207769746864726177206d6f726520746860008201527f616e20796f752068617665207374616b65640000000000000000000000000000602082015250565b60006139cd603283612c4b565b91506139d882613971565b604082019050919050565b600060208201905081810360008301526139fc816139c0565b905091905056fea2646970667358221220e387cb64dfdc1e74940523688b18207913b60404e6ec40ba7fae19860fba0d2664736f6c634300080a0033",
  "linkReferences": {},
  "deployedLinkReferences": {}
}