{
  "_format": "hh-sol-artifact-1",
  "contractName": "Crowdfund",
  "sourceName": "contracts/Crowdfund.sol",
  "abi": [
    {
      "inputs": [
        {
          "internalType": "address",
          "name": "_token",
          "type": "address"
        }
      ],
      "stateMutability": "nonpayable",
      "type": "constructor"
    },
    {
      "anonymous": false,
      "inputs": [
        {
          "indexed": true,
          "internalType": "address",
          "name": "owner",
          "type": "address"
        },
        {
          "indexed": true,
          "internalType": "address",
          "name": "sender",
          "type": "address"
        },
        {
          "indexed": false,
          "internalType": "uint256",
          "name": "amount",
          "type": "uint256"
        }
      ],
      "name": "Approval",
      "type": "event"
    },
    {
      "anonymous": false,
      "inputs": [
        {
          "indexed": false,
          "internalType": "uint256",
          "name": "id",
          "type": "uint256"
        }
      ],
      "name": "Cancel",
      "type": "event"
    },
    {
      "anonymous": false,
      "inputs": [
        {
          "indexed": false,
          "internalType": "uint256",
          "name": "id",
          "type": "uint256"
        }
      ],
      "name": "Claim",
      "type": "event"
    },
    {
      "anonymous": false,
      "inputs": [
        {
          "indexed": false,
          "internalType": "uint256",
          "name": "id",
          "type": "uint256"
        },
        {
          "indexed": true,
          "internalType": "address",
          "name": "creator",
          "type": "address"
        },
        {
          "indexed": false,
          "internalType": "uint256",
          "name": "goal",
          "type": "uint256"
        },
        {
          "indexed": false,
          "internalType": "uint32",
          "name": "startAt",
          "type": "uint32"
        },
        {
          "indexed": false,
          "internalType": "uint32",
          "name": "endAt",
          "type": "uint32"
        }
      ],
      "name": "Launch",
      "type": "event"
    },
    {
      "anonymous": false,
      "inputs": [
        {
          "indexed": false,
          "internalType": "uint256",
          "name": "amount",
          "type": "uint256"
        },
        {
          "indexed": false,
          "internalType": "uint256",
          "name": "gas",
          "type": "uint256"
        }
      ],
      "name": "Log",
      "type": "event"
    },
    {
      "anonymous": false,
      "inputs": [
        {
          "indexed": false,
          "internalType": "uint256",
          "name": "amount",
          "type": "uint256"
        }
      ],
      "name": "Log",
      "type": "event"
    },
    {
      "anonymous": false,
      "inputs": [
        {
          "indexed": true,
          "internalType": "uint256",
          "name": "id",
          "type": "uint256"
        },
        {
          "indexed": true,
          "internalType": "address",
          "name": "caller",
          "type": "address"
        },
        {
          "indexed": false,
          "internalType": "uint256",
          "name": "amount",
          "type": "uint256"
        }
      ],
      "name": "Pledge",
      "type": "event"
    },
    {
      "anonymous": false,
      "inputs": [
        {
          "indexed": true,
          "internalType": "uint256",
          "name": "id",
          "type": "uint256"
        },
        {
          "indexed": true,
          "internalType": "address",
          "name": "caller",
          "type": "address"
        },
        {
          "indexed": false,
          "internalType": "uint256",
          "name": "amount",
          "type": "uint256"
        }
      ],
      "name": "Refund",
      "type": "event"
    },
    {
      "anonymous": false,
      "inputs": [
        {
          "indexed": true,
          "internalType": "address",
          "name": "user",
          "type": "address"
        },
        {
          "indexed": false,
          "internalType": "uint256",
          "name": "amount",
          "type": "uint256"
        },
        {
          "indexed": false,
          "internalType": "uint256",
          "name": "index",
          "type": "uint256"
        },
        {
          "indexed": false,
          "internalType": "uint256",
          "name": "timestamp",
          "type": "uint256"
        }
      ],
      "name": "Staked",
      "type": "event"
    },
    {
      "anonymous": false,
      "inputs": [
        {
          "indexed": true,
          "internalType": "address",
          "name": "from",
          "type": "address"
        },
        {
          "indexed": true,
          "internalType": "address",
          "name": "to",
          "type": "address"
        },
        {
          "indexed": false,
          "internalType": "uint256",
          "name": "amount",
          "type": "uint256"
        }
      ],
      "name": "Transfer",
      "type": "event"
    },
    {
      "anonymous": false,
      "inputs": [
        {
          "indexed": true,
          "internalType": "uint256",
          "name": "id",
          "type": "uint256"
        },
        {
          "indexed": true,
          "internalType": "address",
          "name": "caller",
          "type": "address"
        },
        {
          "indexed": false,
          "internalType": "uint256",
          "name": "amount",
          "type": "uint256"
        }
      ],
      "name": "Unpledge",
      "type": "event"
    },
    {
      "inputs": [
        {
          "internalType": "address",
          "name": "",
          "type": "address"
        },
        {
          "internalType": "address",
          "name": "",
          "type": "address"
        }
      ],
      "name": "allowance",
      "outputs": [
        {
          "internalType": "uint256",
          "name": "",
          "type": "uint256"
        }
      ],
      "stateMutability": "view",
      "type": "function"
    },
    {
      "inputs": [],
      "name": "amountStaked",
      "outputs": [
        {
          "internalType": "uint256",
          "name": "",
          "type": "uint256"
        }
      ],
      "stateMutability": "view",
      "type": "function"
    },
    {
      "inputs": [
        {
          "internalType": "address",
          "name": "sender",
          "type": "address"
        },
        {
          "internalType": "uint256",
          "name": "amount",
          "type": "uint256"
        }
      ],
      "name": "approve",
      "outputs": [
        {
          "internalType": "bool",
          "name": "",
          "type": "bool"
        }
      ],
      "stateMutability": "nonpayable",
      "type": "function"
    },
    {
      "inputs": [
        {
          "internalType": "address",
          "name": "",
          "type": "address"
        }
      ],
      "name": "balanceOf",
      "outputs": [
        {
          "internalType": "uint256",
          "name": "",
          "type": "uint256"
        }
      ],
      "stateMutability": "view",
      "type": "function"
    },
    {
      "inputs": [
        {
          "internalType": "uint256",
          "name": "amount",
          "type": "uint256"
        }
      ],
      "name": "burn",
      "outputs": [],
      "stateMutability": "nonpayable",
      "type": "function"
    },
    {
      "inputs": [
        {
          "internalType": "uint256",
          "name": "since",
          "type": "uint256"
        },
        {
          "internalType": "uint256",
          "name": "amount",
          "type": "uint256"
        }
      ],
      "name": "calculateStakeReward",
      "outputs": [
        {
          "internalType": "uint256",
          "name": "",
          "type": "uint256"
        }
      ],
      "stateMutability": "view",
      "type": "function"
    },
    {
      "inputs": [
        {
          "internalType": "uint256",
          "name": "",
          "type": "uint256"
        }
      ],
      "name": "campaigns",
      "outputs": [
        {
          "internalType": "address",
          "name": "creator",
          "type": "address"
        },
        {
          "internalType": "uint256",
          "name": "numberOfInvestors",
          "type": "uint256"
        },
        {
          "internalType": "uint256",
          "name": "goal",
          "type": "uint256"
        },
        {
          "internalType": "uint256",
          "name": "pledged",
          "type": "uint256"
        },
        {
          "internalType": "uint32",
          "name": "startAt",
          "type": "uint32"
        },
        {
          "internalType": "uint32",
          "name": "endAt",
          "type": "uint32"
        },
        {
          "internalType": "bool",
          "name": "claimed",
          "type": "bool"
        }
      ],
      "stateMutability": "view",
      "type": "function"
    },
    {
      "inputs": [
        {
          "internalType": "uint256",
          "name": "_id",
          "type": "uint256"
        }
      ],
      "name": "cancel",
      "outputs": [],
      "stateMutability": "nonpayable",
      "type": "function"
    },
    {
      "inputs": [],
      "name": "circulatingSupply",
      "outputs": [
        {
          "internalType": "uint256",
          "name": "",
          "type": "uint256"
        }
      ],
      "stateMutability": "view",
      "type": "function"
    },
    {
      "inputs": [
        {
          "internalType": "uint256",
          "name": "_id",
          "type": "uint256"
        },
        {
          "internalType": "uint256",
          "name": "amount",
          "type": "uint256"
        },
        {
          "internalType": "address",
          "name": "adr",
          "type": "address"
        }
      ],
      "name": "claim",
      "outputs": [],
      "stateMutability": "payable",
      "type": "function"
    },
    {
      "inputs": [
        {
          "internalType": "uint256",
          "name": "_id",
          "type": "uint256"
        },
        {
          "internalType": "address",
          "name": "adr",
          "type": "address"
        }
      ],
      "name": "claimShares",
      "outputs": [],
      "stateMutability": "nonpayable",
      "type": "function"
    },
    {
      "inputs": [],
      "name": "count",
      "outputs": [
        {
          "internalType": "uint256",
          "name": "",
          "type": "uint256"
        }
      ],
      "stateMutability": "view",
      "type": "function"
    },
    {
      "inputs": [],
      "name": "decimal",
      "outputs": [
        {
          "internalType": "uint8",
          "name": "",
          "type": "uint8"
        }
      ],
      "stateMutability": "view",
      "type": "function"
    },
    {
      "inputs": [
        {
          "internalType": "address",
          "name": "adr",
          "type": "address"
        }
      ],
      "name": "getSummary",
      "outputs": [
        {
          "internalType": "uint256",
          "name": "",
          "type": "uint256"
        }
      ],
      "stateMutability": "view",
      "type": "function"
    },
    {
      "inputs": [
        {
          "internalType": "uint256",
          "name": "amount",
          "type": "uint256"
        }
      ],
      "name": "getTokens",
      "outputs": [],
      "stateMutability": "payable",
      "type": "function"
    },
    {
      "inputs": [],
      "name": "getTotalAmountStaked",
      "outputs": [
        {
          "internalType": "uint256",
          "name": "",
          "type": "uint256"
        }
      ],
      "stateMutability": "view",
      "type": "function"
    },
    {
      "inputs": [
        {
          "internalType": "address",
          "name": "adr",
          "type": "address"
        }
      ],
      "name": "getUserStakes",
      "outputs": [
        {
          "components": [
            {
              "internalType": "address",
              "name": "user",
              "type": "address"
            },
            {
              "internalType": "uint256",
              "name": "amount",
              "type": "uint256"
            },
            {
              "internalType": "uint256",
              "name": "since",
              "type": "uint256"
            },
            {
              "internalType": "bool",
              "name": "claimable",
              "type": "bool"
            }
          ],
          "internalType": "struct Staking.Stake[]",
          "name": "",
          "type": "tuple[]"
        }
      ],
      "stateMutability": "view",
      "type": "function"
    },
    {
      "inputs": [
        {
          "internalType": "address",
          "name": "_staker",
          "type": "address"
        }
      ],
      "name": "hasStake",
      "outputs": [
        {
          "internalType": "uint256",
          "name": "",
          "type": "uint256"
        }
      ],
      "stateMutability": "view",
      "type": "function"
    },
    {
      "inputs": [
        {
          "internalType": "address",
          "name": "",
          "type": "address"
        },
        {
          "internalType": "uint256",
          "name": "",
          "type": "uint256"
        }
      ],
      "name": "investors",
      "outputs": [
        {
          "internalType": "uint256",
          "name": "",
          "type": "uint256"
        }
      ],
      "stateMutability": "view",
      "type": "function"
    },
    {
      "inputs": [
        {
          "internalType": "uint256",
          "name": "_goal",
          "type": "uint256"
        },
        {
          "internalType": "uint32",
          "name": "_startAt",
          "type": "uint32"
        },
        {
          "internalType": "uint32",
          "name": "_endAt",
          "type": "uint32"
        }
      ],
      "name": "launch",
      "outputs": [
        {
          "internalType": "uint256",
          "name": "",
          "type": "uint256"
        }
      ],
      "stateMutability": "nonpayable",
      "type": "function"
    },
    {
      "inputs": [
        {
          "internalType": "uint256",
          "name": "amount",
          "type": "uint256"
        }
      ],
      "name": "mint",
      "outputs": [],
      "stateMutability": "nonpayable",
      "type": "function"
    },
    {
      "inputs": [],
      "name": "name",
      "outputs": [
        {
          "internalType": "string",
          "name": "",
          "type": "string"
        }
      ],
      "stateMutability": "view",
      "type": "function"
    },
    {
      "inputs": [
        {
          "internalType": "uint256",
          "name": "_id",
          "type": "uint256"
        },
        {
          "internalType": "uint256",
          "name": "_amount",
          "type": "uint256"
        },
        {
          "internalType": "address",
          "name": "adr",
          "type": "address"
        }
      ],
      "name": "pledge",
      "outputs": [],
      "stateMutability": "payable",
      "type": "function"
    },
    {
      "inputs": [
        {
          "internalType": "uint256",
          "name": "",
          "type": "uint256"
        },
        {
          "internalType": "address",
          "name": "",
          "type": "address"
        }
      ],
      "name": "pledgedAmount",
      "outputs": [
        {
          "internalType": "uint256",
          "name": "",
          "type": "uint256"
        }
      ],
      "stateMutability": "view",
      "type": "function"
    },
    {
      "inputs": [
        {
          "internalType": "uint256",
          "name": "_id",
          "type": "uint256"
        }
      ],
      "name": "refund",
      "outputs": [],
      "stateMutability": "nonpayable",
      "type": "function"
    },
    {
      "inputs": [
        {
          "internalType": "address",
          "name": "sender",
          "type": "address"
        },
        {
          "internalType": "address",
          "name": "recipient",
          "type": "address"
        },
        {
          "internalType": "uint256",
          "name": "amount",
          "type": "uint256"
        }
      ],
      "name": "sendToAddress",
      "outputs": [],
      "stateMutability": "nonpayable",
      "type": "function"
    },
    {
      "inputs": [
        {
          "internalType": "address",
          "name": "recipient",
          "type": "address"
        },
        {
          "internalType": "uint256",
          "name": "amount",
          "type": "uint256"
        }
      ],
      "name": "sendToContract",
      "outputs": [],
      "stateMutability": "nonpayable",
      "type": "function"
    },
    {
      "inputs": [
        {
          "internalType": "uint256",
          "name": "_amount",
          "type": "uint256"
        },
        {
          "internalType": "address",
          "name": "adr",
          "type": "address"
        }
      ],
      "name": "stake",
      "outputs": [],
      "stateMutability": "nonpayable",
      "type": "function"
    },
    {
      "inputs": [
        {
          "internalType": "uint256",
          "name": "",
          "type": "uint256"
        }
      ],
      "name": "stakeholders",
      "outputs": [
        {
          "internalType": "address",
          "name": "user",
          "type": "address"
        }
      ],
      "stateMutability": "view",
      "type": "function"
    },
    {
      "inputs": [],
      "name": "symbol",
      "outputs": [
        {
          "internalType": "string",
          "name": "",
          "type": "string"
        }
      ],
      "stateMutability": "view",
      "type": "function"
    },
    {
      "inputs": [],
      "name": "token",
      "outputs": [
        {
          "internalType": "contract IERC20",
          "name": "",
          "type": "address"
        }
      ],
      "stateMutability": "view",
      "type": "function"
    },
    {
      "inputs": [],
      "name": "tokenAddress",
      "outputs": [
        {
          "internalType": "address",
          "name": "",
          "type": "address"
        }
      ],
      "stateMutability": "view",
      "type": "function"
    },
    {
      "inputs": [],
      "name": "totalSupply",
      "outputs": [
        {
          "internalType": "uint256",
          "name": "",
          "type": "uint256"
        }
      ],
      "stateMutability": "view",
      "type": "function"
    },
    {
      "inputs": [],
      "name": "total_amount_stacked",
      "outputs": [
        {
          "internalType": "uint256",
          "name": "",
          "type": "uint256"
        }
      ],
      "stateMutability": "view",
      "type": "function"
    },
    {
      "inputs": [
        {
          "internalType": "address",
          "name": "recipient",
          "type": "address"
        },
        {
          "internalType": "uint256",
          "name": "amount",
          "type": "uint256"
        }
      ],
      "name": "transfer",
      "outputs": [
        {
          "internalType": "bool",
          "name": "",
          "type": "bool"
        }
      ],
      "stateMutability": "nonpayable",
      "type": "function"
    },
    {
      "inputs": [
        {
          "internalType": "address",
          "name": "sender",
          "type": "address"
        },
        {
          "internalType": "address",
          "name": "recipient",
          "type": "address"
        },
        {
          "internalType": "uint256",
          "name": "amount",
          "type": "uint256"
        }
      ],
      "name": "transferFrom",
      "outputs": [
        {
          "internalType": "bool",
          "name": "",
          "type": "bool"
        }
      ],
      "stateMutability": "nonpayable",
      "type": "function"
    },
    {
      "inputs": [
        {
          "internalType": "uint256",
          "name": "_id",
          "type": "uint256"
        },
        {
          "internalType": "uint256",
          "name": "_amount",
          "type": "uint256"
        }
      ],
      "name": "unpledge",
      "outputs": [],
      "stateMutability": "nonpayable",
      "type": "function"
    },
    {
      "inputs": [
        {
          "internalType": "uint256",
          "name": "initialAmount",
          "type": "uint256"
        },
        {
          "internalType": "uint256",
          "name": "_amount",
          "type": "uint256"
        },
        {
          "internalType": "uint256",
          "name": "_amountMint",
          "type": "uint256"
        },
        {
          "internalType": "address",
          "name": "adr",
          "type": "address"
        },
        {
          "internalType": "uint256",
          "name": "id",
          "type": "uint256"
        }
      ],
      "name": "withdrawStake",
      "outputs": [],
      "stateMutability": "nonpayable",
      "type": "function"
    },
    {
      "stateMutability": "payable",
      "type": "receive"
    }
  ],
  "bytecode": "0x60c06040526103e860005560006003556040518060400160405280600881526020017f47656d73746f6e65000000000000000000000000000000000000000000000000815250600890805190602001906200005c9291906200018b565b506040518060400160405280600381526020017f474d53000000000000000000000000000000000000000000000000000000000081525060099080519060200190620000aa9291906200018b565b506003600a60006101000a81548160ff021916908360ff1602179055506000600c55348015620000d957600080fd5b5060405162004142380380620041428339818101604052810190620000ff9190620002a5565b60018081600181540180825580915050039060005260206000209050508073ffffffffffffffffffffffffffffffffffffffff1660808173ffffffffffffffffffffffffffffffffffffffff16815250508073ffffffffffffffffffffffffffffffffffffffff1660a08173ffffffffffffffffffffffffffffffffffffffff1681525050506200033c565b828054620001999062000306565b90600052602060002090601f016020900481019282620001bd576000855562000209565b82601f10620001d857805160ff191683800117855562000209565b8280016001018555821562000209579182015b8281111562000208578251825591602001919060010190620001eb565b5b5090506200021891906200021c565b5090565b5b80821115620002375760008160009055506001016200021d565b5090565b600080fd5b600073ffffffffffffffffffffffffffffffffffffffff82169050919050565b60006200026d8262000240565b9050919050565b6200027f8162000260565b81146200028b57600080fd5b50565b6000815190506200029f8162000274565b92915050565b600060208284031215620002be57620002bd6200023b565b5b6000620002ce848285016200028e565b91505092915050565b7f4e487b7100000000000000000000000000000000000000000000000000000000600052602260045260246000fd5b600060028204905060018216806200031f57607f821691505b60208210811415620003365762000335620002d7565b5b50919050565b60805160a051613dcb6200037760003960008181611faf01526123da01526000818161239e015281816125160152612aaf0152613dcb6000f3fe6080604052600436106102295760003560e01c806378dbb0bc11610123578063aa4fb63a116100ab578063e22f9ea61161006f578063e22f9ea6146108ac578063e73e14bf146108d5578063fab1e74714610912578063fbd95a391461093d578063fc0c546a1461096657610269565b8063aa4fb63a146107d1578063ac44ff311461080e578063ace1f5e11461082a578063d3c9cc2614610853578063dd62ed3e1461086f57610269565b80639358928b116100f25780639358928b146106ea57806395d89b41146107155780639d76ea5814610740578063a0712d681461076b578063a9059cbb1461079457610269565b806378dbb0bc1461061e57806379ebb6c4146106475780637acb775714610684578063842e2981146106ad57610269565b80632c63f146116101b15780635888a3e4116101755780635888a3e41461054657806367d759fb1461056257806370a082311461058d578063711853ab146105ca57806376809ce3146105f357610269565b80632c63f1461461043d5780633eb0db3b1461047a5780633f733e48146104b757806340e58ee5146104f457806342966c681461051d57610269565b806318160ddd116101f857806318160ddd146103445780631d6b8b721461036f57806323b872dd146103ac578063246d9fe8146103e9578063278ecde11461041457610269565b806306661abd1461026e57806306fdde0314610299578063095ea7b3146102c4578063141961bc1461030157610269565b36610269577fbd0faddf87043dd749c1b9d4dca8a12589b8cb5e2106832111ce23f219b14367345a60405161025f929190612de6565b60405180910390a1005b600080fd5b34801561027a57600080fd5b50610283610991565b6040516102909190612e0f565b60405180910390f35b3480156102a557600080fd5b506102ae610997565b6040516102bb9190612ec3565b60405180910390f35b3480156102d057600080fd5b506102eb60048036038101906102e69190612f74565b610a25565b6040516102f89190612fcf565b60405180910390f35b34801561030d57600080fd5b5061032860048036038101906103239190612fea565b610b17565b60405161033b9796959493929190613045565b60405180910390f35b34801561035057600080fd5b50610359610ba6565b6040516103669190612e0f565b60405180910390f35b34801561037b57600080fd5b5061039660048036038101906103919190612fea565b610bac565b6040516103a391906130b4565b60405180910390f35b3480156103b857600080fd5b506103d360048036038101906103ce91906130cf565b610bfa565b6040516103e09190612fcf565b60405180910390f35b3480156103f557600080fd5b506103fe610d18565b60405161040b9190612e0f565b60405180910390f35b34801561042057600080fd5b5061043b60048036038101906104369190612fea565b610d22565b005b34801561044957600080fd5b50610464600480360381019061045f919061314e565b610ee5565b6040516104719190612e0f565b60405180910390f35b34801561048657600080fd5b506104a1600480360381019061049c91906131a1565b61112f565b6040516104ae9190612e0f565b60405180910390f35b3480156104c357600080fd5b506104de60048036038101906104d991906131e1565b611168565b6040516104eb9190612e0f565b60405180910390f35b34801561050057600080fd5b5061051b60048036038101906105169190612fea565b61117f565b005b34801561052957600080fd5b50610544600480360381019061053f9190612fea565b61140c565b005b610560600480360381019061055b919061320e565b6114e4565b005b34801561056e57600080fd5b506105776118d5565b6040516105849190612e0f565b60405180910390f35b34801561059957600080fd5b506105b460048036038101906105af91906131e1565b6118db565b6040516105c19190612e0f565b60405180910390f35b3480156105d657600080fd5b506105f160048036038101906105ec91906131a1565b6118f3565b005b3480156105ff57600080fd5b50610608611aea565b604051610615919061327d565b60405180910390f35b34801561062a57600080fd5b5061064560048036038101906106409190613298565b611afd565b005b34801561065357600080fd5b5061066e60048036038101906106699190612f74565b611c95565b60405161067b9190612e0f565b60405180910390f35b34801561069057600080fd5b506106ab60048036038101906106a69190613313565b611cc6565b005b3480156106b957600080fd5b506106d460048036038101906106cf91906131e1565b611dc5565b6040516106e19190613484565b60405180910390f35b3480156106f657600080fd5b506106ff611f19565b60405161070c9190612e0f565b60405180910390f35b34801561072157600080fd5b5061072a611f1f565b6040516107379190612ec3565b60405180910390f35b34801561074c57600080fd5b50610755611fad565b60405161076291906130b4565b60405180910390f35b34801561077757600080fd5b50610792600480360381019061078d9190612fea565b611fd1565b005b3480156107a057600080fd5b506107bb60048036038101906107b69190612f74565b6120a9565b6040516107c89190612fcf565b60405180910390f35b3480156107dd57600080fd5b506107f860048036038101906107f39190613313565b6121c6565b6040516108059190612e0f565b60405180910390f35b6108286004803603810190610823919061320e565b6121eb565b005b34801561083657600080fd5b50610851600480360381019061084c9190613313565b612309565b005b61086d60048036038101906108689190612fea565b612514565b005b34801561087b57600080fd5b50610896600480360381019061089191906134a6565b6125a4565b6040516108a39190612e0f565b60405180910390f35b3480156108b857600080fd5b506108d360048036038101906108ce9190612f74565b6125c9565b005b3480156108e157600080fd5b506108fc60048036038101906108f791906131e1565b612786565b6040516109099190612e0f565b60405180910390f35b34801561091e57600080fd5b50610927612971565b6040516109349190612e0f565b60405180910390f35b34801561094957600080fd5b50610964600480360381019061095f91906130cf565b612977565b005b34801561097257600080fd5b5061097b612aad565b6040516109889190613545565b60405180910390f35b600c5481565b600880546109a49061358f565b80601f01602080910402602001604051908101604052809291908181526020018280546109d09061358f565b8015610a1d5780601f106109f257610100808354040283529160200191610a1d565b820191906000526020600020905b815481529060010190602001808311610a0057829003601f168201915b505050505081565b600081600760003373ffffffffffffffffffffffffffffffffffffffff1673ffffffffffffffffffffffffffffffffffffffff16815260200190815260200160002060008573ffffffffffffffffffffffffffffffffffffffff1673ffffffffffffffffffffffffffffffffffffffff168152602001908152602001600020819055508273ffffffffffffffffffffffffffffffffffffffff163373ffffffffffffffffffffffffffffffffffffffff167f8c5be1e5ebec7d5bd14f71427d1e84f3dd0314c0f7b2291e5b200ac8c7c3b92584604051610b059190612e0f565b60405180910390a36001905092915050565b600d6020528060005260406000206000915090508060000160009054906101000a900473ffffffffffffffffffffffffffffffffffffffff16908060010154908060020154908060030154908060040160009054906101000a900463ffffffff16908060040160049054906101000a900463ffffffff16908060040160089054906101000a900460ff16905087565b60045481565b60018181548110610bbc57600080fd5b90600052602060002090600202016000915090508060000160009054906101000a900473ffffffffffffffffffffffffffffffffffffffff16905081565b600081600660008673ffffffffffffffffffffffffffffffffffffffff1673ffffffffffffffffffffffffffffffffffffffff1681526020019081526020016000206000828254610c4b91906135f0565b9250508190555081600660008573ffffffffffffffffffffffffffffffffffffffff1673ffffffffffffffffffffffffffffffffffffffff1681526020019081526020016000206000828254610ca19190613624565b925050819055508273ffffffffffffffffffffffffffffffffffffffff168473ffffffffffffffffffffffffffffffffffffffff167fddf252ad1be2c89b69c2b068fc378daa952ba7f163c4a11628f55a4df523b3ef84604051610d059190612e0f565b60405180910390a3600190509392505050565b6000600354905090565b6000600d600083815260200190815260200160002090506000600e600084815260200190815260200160002060003373ffffffffffffffffffffffffffffffffffffffff1673ffffffffffffffffffffffffffffffffffffffff16815260200190815260200160002054905060003373ffffffffffffffffffffffffffffffffffffffff1682604051610db4906136ab565b60006040518083038185875af1925050503d8060008114610df1576040519150601f19603f3d011682016040523d82523d6000602084013e610df6565b606091505b5050905080610e3a576040517f08c379a0000000000000000000000000000000000000000000000000000000008152600401610e319061370c565b60405180910390fd5b6000600e600086815260200190815260200160002060003373ffffffffffffffffffffffffffffffffffffffff1673ffffffffffffffffffffffffffffffffffffffff168152602001908152602001600020819055503373ffffffffffffffffffffffffffffffffffffffff16847f21e12a7cad0da5928167e1084ea4d5fdf8d9af66657a2543a9ac76a0ca08147784604051610ed79190612e0f565b60405180910390a350505050565b6000428363ffffffff161015610f30576040517f08c379a0000000000000000000000000000000000000000000000000000000008152600401610f2790613778565b60405180910390fd5b8263ffffffff168263ffffffff161015610f7f576040517f08c379a0000000000000000000000000000000000000000000000000000000008152600401610f76906137e4565b60405180910390fd5b6276a70042610f8e9190613624565b8263ffffffff161115610fd6576040517f08c379a0000000000000000000000000000000000000000000000000000000008152600401610fcd90613850565b60405180910390fd5b6000600d6000600c5481526020019081526020016000209050338160000160006101000a81548173ffffffffffffffffffffffffffffffffffffffff021916908373ffffffffffffffffffffffffffffffffffffffff1602179055506000816001018190555084816002018190555060008160030181905550838160040160006101000a81548163ffffffff021916908363ffffffff160217905550828160040160046101000a81548163ffffffff021916908363ffffffff16021790555060008160040160086101000a81548160ff0219169083151502179055506001600c60008282546110c59190613624565b925050819055503373ffffffffffffffffffffffffffffffffffffffff167f0601cd0d650b473037e838a2696d41e654433d065b3f56b28d1d3302e44a304f600c5487878760405161111a9493929190613870565b60405180910390a2600c549150509392505050565b6000805482603c854261114291906135f0565b61114c91906138e4565b6111569190613915565b61116091906138e4565b905092915050565b60008061117483612786565b905080915050919050565b6000600d60008381526020019081526020016000206040518060e00160405290816000820160009054906101000a900473ffffffffffffffffffffffffffffffffffffffff1673ffffffffffffffffffffffffffffffffffffffff1673ffffffffffffffffffffffffffffffffffffffff1681526020016001820154815260200160028201548152602001600382015481526020016004820160009054906101000a900463ffffffff1663ffffffff1663ffffffff1681526020016004820160049054906101000a900463ffffffff1663ffffffff1663ffffffff1681526020016004820160089054906101000a900460ff1615151515815250509050806000015173ffffffffffffffffffffffffffffffffffffffff163373ffffffffffffffffffffffffffffffffffffffff16146112ee576040517f08c379a00000000000000000000000000000000000000000000000000000000081526004016112e5906139bb565b60405180910390fd5b806080015163ffffffff16421061133a576040517f08c379a000000000000000000000000000000000000000000000000000000000815260040161133190613a27565b60405180910390fd5b600d6000838152602001908152602001600020600080820160006101000a81549073ffffffffffffffffffffffffffffffffffffffff02191690556001820160009055600282016000905560038201600090556004820160006101000a81549063ffffffff02191690556004820160046101000a81549063ffffffff02191690556004820160086101000a81549060ff021916905550507f8bf30e7ff26833413be5f69e1d373744864d600b664204b4a2f9844a8eedb9ed826040516114009190612e0f565b60405180910390a15050565b80600660003373ffffffffffffffffffffffffffffffffffffffff1673ffffffffffffffffffffffffffffffffffffffff168152602001908152602001600020600082825461145b91906135f0565b92505081905550806005600082825461147491906135f0565b92505081905550600073ffffffffffffffffffffffffffffffffffffffff163373ffffffffffffffffffffffffffffffffffffffff167fddf252ad1be2c89b69c2b068fc378daa952ba7f163c4a11628f55a4df523b3ef836040516114d99190612e0f565b60405180910390a350565b6000600d600085815260200190815260200160002090506000831161153e576040517f08c379a000000000000000000000000000000000000000000000000000000000815260040161153590613a93565b60405180910390fd5b6000600e600086815260200190815260200160002060003373ffffffffffffffffffffffffffffffffffffffff1673ffffffffffffffffffffffffffffffffffffffff16815260200190815260200160002054141561161a5760018160010160008282546115ac9190613624565b92505081905550600f60008373ffffffffffffffffffffffffffffffffffffffff1673ffffffffffffffffffffffffffffffffffffffff1681526020019081526020016000208490806001815401808255809150506001900390600052602060002001600090919091909150555b60003073ffffffffffffffffffffffffffffffffffffffff1684604051611640906136ab565b60006040518083038185875af1925050503d806000811461167d576040519150601f19603f3d011682016040523d82523d6000602084013e611682565b606091505b50509050806116c6576040517f08c379a00000000000000000000000000000000000000000000000000000000081526004016116bd9061370c565b60405180910390fd5b838260030160008282546116da9190613624565b9250508190555083600e600087815260200190815260200160002060003373ffffffffffffffffffffffffffffffffffffffff1673ffffffffffffffffffffffffffffffffffffffff16815260200190815260200160002060008282546117419190613624565b9250508190555081600d60008781526020019081526020016000206000820160009054906101000a900473ffffffffffffffffffffffffffffffffffffffff168160000160006101000a81548173ffffffffffffffffffffffffffffffffffffffff021916908373ffffffffffffffffffffffffffffffffffffffff1602179055506001820154816001015560028201548160020155600382015481600301556004820160009054906101000a900463ffffffff168160040160006101000a81548163ffffffff021916908363ffffffff1602179055506004820160049054906101000a900463ffffffff168160040160046101000a81548163ffffffff021916908363ffffffff1602179055506004820160089054906101000a900460ff168160040160086101000a81548160ff0219169083151502179055509050503373ffffffffffffffffffffffffffffffffffffffff16857f06bdb975df800a73232998e71ed585d536222f1dfeaa622d7f62a23ada686c82866040516118c69190612e0f565b60405180910390a35050505050565b60035481565b60066020528060005260406000206000915090505481565b6000600d600084815260200190815260200160002090508060040160049054906101000a900463ffffffff1663ffffffff16421115611967576040517f08c379a000000000000000000000000000000000000000000000000000000000815260040161195e90613aff565b60405180910390fd5b60003373ffffffffffffffffffffffffffffffffffffffff168360405161198d906136ab565b60006040518083038185875af1925050503d80600081146119ca576040519150601f19603f3d011682016040523d82523d6000602084013e6119cf565b606091505b5050905080611a13576040517f08c379a0000000000000000000000000000000000000000000000000000000008152600401611a0a9061370c565b60405180910390fd5b82826003016000828254611a2791906135f0565b9250508190555082600e600086815260200190815260200160002060003373ffffffffffffffffffffffffffffffffffffffff1673ffffffffffffffffffffffffffffffffffffffff1681526020019081526020016000206000828254611a8e91906135f0565b925050819055503373ffffffffffffffffffffffffffffffffffffffff16847f2eeeab891b26a214d1b25749f88a406bdea852bd8c9bfda977e0ef8114c180ba85604051611adc9190612e0f565b60405180910390a350505050565b600a60009054906101000a900460ff1681565b6004548310611b41576040517f08c379a0000000000000000000000000000000000000000000000000000000008152600401611b3890613b6b565b60405180910390fd5b6000600260008473ffffffffffffffffffffffffffffffffffffffff1673ffffffffffffffffffffffffffffffffffffffff168152602001908152602001600020549050600060018281548110611b9b57611b9a613b8b565b5b90600052602060002090600202016001018381548110611bbe57611bbd613b8b565b5b9060005260206000209060040201905060008160030160006101000a81548160ff02191690831515021790555084600660008673ffffffffffffffffffffffffffffffffffffffff1673ffffffffffffffffffffffffffffffffffffffff1681526020019081526020016000206000828254611c3a9190613624565b925050819055508560046000828254611c5391906135f0565b925050819055508460056000828254611c6c9190613624565b925050819055508660036000828254611c8591906135f0565b9250508190555050505050505050565b600f6020528160005260406000208181548110611cb157600080fd5b90600052602060002001600091509150505481565b600660008273ffffffffffffffffffffffffffffffffffffffff1673ffffffffffffffffffffffffffffffffffffffff16815260200190815260200160002054821115611d48576040517f08c379a0000000000000000000000000000000000000000000000000000000008152600401611d3f90613c06565b60405180910390fd5b611d528282612ad1565b81600660008373ffffffffffffffffffffffffffffffffffffffff1673ffffffffffffffffffffffffffffffffffffffff1681526020019081526020016000206000828254611da191906135f0565b925050819055508160056000828254611dba91906135f0565b925050819055505050565b60606000600260008473ffffffffffffffffffffffffffffffffffffffff1673ffffffffffffffffffffffffffffffffffffffff168152602001908152602001600020549050600060018281548110611e2157611e20613b8b565b5b9060005260206000209060020201600101805480602002602001604051908101604052809291908181526020016000905b82821015611f0957838290600052602060002090600402016040518060800160405290816000820160009054906101000a900473ffffffffffffffffffffffffffffffffffffffff1673ffffffffffffffffffffffffffffffffffffffff1673ffffffffffffffffffffffffffffffffffffffff16815260200160018201548152602001600282015481526020016003820160009054906101000a900460ff16151515158152505081526020019060010190611e52565b5050505090508092505050919050565b60055481565b60098054611f2c9061358f565b80601f0160208091040260200160405190810160405280929190818152602001828054611f589061358f565b8015611fa55780601f10611f7a57610100808354040283529160200191611fa5565b820191906000526020600020905b815481529060010190602001808311611f8857829003601f168201915b505050505081565b7f000000000000000000000000000000000000000000000000000000000000000081565b80600660003073ffffffffffffffffffffffffffffffffffffffff1673ffffffffffffffffffffffffffffffffffffffff16815260200190815260200160002060008282546120209190613624565b9250508190555080600460008282546120399190613624565b925050819055503073ffffffffffffffffffffffffffffffffffffffff16600073ffffffffffffffffffffffffffffffffffffffff167fddf252ad1be2c89b69c2b068fc378daa952ba7f163c4a11628f55a4df523b3ef8360405161209e9190612e0f565b60405180910390a350565b600081600660003373ffffffffffffffffffffffffffffffffffffffff1673ffffffffffffffffffffffffffffffffffffffff16815260200190815260200160002060008282546120fa91906135f0565b9250508190555081600660008573ffffffffffffffffffffffffffffffffffffffff1673ffffffffffffffffffffffffffffffffffffffff16815260200190815260200160002060008282546121509190613624565b925050819055508273ffffffffffffffffffffffffffffffffffffffff163373ffffffffffffffffffffffffffffffffffffffff167fddf252ad1be2c89b69c2b068fc378daa952ba7f163c4a11628f55a4df523b3ef846040516121b49190612e0f565b60405180910390a36001905092915050565b600e602052816000526040600020602052806000526040600020600091509150505481565b6000600d6000858152602001908152602001600020905060008273ffffffffffffffffffffffffffffffffffffffff1684604051612228906136ab565b60006040518083038185875af1925050503d8060008114612265576040519150601f19603f3d011682016040523d82523d6000602084013e61226a565b606091505b50509050806122ae576040517f08c379a00000000000000000000000000000000000000000000000000000000081526004016122a59061370c565b60405180910390fd5b60018260040160086101000a81548160ff0219169083151502179055507f7bb2b3c10797baccb6f8c4791f1edd6ca2f0d028ee0eda64b01a9a57e3a653f7856040516122fa9190612e0f565b60405180910390a15050505050565b6000600e600084815260200190815260200160002060008373ffffffffffffffffffffffffffffffffffffffff1673ffffffffffffffffffffffffffffffffffffffff168152602001908152602001600020541161239c576040517f08c379a000000000000000000000000000000000000000000000000000000000815260040161239390613c72565b60405180910390fd5b7f000000000000000000000000000000000000000000000000000000000000000073ffffffffffffffffffffffffffffffffffffffff1663fbd95a397f0000000000000000000000000000000000000000000000000000000000000000836103e866038d7ea4c68000600e600089815260200190815260200160002060008873ffffffffffffffffffffffffffffffffffffffff1673ffffffffffffffffffffffffffffffffffffffff1681526020019081526020016000205461246091906138e4565b61246a9190613915565b6040518463ffffffff1660e01b815260040161248893929190613c92565b600060405180830381600087803b1580156124a257600080fd5b505af11580156124b6573d6000803e3d6000fd5b505050506000600e600084815260200190815260200160002060008373ffffffffffffffffffffffffffffffffffffffff1673ffffffffffffffffffffffffffffffffffffffff168152602001908152602001600020819055505050565b7f000000000000000000000000000000000000000000000000000000000000000073ffffffffffffffffffffffffffffffffffffffff1663e22f9ea630836040518363ffffffff1660e01b815260040161256f929190613cc9565b600060405180830381600087803b15801561258957600080fd5b505af115801561259d573d6000803e3d6000fd5b5050505050565b6007602052816000526040600020602052806000526040600020600091509150505481565b7f909c57d5c6ac08245cf2a6de3900e2b868513fa59099b92b27d8db823d92df9c600660003073ffffffffffffffffffffffffffffffffffffffff1673ffffffffffffffffffffffffffffffffffffffff168152602001908152602001600020546040516126379190612e0f565b60405180910390a180600660003073ffffffffffffffffffffffffffffffffffffffff1673ffffffffffffffffffffffffffffffffffffffff168152602001908152602001600020600082825461268e91906135f0565b9250508190555080600660008473ffffffffffffffffffffffffffffffffffffffff1673ffffffffffffffffffffffffffffffffffffffff16815260200190815260200160002060008282546126e49190613624565b9250508190555080600460008282546126fd91906135f0565b9250508190555080600560008282546127169190613624565b925050819055508173ffffffffffffffffffffffffffffffffffffffff163073ffffffffffffffffffffffffffffffffffffffff167fddf252ad1be2c89b69c2b068fc378daa952ba7f163c4a11628f55a4df523b3ef8360405161277a9190612e0f565b60405180910390a35050565b60008060006040518060400160405280600081526020016001600260008873ffffffffffffffffffffffffffffffffffffffff1673ffffffffffffffffffffffffffffffffffffffff16815260200190815260200160002054815481106127f0576127ef613b8b565b5b9060005260206000209060020201600101805480602002602001604051908101604052809291908181526020016000905b828210156128d857838290600052602060002090600402016040518060800160405290816000820160009054906101000a900473ffffffffffffffffffffffffffffffffffffffff1673ffffffffffffffffffffffffffffffffffffffff1673ffffffffffffffffffffffffffffffffffffffff16815260200160018201548152602001600282015481526020016003820160009054906101000a900460ff16151515158152505081526020019060010190612821565b50505050815250905060005b8160200151518110156129585760006129418360200151838151811061290d5761290c613b8b565b5b602002602001015160400151846020015184815181106129305761292f613b8b565b5b60200260200101516020015161112f565b9050506001816129519190613624565b90506128e4565b5081816000018181525050806000015192505050919050565b600b5481565b80600454116129bb576040517f08c379a00000000000000000000000000000000000000000000000000000000081526004016129b290613b6b565b60405180910390fd5b80600460008282546129cd91906135f0565b9250508190555080600560008282546129e69190613624565b9250508190555080600660008473ffffffffffffffffffffffffffffffffffffffff1673ffffffffffffffffffffffffffffffffffffffff1681526020019081526020016000206000828254612a3c9190613624565b925050819055508173ffffffffffffffffffffffffffffffffffffffff168373ffffffffffffffffffffffffffffffffffffffff167fddf252ad1be2c89b69c2b068fc378daa952ba7f163c4a11628f55a4df523b3ef83604051612aa09190612e0f565b60405180910390a3505050565b7f000000000000000000000000000000000000000000000000000000000000000081565b60008211612b14576040517f08c379a0000000000000000000000000000000000000000000000000000000008152600401612b0b90613d3e565b60405180910390fd5b6000600260008373ffffffffffffffffffffffffffffffffffffffff1673ffffffffffffffffffffffffffffffffffffffff16815260200190815260200160002054905060004290506000821415612b7257612b6f83612ce8565b91505b60018281548110612b8657612b85613b8b565b5b906000526020600020906002020160010160405180608001604052808573ffffffffffffffffffffffffffffffffffffffff16815260200186815260200183815260200160011515815250908060018154018082558091505060019003906000526020600020906004020160009091909190915060008201518160000160006101000a81548173ffffffffffffffffffffffffffffffffffffffff021916908373ffffffffffffffffffffffffffffffffffffffff160217905550602082015181600101556040820151816002015560608201518160030160006101000a81548160ff02191690831515021790555050508360036000828254612c899190613624565b925050819055508273ffffffffffffffffffffffffffffffffffffffff167fb4caaf29adda3eefee3ad552a8e85058589bf834c7466cae4ee58787f70589ed858484604051612cda93929190613d5e565b60405180910390a250505050565b60006001808160018154018082558091505003906000526020600020905050600060018080549050612d1a91906135f0565b90508260018281548110612d3157612d30613b8b565b5b906000526020600020906002020160000160006101000a81548173ffffffffffffffffffffffffffffffffffffffff021916908373ffffffffffffffffffffffffffffffffffffffff16021790555080600260008573ffffffffffffffffffffffffffffffffffffffff1673ffffffffffffffffffffffffffffffffffffffff1681526020019081526020016000208190555080915050919050565b6000819050919050565b612de081612dcd565b82525050565b6000604082019050612dfb6000830185612dd7565b612e086020830184612dd7565b9392505050565b6000602082019050612e246000830184612dd7565b92915050565b600081519050919050565b600082825260208201905092915050565b60005b83811015612e64578082015181840152602081019050612e49565b83811115612e73576000848401525b50505050565b6000601f19601f8301169050919050565b6000612e9582612e2a565b612e9f8185612e35565b9350612eaf818560208601612e46565b612eb881612e79565b840191505092915050565b60006020820190508181036000830152612edd8184612e8a565b905092915050565b600080fd5b600073ffffffffffffffffffffffffffffffffffffffff82169050919050565b6000612f1582612eea565b9050919050565b612f2581612f0a565b8114612f3057600080fd5b50565b600081359050612f4281612f1c565b92915050565b612f5181612dcd565b8114612f5c57600080fd5b50565b600081359050612f6e81612f48565b92915050565b60008060408385031215612f8b57612f8a612ee5565b5b6000612f9985828601612f33565b9250506020612faa85828601612f5f565b9150509250929050565b60008115159050919050565b612fc981612fb4565b82525050565b6000602082019050612fe46000830184612fc0565b92915050565b60006020828403121561300057612fff612ee5565b5b600061300e84828501612f5f565b91505092915050565b61302081612f0a565b82525050565b600063ffffffff82169050919050565b61303f81613026565b82525050565b600060e08201905061305a600083018a613017565b6130676020830189612dd7565b6130746040830188612dd7565b6130816060830187612dd7565b61308e6080830186613036565b61309b60a0830185613036565b6130a860c0830184612fc0565b98975050505050505050565b60006020820190506130c96000830184613017565b92915050565b6000806000606084860312156130e8576130e7612ee5565b5b60006130f686828701612f33565b935050602061310786828701612f33565b925050604061311886828701612f5f565b9150509250925092565b61312b81613026565b811461313657600080fd5b50565b60008135905061314881613122565b92915050565b60008060006060848603121561316757613166612ee5565b5b600061317586828701612f5f565b935050602061318686828701613139565b925050604061319786828701613139565b9150509250925092565b600080604083850312156131b8576131b7612ee5565b5b60006131c685828601612f5f565b92505060206131d785828601612f5f565b9150509250929050565b6000602082840312156131f7576131f6612ee5565b5b600061320584828501612f33565b91505092915050565b60008060006060848603121561322757613226612ee5565b5b600061323586828701612f5f565b935050602061324686828701612f5f565b925050604061325786828701612f33565b9150509250925092565b600060ff82169050919050565b61327781613261565b82525050565b6000602082019050613292600083018461326e565b92915050565b600080600080600060a086880312156132b4576132b3612ee5565b5b60006132c288828901612f5f565b95505060206132d388828901612f5f565b94505060406132e488828901612f5f565b93505060606132f588828901612f33565b925050608061330688828901612f5f565b9150509295509295909350565b6000806040838503121561332a57613329612ee5565b5b600061333885828601612f5f565b925050602061334985828601612f33565b9150509250929050565b600081519050919050565b600082825260208201905092915050565b6000819050602082019050919050565b61338881612f0a565b82525050565b61339781612dcd565b82525050565b6133a681612fb4565b82525050565b6080820160008201516133c2600085018261337f565b5060208201516133d5602085018261338e565b5060408201516133e8604085018261338e565b5060608201516133fb606085018261339d565b50505050565b600061340d83836133ac565b60808301905092915050565b6000602082019050919050565b600061343182613353565b61343b818561335e565b93506134468361336f565b8060005b8381101561347757815161345e8882613401565b975061346983613419565b92505060018101905061344a565b5085935050505092915050565b6000602082019050818103600083015261349e8184613426565b905092915050565b600080604083850312156134bd576134bc612ee5565b5b60006134cb85828601612f33565b92505060206134dc85828601612f33565b9150509250929050565b6000819050919050565b600061350b61350661350184612eea565b6134e6565b612eea565b9050919050565b600061351d826134f0565b9050919050565b600061352f82613512565b9050919050565b61353f81613524565b82525050565b600060208201905061355a6000830184613536565b92915050565b7f4e487b7100000000000000000000000000000000000000000000000000000000600052602260045260246000fd5b600060028204905060018216806135a757607f821691505b602082108114156135bb576135ba613560565b5b50919050565b7f4e487b7100000000000000000000000000000000000000000000000000000000600052601160045260246000fd5b60006135fb82612dcd565b915061360683612dcd565b925082821015613619576136186135c1565b5b828203905092915050565b600061362f82612dcd565b915061363a83612dcd565b9250827fffffffffffffffffffffffffffffffffffffffffffffffffffffffffffffffff0382111561366f5761366e6135c1565b5b828201905092915050565b600081905092915050565b50565b600061369560008361367a565b91506136a082613685565b600082019050919050565b60006136b682613688565b9150819050919050565b7f43616c6c206661696c6564000000000000000000000000000000000000000000600082015250565b60006136f6600b83612e35565b9150613701826136c0565b602082019050919050565b60006020820190508181036000830152613725816136e9565b9050919050565b7f5374617274206174203c206e6f77000000000000000000000000000000000000600082015250565b6000613762600e83612e35565b915061376d8261372c565b602082019050919050565b6000602082019050818103600083015261379181613755565b9050919050565b7f656e64206174203c207374617274206174000000000000000000000000000000600082015250565b60006137ce601183612e35565b91506137d982613798565b602082019050919050565b600060208201905081810360008301526137fd816137c1565b9050919050565b7f656e64206174203e206d6178206475726174696f6e0000000000000000000000600082015250565b600061383a601583612e35565b915061384582613804565b602082019050919050565b600060208201905081810360008301526138698161382d565b9050919050565b60006080820190506138856000830187612dd7565b6138926020830186612dd7565b61389f6040830185613036565b6138ac6060830184613036565b95945050505050565b7f4e487b7100000000000000000000000000000000000000000000000000000000600052601260045260246000fd5b60006138ef82612dcd565b91506138fa83612dcd565b92508261390a576139096138b5565b5b828204905092915050565b600061392082612dcd565b915061392b83612dcd565b9250817fffffffffffffffffffffffffffffffffffffffffffffffffffffffffffffffff0483118215151615613964576139636135c1565b5b828202905092915050565b7f4e6f742063726561746f72000000000000000000000000000000000000000000600082015250565b60006139a5600b83612e35565b91506139b08261396f565b602082019050919050565b600060208201905081810360008301526139d481613998565b9050919050565b7f7374617274656400000000000000000000000000000000000000000000000000600082015250565b6000613a11600783612e35565b9150613a1c826139db565b602082019050919050565b60006020820190508181036000830152613a4081613a04565b9050919050565b7f416d6f756e742073686f756c6420626520626967676572207468616e20300000600082015250565b6000613a7d601e83612e35565b9150613a8882613a47565b602082019050919050565b60006020820190508181036000830152613aac81613a70565b9050919050565b7f456e646564000000000000000000000000000000000000000000000000000000600082015250565b6000613ae9600583612e35565b9150613af482613ab3565b602082019050919050565b60006020820190508181036000830152613b1881613adc565b9050919050565b7f4e6f7420656e6f75676820737570706c79000000000000000000000000000000600082015250565b6000613b55601183612e35565b9150613b6082613b1f565b602082019050919050565b60006020820190508181036000830152613b8481613b48565b9050919050565b7f4e487b7100000000000000000000000000000000000000000000000000000000600052603260045260246000fd5b7f4e6f7420656e6f75676820746f6b656e73000000000000000000000000000000600082015250565b6000613bf0601183612e35565b9150613bfb82613bba565b602082019050919050565b60006020820190508181036000830152613c1f81613be3565b9050919050565b7f4e6f7468696e6720706c65646765640000000000000000000000000000000000600082015250565b6000613c5c600f83612e35565b9150613c6782613c26565b602082019050919050565b60006020820190508181036000830152613c8b81613c4f565b9050919050565b6000606082019050613ca76000830186613017565b613cb46020830185613017565b613cc16040830184612dd7565b949350505050565b6000604082019050613cde6000830185613017565b613ceb6020830184612dd7565b9392505050565b7f43616e6e6f74207374616b65206e6f7468696e67000000000000000000000000600082015250565b6000613d28601483612e35565b9150613d3382613cf2565b602082019050919050565b60006020820190508181036000830152613d5781613d1b565b9050919050565b6000606082019050613d736000830186612dd7565b613d806020830185612dd7565b613d8d6040830184612dd7565b94935050505056fea2646970667358221220fd0a91b32b9838e673c3a248bd0d89a5cdd4ca82de625a0cdee46cf2ba75dc9d64736f6c634300080a0033",
  "linkReferences": {},
  "deployedLinkReferences": {}
}