{
  "_format": "hh-sol-artifact-1",
  "contractName": "Crowdfund",
  "sourceName": "contracts/Crowdfund.sol",
  "abi": [
    {
      "inputs": [
        {
          "internalType": "address",
          "name": "_token",
          "type": "address"
        }
      ],
      "stateMutability": "nonpayable",
      "type": "constructor"
    },
    {
      "anonymous": false,
      "inputs": [
        {
          "indexed": true,
          "internalType": "address",
          "name": "owner",
          "type": "address"
        },
        {
          "indexed": true,
          "internalType": "address",
          "name": "sender",
          "type": "address"
        },
        {
          "indexed": false,
          "internalType": "uint256",
          "name": "amount",
          "type": "uint256"
        }
      ],
      "name": "Approval",
      "type": "event"
    },
    {
      "anonymous": false,
      "inputs": [
        {
          "indexed": false,
          "internalType": "uint256",
          "name": "id",
          "type": "uint256"
        }
      ],
      "name": "Cancel",
      "type": "event"
    },
    {
      "anonymous": false,
      "inputs": [
        {
          "indexed": false,
          "internalType": "uint256",
          "name": "id",
          "type": "uint256"
        }
      ],
      "name": "Claim",
      "type": "event"
    },
    {
      "anonymous": false,
      "inputs": [
        {
          "indexed": false,
          "internalType": "uint256",
          "name": "id",
          "type": "uint256"
        },
        {
          "indexed": true,
          "internalType": "address",
          "name": "creator",
          "type": "address"
        },
        {
          "indexed": false,
          "internalType": "uint256",
          "name": "goal",
          "type": "uint256"
        },
        {
          "indexed": false,
          "internalType": "uint32",
          "name": "startAt",
          "type": "uint32"
        },
        {
          "indexed": false,
          "internalType": "uint32",
          "name": "endAt",
          "type": "uint32"
        }
      ],
      "name": "Launch",
      "type": "event"
    },
    {
      "anonymous": false,
      "inputs": [
        {
          "indexed": false,
          "internalType": "uint256",
          "name": "amount",
          "type": "uint256"
        },
        {
          "indexed": false,
          "internalType": "uint256",
          "name": "gas",
          "type": "uint256"
        }
      ],
      "name": "Log",
      "type": "event"
    },
    {
      "anonymous": false,
      "inputs": [
        {
          "indexed": false,
          "internalType": "uint256",
          "name": "amount",
          "type": "uint256"
        }
      ],
      "name": "Log",
      "type": "event"
    },
    {
      "anonymous": false,
      "inputs": [
        {
          "indexed": true,
          "internalType": "uint256",
          "name": "id",
          "type": "uint256"
        },
        {
          "indexed": true,
          "internalType": "address",
          "name": "caller",
          "type": "address"
        },
        {
          "indexed": false,
          "internalType": "uint256",
          "name": "amount",
          "type": "uint256"
        }
      ],
      "name": "Pledge",
      "type": "event"
    },
    {
      "anonymous": false,
      "inputs": [
        {
          "indexed": true,
          "internalType": "uint256",
          "name": "id",
          "type": "uint256"
        },
        {
          "indexed": true,
          "internalType": "address",
          "name": "caller",
          "type": "address"
        },
        {
          "indexed": false,
          "internalType": "uint256",
          "name": "amount",
          "type": "uint256"
        }
      ],
      "name": "Refund",
      "type": "event"
    },
    {
      "anonymous": false,
      "inputs": [
        {
          "indexed": true,
          "internalType": "address",
          "name": "user",
          "type": "address"
        },
        {
          "indexed": false,
          "internalType": "uint256",
          "name": "amount",
          "type": "uint256"
        },
        {
          "indexed": false,
          "internalType": "uint256",
          "name": "index",
          "type": "uint256"
        },
        {
          "indexed": false,
          "internalType": "uint256",
          "name": "timestamp",
          "type": "uint256"
        }
      ],
      "name": "Staked",
      "type": "event"
    },
    {
      "anonymous": false,
      "inputs": [
        {
          "indexed": true,
          "internalType": "address",
          "name": "from",
          "type": "address"
        },
        {
          "indexed": true,
          "internalType": "address",
          "name": "to",
          "type": "address"
        },
        {
          "indexed": false,
          "internalType": "uint256",
          "name": "amount",
          "type": "uint256"
        }
      ],
      "name": "Transfer",
      "type": "event"
    },
    {
      "anonymous": false,
      "inputs": [
        {
          "indexed": true,
          "internalType": "uint256",
          "name": "id",
          "type": "uint256"
        },
        {
          "indexed": true,
          "internalType": "address",
          "name": "caller",
          "type": "address"
        },
        {
          "indexed": false,
          "internalType": "uint256",
          "name": "amount",
          "type": "uint256"
        }
      ],
      "name": "Unpledge",
      "type": "event"
    },
    {
      "inputs": [
        {
          "internalType": "address",
          "name": "",
          "type": "address"
        },
        {
          "internalType": "address",
          "name": "",
          "type": "address"
        }
      ],
      "name": "allowance",
      "outputs": [
        {
          "internalType": "uint256",
          "name": "",
          "type": "uint256"
        }
      ],
      "stateMutability": "view",
      "type": "function"
    },
    {
      "inputs": [],
      "name": "amountStaked",
      "outputs": [
        {
          "internalType": "uint256",
          "name": "",
          "type": "uint256"
        }
      ],
      "stateMutability": "view",
      "type": "function"
    },
    {
      "inputs": [
        {
          "internalType": "address",
          "name": "sender",
          "type": "address"
        },
        {
          "internalType": "uint256",
          "name": "amount",
          "type": "uint256"
        }
      ],
      "name": "approve",
      "outputs": [
        {
          "internalType": "bool",
          "name": "",
          "type": "bool"
        }
      ],
      "stateMutability": "nonpayable",
      "type": "function"
    },
    {
      "inputs": [
        {
          "internalType": "address",
          "name": "",
          "type": "address"
        }
      ],
      "name": "balanceOf",
      "outputs": [
        {
          "internalType": "uint256",
          "name": "",
          "type": "uint256"
        }
      ],
      "stateMutability": "view",
      "type": "function"
    },
    {
      "inputs": [
        {
          "internalType": "uint256",
          "name": "amount",
          "type": "uint256"
        }
      ],
      "name": "burn",
      "outputs": [],
      "stateMutability": "nonpayable",
      "type": "function"
    },
    {
      "inputs": [
        {
          "internalType": "uint256",
          "name": "since",
          "type": "uint256"
        },
        {
          "internalType": "uint256",
          "name": "amount",
          "type": "uint256"
        }
      ],
      "name": "calculateStakeReward",
      "outputs": [
        {
          "internalType": "uint256",
          "name": "",
          "type": "uint256"
        }
      ],
      "stateMutability": "view",
      "type": "function"
    },
    {
      "inputs": [
        {
          "internalType": "uint256",
          "name": "",
          "type": "uint256"
        }
      ],
      "name": "campaigns",
      "outputs": [
        {
          "internalType": "address",
          "name": "creator",
          "type": "address"
        },
        {
          "internalType": "uint256",
          "name": "numberOfInvestors",
          "type": "uint256"
        },
        {
          "internalType": "uint256",
          "name": "goal",
          "type": "uint256"
        },
        {
          "internalType": "uint256",
          "name": "pledged",
          "type": "uint256"
        },
        {
          "internalType": "uint32",
          "name": "startAt",
          "type": "uint32"
        },
        {
          "internalType": "uint32",
          "name": "endAt",
          "type": "uint32"
        },
        {
          "internalType": "bool",
          "name": "claimed",
          "type": "bool"
        }
      ],
      "stateMutability": "view",
      "type": "function"
    },
    {
      "inputs": [
        {
          "internalType": "uint256",
          "name": "_id",
          "type": "uint256"
        }
      ],
      "name": "cancel",
      "outputs": [],
      "stateMutability": "nonpayable",
      "type": "function"
    },
    {
      "inputs": [],
      "name": "circulatingSupply",
      "outputs": [
        {
          "internalType": "uint256",
          "name": "",
          "type": "uint256"
        }
      ],
      "stateMutability": "view",
      "type": "function"
    },
    {
      "inputs": [
        {
          "internalType": "uint256",
          "name": "_id",
          "type": "uint256"
        },
        {
          "internalType": "uint256",
          "name": "amount",
          "type": "uint256"
        },
        {
          "internalType": "address",
          "name": "adr",
          "type": "address"
        }
      ],
      "name": "claim",
      "outputs": [],
      "stateMutability": "payable",
      "type": "function"
    },
    {
      "inputs": [
        {
          "internalType": "uint256",
          "name": "_id",
          "type": "uint256"
        },
        {
          "internalType": "address",
          "name": "adr",
          "type": "address"
        }
      ],
      "name": "claimShares",
      "outputs": [],
      "stateMutability": "nonpayable",
      "type": "function"
    },
    {
      "inputs": [],
      "name": "count",
      "outputs": [
        {
          "internalType": "uint256",
          "name": "",
          "type": "uint256"
        }
      ],
      "stateMutability": "view",
      "type": "function"
    },
    {
      "inputs": [],
      "name": "decimal",
      "outputs": [
        {
          "internalType": "uint8",
          "name": "",
          "type": "uint8"
        }
      ],
      "stateMutability": "view",
      "type": "function"
    },
    {
      "inputs": [
        {
          "internalType": "address",
          "name": "adr",
          "type": "address"
        }
      ],
      "name": "getSummary",
      "outputs": [
        {
          "internalType": "uint256",
          "name": "",
          "type": "uint256"
        }
      ],
      "stateMutability": "view",
      "type": "function"
    },
    {
      "inputs": [
        {
          "internalType": "uint256",
          "name": "amount",
          "type": "uint256"
        }
      ],
      "name": "getTokens",
      "outputs": [],
      "stateMutability": "payable",
      "type": "function"
    },
    {
      "inputs": [],
      "name": "getTotalAmountStaked",
      "outputs": [
        {
          "internalType": "uint256",
          "name": "",
          "type": "uint256"
        }
      ],
      "stateMutability": "view",
      "type": "function"
    },
    {
      "inputs": [],
      "name": "getTotalStakes",
      "outputs": [
        {
          "internalType": "uint256",
          "name": "",
          "type": "uint256"
        }
      ],
      "stateMutability": "view",
      "type": "function"
    },
    {
      "inputs": [
        {
          "internalType": "address",
          "name": "adr",
          "type": "address"
        }
      ],
      "name": "getUserStakes",
      "outputs": [
        {
          "components": [
            {
              "internalType": "address",
              "name": "user",
              "type": "address"
            },
            {
              "internalType": "uint256",
              "name": "amount",
              "type": "uint256"
            },
            {
              "internalType": "uint256",
              "name": "since",
              "type": "uint256"
            },
            {
              "internalType": "bool",
              "name": "claimable",
              "type": "bool"
            },
            {
              "internalType": "uint256",
              "name": "id",
              "type": "uint256"
            }
          ],
          "internalType": "struct Staking.Stake[]",
          "name": "",
          "type": "tuple[]"
        }
      ],
      "stateMutability": "view",
      "type": "function"
    },
    {
      "inputs": [
        {
          "internalType": "address",
          "name": "_staker",
          "type": "address"
        }
      ],
      "name": "hasStake",
      "outputs": [
        {
          "internalType": "uint256",
          "name": "",
          "type": "uint256"
        }
      ],
      "stateMutability": "view",
      "type": "function"
    },
    {
      "inputs": [
        {
          "internalType": "address",
          "name": "",
          "type": "address"
        },
        {
          "internalType": "uint256",
          "name": "",
          "type": "uint256"
        }
      ],
      "name": "investors",
      "outputs": [
        {
          "internalType": "uint256",
          "name": "",
          "type": "uint256"
        }
      ],
      "stateMutability": "view",
      "type": "function"
    },
    {
      "inputs": [
        {
          "internalType": "uint256",
          "name": "_goal",
          "type": "uint256"
        },
        {
          "internalType": "uint32",
          "name": "_startAt",
          "type": "uint32"
        },
        {
          "internalType": "uint32",
          "name": "_endAt",
          "type": "uint32"
        }
      ],
      "name": "launch",
      "outputs": [
        {
          "internalType": "uint256",
          "name": "",
          "type": "uint256"
        }
      ],
      "stateMutability": "nonpayable",
      "type": "function"
    },
    {
      "inputs": [
        {
          "internalType": "uint256",
          "name": "amount",
          "type": "uint256"
        }
      ],
      "name": "mint",
      "outputs": [],
      "stateMutability": "nonpayable",
      "type": "function"
    },
    {
      "inputs": [],
      "name": "name",
      "outputs": [
        {
          "internalType": "string",
          "name": "",
          "type": "string"
        }
      ],
      "stateMutability": "view",
      "type": "function"
    },
    {
      "inputs": [
        {
          "internalType": "uint256",
          "name": "_id",
          "type": "uint256"
        },
        {
          "internalType": "uint256",
          "name": "_amount",
          "type": "uint256"
        },
        {
          "internalType": "address",
          "name": "adr",
          "type": "address"
        }
      ],
      "name": "pledge",
      "outputs": [],
      "stateMutability": "payable",
      "type": "function"
    },
    {
      "inputs": [
        {
          "internalType": "uint256",
          "name": "",
          "type": "uint256"
        },
        {
          "internalType": "address",
          "name": "",
          "type": "address"
        }
      ],
      "name": "pledgedAmount",
      "outputs": [
        {
          "internalType": "uint256",
          "name": "",
          "type": "uint256"
        }
      ],
      "stateMutability": "view",
      "type": "function"
    },
    {
      "inputs": [
        {
          "internalType": "uint256",
          "name": "_id",
          "type": "uint256"
        }
      ],
      "name": "refund",
      "outputs": [],
      "stateMutability": "nonpayable",
      "type": "function"
    },
    {
      "inputs": [
        {
          "internalType": "address",
          "name": "sender",
          "type": "address"
        },
        {
          "internalType": "address",
          "name": "recipient",
          "type": "address"
        },
        {
          "internalType": "uint256",
          "name": "amount",
          "type": "uint256"
        }
      ],
      "name": "sendToAddress",
      "outputs": [],
      "stateMutability": "nonpayable",
      "type": "function"
    },
    {
      "inputs": [
        {
          "internalType": "address",
          "name": "recipient",
          "type": "address"
        },
        {
          "internalType": "uint256",
          "name": "amount",
          "type": "uint256"
        }
      ],
      "name": "sendToContract",
      "outputs": [],
      "stateMutability": "nonpayable",
      "type": "function"
    },
    {
      "inputs": [
        {
          "internalType": "uint256",
          "name": "_amount",
          "type": "uint256"
        },
        {
          "internalType": "address",
          "name": "adr",
          "type": "address"
        },
        {
          "internalType": "uint256",
          "name": "id",
          "type": "uint256"
        }
      ],
      "name": "stake",
      "outputs": [],
      "stateMutability": "nonpayable",
      "type": "function"
    },
    {
      "inputs": [
        {
          "internalType": "uint256",
          "name": "",
          "type": "uint256"
        }
      ],
      "name": "stakeholders",
      "outputs": [
        {
          "internalType": "address",
          "name": "user",
          "type": "address"
        }
      ],
      "stateMutability": "view",
      "type": "function"
    },
    {
      "inputs": [],
      "name": "symbol",
      "outputs": [
        {
          "internalType": "string",
          "name": "",
          "type": "string"
        }
      ],
      "stateMutability": "view",
      "type": "function"
    },
    {
      "inputs": [],
      "name": "token",
      "outputs": [
        {
          "internalType": "contract IERC20",
          "name": "",
          "type": "address"
        }
      ],
      "stateMutability": "view",
      "type": "function"
    },
    {
      "inputs": [],
      "name": "tokenAddress",
      "outputs": [
        {
          "internalType": "address",
          "name": "",
          "type": "address"
        }
      ],
      "stateMutability": "view",
      "type": "function"
    },
    {
      "inputs": [
        {
          "internalType": "address",
          "name": "",
          "type": "address"
        }
      ],
      "name": "totalAmountInvested",
      "outputs": [
        {
          "internalType": "uint256",
          "name": "",
          "type": "uint256"
        }
      ],
      "stateMutability": "view",
      "type": "function"
    },
    {
      "inputs": [
        {
          "internalType": "address",
          "name": "",
          "type": "address"
        }
      ],
      "name": "totalAmountRaised",
      "outputs": [
        {
          "internalType": "uint256",
          "name": "",
          "type": "uint256"
        }
      ],
      "stateMutability": "view",
      "type": "function"
    },
    {
      "inputs": [],
      "name": "totalSupply",
      "outputs": [
        {
          "internalType": "uint256",
          "name": "",
          "type": "uint256"
        }
      ],
      "stateMutability": "view",
      "type": "function"
    },
    {
      "inputs": [],
      "name": "total_amount_stacked",
      "outputs": [
        {
          "internalType": "uint256",
          "name": "",
          "type": "uint256"
        }
      ],
      "stateMutability": "view",
      "type": "function"
    },
    {
      "inputs": [
        {
          "internalType": "address",
          "name": "recipient",
          "type": "address"
        },
        {
          "internalType": "uint256",
          "name": "amount",
          "type": "uint256"
        }
      ],
      "name": "transfer",
      "outputs": [
        {
          "internalType": "bool",
          "name": "",
          "type": "bool"
        }
      ],
      "stateMutability": "nonpayable",
      "type": "function"
    },
    {
      "inputs": [
        {
          "internalType": "address",
          "name": "sender",
          "type": "address"
        },
        {
          "internalType": "address",
          "name": "recipient",
          "type": "address"
        },
        {
          "internalType": "uint256",
          "name": "amount",
          "type": "uint256"
        }
      ],
      "name": "transferFrom",
      "outputs": [
        {
          "internalType": "bool",
          "name": "",
          "type": "bool"
        }
      ],
      "stateMutability": "nonpayable",
      "type": "function"
    },
    {
      "inputs": [
        {
          "internalType": "uint256",
          "name": "_id",
          "type": "uint256"
        },
        {
          "internalType": "uint256",
          "name": "_amount",
          "type": "uint256"
        }
      ],
      "name": "unpledge",
      "outputs": [],
      "stateMutability": "nonpayable",
      "type": "function"
    },
    {
      "inputs": [
        {
          "internalType": "uint256",
          "name": "initialAmount",
          "type": "uint256"
        },
        {
          "internalType": "uint256",
          "name": "_amount",
          "type": "uint256"
        },
        {
          "internalType": "uint256",
          "name": "_amountMint",
          "type": "uint256"
        },
        {
          "internalType": "address",
          "name": "adr",
          "type": "address"
        },
        {
          "internalType": "uint256",
          "name": "id",
          "type": "uint256"
        }
      ],
      "name": "withdrawStake",
      "outputs": [],
      "stateMutability": "nonpayable",
      "type": "function"
    },
    {
      "stateMutability": "payable",
      "type": "receive"
    }
  ],
  "bytecode": "0x60c06040526103e8600055600060015560006004556040518060400160405280600881526020017f47656d73746f6e65000000000000000000000000000000000000000000000000815250600990805190602001906200006192919062000191565b506040518060400160405280600381526020017f474d530000000000000000000000000000000000000000000000000000000000815250600a9080519060200190620000af92919062000191565b506012600b60006101000a81548160ff021916908360ff1602179055506000600d55348015620000de57600080fd5b506040516200442f3803806200442f8339818101604052810190620001049190620002ab565b6002600181600181540180825580915050039060005260206000209050508073ffffffffffffffffffffffffffffffffffffffff1660808173ffffffffffffffffffffffffffffffffffffffff16815250508073ffffffffffffffffffffffffffffffffffffffff1660a08173ffffffffffffffffffffffffffffffffffffffff16815250505062000342565b8280546200019f906200030c565b90600052602060002090601f016020900481019282620001c357600085556200020f565b82601f10620001de57805160ff19168380011785556200020f565b828001600101855582156200020f579182015b828111156200020e578251825591602001919060010190620001f1565b5b5090506200021e919062000222565b5090565b5b808211156200023d57600081600090555060010162000223565b5090565b600080fd5b600073ffffffffffffffffffffffffffffffffffffffff82169050919050565b6000620002738262000246565b9050919050565b620002858162000266565b81146200029157600080fd5b50565b600081519050620002a5816200027a565b92915050565b600060208284031215620002c457620002c362000241565b5b6000620002d48482850162000294565b91505092915050565b7f4e487b7100000000000000000000000000000000000000000000000000000000600052602260045260246000fd5b600060028204905060018216806200032557607f821691505b602082108114156200033c576200033b620002dd565b5b50919050565b60805160a0516140b26200037d6000396000818161218601526126070152600081816125cb015281816127610152612d0401526140b26000f3fe60806040526004361061024a5760003560e01c8063711853ab11610139578063aa4fb63a116100b6578063dd62ed3e1161007a578063dd62ed3e14610935578063e22f9ea614610972578063e73e14bf1461099b578063fab1e747146109d8578063fbd95a3914610a03578063fc0c546a14610a2c5761028a565b8063aa4fb63a1461085a578063ac44ff3114610897578063ace1f5e1146108b3578063c271e297146108dc578063d3c9cc26146109195761028a565b80639358928b116100fd5780639358928b1461077357806395d89b411461079e5780639d76ea58146107c9578063a0712d68146107f4578063a9059cbb1461081d5761028a565b8063711853ab1461067c57806376809ce3146106a557806378dbb0bc146106d057806379ebb6c4146106f9578063842e2981146107365761028a565b80633eb0db3b116101c757806367d759fb1161018b57806367d759fb1461058357806368c33627146105ae5780636e9c931c146105d95780636f686e7f1461060257806370a082311461063f5761028a565b80633eb0db3b1461049b5780633f733e48146104d857806340e58ee51461051557806342966c681461053e5780635888a3e4146105675761028a565b80631d6b8b721161020e5780631d6b8b721461039057806323b872dd146103cd578063246d9fe81461040a578063278ecde1146104355780632c63f1461461045e5761028a565b806306661abd1461028f57806306fdde03146102ba578063095ea7b3146102e5578063141961bc1461032257806318160ddd146103655761028a565b3661028a577fbd0faddf87043dd749c1b9d4dca8a12589b8cb5e2106832111ce23f219b14367345a604051610280929190613067565b60405180910390a1005b600080fd5b34801561029b57600080fd5b506102a4610a57565b6040516102b19190613090565b60405180910390f35b3480156102c657600080fd5b506102cf610a5d565b6040516102dc9190613144565b60405180910390f35b3480156102f157600080fd5b5061030c600480360381019061030791906131f5565b610aeb565b6040516103199190613250565b60405180910390f35b34801561032e57600080fd5b506103496004803603810190610344919061326b565b610bdd565b60405161035c97969594939291906132c6565b60405180910390f35b34801561037157600080fd5b5061037a610c6c565b6040516103879190613090565b60405180910390f35b34801561039c57600080fd5b506103b760048036038101906103b2919061326b565b610c72565b6040516103c49190613335565b60405180910390f35b3480156103d957600080fd5b506103f460048036038101906103ef9190613350565b610cc0565b6040516104019190613250565b60405180910390f35b34801561041657600080fd5b5061041f610dde565b60405161042c9190613090565b60405180910390f35b34801561044157600080fd5b5061045c6004803603810190610457919061326b565b610de8565b005b34801561046a57600080fd5b50610485600480360381019061048091906133cf565b610fe2565b6040516104929190613090565b60405180910390f35b3480156104a757600080fd5b506104c260048036038101906104bd9190613422565b61122c565b6040516104cf9190613090565b60405180910390f35b3480156104e457600080fd5b506104ff60048036038101906104fa9190613462565b611265565b60405161050c9190613090565b60405180910390f35b34801561052157600080fd5b5061053c6004803603810190610537919061326b565b61127c565b005b34801561054a57600080fd5b506105656004803603810190610560919061326b565b611509565b005b610581600480360381019061057c919061348f565b6115e1565b005b34801561058f57600080fd5b50610598611a28565b6040516105a59190613090565b60405180910390f35b3480156105ba57600080fd5b506105c3611a2e565b6040516105d09190613090565b60405180910390f35b3480156105e557600080fd5b5061060060048036038101906105fb91906134e2565b611a38565b005b34801561060e57600080fd5b5061062960048036038101906106249190613462565b611b39565b6040516106369190613090565b60405180910390f35b34801561064b57600080fd5b5061066660048036038101906106619190613462565b611b51565b6040516106739190613090565b60405180910390f35b34801561068857600080fd5b506106a3600480360381019061069e9190613422565b611b69565b005b3480156106b157600080fd5b506106ba611db6565b6040516106c79190613551565b60405180910390f35b3480156106dc57600080fd5b506106f760048036038101906106f2919061356c565b611dc9565b005b34801561070557600080fd5b50610720600480360381019061071b91906131f5565b611f61565b60405161072d9190613090565b60405180910390f35b34801561074257600080fd5b5061075d60048036038101906107589190613462565b611f92565b60405161076a919061372b565b60405180910390f35b34801561077f57600080fd5b506107886120f0565b6040516107959190613090565b60405180910390f35b3480156107aa57600080fd5b506107b36120f6565b6040516107c09190613144565b60405180910390f35b3480156107d557600080fd5b506107de612184565b6040516107eb9190613335565b60405180910390f35b34801561080057600080fd5b5061081b6004803603810190610816919061326b565b6121a8565b005b34801561082957600080fd5b50610844600480360381019061083f91906131f5565b612280565b6040516108519190613250565b60405180910390f35b34801561086657600080fd5b50610881600480360381019061087c919061374d565b61239d565b60405161088e9190613090565b60405180910390f35b6108b160048036038101906108ac919061348f565b6123c2565b005b3480156108bf57600080fd5b506108da60048036038101906108d5919061374d565b612536565b005b3480156108e857600080fd5b5061090360048036038101906108fe9190613462565b612747565b6040516109109190613090565b60405180910390f35b610933600480360381019061092e919061326b565b61275f565b005b34801561094157600080fd5b5061095c6004803603810190610957919061378d565b6127ef565b6040516109699190613090565b60405180910390f35b34801561097e57600080fd5b50610999600480360381019061099491906131f5565b612814565b005b3480156109a757600080fd5b506109c260048036038101906109bd9190613462565b6129d1565b6040516109cf9190613090565b60405180910390f35b3480156109e457600080fd5b506109ed612bc6565b6040516109fa9190613090565b60405180910390f35b348015610a0f57600080fd5b50610a2a6004803603810190610a259190613350565b612bcc565b005b348015610a3857600080fd5b50610a41612d02565b604051610a4e919061382c565b60405180910390f35b600d5481565b60098054610a6a90613876565b80601f0160208091040260200160405190810160405280929190818152602001828054610a9690613876565b8015610ae35780601f10610ab857610100808354040283529160200191610ae3565b820191906000526020600020905b815481529060010190602001808311610ac657829003601f168201915b505050505081565b600081600860003373ffffffffffffffffffffffffffffffffffffffff1673ffffffffffffffffffffffffffffffffffffffff16815260200190815260200160002060008573ffffffffffffffffffffffffffffffffffffffff1673ffffffffffffffffffffffffffffffffffffffff168152602001908152602001600020819055508273ffffffffffffffffffffffffffffffffffffffff163373ffffffffffffffffffffffffffffffffffffffff167f8c5be1e5ebec7d5bd14f71427d1e84f3dd0314c0f7b2291e5b200ac8c7c3b92584604051610bcb9190613090565b60405180910390a36001905092915050565b600e6020528060005260406000206000915090508060000160009054906101000a900473ffffffffffffffffffffffffffffffffffffffff16908060010154908060020154908060030154908060040160009054906101000a900463ffffffff16908060040160049054906101000a900463ffffffff16908060040160089054906101000a900460ff16905087565b60055481565b60028181548110610c8257600080fd5b90600052602060002090600202016000915090508060000160009054906101000a900473ffffffffffffffffffffffffffffffffffffffff16905081565b600081600760008673ffffffffffffffffffffffffffffffffffffffff1673ffffffffffffffffffffffffffffffffffffffff1681526020019081526020016000206000828254610d1191906138d7565b9250508190555081600760008573ffffffffffffffffffffffffffffffffffffffff1673ffffffffffffffffffffffffffffffffffffffff1681526020019081526020016000206000828254610d67919061390b565b925050819055508273ffffffffffffffffffffffffffffffffffffffff168473ffffffffffffffffffffffffffffffffffffffff167fddf252ad1be2c89b69c2b068fc378daa952ba7f163c4a11628f55a4df523b3ef84604051610dcb9190613090565b60405180910390a3600190509392505050565b6000600454905090565b6000600e600083815260200190815260200160002090506000600f600084815260200190815260200160002060003373ffffffffffffffffffffffffffffffffffffffff1673ffffffffffffffffffffffffffffffffffffffff16815260200190815260200160002054905060003373ffffffffffffffffffffffffffffffffffffffff1682604051610e7a90613992565b60006040518083038185875af1925050503d8060008114610eb7576040519150601f19603f3d011682016040523d82523d6000602084013e610ebc565b606091505b5050905080610f00576040517f08c379a0000000000000000000000000000000000000000000000000000000008152600401610ef7906139f3565b60405180910390fd5b6000600f600086815260200190815260200160002060003373ffffffffffffffffffffffffffffffffffffffff1673ffffffffffffffffffffffffffffffffffffffff1681526020019081526020016000208190555081836003016000828254610f6a91906138d7565b925050819055506001836001016000828254610f8691906138d7565b925050819055503373ffffffffffffffffffffffffffffffffffffffff16847f21e12a7cad0da5928167e1084ea4d5fdf8d9af66657a2543a9ac76a0ca08147784604051610fd49190613090565b60405180910390a350505050565b6000428363ffffffff16101561102d576040517f08c379a000000000000000000000000000000000000000000000000000000000815260040161102490613a5f565b60405180910390fd5b8263ffffffff168263ffffffff16101561107c576040517f08c379a000000000000000000000000000000000000000000000000000000000815260040161107390613acb565b60405180910390fd5b6276a7004261108b919061390b565b8263ffffffff1611156110d3576040517f08c379a00000000000000000000000000000000000000000000000000000000081526004016110ca90613b37565b60405180910390fd5b6000600e6000600d5481526020019081526020016000209050338160000160006101000a81548173ffffffffffffffffffffffffffffffffffffffff021916908373ffffffffffffffffffffffffffffffffffffffff1602179055506000816001018190555084816002018190555060008160030181905550838160040160006101000a81548163ffffffff021916908363ffffffff160217905550828160040160046101000a81548163ffffffff021916908363ffffffff16021790555060008160040160086101000a81548160ff0219169083151502179055506001600d60008282546111c2919061390b565b925050819055503373ffffffffffffffffffffffffffffffffffffffff167f0601cd0d650b473037e838a2696d41e654433d065b3f56b28d1d3302e44a304f600d548787876040516112179493929190613b57565b60405180910390a2600d549150509392505050565b6000805482603c854261123f91906138d7565b6112499190613bcb565b6112539190613bfc565b61125d9190613bcb565b905092915050565b600080611271836129d1565b905080915050919050565b6000600e60008381526020019081526020016000206040518060e00160405290816000820160009054906101000a900473ffffffffffffffffffffffffffffffffffffffff1673ffffffffffffffffffffffffffffffffffffffff1673ffffffffffffffffffffffffffffffffffffffff1681526020016001820154815260200160028201548152602001600382015481526020016004820160009054906101000a900463ffffffff1663ffffffff1663ffffffff1681526020016004820160049054906101000a900463ffffffff1663ffffffff1663ffffffff1681526020016004820160089054906101000a900460ff1615151515815250509050806000015173ffffffffffffffffffffffffffffffffffffffff163373ffffffffffffffffffffffffffffffffffffffff16146113eb576040517f08c379a00000000000000000000000000000000000000000000000000000000081526004016113e290613ca2565b60405180910390fd5b806080015163ffffffff164210611437576040517f08c379a000000000000000000000000000000000000000000000000000000000815260040161142e90613d0e565b60405180910390fd5b600e6000838152602001908152602001600020600080820160006101000a81549073ffffffffffffffffffffffffffffffffffffffff02191690556001820160009055600282016000905560038201600090556004820160006101000a81549063ffffffff02191690556004820160046101000a81549063ffffffff02191690556004820160086101000a81549060ff021916905550507f8bf30e7ff26833413be5f69e1d373744864d600b664204b4a2f9844a8eedb9ed826040516114fd9190613090565b60405180910390a15050565b80600760003373ffffffffffffffffffffffffffffffffffffffff1673ffffffffffffffffffffffffffffffffffffffff168152602001908152602001600020600082825461155891906138d7565b92505081905550806006600082825461157191906138d7565b92505081905550600073ffffffffffffffffffffffffffffffffffffffff163373ffffffffffffffffffffffffffffffffffffffff167fddf252ad1be2c89b69c2b068fc378daa952ba7f163c4a11628f55a4df523b3ef836040516115d69190613090565b60405180910390a350565b6000600e600085815260200190815260200160002090506000831161163b576040517f08c379a000000000000000000000000000000000000000000000000000000000815260040161163290613d7a565b60405180910390fd5b6000600f600086815260200190815260200160002060003373ffffffffffffffffffffffffffffffffffffffff1673ffffffffffffffffffffffffffffffffffffffff1681526020019081526020016000205414156117175760018160010160008282546116a9919061390b565b92505081905550601060008373ffffffffffffffffffffffffffffffffffffffff1673ffffffffffffffffffffffffffffffffffffffff1681526020019081526020016000208490806001815401808255809150506001900390600052602060002001600090919091909150555b60003073ffffffffffffffffffffffffffffffffffffffff168460405161173d90613992565b60006040518083038185875af1925050503d806000811461177a576040519150601f19603f3d011682016040523d82523d6000602084013e61177f565b606091505b50509050806117c3576040517f08c379a00000000000000000000000000000000000000000000000000000000081526004016117ba906139f3565b60405180910390fd5b838260030160008282546117d7919061390b565b9250508190555083600f600087815260200190815260200160002060003373ffffffffffffffffffffffffffffffffffffffff1673ffffffffffffffffffffffffffffffffffffffff168152602001908152602001600020600082825461183e919061390b565b9250508190555081600e60008781526020019081526020016000206000820160009054906101000a900473ffffffffffffffffffffffffffffffffffffffff168160000160006101000a81548173ffffffffffffffffffffffffffffffffffffffff021916908373ffffffffffffffffffffffffffffffffffffffff1602179055506001820154816001015560028201548160020155600382015481600301556004820160009054906101000a900463ffffffff168160040160006101000a81548163ffffffff021916908363ffffffff1602179055506004820160049054906101000a900463ffffffff168160040160046101000a81548163ffffffff021916908363ffffffff1602179055506004820160089054906101000a900460ff168160040160086101000a81548160ff02191690831515021790555090505083601160003373ffffffffffffffffffffffffffffffffffffffff1673ffffffffffffffffffffffffffffffffffffffff16815260200190815260200160002060008282546119cb919061390b565b925050819055503373ffffffffffffffffffffffffffffffffffffffff16857f06bdb975df800a73232998e71ed585d536222f1dfeaa622d7f62a23ada686c8286604051611a199190613090565b60405180910390a35050505050565b60045481565b6000600154905090565b600760008373ffffffffffffffffffffffffffffffffffffffff1673ffffffffffffffffffffffffffffffffffffffff16815260200190815260200160002054831115611aba576040517f08c379a0000000000000000000000000000000000000000000000000000000008152600401611ab190613de6565b60405180910390fd5b611ac5838383612d26565b82600760008473ffffffffffffffffffffffffffffffffffffffff1673ffffffffffffffffffffffffffffffffffffffff1681526020019081526020016000206000828254611b1491906138d7565b925050819055508260066000828254611b2d91906138d7565b92505081905550505050565b60126020528060005260406000206000915090505481565b60076020528060005260406000206000915090505481565b6000600e600084815260200190815260200160002090508060040160049054906101000a900463ffffffff1663ffffffff16421115611bdd576040517f08c379a0000000000000000000000000000000000000000000000000000000008152600401611bd490613e52565b60405180910390fd5b60003373ffffffffffffffffffffffffffffffffffffffff1683604051611c0390613992565b60006040518083038185875af1925050503d8060008114611c40576040519150601f19603f3d011682016040523d82523d6000602084013e611c45565b606091505b5050905080611c89576040517f08c379a0000000000000000000000000000000000000000000000000000000008152600401611c80906139f3565b60405180910390fd5b82826003016000828254611c9d91906138d7565b9250508190555082600f600086815260200190815260200160002060003373ffffffffffffffffffffffffffffffffffffffff1673ffffffffffffffffffffffffffffffffffffffff1681526020019081526020016000206000828254611d0491906138d7565b9250508190555082601160003373ffffffffffffffffffffffffffffffffffffffff1673ffffffffffffffffffffffffffffffffffffffff1681526020019081526020016000206000828254611d5a91906138d7565b925050819055503373ffffffffffffffffffffffffffffffffffffffff16847f2eeeab891b26a214d1b25749f88a406bdea852bd8c9bfda977e0ef8114c180ba85604051611da89190613090565b60405180910390a350505050565b600b60009054906101000a900460ff1681565b6005548310611e0d576040517f08c379a0000000000000000000000000000000000000000000000000000000008152600401611e0490613ebe565b60405180910390fd5b6000600360008473ffffffffffffffffffffffffffffffffffffffff1673ffffffffffffffffffffffffffffffffffffffff168152602001908152602001600020549050600060028281548110611e6757611e66613ede565b5b90600052602060002090600202016001018381548110611e8a57611e89613ede565b5b9060005260206000209060050201905060008160030160006101000a81548160ff02191690831515021790555084600760008673ffffffffffffffffffffffffffffffffffffffff1673ffffffffffffffffffffffffffffffffffffffff1681526020019081526020016000206000828254611f06919061390b565b925050819055508560056000828254611f1f91906138d7565b925050819055508460066000828254611f38919061390b565b925050819055508660046000828254611f5191906138d7565b9250508190555050505050505050565b60106020528160005260406000208181548110611f7d57600080fd5b90600052602060002001600091509150505481565b60606000600360008473ffffffffffffffffffffffffffffffffffffffff1673ffffffffffffffffffffffffffffffffffffffff168152602001908152602001600020549050600060028281548110611fee57611fed613ede565b5b9060005260206000209060020201600101805480602002602001604051908101604052809291908181526020016000905b828210156120e057838290600052602060002090600502016040518060a00160405290816000820160009054906101000a900473ffffffffffffffffffffffffffffffffffffffff1673ffffffffffffffffffffffffffffffffffffffff1673ffffffffffffffffffffffffffffffffffffffff16815260200160018201548152602001600282015481526020016003820160009054906101000a900460ff161515151581526020016004820154815250508152602001906001019061201f565b5050505090508092505050919050565b60065481565b600a805461210390613876565b80601f016020809104026020016040519081016040528092919081815260200182805461212f90613876565b801561217c5780601f106121515761010080835404028352916020019161217c565b820191906000526020600020905b81548152906001019060200180831161215f57829003601f168201915b505050505081565b7f000000000000000000000000000000000000000000000000000000000000000081565b80600760003073ffffffffffffffffffffffffffffffffffffffff1673ffffffffffffffffffffffffffffffffffffffff16815260200190815260200160002060008282546121f7919061390b565b925050819055508060056000828254612210919061390b565b925050819055503073ffffffffffffffffffffffffffffffffffffffff16600073ffffffffffffffffffffffffffffffffffffffff167fddf252ad1be2c89b69c2b068fc378daa952ba7f163c4a11628f55a4df523b3ef836040516122759190613090565b60405180910390a350565b600081600760003373ffffffffffffffffffffffffffffffffffffffff1673ffffffffffffffffffffffffffffffffffffffff16815260200190815260200160002060008282546122d191906138d7565b9250508190555081600760008573ffffffffffffffffffffffffffffffffffffffff1673ffffffffffffffffffffffffffffffffffffffff1681526020019081526020016000206000828254612327919061390b565b925050819055508273ffffffffffffffffffffffffffffffffffffffff163373ffffffffffffffffffffffffffffffffffffffff167fddf252ad1be2c89b69c2b068fc378daa952ba7f163c4a11628f55a4df523b3ef8460405161238b9190613090565b60405180910390a36001905092915050565b600f602052816000526040600020602052806000526040600020600091509150505481565b6000600e6000858152602001908152602001600020905060008273ffffffffffffffffffffffffffffffffffffffff16846040516123ff90613992565b60006040518083038185875af1925050503d806000811461243c576040519150601f19603f3d011682016040523d82523d6000602084013e612441565b606091505b5050905080612485576040517f08c379a000000000000000000000000000000000000000000000000000000000815260040161247c906139f3565b60405180910390fd5b60018260040160086101000a81548160ff02191690831515021790555083601260008573ffffffffffffffffffffffffffffffffffffffff1673ffffffffffffffffffffffffffffffffffffffff16815260200190815260200160002060008282546124f1919061390b565b925050819055507f7bb2b3c10797baccb6f8c4791f1edd6ca2f0d028ee0eda64b01a9a57e3a653f7856040516125279190613090565b60405180910390a15050505050565b6000600f600084815260200190815260200160002060008373ffffffffffffffffffffffffffffffffffffffff1673ffffffffffffffffffffffffffffffffffffffff16815260200190815260200160002054116125c9576040517f08c379a00000000000000000000000000000000000000000000000000000000081526004016125c090613f59565b60405180910390fd5b7f000000000000000000000000000000000000000000000000000000000000000073ffffffffffffffffffffffffffffffffffffffff1663fbd95a397f000000000000000000000000000000000000000000000000000000000000000083670de0b6b3a764000066038d7ea4c68000600f600089815260200190815260200160002060008873ffffffffffffffffffffffffffffffffffffffff1673ffffffffffffffffffffffffffffffffffffffff168152602001908152602001600020546126939190613bcb565b61269d9190613bfc565b6040518463ffffffff1660e01b81526004016126bb93929190613f79565b600060405180830381600087803b1580156126d557600080fd5b505af11580156126e9573d6000803e3d6000fd5b505050506000600f600084815260200190815260200160002060008373ffffffffffffffffffffffffffffffffffffffff1673ffffffffffffffffffffffffffffffffffffffff168152602001908152602001600020819055505050565b60116020528060005260406000206000915090505481565b7f000000000000000000000000000000000000000000000000000000000000000073ffffffffffffffffffffffffffffffffffffffff1663e22f9ea630836040518363ffffffff1660e01b81526004016127ba929190613fb0565b600060405180830381600087803b1580156127d457600080fd5b505af11580156127e8573d6000803e3d6000fd5b5050505050565b6008602052816000526040600020602052806000526040600020600091509150505481565b7f909c57d5c6ac08245cf2a6de3900e2b868513fa59099b92b27d8db823d92df9c600760003073ffffffffffffffffffffffffffffffffffffffff1673ffffffffffffffffffffffffffffffffffffffff168152602001908152602001600020546040516128829190613090565b60405180910390a180600760003073ffffffffffffffffffffffffffffffffffffffff1673ffffffffffffffffffffffffffffffffffffffff16815260200190815260200160002060008282546128d991906138d7565b9250508190555080600760008473ffffffffffffffffffffffffffffffffffffffff1673ffffffffffffffffffffffffffffffffffffffff168152602001908152602001600020600082825461292f919061390b565b92505081905550806005600082825461294891906138d7565b925050819055508060066000828254612961919061390b565b925050819055508173ffffffffffffffffffffffffffffffffffffffff163073ffffffffffffffffffffffffffffffffffffffff167fddf252ad1be2c89b69c2b068fc378daa952ba7f163c4a11628f55a4df523b3ef836040516129c59190613090565b60405180910390a35050565b60008060006040518060400160405280600081526020016002600360008873ffffffffffffffffffffffffffffffffffffffff1673ffffffffffffffffffffffffffffffffffffffff1681526020019081526020016000205481548110612a3b57612a3a613ede565b5b9060005260206000209060020201600101805480602002602001604051908101604052809291908181526020016000905b82821015612b2d57838290600052602060002090600502016040518060a00160405290816000820160009054906101000a900473ffffffffffffffffffffffffffffffffffffffff1673ffffffffffffffffffffffffffffffffffffffff1673ffffffffffffffffffffffffffffffffffffffff16815260200160018201548152602001600282015481526020016003820160009054906101000a900460ff1615151515815260200160048201548152505081526020019060010190612a6c565b50505050815250905060005b816020015151811015612bad576000612b9683602001518381518110612b6257612b61613ede565b5b60200260200101516040015184602001518481518110612b8557612b84613ede565b5b60200260200101516020015161122c565b905050600181612ba6919061390b565b9050612b39565b5081816000018181525050806000015192505050919050565b600c5481565b8060055411612c10576040517f08c379a0000000000000000000000000000000000000000000000000000000008152600401612c0790613ebe565b60405180910390fd5b8060056000828254612c2291906138d7565b925050819055508060066000828254612c3b919061390b565b9250508190555080600760008473ffffffffffffffffffffffffffffffffffffffff1673ffffffffffffffffffffffffffffffffffffffff1681526020019081526020016000206000828254612c91919061390b565b925050819055508173ffffffffffffffffffffffffffffffffffffffff168373ffffffffffffffffffffffffffffffffffffffff167fddf252ad1be2c89b69c2b068fc378daa952ba7f163c4a11628f55a4df523b3ef83604051612cf59190613090565b60405180910390a3505050565b7f000000000000000000000000000000000000000000000000000000000000000081565b60008311612d69576040517f08c379a0000000000000000000000000000000000000000000000000000000008152600401612d6090614025565b60405180910390fd5b6000600360008473ffffffffffffffffffffffffffffffffffffffff1673ffffffffffffffffffffffffffffffffffffffff16815260200190815260200160002054905060004290506000821415612dc757612dc484612f67565b91505b60028281548110612ddb57612dda613ede565b5b90600052602060002090600202016001016040518060a001604052808673ffffffffffffffffffffffffffffffffffffffff16815260200187815260200183815260200160011515815260200185815250908060018154018082558091505060019003906000526020600020906005020160009091909190915060008201518160000160006101000a81548173ffffffffffffffffffffffffffffffffffffffff021916908373ffffffffffffffffffffffffffffffffffffffff160217905550602082015181600101556040820151816002015560608201518160030160006101000a81548160ff0219169083151502179055506080820151816004015550508460046000828254612eee919061390b565b925050819055506001806000828254612f07919061390b565b925050819055508373ffffffffffffffffffffffffffffffffffffffff167fb4caaf29adda3eefee3ad552a8e85058589bf834c7466cae4ee58787f70589ed868484604051612f5893929190614045565b60405180910390a25050505050565b600060026001816001815401808255809150500390600052602060002090505060006001600280549050612f9b91906138d7565b90508260028281548110612fb257612fb1613ede565b5b906000526020600020906002020160000160006101000a81548173ffffffffffffffffffffffffffffffffffffffff021916908373ffffffffffffffffffffffffffffffffffffffff16021790555080600360008573ffffffffffffffffffffffffffffffffffffffff1673ffffffffffffffffffffffffffffffffffffffff1681526020019081526020016000208190555080915050919050565b6000819050919050565b6130618161304e565b82525050565b600060408201905061307c6000830185613058565b6130896020830184613058565b9392505050565b60006020820190506130a56000830184613058565b92915050565b600081519050919050565b600082825260208201905092915050565b60005b838110156130e55780820151818401526020810190506130ca565b838111156130f4576000848401525b50505050565b6000601f19601f8301169050919050565b6000613116826130ab565b61312081856130b6565b93506131308185602086016130c7565b613139816130fa565b840191505092915050565b6000602082019050818103600083015261315e818461310b565b905092915050565b600080fd5b600073ffffffffffffffffffffffffffffffffffffffff82169050919050565b60006131968261316b565b9050919050565b6131a68161318b565b81146131b157600080fd5b50565b6000813590506131c38161319d565b92915050565b6131d28161304e565b81146131dd57600080fd5b50565b6000813590506131ef816131c9565b92915050565b6000806040838503121561320c5761320b613166565b5b600061321a858286016131b4565b925050602061322b858286016131e0565b9150509250929050565b60008115159050919050565b61324a81613235565b82525050565b60006020820190506132656000830184613241565b92915050565b60006020828403121561328157613280613166565b5b600061328f848285016131e0565b91505092915050565b6132a18161318b565b82525050565b600063ffffffff82169050919050565b6132c0816132a7565b82525050565b600060e0820190506132db600083018a613298565b6132e86020830189613058565b6132f56040830188613058565b6133026060830187613058565b61330f60808301866132b7565b61331c60a08301856132b7565b61332960c0830184613241565b98975050505050505050565b600060208201905061334a6000830184613298565b92915050565b60008060006060848603121561336957613368613166565b5b6000613377868287016131b4565b9350506020613388868287016131b4565b9250506040613399868287016131e0565b9150509250925092565b6133ac816132a7565b81146133b757600080fd5b50565b6000813590506133c9816133a3565b92915050565b6000806000606084860312156133e8576133e7613166565b5b60006133f6868287016131e0565b9350506020613407868287016133ba565b9250506040613418868287016133ba565b9150509250925092565b6000806040838503121561343957613438613166565b5b6000613447858286016131e0565b9250506020613458858286016131e0565b9150509250929050565b60006020828403121561347857613477613166565b5b6000613486848285016131b4565b91505092915050565b6000806000606084860312156134a8576134a7613166565b5b60006134b6868287016131e0565b93505060206134c7868287016131e0565b92505060406134d8868287016131b4565b9150509250925092565b6000806000606084860312156134fb576134fa613166565b5b6000613509868287016131e0565b935050602061351a868287016131b4565b925050604061352b868287016131e0565b9150509250925092565b600060ff82169050919050565b61354b81613535565b82525050565b60006020820190506135666000830184613542565b92915050565b600080600080600060a0868803121561358857613587613166565b5b6000613596888289016131e0565b95505060206135a7888289016131e0565b94505060406135b8888289016131e0565b93505060606135c9888289016131b4565b92505060806135da888289016131e0565b9150509295509295909350565b600081519050919050565b600082825260208201905092915050565b6000819050602082019050919050565b61361c8161318b565b82525050565b61362b8161304e565b82525050565b61363a81613235565b82525050565b60a0820160008201516136566000850182613613565b5060208201516136696020850182613622565b50604082015161367c6040850182613622565b50606082015161368f6060850182613631565b5060808201516136a26080850182613622565b50505050565b60006136b48383613640565b60a08301905092915050565b6000602082019050919050565b60006136d8826135e7565b6136e281856135f2565b93506136ed83613603565b8060005b8381101561371e57815161370588826136a8565b9750613710836136c0565b9250506001810190506136f1565b5085935050505092915050565b6000602082019050818103600083015261374581846136cd565b905092915050565b6000806040838503121561376457613763613166565b5b6000613772858286016131e0565b9250506020613783858286016131b4565b9150509250929050565b600080604083850312156137a4576137a3613166565b5b60006137b2858286016131b4565b92505060206137c3858286016131b4565b9150509250929050565b6000819050919050565b60006137f26137ed6137e88461316b565b6137cd565b61316b565b9050919050565b6000613804826137d7565b9050919050565b6000613816826137f9565b9050919050565b6138268161380b565b82525050565b6000602082019050613841600083018461381d565b92915050565b7f4e487b7100000000000000000000000000000000000000000000000000000000600052602260045260246000fd5b6000600282049050600182168061388e57607f821691505b602082108114156138a2576138a1613847565b5b50919050565b7f4e487b7100000000000000000000000000000000000000000000000000000000600052601160045260246000fd5b60006138e28261304e565b91506138ed8361304e565b925082821015613900576138ff6138a8565b5b828203905092915050565b60006139168261304e565b91506139218361304e565b9250827fffffffffffffffffffffffffffffffffffffffffffffffffffffffffffffffff03821115613956576139556138a8565b5b828201905092915050565b600081905092915050565b50565b600061397c600083613961565b91506139878261396c565b600082019050919050565b600061399d8261396f565b9150819050919050565b7f43616c6c206661696c6564000000000000000000000000000000000000000000600082015250565b60006139dd600b836130b6565b91506139e8826139a7565b602082019050919050565b60006020820190508181036000830152613a0c816139d0565b9050919050565b7f5374617274206174203c206e6f77000000000000000000000000000000000000600082015250565b6000613a49600e836130b6565b9150613a5482613a13565b602082019050919050565b60006020820190508181036000830152613a7881613a3c565b9050919050565b7f656e64206174203c207374617274206174000000000000000000000000000000600082015250565b6000613ab56011836130b6565b9150613ac082613a7f565b602082019050919050565b60006020820190508181036000830152613ae481613aa8565b9050919050565b7f656e64206174203e206d6178206475726174696f6e0000000000000000000000600082015250565b6000613b216015836130b6565b9150613b2c82613aeb565b602082019050919050565b60006020820190508181036000830152613b5081613b14565b9050919050565b6000608082019050613b6c6000830187613058565b613b796020830186613058565b613b8660408301856132b7565b613b9360608301846132b7565b95945050505050565b7f4e487b7100000000000000000000000000000000000000000000000000000000600052601260045260246000fd5b6000613bd68261304e565b9150613be18361304e565b925082613bf157613bf0613b9c565b5b828204905092915050565b6000613c078261304e565b9150613c128361304e565b9250817fffffffffffffffffffffffffffffffffffffffffffffffffffffffffffffffff0483118215151615613c4b57613c4a6138a8565b5b828202905092915050565b7f4e6f742063726561746f72000000000000000000000000000000000000000000600082015250565b6000613c8c600b836130b6565b9150613c9782613c56565b602082019050919050565b60006020820190508181036000830152613cbb81613c7f565b9050919050565b7f7374617274656400000000000000000000000000000000000000000000000000600082015250565b6000613cf86007836130b6565b9150613d0382613cc2565b602082019050919050565b60006020820190508181036000830152613d2781613ceb565b9050919050565b7f416d6f756e742073686f756c6420626520626967676572207468616e20300000600082015250565b6000613d64601e836130b6565b9150613d6f82613d2e565b602082019050919050565b60006020820190508181036000830152613d9381613d57565b9050919050565b7f4e6f7420656e6f75676820746f6b656e73000000000000000000000000000000600082015250565b6000613dd06011836130b6565b9150613ddb82613d9a565b602082019050919050565b60006020820190508181036000830152613dff81613dc3565b9050919050565b7f456e646564000000000000000000000000000000000000000000000000000000600082015250565b6000613e3c6005836130b6565b9150613e4782613e06565b602082019050919050565b60006020820190508181036000830152613e6b81613e2f565b9050919050565b7f4e6f7420656e6f75676820737570706c79000000000000000000000000000000600082015250565b6000613ea86011836130b6565b9150613eb382613e72565b602082019050919050565b60006020820190508181036000830152613ed781613e9b565b9050919050565b7f4e487b7100000000000000000000000000000000000000000000000000000000600052603260045260246000fd5b7f4e6f7468696e6720706c65646765640000000000000000000000000000000000600082015250565b6000613f43600f836130b6565b9150613f4e82613f0d565b602082019050919050565b60006020820190508181036000830152613f7281613f36565b9050919050565b6000606082019050613f8e6000830186613298565b613f9b6020830185613298565b613fa86040830184613058565b949350505050565b6000604082019050613fc56000830185613298565b613fd26020830184613058565b9392505050565b7f43616e6e6f74207374616b65206e6f7468696e67000000000000000000000000600082015250565b600061400f6014836130b6565b915061401a82613fd9565b602082019050919050565b6000602082019050818103600083015261403e81614002565b9050919050565b600060608201905061405a6000830186613058565b6140676020830185613058565b6140746040830184613058565b94935050505056fea2646970667358221220e3e2bcd763e8a52c77c0dcde414ec82f68a4b1c10ba20dc683536672e251ddb264736f6c634300080a0033",
  "linkReferences": {},
  "deployedLinkReferences": {}
}