{
  "_format": "hh-sol-artifact-1",
  "contractName": "Crowdfund",
  "sourceName": "contracts/Crowdfund.sol",
  "abi": [
    {
      "inputs": [
        {
          "internalType": "address",
          "name": "_token",
          "type": "address"
        }
      ],
      "stateMutability": "nonpayable",
      "type": "constructor"
    },
    {
      "anonymous": false,
      "inputs": [
        {
          "indexed": true,
          "internalType": "address",
          "name": "owner",
          "type": "address"
        },
        {
          "indexed": true,
          "internalType": "address",
          "name": "sender",
          "type": "address"
        },
        {
          "indexed": false,
          "internalType": "uint256",
          "name": "amount",
          "type": "uint256"
        }
      ],
      "name": "Approval",
      "type": "event"
    },
    {
      "anonymous": false,
      "inputs": [
        {
          "indexed": false,
          "internalType": "uint256",
          "name": "id",
          "type": "uint256"
        }
      ],
      "name": "Cancel",
      "type": "event"
    },
    {
      "anonymous": false,
      "inputs": [
        {
          "indexed": false,
          "internalType": "uint256",
          "name": "id",
          "type": "uint256"
        }
      ],
      "name": "Claim",
      "type": "event"
    },
    {
      "anonymous": false,
      "inputs": [
        {
          "indexed": false,
          "internalType": "uint256",
          "name": "id",
          "type": "uint256"
        },
        {
          "indexed": true,
          "internalType": "address",
          "name": "creator",
          "type": "address"
        },
        {
          "indexed": false,
          "internalType": "uint256",
          "name": "goal",
          "type": "uint256"
        },
        {
          "indexed": false,
          "internalType": "uint32",
          "name": "startAt",
          "type": "uint32"
        },
        {
          "indexed": false,
          "internalType": "uint32",
          "name": "endAt",
          "type": "uint32"
        }
      ],
      "name": "Launch",
      "type": "event"
    },
    {
      "anonymous": false,
      "inputs": [
        {
          "indexed": false,
          "internalType": "uint256",
          "name": "amount",
          "type": "uint256"
        },
        {
          "indexed": false,
          "internalType": "uint256",
          "name": "gas",
          "type": "uint256"
        }
      ],
      "name": "Log",
      "type": "event"
    },
    {
      "anonymous": false,
      "inputs": [
        {
          "indexed": false,
          "internalType": "uint256",
          "name": "amount",
          "type": "uint256"
        }
      ],
      "name": "Log",
      "type": "event"
    },
    {
      "anonymous": false,
      "inputs": [
        {
          "indexed": true,
          "internalType": "uint256",
          "name": "id",
          "type": "uint256"
        },
        {
          "indexed": true,
          "internalType": "address",
          "name": "caller",
          "type": "address"
        },
        {
          "indexed": false,
          "internalType": "uint256",
          "name": "amount",
          "type": "uint256"
        }
      ],
      "name": "Pledge",
      "type": "event"
    },
    {
      "anonymous": false,
      "inputs": [
        {
          "indexed": true,
          "internalType": "uint256",
          "name": "id",
          "type": "uint256"
        },
        {
          "indexed": true,
          "internalType": "address",
          "name": "caller",
          "type": "address"
        },
        {
          "indexed": false,
          "internalType": "uint256",
          "name": "amount",
          "type": "uint256"
        }
      ],
      "name": "Refund",
      "type": "event"
    },
    {
      "anonymous": false,
      "inputs": [
        {
          "indexed": true,
          "internalType": "address",
          "name": "user",
          "type": "address"
        },
        {
          "indexed": false,
          "internalType": "uint256",
          "name": "amount",
          "type": "uint256"
        },
        {
          "indexed": false,
          "internalType": "uint256",
          "name": "index",
          "type": "uint256"
        },
        {
          "indexed": false,
          "internalType": "uint256",
          "name": "timestamp",
          "type": "uint256"
        }
      ],
      "name": "Staked",
      "type": "event"
    },
    {
      "anonymous": false,
      "inputs": [
        {
          "indexed": true,
          "internalType": "address",
          "name": "from",
          "type": "address"
        },
        {
          "indexed": true,
          "internalType": "address",
          "name": "to",
          "type": "address"
        },
        {
          "indexed": false,
          "internalType": "uint256",
          "name": "amount",
          "type": "uint256"
        }
      ],
      "name": "Transfer",
      "type": "event"
    },
    {
      "anonymous": false,
      "inputs": [
        {
          "indexed": true,
          "internalType": "uint256",
          "name": "id",
          "type": "uint256"
        },
        {
          "indexed": true,
          "internalType": "address",
          "name": "caller",
          "type": "address"
        },
        {
          "indexed": false,
          "internalType": "uint256",
          "name": "amount",
          "type": "uint256"
        }
      ],
      "name": "Unpledge",
      "type": "event"
    },
    {
      "inputs": [
        {
          "internalType": "address",
          "name": "",
          "type": "address"
        },
        {
          "internalType": "address",
          "name": "",
          "type": "address"
        }
      ],
      "name": "allowance",
      "outputs": [
        {
          "internalType": "uint256",
          "name": "",
          "type": "uint256"
        }
      ],
      "stateMutability": "view",
      "type": "function"
    },
    {
      "inputs": [],
      "name": "amountStaked",
      "outputs": [
        {
          "internalType": "uint256",
          "name": "",
          "type": "uint256"
        }
      ],
      "stateMutability": "view",
      "type": "function"
    },
    {
      "inputs": [
        {
          "internalType": "address",
          "name": "sender",
          "type": "address"
        },
        {
          "internalType": "uint256",
          "name": "amount",
          "type": "uint256"
        }
      ],
      "name": "approve",
      "outputs": [
        {
          "internalType": "bool",
          "name": "",
          "type": "bool"
        }
      ],
      "stateMutability": "nonpayable",
      "type": "function"
    },
    {
      "inputs": [
        {
          "internalType": "address",
          "name": "",
          "type": "address"
        }
      ],
      "name": "balanceOf",
      "outputs": [
        {
          "internalType": "uint256",
          "name": "",
          "type": "uint256"
        }
      ],
      "stateMutability": "view",
      "type": "function"
    },
    {
      "inputs": [
        {
          "internalType": "uint256",
          "name": "amount",
          "type": "uint256"
        }
      ],
      "name": "burn",
      "outputs": [],
      "stateMutability": "nonpayable",
      "type": "function"
    },
    {
      "inputs": [
        {
          "internalType": "uint256",
          "name": "since",
          "type": "uint256"
        },
        {
          "internalType": "uint256",
          "name": "amount",
          "type": "uint256"
        }
      ],
      "name": "calculateStakeReward",
      "outputs": [
        {
          "internalType": "uint256",
          "name": "",
          "type": "uint256"
        }
      ],
      "stateMutability": "view",
      "type": "function"
    },
    {
      "inputs": [
        {
          "internalType": "uint256",
          "name": "",
          "type": "uint256"
        }
      ],
      "name": "campaigns",
      "outputs": [
        {
          "internalType": "address",
          "name": "creator",
          "type": "address"
        },
        {
          "internalType": "uint256",
          "name": "numberOfInvestors",
          "type": "uint256"
        },
        {
          "internalType": "uint256",
          "name": "goal",
          "type": "uint256"
        },
        {
          "internalType": "uint256",
          "name": "pledged",
          "type": "uint256"
        },
        {
          "internalType": "uint32",
          "name": "startAt",
          "type": "uint32"
        },
        {
          "internalType": "uint32",
          "name": "endAt",
          "type": "uint32"
        },
        {
          "internalType": "bool",
          "name": "claimed",
          "type": "bool"
        }
      ],
      "stateMutability": "view",
      "type": "function"
    },
    {
      "inputs": [
        {
          "internalType": "uint256",
          "name": "_id",
          "type": "uint256"
        }
      ],
      "name": "cancel",
      "outputs": [],
      "stateMutability": "nonpayable",
      "type": "function"
    },
    {
      "inputs": [],
      "name": "circulatingSupply",
      "outputs": [
        {
          "internalType": "uint256",
          "name": "",
          "type": "uint256"
        }
      ],
      "stateMutability": "view",
      "type": "function"
    },
    {
      "inputs": [
        {
          "internalType": "uint256",
          "name": "_id",
          "type": "uint256"
        },
        {
          "internalType": "uint256",
          "name": "amount",
          "type": "uint256"
        },
        {
          "internalType": "address",
          "name": "adr",
          "type": "address"
        }
      ],
      "name": "claim",
      "outputs": [],
      "stateMutability": "payable",
      "type": "function"
    },
    {
      "inputs": [
        {
          "internalType": "uint256",
          "name": "_id",
          "type": "uint256"
        },
        {
          "internalType": "address",
          "name": "adr",
          "type": "address"
        }
      ],
      "name": "claimShares",
      "outputs": [],
      "stateMutability": "nonpayable",
      "type": "function"
    },
    {
      "inputs": [],
      "name": "count",
      "outputs": [
        {
          "internalType": "uint256",
          "name": "",
          "type": "uint256"
        }
      ],
      "stateMutability": "view",
      "type": "function"
    },
    {
      "inputs": [],
      "name": "decimal",
      "outputs": [
        {
          "internalType": "uint8",
          "name": "",
          "type": "uint8"
        }
      ],
      "stateMutability": "view",
      "type": "function"
    },
    {
      "inputs": [
        {
          "internalType": "address",
          "name": "adr",
          "type": "address"
        }
      ],
      "name": "getSummary",
      "outputs": [
        {
          "internalType": "uint256",
          "name": "",
          "type": "uint256"
        }
      ],
      "stateMutability": "view",
      "type": "function"
    },
    {
      "inputs": [
        {
          "internalType": "uint256",
          "name": "amount",
          "type": "uint256"
        }
      ],
      "name": "getTokens",
      "outputs": [],
      "stateMutability": "payable",
      "type": "function"
    },
    {
      "inputs": [],
      "name": "getTotalAmountStaked",
      "outputs": [
        {
          "internalType": "uint256",
          "name": "",
          "type": "uint256"
        }
      ],
      "stateMutability": "view",
      "type": "function"
    },
    {
      "inputs": [],
      "name": "getTotalStakes",
      "outputs": [
        {
          "internalType": "uint256",
          "name": "",
          "type": "uint256"
        }
      ],
      "stateMutability": "view",
      "type": "function"
    },
    {
      "inputs": [
        {
          "internalType": "address",
          "name": "adr",
          "type": "address"
        }
      ],
      "name": "getUserStakes",
      "outputs": [
        {
          "components": [
            {
              "internalType": "address",
              "name": "user",
              "type": "address"
            },
            {
              "internalType": "uint256",
              "name": "amount",
              "type": "uint256"
            },
            {
              "internalType": "uint256",
              "name": "since",
              "type": "uint256"
            },
            {
              "internalType": "bool",
              "name": "claimable",
              "type": "bool"
            },
            {
              "internalType": "uint256",
              "name": "id",
              "type": "uint256"
            }
          ],
          "internalType": "struct Staking.Stake[]",
          "name": "",
          "type": "tuple[]"
        }
      ],
      "stateMutability": "view",
      "type": "function"
    },
    {
      "inputs": [
        {
          "internalType": "address",
          "name": "_staker",
          "type": "address"
        }
      ],
      "name": "hasStake",
      "outputs": [
        {
          "internalType": "uint256",
          "name": "",
          "type": "uint256"
        }
      ],
      "stateMutability": "view",
      "type": "function"
    },
    {
      "inputs": [
        {
          "internalType": "address",
          "name": "",
          "type": "address"
        },
        {
          "internalType": "uint256",
          "name": "",
          "type": "uint256"
        }
      ],
      "name": "investors",
      "outputs": [
        {
          "internalType": "uint256",
          "name": "",
          "type": "uint256"
        }
      ],
      "stateMutability": "view",
      "type": "function"
    },
    {
      "inputs": [
        {
          "internalType": "uint256",
          "name": "_goal",
          "type": "uint256"
        },
        {
          "internalType": "uint32",
          "name": "_startAt",
          "type": "uint32"
        },
        {
          "internalType": "uint32",
          "name": "_endAt",
          "type": "uint32"
        }
      ],
      "name": "launch",
      "outputs": [
        {
          "internalType": "uint256",
          "name": "",
          "type": "uint256"
        }
      ],
      "stateMutability": "nonpayable",
      "type": "function"
    },
    {
      "inputs": [
        {
          "internalType": "uint256",
          "name": "amount",
          "type": "uint256"
        }
      ],
      "name": "mint",
      "outputs": [],
      "stateMutability": "nonpayable",
      "type": "function"
    },
    {
      "inputs": [],
      "name": "name",
      "outputs": [
        {
          "internalType": "string",
          "name": "",
          "type": "string"
        }
      ],
      "stateMutability": "view",
      "type": "function"
    },
    {
      "inputs": [
        {
          "internalType": "uint256",
          "name": "_id",
          "type": "uint256"
        },
        {
          "internalType": "uint256",
          "name": "_amount",
          "type": "uint256"
        },
        {
          "internalType": "address",
          "name": "adr",
          "type": "address"
        }
      ],
      "name": "pledge",
      "outputs": [],
      "stateMutability": "payable",
      "type": "function"
    },
    {
      "inputs": [
        {
          "internalType": "uint256",
          "name": "",
          "type": "uint256"
        },
        {
          "internalType": "address",
          "name": "",
          "type": "address"
        }
      ],
      "name": "pledgedAmount",
      "outputs": [
        {
          "internalType": "uint256",
          "name": "",
          "type": "uint256"
        }
      ],
      "stateMutability": "view",
      "type": "function"
    },
    {
      "inputs": [
        {
          "internalType": "uint256",
          "name": "_id",
          "type": "uint256"
        }
      ],
      "name": "refund",
      "outputs": [],
      "stateMutability": "nonpayable",
      "type": "function"
    },
    {
      "inputs": [
        {
          "internalType": "address",
          "name": "sender",
          "type": "address"
        },
        {
          "internalType": "address",
          "name": "recipient",
          "type": "address"
        },
        {
          "internalType": "uint256",
          "name": "amount",
          "type": "uint256"
        }
      ],
      "name": "sendToAddress",
      "outputs": [],
      "stateMutability": "nonpayable",
      "type": "function"
    },
    {
      "inputs": [
        {
          "internalType": "address",
          "name": "recipient",
          "type": "address"
        },
        {
          "internalType": "uint256",
          "name": "amount",
          "type": "uint256"
        }
      ],
      "name": "sendToContract",
      "outputs": [],
      "stateMutability": "nonpayable",
      "type": "function"
    },
    {
      "inputs": [
        {
          "internalType": "uint256",
          "name": "_amount",
          "type": "uint256"
        },
        {
          "internalType": "address",
          "name": "adr",
          "type": "address"
        },
        {
          "internalType": "uint256",
          "name": "id",
          "type": "uint256"
        }
      ],
      "name": "stake",
      "outputs": [],
      "stateMutability": "nonpayable",
      "type": "function"
    },
    {
      "inputs": [
        {
          "internalType": "uint256",
          "name": "",
          "type": "uint256"
        }
      ],
      "name": "stakeholders",
      "outputs": [
        {
          "internalType": "address",
          "name": "user",
          "type": "address"
        }
      ],
      "stateMutability": "view",
      "type": "function"
    },
    {
      "inputs": [],
      "name": "symbol",
      "outputs": [
        {
          "internalType": "string",
          "name": "",
          "type": "string"
        }
      ],
      "stateMutability": "view",
      "type": "function"
    },
    {
      "inputs": [],
      "name": "token",
      "outputs": [
        {
          "internalType": "contract IERC20",
          "name": "",
          "type": "address"
        }
      ],
      "stateMutability": "view",
      "type": "function"
    },
    {
      "inputs": [],
      "name": "tokenAddress",
      "outputs": [
        {
          "internalType": "address",
          "name": "",
          "type": "address"
        }
      ],
      "stateMutability": "view",
      "type": "function"
    },
    {
      "inputs": [
        {
          "internalType": "address",
          "name": "",
          "type": "address"
        }
      ],
      "name": "totalAmountInvested",
      "outputs": [
        {
          "internalType": "uint256",
          "name": "",
          "type": "uint256"
        }
      ],
      "stateMutability": "view",
      "type": "function"
    },
    {
      "inputs": [
        {
          "internalType": "address",
          "name": "",
          "type": "address"
        }
      ],
      "name": "totalAmountRaised",
      "outputs": [
        {
          "internalType": "uint256",
          "name": "",
          "type": "uint256"
        }
      ],
      "stateMutability": "view",
      "type": "function"
    },
    {
      "inputs": [],
      "name": "totalSupply",
      "outputs": [
        {
          "internalType": "uint256",
          "name": "",
          "type": "uint256"
        }
      ],
      "stateMutability": "view",
      "type": "function"
    },
    {
      "inputs": [],
      "name": "total_amount_stacked",
      "outputs": [
        {
          "internalType": "uint256",
          "name": "",
          "type": "uint256"
        }
      ],
      "stateMutability": "view",
      "type": "function"
    },
    {
      "inputs": [
        {
          "internalType": "address",
          "name": "recipient",
          "type": "address"
        },
        {
          "internalType": "uint256",
          "name": "amount",
          "type": "uint256"
        }
      ],
      "name": "transfer",
      "outputs": [
        {
          "internalType": "bool",
          "name": "",
          "type": "bool"
        }
      ],
      "stateMutability": "nonpayable",
      "type": "function"
    },
    {
      "inputs": [
        {
          "internalType": "address",
          "name": "sender",
          "type": "address"
        },
        {
          "internalType": "address",
          "name": "recipient",
          "type": "address"
        },
        {
          "internalType": "uint256",
          "name": "amount",
          "type": "uint256"
        }
      ],
      "name": "transferFrom",
      "outputs": [
        {
          "internalType": "bool",
          "name": "",
          "type": "bool"
        }
      ],
      "stateMutability": "nonpayable",
      "type": "function"
    },
    {
      "inputs": [
        {
          "internalType": "uint256",
          "name": "_id",
          "type": "uint256"
        },
        {
          "internalType": "uint256",
          "name": "_amount",
          "type": "uint256"
        }
      ],
      "name": "unpledge",
      "outputs": [],
      "stateMutability": "nonpayable",
      "type": "function"
    },
    {
      "inputs": [
        {
          "internalType": "uint256",
          "name": "initialAmount",
          "type": "uint256"
        },
        {
          "internalType": "uint256",
          "name": "_amount",
          "type": "uint256"
        },
        {
          "internalType": "uint256",
          "name": "_amountMint",
          "type": "uint256"
        },
        {
          "internalType": "address",
          "name": "adr",
          "type": "address"
        },
        {
          "internalType": "uint256",
          "name": "id",
          "type": "uint256"
        }
      ],
      "name": "withdrawStake",
      "outputs": [],
      "stateMutability": "nonpayable",
      "type": "function"
    },
    {
      "stateMutability": "payable",
      "type": "receive"
    }
  ],
  "bytecode": "0x60c06040526103e8600055600060015560006004556040518060400160405280600881526020017f47656d73746f6e65000000000000000000000000000000000000000000000000815250600990805190602001906200006192919062000191565b506040518060400160405280600381526020017f474d530000000000000000000000000000000000000000000000000000000000815250600a9080519060200190620000af92919062000191565b506012600b60006101000a81548160ff021916908360ff1602179055506000600d55348015620000de57600080fd5b506040516200440a3803806200440a8339818101604052810190620001049190620002ab565b6002600181600181540180825580915050039060005260206000209050508073ffffffffffffffffffffffffffffffffffffffff1660808173ffffffffffffffffffffffffffffffffffffffff16815250508073ffffffffffffffffffffffffffffffffffffffff1660a08173ffffffffffffffffffffffffffffffffffffffff16815250505062000342565b8280546200019f906200030c565b90600052602060002090601f016020900481019282620001c357600085556200020f565b82601f10620001de57805160ff19168380011785556200020f565b828001600101855582156200020f579182015b828111156200020e578251825591602001919060010190620001f1565b5b5090506200021e919062000222565b5090565b5b808211156200023d57600081600090555060010162000223565b5090565b600080fd5b600073ffffffffffffffffffffffffffffffffffffffff82169050919050565b6000620002738262000246565b9050919050565b620002858162000266565b81146200029157600080fd5b50565b600081519050620002a5816200027a565b92915050565b600060208284031215620002c457620002c362000241565b5b6000620002d48482850162000294565b91505092915050565b7f4e487b7100000000000000000000000000000000000000000000000000000000600052602260045260246000fd5b600060028204905060018216806200032557607f821691505b602082108114156200033c576200033b620002dd565b5b50919050565b60805160a05161408d6200037d6000396000818161218601526126070152600081816125cb0152818161273c0152612cdf015261408d6000f3fe60806040526004361061024a5760003560e01c8063711853ab11610139578063aa4fb63a116100b6578063dd62ed3e1161007a578063dd62ed3e14610935578063e22f9ea614610972578063e73e14bf1461099b578063fab1e747146109d8578063fbd95a3914610a03578063fc0c546a14610a2c5761028a565b8063aa4fb63a1461085a578063ac44ff3114610897578063ace1f5e1146108b3578063c271e297146108dc578063d3c9cc26146109195761028a565b80639358928b116100fd5780639358928b1461077357806395d89b411461079e5780639d76ea58146107c9578063a0712d68146107f4578063a9059cbb1461081d5761028a565b8063711853ab1461067c57806376809ce3146106a557806378dbb0bc146106d057806379ebb6c4146106f9578063842e2981146107365761028a565b80633eb0db3b116101c757806367d759fb1161018b57806367d759fb1461058357806368c33627146105ae5780636e9c931c146105d95780636f686e7f1461060257806370a082311461063f5761028a565b80633eb0db3b1461049b5780633f733e48146104d857806340e58ee51461051557806342966c681461053e5780635888a3e4146105675761028a565b80631d6b8b721161020e5780631d6b8b721461039057806323b872dd146103cd578063246d9fe81461040a578063278ecde1146104355780632c63f1461461045e5761028a565b806306661abd1461028f57806306fdde03146102ba578063095ea7b3146102e5578063141961bc1461032257806318160ddd146103655761028a565b3661028a577fbd0faddf87043dd749c1b9d4dca8a12589b8cb5e2106832111ce23f219b14367345a604051610280929190613042565b60405180910390a1005b600080fd5b34801561029b57600080fd5b506102a4610a57565b6040516102b1919061306b565b60405180910390f35b3480156102c657600080fd5b506102cf610a5d565b6040516102dc919061311f565b60405180910390f35b3480156102f157600080fd5b5061030c600480360381019061030791906131d0565b610aeb565b604051610319919061322b565b60405180910390f35b34801561032e57600080fd5b5061034960048036038101906103449190613246565b610bdd565b60405161035c97969594939291906132a1565b60405180910390f35b34801561037157600080fd5b5061037a610c6c565b604051610387919061306b565b60405180910390f35b34801561039c57600080fd5b506103b760048036038101906103b29190613246565b610c72565b6040516103c49190613310565b60405180910390f35b3480156103d957600080fd5b506103f460048036038101906103ef919061332b565b610cc0565b604051610401919061322b565b60405180910390f35b34801561041657600080fd5b5061041f610dde565b60405161042c919061306b565b60405180910390f35b34801561044157600080fd5b5061045c60048036038101906104579190613246565b610de8565b005b34801561046a57600080fd5b50610485600480360381019061048091906133aa565b610fe2565b604051610492919061306b565b60405180910390f35b3480156104a757600080fd5b506104c260048036038101906104bd91906133fd565b61122c565b6040516104cf919061306b565b60405180910390f35b3480156104e457600080fd5b506104ff60048036038101906104fa919061343d565b611265565b60405161050c919061306b565b60405180910390f35b34801561052157600080fd5b5061053c60048036038101906105379190613246565b61127c565b005b34801561054a57600080fd5b5061056560048036038101906105609190613246565b611509565b005b610581600480360381019061057c919061346a565b6115e1565b005b34801561058f57600080fd5b50610598611a28565b6040516105a5919061306b565b60405180910390f35b3480156105ba57600080fd5b506105c3611a2e565b6040516105d0919061306b565b60405180910390f35b3480156105e557600080fd5b5061060060048036038101906105fb91906134bd565b611a38565b005b34801561060e57600080fd5b506106296004803603810190610624919061343d565b611b39565b604051610636919061306b565b60405180910390f35b34801561064b57600080fd5b506106666004803603810190610661919061343d565b611b51565b604051610673919061306b565b60405180910390f35b34801561068857600080fd5b506106a3600480360381019061069e91906133fd565b611b69565b005b3480156106b157600080fd5b506106ba611db6565b6040516106c7919061352c565b60405180910390f35b3480156106dc57600080fd5b506106f760048036038101906106f29190613547565b611dc9565b005b34801561070557600080fd5b50610720600480360381019061071b91906131d0565b611f61565b60405161072d919061306b565b60405180910390f35b34801561074257600080fd5b5061075d6004803603810190610758919061343d565b611f92565b60405161076a9190613706565b60405180910390f35b34801561077f57600080fd5b506107886120f0565b604051610795919061306b565b60405180910390f35b3480156107aa57600080fd5b506107b36120f6565b6040516107c0919061311f565b60405180910390f35b3480156107d557600080fd5b506107de612184565b6040516107eb9190613310565b60405180910390f35b34801561080057600080fd5b5061081b60048036038101906108169190613246565b6121a8565b005b34801561082957600080fd5b50610844600480360381019061083f91906131d0565b612280565b604051610851919061322b565b60405180910390f35b34801561086657600080fd5b50610881600480360381019061087c9190613728565b61239d565b60405161088e919061306b565b60405180910390f35b6108b160048036038101906108ac919061346a565b6123c2565b005b3480156108bf57600080fd5b506108da60048036038101906108d59190613728565b612536565b005b3480156108e857600080fd5b5061090360048036038101906108fe919061343d565b612722565b604051610910919061306b565b60405180910390f35b610933600480360381019061092e9190613246565b61273a565b005b34801561094157600080fd5b5061095c60048036038101906109579190613768565b6127ca565b604051610969919061306b565b60405180910390f35b34801561097e57600080fd5b50610999600480360381019061099491906131d0565b6127ef565b005b3480156109a757600080fd5b506109c260048036038101906109bd919061343d565b6129ac565b6040516109cf919061306b565b60405180910390f35b3480156109e457600080fd5b506109ed612ba1565b6040516109fa919061306b565b60405180910390f35b348015610a0f57600080fd5b50610a2a6004803603810190610a25919061332b565b612ba7565b005b348015610a3857600080fd5b50610a41612cdd565b604051610a4e9190613807565b60405180910390f35b600d5481565b60098054610a6a90613851565b80601f0160208091040260200160405190810160405280929190818152602001828054610a9690613851565b8015610ae35780601f10610ab857610100808354040283529160200191610ae3565b820191906000526020600020905b815481529060010190602001808311610ac657829003601f168201915b505050505081565b600081600860003373ffffffffffffffffffffffffffffffffffffffff1673ffffffffffffffffffffffffffffffffffffffff16815260200190815260200160002060008573ffffffffffffffffffffffffffffffffffffffff1673ffffffffffffffffffffffffffffffffffffffff168152602001908152602001600020819055508273ffffffffffffffffffffffffffffffffffffffff163373ffffffffffffffffffffffffffffffffffffffff167f8c5be1e5ebec7d5bd14f71427d1e84f3dd0314c0f7b2291e5b200ac8c7c3b92584604051610bcb919061306b565b60405180910390a36001905092915050565b600e6020528060005260406000206000915090508060000160009054906101000a900473ffffffffffffffffffffffffffffffffffffffff16908060010154908060020154908060030154908060040160009054906101000a900463ffffffff16908060040160049054906101000a900463ffffffff16908060040160089054906101000a900460ff16905087565b60055481565b60028181548110610c8257600080fd5b90600052602060002090600202016000915090508060000160009054906101000a900473ffffffffffffffffffffffffffffffffffffffff16905081565b600081600760008673ffffffffffffffffffffffffffffffffffffffff1673ffffffffffffffffffffffffffffffffffffffff1681526020019081526020016000206000828254610d1191906138b2565b9250508190555081600760008573ffffffffffffffffffffffffffffffffffffffff1673ffffffffffffffffffffffffffffffffffffffff1681526020019081526020016000206000828254610d6791906138e6565b925050819055508273ffffffffffffffffffffffffffffffffffffffff168473ffffffffffffffffffffffffffffffffffffffff167fddf252ad1be2c89b69c2b068fc378daa952ba7f163c4a11628f55a4df523b3ef84604051610dcb919061306b565b60405180910390a3600190509392505050565b6000600454905090565b6000600e600083815260200190815260200160002090506000600f600084815260200190815260200160002060003373ffffffffffffffffffffffffffffffffffffffff1673ffffffffffffffffffffffffffffffffffffffff16815260200190815260200160002054905060003373ffffffffffffffffffffffffffffffffffffffff1682604051610e7a9061396d565b60006040518083038185875af1925050503d8060008114610eb7576040519150601f19603f3d011682016040523d82523d6000602084013e610ebc565b606091505b5050905080610f00576040517f08c379a0000000000000000000000000000000000000000000000000000000008152600401610ef7906139ce565b60405180910390fd5b6000600f600086815260200190815260200160002060003373ffffffffffffffffffffffffffffffffffffffff1673ffffffffffffffffffffffffffffffffffffffff1681526020019081526020016000208190555081836003016000828254610f6a91906138b2565b925050819055506001836001016000828254610f8691906138b2565b925050819055503373ffffffffffffffffffffffffffffffffffffffff16847f21e12a7cad0da5928167e1084ea4d5fdf8d9af66657a2543a9ac76a0ca08147784604051610fd4919061306b565b60405180910390a350505050565b6000428363ffffffff16101561102d576040517f08c379a000000000000000000000000000000000000000000000000000000000815260040161102490613a3a565b60405180910390fd5b8263ffffffff168263ffffffff16101561107c576040517f08c379a000000000000000000000000000000000000000000000000000000000815260040161107390613aa6565b60405180910390fd5b6276a7004261108b91906138e6565b8263ffffffff1611156110d3576040517f08c379a00000000000000000000000000000000000000000000000000000000081526004016110ca90613b12565b60405180910390fd5b6000600e6000600d5481526020019081526020016000209050338160000160006101000a81548173ffffffffffffffffffffffffffffffffffffffff021916908373ffffffffffffffffffffffffffffffffffffffff1602179055506000816001018190555084816002018190555060008160030181905550838160040160006101000a81548163ffffffff021916908363ffffffff160217905550828160040160046101000a81548163ffffffff021916908363ffffffff16021790555060008160040160086101000a81548160ff0219169083151502179055506001600d60008282546111c291906138e6565b925050819055503373ffffffffffffffffffffffffffffffffffffffff167f0601cd0d650b473037e838a2696d41e654433d065b3f56b28d1d3302e44a304f600d548787876040516112179493929190613b32565b60405180910390a2600d549150509392505050565b6000805482603c854261123f91906138b2565b6112499190613ba6565b6112539190613bd7565b61125d9190613ba6565b905092915050565b600080611271836129ac565b905080915050919050565b6000600e60008381526020019081526020016000206040518060e00160405290816000820160009054906101000a900473ffffffffffffffffffffffffffffffffffffffff1673ffffffffffffffffffffffffffffffffffffffff1673ffffffffffffffffffffffffffffffffffffffff1681526020016001820154815260200160028201548152602001600382015481526020016004820160009054906101000a900463ffffffff1663ffffffff1663ffffffff1681526020016004820160049054906101000a900463ffffffff1663ffffffff1663ffffffff1681526020016004820160089054906101000a900460ff1615151515815250509050806000015173ffffffffffffffffffffffffffffffffffffffff163373ffffffffffffffffffffffffffffffffffffffff16146113eb576040517f08c379a00000000000000000000000000000000000000000000000000000000081526004016113e290613c7d565b60405180910390fd5b806080015163ffffffff164210611437576040517f08c379a000000000000000000000000000000000000000000000000000000000815260040161142e90613ce9565b60405180910390fd5b600e6000838152602001908152602001600020600080820160006101000a81549073ffffffffffffffffffffffffffffffffffffffff02191690556001820160009055600282016000905560038201600090556004820160006101000a81549063ffffffff02191690556004820160046101000a81549063ffffffff02191690556004820160086101000a81549060ff021916905550507f8bf30e7ff26833413be5f69e1d373744864d600b664204b4a2f9844a8eedb9ed826040516114fd919061306b565b60405180910390a15050565b80600760003373ffffffffffffffffffffffffffffffffffffffff1673ffffffffffffffffffffffffffffffffffffffff168152602001908152602001600020600082825461155891906138b2565b92505081905550806006600082825461157191906138b2565b92505081905550600073ffffffffffffffffffffffffffffffffffffffff163373ffffffffffffffffffffffffffffffffffffffff167fddf252ad1be2c89b69c2b068fc378daa952ba7f163c4a11628f55a4df523b3ef836040516115d6919061306b565b60405180910390a350565b6000600e600085815260200190815260200160002090506000831161163b576040517f08c379a000000000000000000000000000000000000000000000000000000000815260040161163290613d55565b60405180910390fd5b6000600f600086815260200190815260200160002060003373ffffffffffffffffffffffffffffffffffffffff1673ffffffffffffffffffffffffffffffffffffffff1681526020019081526020016000205414156117175760018160010160008282546116a991906138e6565b92505081905550601060008373ffffffffffffffffffffffffffffffffffffffff1673ffffffffffffffffffffffffffffffffffffffff1681526020019081526020016000208490806001815401808255809150506001900390600052602060002001600090919091909150555b60003073ffffffffffffffffffffffffffffffffffffffff168460405161173d9061396d565b60006040518083038185875af1925050503d806000811461177a576040519150601f19603f3d011682016040523d82523d6000602084013e61177f565b606091505b50509050806117c3576040517f08c379a00000000000000000000000000000000000000000000000000000000081526004016117ba906139ce565b60405180910390fd5b838260030160008282546117d791906138e6565b9250508190555083600f600087815260200190815260200160002060003373ffffffffffffffffffffffffffffffffffffffff1673ffffffffffffffffffffffffffffffffffffffff168152602001908152602001600020600082825461183e91906138e6565b9250508190555081600e60008781526020019081526020016000206000820160009054906101000a900473ffffffffffffffffffffffffffffffffffffffff168160000160006101000a81548173ffffffffffffffffffffffffffffffffffffffff021916908373ffffffffffffffffffffffffffffffffffffffff1602179055506001820154816001015560028201548160020155600382015481600301556004820160009054906101000a900463ffffffff168160040160006101000a81548163ffffffff021916908363ffffffff1602179055506004820160049054906101000a900463ffffffff168160040160046101000a81548163ffffffff021916908363ffffffff1602179055506004820160089054906101000a900460ff168160040160086101000a81548160ff02191690831515021790555090505083601160003373ffffffffffffffffffffffffffffffffffffffff1673ffffffffffffffffffffffffffffffffffffffff16815260200190815260200160002060008282546119cb91906138e6565b925050819055503373ffffffffffffffffffffffffffffffffffffffff16857f06bdb975df800a73232998e71ed585d536222f1dfeaa622d7f62a23ada686c8286604051611a19919061306b565b60405180910390a35050505050565b60045481565b6000600154905090565b600760008373ffffffffffffffffffffffffffffffffffffffff1673ffffffffffffffffffffffffffffffffffffffff16815260200190815260200160002054831115611aba576040517f08c379a0000000000000000000000000000000000000000000000000000000008152600401611ab190613dc1565b60405180910390fd5b611ac5838383612d01565b82600760008473ffffffffffffffffffffffffffffffffffffffff1673ffffffffffffffffffffffffffffffffffffffff1681526020019081526020016000206000828254611b1491906138b2565b925050819055508260066000828254611b2d91906138b2565b92505081905550505050565b60126020528060005260406000206000915090505481565b60076020528060005260406000206000915090505481565b6000600e600084815260200190815260200160002090508060040160049054906101000a900463ffffffff1663ffffffff16421115611bdd576040517f08c379a0000000000000000000000000000000000000000000000000000000008152600401611bd490613e2d565b60405180910390fd5b60003373ffffffffffffffffffffffffffffffffffffffff1683604051611c039061396d565b60006040518083038185875af1925050503d8060008114611c40576040519150601f19603f3d011682016040523d82523d6000602084013e611c45565b606091505b5050905080611c89576040517f08c379a0000000000000000000000000000000000000000000000000000000008152600401611c80906139ce565b60405180910390fd5b82826003016000828254611c9d91906138b2565b9250508190555082600f600086815260200190815260200160002060003373ffffffffffffffffffffffffffffffffffffffff1673ffffffffffffffffffffffffffffffffffffffff1681526020019081526020016000206000828254611d0491906138b2565b9250508190555082601160003373ffffffffffffffffffffffffffffffffffffffff1673ffffffffffffffffffffffffffffffffffffffff1681526020019081526020016000206000828254611d5a91906138b2565b925050819055503373ffffffffffffffffffffffffffffffffffffffff16847f2eeeab891b26a214d1b25749f88a406bdea852bd8c9bfda977e0ef8114c180ba85604051611da8919061306b565b60405180910390a350505050565b600b60009054906101000a900460ff1681565b6005548310611e0d576040517f08c379a0000000000000000000000000000000000000000000000000000000008152600401611e0490613e99565b60405180910390fd5b6000600360008473ffffffffffffffffffffffffffffffffffffffff1673ffffffffffffffffffffffffffffffffffffffff168152602001908152602001600020549050600060028281548110611e6757611e66613eb9565b5b90600052602060002090600202016001018381548110611e8a57611e89613eb9565b5b9060005260206000209060050201905060008160030160006101000a81548160ff02191690831515021790555084600760008673ffffffffffffffffffffffffffffffffffffffff1673ffffffffffffffffffffffffffffffffffffffff1681526020019081526020016000206000828254611f0691906138e6565b925050819055508560056000828254611f1f91906138b2565b925050819055508460066000828254611f3891906138e6565b925050819055508660046000828254611f5191906138b2565b9250508190555050505050505050565b60106020528160005260406000208181548110611f7d57600080fd5b90600052602060002001600091509150505481565b60606000600360008473ffffffffffffffffffffffffffffffffffffffff1673ffffffffffffffffffffffffffffffffffffffff168152602001908152602001600020549050600060028281548110611fee57611fed613eb9565b5b9060005260206000209060020201600101805480602002602001604051908101604052809291908181526020016000905b828210156120e057838290600052602060002090600502016040518060a00160405290816000820160009054906101000a900473ffffffffffffffffffffffffffffffffffffffff1673ffffffffffffffffffffffffffffffffffffffff1673ffffffffffffffffffffffffffffffffffffffff16815260200160018201548152602001600282015481526020016003820160009054906101000a900460ff161515151581526020016004820154815250508152602001906001019061201f565b5050505090508092505050919050565b60065481565b600a805461210390613851565b80601f016020809104026020016040519081016040528092919081815260200182805461212f90613851565b801561217c5780601f106121515761010080835404028352916020019161217c565b820191906000526020600020905b81548152906001019060200180831161215f57829003601f168201915b505050505081565b7f000000000000000000000000000000000000000000000000000000000000000081565b80600760003073ffffffffffffffffffffffffffffffffffffffff1673ffffffffffffffffffffffffffffffffffffffff16815260200190815260200160002060008282546121f791906138e6565b92505081905550806005600082825461221091906138e6565b925050819055503073ffffffffffffffffffffffffffffffffffffffff16600073ffffffffffffffffffffffffffffffffffffffff167fddf252ad1be2c89b69c2b068fc378daa952ba7f163c4a11628f55a4df523b3ef83604051612275919061306b565b60405180910390a350565b600081600760003373ffffffffffffffffffffffffffffffffffffffff1673ffffffffffffffffffffffffffffffffffffffff16815260200190815260200160002060008282546122d191906138b2565b9250508190555081600760008573ffffffffffffffffffffffffffffffffffffffff1673ffffffffffffffffffffffffffffffffffffffff168152602001908152602001600020600082825461232791906138e6565b925050819055508273ffffffffffffffffffffffffffffffffffffffff163373ffffffffffffffffffffffffffffffffffffffff167fddf252ad1be2c89b69c2b068fc378daa952ba7f163c4a11628f55a4df523b3ef8460405161238b919061306b565b60405180910390a36001905092915050565b600f602052816000526040600020602052806000526040600020600091509150505481565b6000600e6000858152602001908152602001600020905060008273ffffffffffffffffffffffffffffffffffffffff16846040516123ff9061396d565b60006040518083038185875af1925050503d806000811461243c576040519150601f19603f3d011682016040523d82523d6000602084013e612441565b606091505b5050905080612485576040517f08c379a000000000000000000000000000000000000000000000000000000000815260040161247c906139ce565b60405180910390fd5b60018260040160086101000a81548160ff02191690831515021790555083601260008573ffffffffffffffffffffffffffffffffffffffff1673ffffffffffffffffffffffffffffffffffffffff16815260200190815260200160002060008282546124f191906138e6565b925050819055507f7bb2b3c10797baccb6f8c4791f1edd6ca2f0d028ee0eda64b01a9a57e3a653f785604051612527919061306b565b60405180910390a15050505050565b6000600f600084815260200190815260200160002060008373ffffffffffffffffffffffffffffffffffffffff1673ffffffffffffffffffffffffffffffffffffffff16815260200190815260200160002054116125c9576040517f08c379a00000000000000000000000000000000000000000000000000000000081526004016125c090613f34565b60405180910390fd5b7f000000000000000000000000000000000000000000000000000000000000000073ffffffffffffffffffffffffffffffffffffffff1663fbd95a397f000000000000000000000000000000000000000000000000000000000000000083600f600087815260200190815260200160002060008673ffffffffffffffffffffffffffffffffffffffff1673ffffffffffffffffffffffffffffffffffffffff168152602001908152602001600020546040518463ffffffff1660e01b815260040161269693929190613f54565b600060405180830381600087803b1580156126b057600080fd5b505af11580156126c4573d6000803e3d6000fd5b505050506000600f600084815260200190815260200160002060008373ffffffffffffffffffffffffffffffffffffffff1673ffffffffffffffffffffffffffffffffffffffff168152602001908152602001600020819055505050565b60116020528060005260406000206000915090505481565b7f000000000000000000000000000000000000000000000000000000000000000073ffffffffffffffffffffffffffffffffffffffff1663e22f9ea630836040518363ffffffff1660e01b8152600401612795929190613f8b565b600060405180830381600087803b1580156127af57600080fd5b505af11580156127c3573d6000803e3d6000fd5b5050505050565b6008602052816000526040600020602052806000526040600020600091509150505481565b7f909c57d5c6ac08245cf2a6de3900e2b868513fa59099b92b27d8db823d92df9c600760003073ffffffffffffffffffffffffffffffffffffffff1673ffffffffffffffffffffffffffffffffffffffff1681526020019081526020016000205460405161285d919061306b565b60405180910390a180600760003073ffffffffffffffffffffffffffffffffffffffff1673ffffffffffffffffffffffffffffffffffffffff16815260200190815260200160002060008282546128b491906138b2565b9250508190555080600760008473ffffffffffffffffffffffffffffffffffffffff1673ffffffffffffffffffffffffffffffffffffffff168152602001908152602001600020600082825461290a91906138e6565b92505081905550806005600082825461292391906138b2565b92505081905550806006600082825461293c91906138e6565b925050819055508173ffffffffffffffffffffffffffffffffffffffff163073ffffffffffffffffffffffffffffffffffffffff167fddf252ad1be2c89b69c2b068fc378daa952ba7f163c4a11628f55a4df523b3ef836040516129a0919061306b565b60405180910390a35050565b60008060006040518060400160405280600081526020016002600360008873ffffffffffffffffffffffffffffffffffffffff1673ffffffffffffffffffffffffffffffffffffffff1681526020019081526020016000205481548110612a1657612a15613eb9565b5b9060005260206000209060020201600101805480602002602001604051908101604052809291908181526020016000905b82821015612b0857838290600052602060002090600502016040518060a00160405290816000820160009054906101000a900473ffffffffffffffffffffffffffffffffffffffff1673ffffffffffffffffffffffffffffffffffffffff1673ffffffffffffffffffffffffffffffffffffffff16815260200160018201548152602001600282015481526020016003820160009054906101000a900460ff1615151515815260200160048201548152505081526020019060010190612a47565b50505050815250905060005b816020015151811015612b88576000612b7183602001518381518110612b3d57612b3c613eb9565b5b60200260200101516040015184602001518481518110612b6057612b5f613eb9565b5b60200260200101516020015161122c565b905050600181612b8191906138e6565b9050612b14565b5081816000018181525050806000015192505050919050565b600c5481565b8060055411612beb576040517f08c379a0000000000000000000000000000000000000000000000000000000008152600401612be290613e99565b60405180910390fd5b8060056000828254612bfd91906138b2565b925050819055508060066000828254612c1691906138e6565b9250508190555080600760008473ffffffffffffffffffffffffffffffffffffffff1673ffffffffffffffffffffffffffffffffffffffff1681526020019081526020016000206000828254612c6c91906138e6565b925050819055508173ffffffffffffffffffffffffffffffffffffffff168373ffffffffffffffffffffffffffffffffffffffff167fddf252ad1be2c89b69c2b068fc378daa952ba7f163c4a11628f55a4df523b3ef83604051612cd0919061306b565b60405180910390a3505050565b7f000000000000000000000000000000000000000000000000000000000000000081565b60008311612d44576040517f08c379a0000000000000000000000000000000000000000000000000000000008152600401612d3b90614000565b60405180910390fd5b6000600360008473ffffffffffffffffffffffffffffffffffffffff1673ffffffffffffffffffffffffffffffffffffffff16815260200190815260200160002054905060004290506000821415612da257612d9f84612f42565b91505b60028281548110612db657612db5613eb9565b5b90600052602060002090600202016001016040518060a001604052808673ffffffffffffffffffffffffffffffffffffffff16815260200187815260200183815260200160011515815260200185815250908060018154018082558091505060019003906000526020600020906005020160009091909190915060008201518160000160006101000a81548173ffffffffffffffffffffffffffffffffffffffff021916908373ffffffffffffffffffffffffffffffffffffffff160217905550602082015181600101556040820151816002015560608201518160030160006101000a81548160ff0219169083151502179055506080820151816004015550508460046000828254612ec991906138e6565b925050819055506001806000828254612ee291906138e6565b925050819055508373ffffffffffffffffffffffffffffffffffffffff167fb4caaf29adda3eefee3ad552a8e85058589bf834c7466cae4ee58787f70589ed868484604051612f3393929190614020565b60405180910390a25050505050565b600060026001816001815401808255809150500390600052602060002090505060006001600280549050612f7691906138b2565b90508260028281548110612f8d57612f8c613eb9565b5b906000526020600020906002020160000160006101000a81548173ffffffffffffffffffffffffffffffffffffffff021916908373ffffffffffffffffffffffffffffffffffffffff16021790555080600360008573ffffffffffffffffffffffffffffffffffffffff1673ffffffffffffffffffffffffffffffffffffffff1681526020019081526020016000208190555080915050919050565b6000819050919050565b61303c81613029565b82525050565b60006040820190506130576000830185613033565b6130646020830184613033565b9392505050565b60006020820190506130806000830184613033565b92915050565b600081519050919050565b600082825260208201905092915050565b60005b838110156130c05780820151818401526020810190506130a5565b838111156130cf576000848401525b50505050565b6000601f19601f8301169050919050565b60006130f182613086565b6130fb8185613091565b935061310b8185602086016130a2565b613114816130d5565b840191505092915050565b6000602082019050818103600083015261313981846130e6565b905092915050565b600080fd5b600073ffffffffffffffffffffffffffffffffffffffff82169050919050565b600061317182613146565b9050919050565b61318181613166565b811461318c57600080fd5b50565b60008135905061319e81613178565b92915050565b6131ad81613029565b81146131b857600080fd5b50565b6000813590506131ca816131a4565b92915050565b600080604083850312156131e7576131e6613141565b5b60006131f58582860161318f565b9250506020613206858286016131bb565b9150509250929050565b60008115159050919050565b61322581613210565b82525050565b6000602082019050613240600083018461321c565b92915050565b60006020828403121561325c5761325b613141565b5b600061326a848285016131bb565b91505092915050565b61327c81613166565b82525050565b600063ffffffff82169050919050565b61329b81613282565b82525050565b600060e0820190506132b6600083018a613273565b6132c36020830189613033565b6132d06040830188613033565b6132dd6060830187613033565b6132ea6080830186613292565b6132f760a0830185613292565b61330460c083018461321c565b98975050505050505050565b60006020820190506133256000830184613273565b92915050565b60008060006060848603121561334457613343613141565b5b60006133528682870161318f565b93505060206133638682870161318f565b9250506040613374868287016131bb565b9150509250925092565b61338781613282565b811461339257600080fd5b50565b6000813590506133a48161337e565b92915050565b6000806000606084860312156133c3576133c2613141565b5b60006133d1868287016131bb565b93505060206133e286828701613395565b92505060406133f386828701613395565b9150509250925092565b6000806040838503121561341457613413613141565b5b6000613422858286016131bb565b9250506020613433858286016131bb565b9150509250929050565b60006020828403121561345357613452613141565b5b60006134618482850161318f565b91505092915050565b60008060006060848603121561348357613482613141565b5b6000613491868287016131bb565b93505060206134a2868287016131bb565b92505060406134b38682870161318f565b9150509250925092565b6000806000606084860312156134d6576134d5613141565b5b60006134e4868287016131bb565b93505060206134f58682870161318f565b9250506040613506868287016131bb565b9150509250925092565b600060ff82169050919050565b61352681613510565b82525050565b6000602082019050613541600083018461351d565b92915050565b600080600080600060a0868803121561356357613562613141565b5b6000613571888289016131bb565b9550506020613582888289016131bb565b9450506040613593888289016131bb565b93505060606135a48882890161318f565b92505060806135b5888289016131bb565b9150509295509295909350565b600081519050919050565b600082825260208201905092915050565b6000819050602082019050919050565b6135f781613166565b82525050565b61360681613029565b82525050565b61361581613210565b82525050565b60a08201600082015161363160008501826135ee565b50602082015161364460208501826135fd565b50604082015161365760408501826135fd565b50606082015161366a606085018261360c565b50608082015161367d60808501826135fd565b50505050565b600061368f838361361b565b60a08301905092915050565b6000602082019050919050565b60006136b3826135c2565b6136bd81856135cd565b93506136c8836135de565b8060005b838110156136f95781516136e08882613683565b97506136eb8361369b565b9250506001810190506136cc565b5085935050505092915050565b6000602082019050818103600083015261372081846136a8565b905092915050565b6000806040838503121561373f5761373e613141565b5b600061374d858286016131bb565b925050602061375e8582860161318f565b9150509250929050565b6000806040838503121561377f5761377e613141565b5b600061378d8582860161318f565b925050602061379e8582860161318f565b9150509250929050565b6000819050919050565b60006137cd6137c86137c384613146565b6137a8565b613146565b9050919050565b60006137df826137b2565b9050919050565b60006137f1826137d4565b9050919050565b613801816137e6565b82525050565b600060208201905061381c60008301846137f8565b92915050565b7f4e487b7100000000000000000000000000000000000000000000000000000000600052602260045260246000fd5b6000600282049050600182168061386957607f821691505b6020821081141561387d5761387c613822565b5b50919050565b7f4e487b7100000000000000000000000000000000000000000000000000000000600052601160045260246000fd5b60006138bd82613029565b91506138c883613029565b9250828210156138db576138da613883565b5b828203905092915050565b60006138f182613029565b91506138fc83613029565b9250827fffffffffffffffffffffffffffffffffffffffffffffffffffffffffffffffff0382111561393157613930613883565b5b828201905092915050565b600081905092915050565b50565b600061395760008361393c565b915061396282613947565b600082019050919050565b60006139788261394a565b9150819050919050565b7f43616c6c206661696c6564000000000000000000000000000000000000000000600082015250565b60006139b8600b83613091565b91506139c382613982565b602082019050919050565b600060208201905081810360008301526139e7816139ab565b9050919050565b7f5374617274206174203c206e6f77000000000000000000000000000000000000600082015250565b6000613a24600e83613091565b9150613a2f826139ee565b602082019050919050565b60006020820190508181036000830152613a5381613a17565b9050919050565b7f656e64206174203c207374617274206174000000000000000000000000000000600082015250565b6000613a90601183613091565b9150613a9b82613a5a565b602082019050919050565b60006020820190508181036000830152613abf81613a83565b9050919050565b7f656e64206174203e206d6178206475726174696f6e0000000000000000000000600082015250565b6000613afc601583613091565b9150613b0782613ac6565b602082019050919050565b60006020820190508181036000830152613b2b81613aef565b9050919050565b6000608082019050613b476000830187613033565b613b546020830186613033565b613b616040830185613292565b613b6e6060830184613292565b95945050505050565b7f4e487b7100000000000000000000000000000000000000000000000000000000600052601260045260246000fd5b6000613bb182613029565b9150613bbc83613029565b925082613bcc57613bcb613b77565b5b828204905092915050565b6000613be282613029565b9150613bed83613029565b9250817fffffffffffffffffffffffffffffffffffffffffffffffffffffffffffffffff0483118215151615613c2657613c25613883565b5b828202905092915050565b7f4e6f742063726561746f72000000000000000000000000000000000000000000600082015250565b6000613c67600b83613091565b9150613c7282613c31565b602082019050919050565b60006020820190508181036000830152613c9681613c5a565b9050919050565b7f7374617274656400000000000000000000000000000000000000000000000000600082015250565b6000613cd3600783613091565b9150613cde82613c9d565b602082019050919050565b60006020820190508181036000830152613d0281613cc6565b9050919050565b7f416d6f756e742073686f756c6420626520626967676572207468616e20300000600082015250565b6000613d3f601e83613091565b9150613d4a82613d09565b602082019050919050565b60006020820190508181036000830152613d6e81613d32565b9050919050565b7f4e6f7420656e6f75676820746f6b656e73000000000000000000000000000000600082015250565b6000613dab601183613091565b9150613db682613d75565b602082019050919050565b60006020820190508181036000830152613dda81613d9e565b9050919050565b7f456e646564000000000000000000000000000000000000000000000000000000600082015250565b6000613e17600583613091565b9150613e2282613de1565b602082019050919050565b60006020820190508181036000830152613e4681613e0a565b9050919050565b7f4e6f7420656e6f75676820737570706c79000000000000000000000000000000600082015250565b6000613e83601183613091565b9150613e8e82613e4d565b602082019050919050565b60006020820190508181036000830152613eb281613e76565b9050919050565b7f4e487b7100000000000000000000000000000000000000000000000000000000600052603260045260246000fd5b7f4e6f7468696e6720706c65646765640000000000000000000000000000000000600082015250565b6000613f1e600f83613091565b9150613f2982613ee8565b602082019050919050565b60006020820190508181036000830152613f4d81613f11565b9050919050565b6000606082019050613f696000830186613273565b613f766020830185613273565b613f836040830184613033565b949350505050565b6000604082019050613fa06000830185613273565b613fad6020830184613033565b9392505050565b7f43616e6e6f74207374616b65206e6f7468696e67000000000000000000000000600082015250565b6000613fea601483613091565b9150613ff582613fb4565b602082019050919050565b6000602082019050818103600083015261401981613fdd565b9050919050565b60006060820190506140356000830186613033565b6140426020830185613033565b61404f6040830184613033565b94935050505056fea264697066735822122047af06cd7858a12d6688dd6f7bae63c5b59933806d88bd1e031c7381eacfb5ce64736f6c634300080a0033",
  "linkReferences": {},
  "deployedLinkReferences": {}
}