{
  "_format": "hh-sol-artifact-1",
  "contractName": "Crowdfund",
  "sourceName": "contracts/Crowdfund.sol",
  "abi": [
    {
      "inputs": [
        {
          "internalType": "address",
          "name": "_token",
          "type": "address"
        }
      ],
      "stateMutability": "nonpayable",
      "type": "constructor"
    },
    {
      "anonymous": false,
      "inputs": [
        {
          "indexed": true,
          "internalType": "address",
          "name": "owner",
          "type": "address"
        },
        {
          "indexed": true,
          "internalType": "address",
          "name": "sender",
          "type": "address"
        },
        {
          "indexed": false,
          "internalType": "uint256",
          "name": "amount",
          "type": "uint256"
        }
      ],
      "name": "Approval",
      "type": "event"
    },
    {
      "anonymous": false,
      "inputs": [
        {
          "indexed": false,
          "internalType": "uint256",
          "name": "id",
          "type": "uint256"
        }
      ],
      "name": "Cancel",
      "type": "event"
    },
    {
      "anonymous": false,
      "inputs": [
        {
          "indexed": false,
          "internalType": "uint256",
          "name": "id",
          "type": "uint256"
        }
      ],
      "name": "Claim",
      "type": "event"
    },
    {
      "anonymous": false,
      "inputs": [
        {
          "indexed": false,
          "internalType": "uint256",
          "name": "id",
          "type": "uint256"
        },
        {
          "indexed": true,
          "internalType": "address",
          "name": "creator",
          "type": "address"
        },
        {
          "indexed": false,
          "internalType": "uint256",
          "name": "goal",
          "type": "uint256"
        },
        {
          "indexed": false,
          "internalType": "uint32",
          "name": "startAt",
          "type": "uint32"
        },
        {
          "indexed": false,
          "internalType": "uint32",
          "name": "endAt",
          "type": "uint32"
        }
      ],
      "name": "Launch",
      "type": "event"
    },
    {
      "anonymous": false,
      "inputs": [
        {
          "indexed": false,
          "internalType": "uint256",
          "name": "amount",
          "type": "uint256"
        },
        {
          "indexed": false,
          "internalType": "uint256",
          "name": "gas",
          "type": "uint256"
        }
      ],
      "name": "Log",
      "type": "event"
    },
    {
      "anonymous": false,
      "inputs": [
        {
          "indexed": false,
          "internalType": "uint256",
          "name": "amount",
          "type": "uint256"
        }
      ],
      "name": "Log",
      "type": "event"
    },
    {
      "anonymous": false,
      "inputs": [
        {
          "indexed": true,
          "internalType": "uint256",
          "name": "id",
          "type": "uint256"
        },
        {
          "indexed": true,
          "internalType": "address",
          "name": "caller",
          "type": "address"
        },
        {
          "indexed": false,
          "internalType": "uint256",
          "name": "amount",
          "type": "uint256"
        }
      ],
      "name": "Pledge",
      "type": "event"
    },
    {
      "anonymous": false,
      "inputs": [
        {
          "indexed": true,
          "internalType": "uint256",
          "name": "id",
          "type": "uint256"
        },
        {
          "indexed": true,
          "internalType": "address",
          "name": "caller",
          "type": "address"
        },
        {
          "indexed": false,
          "internalType": "uint256",
          "name": "amount",
          "type": "uint256"
        }
      ],
      "name": "Refund",
      "type": "event"
    },
    {
      "anonymous": false,
      "inputs": [
        {
          "indexed": true,
          "internalType": "address",
          "name": "user",
          "type": "address"
        },
        {
          "indexed": false,
          "internalType": "uint256",
          "name": "amount",
          "type": "uint256"
        },
        {
          "indexed": false,
          "internalType": "uint256",
          "name": "index",
          "type": "uint256"
        },
        {
          "indexed": false,
          "internalType": "uint256",
          "name": "timestamp",
          "type": "uint256"
        }
      ],
      "name": "Staked",
      "type": "event"
    },
    {
      "anonymous": false,
      "inputs": [
        {
          "indexed": true,
          "internalType": "address",
          "name": "from",
          "type": "address"
        },
        {
          "indexed": true,
          "internalType": "address",
          "name": "to",
          "type": "address"
        },
        {
          "indexed": false,
          "internalType": "uint256",
          "name": "amount",
          "type": "uint256"
        }
      ],
      "name": "Transfer",
      "type": "event"
    },
    {
      "anonymous": false,
      "inputs": [
        {
          "indexed": true,
          "internalType": "uint256",
          "name": "id",
          "type": "uint256"
        },
        {
          "indexed": true,
          "internalType": "address",
          "name": "caller",
          "type": "address"
        },
        {
          "indexed": false,
          "internalType": "uint256",
          "name": "amount",
          "type": "uint256"
        }
      ],
      "name": "Unpledge",
      "type": "event"
    },
    {
      "inputs": [
        {
          "internalType": "address",
          "name": "",
          "type": "address"
        },
        {
          "internalType": "address",
          "name": "",
          "type": "address"
        }
      ],
      "name": "allowance",
      "outputs": [
        {
          "internalType": "uint256",
          "name": "",
          "type": "uint256"
        }
      ],
      "stateMutability": "view",
      "type": "function"
    },
    {
      "inputs": [],
      "name": "amountStaked",
      "outputs": [
        {
          "internalType": "uint256",
          "name": "",
          "type": "uint256"
        }
      ],
      "stateMutability": "view",
      "type": "function"
    },
    {
      "inputs": [
        {
          "internalType": "address",
          "name": "sender",
          "type": "address"
        },
        {
          "internalType": "uint256",
          "name": "amount",
          "type": "uint256"
        }
      ],
      "name": "approve",
      "outputs": [
        {
          "internalType": "bool",
          "name": "",
          "type": "bool"
        }
      ],
      "stateMutability": "nonpayable",
      "type": "function"
    },
    {
      "inputs": [
        {
          "internalType": "address",
          "name": "",
          "type": "address"
        }
      ],
      "name": "balanceOf",
      "outputs": [
        {
          "internalType": "uint256",
          "name": "",
          "type": "uint256"
        }
      ],
      "stateMutability": "view",
      "type": "function"
    },
    {
      "inputs": [
        {
          "internalType": "uint256",
          "name": "amount",
          "type": "uint256"
        }
      ],
      "name": "burn",
      "outputs": [],
      "stateMutability": "nonpayable",
      "type": "function"
    },
    {
      "inputs": [
        {
          "internalType": "uint256",
          "name": "since",
          "type": "uint256"
        },
        {
          "internalType": "uint256",
          "name": "amount",
          "type": "uint256"
        }
      ],
      "name": "calculateStakeReward",
      "outputs": [
        {
          "internalType": "uint256",
          "name": "",
          "type": "uint256"
        }
      ],
      "stateMutability": "view",
      "type": "function"
    },
    {
      "inputs": [
        {
          "internalType": "uint256",
          "name": "",
          "type": "uint256"
        }
      ],
      "name": "campaigns",
      "outputs": [
        {
          "internalType": "address",
          "name": "creator",
          "type": "address"
        },
        {
          "internalType": "uint256",
          "name": "numberOfInvestors",
          "type": "uint256"
        },
        {
          "internalType": "uint256",
          "name": "goal",
          "type": "uint256"
        },
        {
          "internalType": "uint256",
          "name": "pledged",
          "type": "uint256"
        },
        {
          "internalType": "uint32",
          "name": "startAt",
          "type": "uint32"
        },
        {
          "internalType": "uint32",
          "name": "endAt",
          "type": "uint32"
        },
        {
          "internalType": "bool",
          "name": "claimed",
          "type": "bool"
        }
      ],
      "stateMutability": "view",
      "type": "function"
    },
    {
      "inputs": [
        {
          "internalType": "uint256",
          "name": "_id",
          "type": "uint256"
        }
      ],
      "name": "cancel",
      "outputs": [],
      "stateMutability": "nonpayable",
      "type": "function"
    },
    {
      "inputs": [],
      "name": "circulatingSupply",
      "outputs": [
        {
          "internalType": "uint256",
          "name": "",
          "type": "uint256"
        }
      ],
      "stateMutability": "view",
      "type": "function"
    },
    {
      "inputs": [
        {
          "internalType": "uint256",
          "name": "_id",
          "type": "uint256"
        },
        {
          "internalType": "uint256",
          "name": "amount",
          "type": "uint256"
        },
        {
          "internalType": "address",
          "name": "adr",
          "type": "address"
        }
      ],
      "name": "claim",
      "outputs": [],
      "stateMutability": "payable",
      "type": "function"
    },
    {
      "inputs": [
        {
          "internalType": "uint256",
          "name": "_id",
          "type": "uint256"
        },
        {
          "internalType": "address",
          "name": "adr",
          "type": "address"
        }
      ],
      "name": "claimShares",
      "outputs": [],
      "stateMutability": "nonpayable",
      "type": "function"
    },
    {
      "inputs": [],
      "name": "count",
      "outputs": [
        {
          "internalType": "uint256",
          "name": "",
          "type": "uint256"
        }
      ],
      "stateMutability": "view",
      "type": "function"
    },
    {
      "inputs": [],
      "name": "decimal",
      "outputs": [
        {
          "internalType": "uint8",
          "name": "",
          "type": "uint8"
        }
      ],
      "stateMutability": "view",
      "type": "function"
    },
    {
      "inputs": [
        {
          "internalType": "address",
          "name": "adr",
          "type": "address"
        }
      ],
      "name": "getSummary",
      "outputs": [
        {
          "internalType": "uint256",
          "name": "",
          "type": "uint256"
        }
      ],
      "stateMutability": "view",
      "type": "function"
    },
    {
      "inputs": [
        {
          "internalType": "uint256",
          "name": "amount",
          "type": "uint256"
        }
      ],
      "name": "getTokens",
      "outputs": [],
      "stateMutability": "payable",
      "type": "function"
    },
    {
      "inputs": [],
      "name": "getTotalAmountStaked",
      "outputs": [
        {
          "internalType": "uint256",
          "name": "",
          "type": "uint256"
        }
      ],
      "stateMutability": "view",
      "type": "function"
    },
    {
      "inputs": [
        {
          "internalType": "address",
          "name": "_staker",
          "type": "address"
        }
      ],
      "name": "hasStake",
      "outputs": [
        {
          "internalType": "uint256",
          "name": "",
          "type": "uint256"
        }
      ],
      "stateMutability": "view",
      "type": "function"
    },
    {
      "inputs": [
        {
          "internalType": "uint256",
          "name": "_goal",
          "type": "uint256"
        },
        {
          "internalType": "uint32",
          "name": "_startAt",
          "type": "uint32"
        },
        {
          "internalType": "uint32",
          "name": "_endAt",
          "type": "uint32"
        }
      ],
      "name": "launch",
      "outputs": [
        {
          "internalType": "uint256",
          "name": "",
          "type": "uint256"
        }
      ],
      "stateMutability": "nonpayable",
      "type": "function"
    },
    {
      "inputs": [
        {
          "internalType": "uint256",
          "name": "amount",
          "type": "uint256"
        }
      ],
      "name": "mint",
      "outputs": [],
      "stateMutability": "nonpayable",
      "type": "function"
    },
    {
      "inputs": [],
      "name": "name",
      "outputs": [
        {
          "internalType": "string",
          "name": "",
          "type": "string"
        }
      ],
      "stateMutability": "view",
      "type": "function"
    },
    {
      "inputs": [
        {
          "internalType": "uint256",
          "name": "_id",
          "type": "uint256"
        },
        {
          "internalType": "uint256",
          "name": "_amount",
          "type": "uint256"
        }
      ],
      "name": "pledge",
      "outputs": [],
      "stateMutability": "payable",
      "type": "function"
    },
    {
      "inputs": [
        {
          "internalType": "uint256",
          "name": "",
          "type": "uint256"
        },
        {
          "internalType": "address",
          "name": "",
          "type": "address"
        }
      ],
      "name": "pledgedAmount",
      "outputs": [
        {
          "internalType": "uint256",
          "name": "",
          "type": "uint256"
        }
      ],
      "stateMutability": "view",
      "type": "function"
    },
    {
      "inputs": [
        {
          "internalType": "uint256",
          "name": "_id",
          "type": "uint256"
        }
      ],
      "name": "refund",
      "outputs": [],
      "stateMutability": "nonpayable",
      "type": "function"
    },
    {
      "inputs": [
        {
          "internalType": "address",
          "name": "sender",
          "type": "address"
        },
        {
          "internalType": "address",
          "name": "recipient",
          "type": "address"
        },
        {
          "internalType": "uint256",
          "name": "amount",
          "type": "uint256"
        }
      ],
      "name": "sendToAddress",
      "outputs": [],
      "stateMutability": "nonpayable",
      "type": "function"
    },
    {
      "inputs": [
        {
          "internalType": "address",
          "name": "recipient",
          "type": "address"
        },
        {
          "internalType": "uint256",
          "name": "amount",
          "type": "uint256"
        }
      ],
      "name": "sendToContract",
      "outputs": [],
      "stateMutability": "nonpayable",
      "type": "function"
    },
    {
      "inputs": [
        {
          "internalType": "uint256",
          "name": "_amount",
          "type": "uint256"
        },
        {
          "internalType": "address",
          "name": "adr",
          "type": "address"
        }
      ],
      "name": "stake",
      "outputs": [],
      "stateMutability": "nonpayable",
      "type": "function"
    },
    {
      "inputs": [
        {
          "internalType": "uint256",
          "name": "",
          "type": "uint256"
        }
      ],
      "name": "stakeholders",
      "outputs": [
        {
          "internalType": "address",
          "name": "user",
          "type": "address"
        }
      ],
      "stateMutability": "view",
      "type": "function"
    },
    {
      "inputs": [],
      "name": "symbol",
      "outputs": [
        {
          "internalType": "string",
          "name": "",
          "type": "string"
        }
      ],
      "stateMutability": "view",
      "type": "function"
    },
    {
      "inputs": [],
      "name": "token",
      "outputs": [
        {
          "internalType": "contract IERC20",
          "name": "",
          "type": "address"
        }
      ],
      "stateMutability": "view",
      "type": "function"
    },
    {
      "inputs": [],
      "name": "tokenAddress",
      "outputs": [
        {
          "internalType": "address",
          "name": "",
          "type": "address"
        }
      ],
      "stateMutability": "view",
      "type": "function"
    },
    {
      "inputs": [],
      "name": "totalSupply",
      "outputs": [
        {
          "internalType": "uint256",
          "name": "",
          "type": "uint256"
        }
      ],
      "stateMutability": "view",
      "type": "function"
    },
    {
      "inputs": [],
      "name": "total_amount_stacked",
      "outputs": [
        {
          "internalType": "uint256",
          "name": "",
          "type": "uint256"
        }
      ],
      "stateMutability": "view",
      "type": "function"
    },
    {
      "inputs": [
        {
          "internalType": "address",
          "name": "recipient",
          "type": "address"
        },
        {
          "internalType": "uint256",
          "name": "amount",
          "type": "uint256"
        }
      ],
      "name": "transfer",
      "outputs": [
        {
          "internalType": "bool",
          "name": "",
          "type": "bool"
        }
      ],
      "stateMutability": "nonpayable",
      "type": "function"
    },
    {
      "inputs": [
        {
          "internalType": "address",
          "name": "sender",
          "type": "address"
        },
        {
          "internalType": "address",
          "name": "recipient",
          "type": "address"
        },
        {
          "internalType": "uint256",
          "name": "amount",
          "type": "uint256"
        }
      ],
      "name": "transferFrom",
      "outputs": [
        {
          "internalType": "bool",
          "name": "",
          "type": "bool"
        }
      ],
      "stateMutability": "nonpayable",
      "type": "function"
    },
    {
      "inputs": [
        {
          "internalType": "uint256",
          "name": "_id",
          "type": "uint256"
        },
        {
          "internalType": "uint256",
          "name": "_amount",
          "type": "uint256"
        }
      ],
      "name": "unpledge",
      "outputs": [],
      "stateMutability": "nonpayable",
      "type": "function"
    },
    {
      "inputs": [
        {
          "internalType": "uint256",
          "name": "initialAmount",
          "type": "uint256"
        },
        {
          "internalType": "uint256",
          "name": "_amount",
          "type": "uint256"
        },
        {
          "internalType": "uint256",
          "name": "_amountMint",
          "type": "uint256"
        },
        {
          "internalType": "address",
          "name": "adr",
          "type": "address"
        }
      ],
      "name": "withdrawStake",
      "outputs": [],
      "stateMutability": "nonpayable",
      "type": "function"
    },
    {
      "stateMutability": "payable",
      "type": "receive"
    }
  ],
  "bytecode": "0x60c06040526103e860005560006003556040518060400160405280600481526020017f5465737400000000000000000000000000000000000000000000000000000000815250600890805190602001906200005c92919062000186565b506040518060400160405280600481526020017f544553540000000000000000000000000000000000000000000000000000000081525060099080519060200190620000aa92919062000186565b506012600a60006101000a81548160ff021916908360ff160217905550348015620000d457600080fd5b5060405162003b9638038062003b968339818101604052810190620000fa9190620002a0565b60018081600181540180825580915050039060005260206000209050508073ffffffffffffffffffffffffffffffffffffffff1660808173ffffffffffffffffffffffffffffffffffffffff16815250508073ffffffffffffffffffffffffffffffffffffffff1660a08173ffffffffffffffffffffffffffffffffffffffff16815250505062000337565b828054620001949062000301565b90600052602060002090601f016020900481019282620001b8576000855562000204565b82601f10620001d357805160ff191683800117855562000204565b8280016001018555821562000204579182015b8281111562000203578251825591602001919060010190620001e6565b5b50905062000213919062000217565b5090565b5b808211156200023257600081600090555060010162000218565b5090565b600080fd5b600073ffffffffffffffffffffffffffffffffffffffff82169050919050565b600062000268826200023b565b9050919050565b6200027a816200025b565b81146200028657600080fd5b50565b6000815190506200029a816200026f565b92915050565b600060208284031215620002b957620002b862000236565b5b6000620002c98482850162000289565b91505092915050565b7f4e487b7100000000000000000000000000000000000000000000000000000000600052602260045260246000fd5b600060028204905060018216806200031a57607f821691505b60208210811415620003315762000330620002d2565b5b50919050565b60805160a05161382462000372600039600081816118fb0152611d26015260008181611cea01528181611e55015261243501526138246000f3fe6080604052600436106102135760003560e01c806376809ce311610118578063ace1f5e1116100a0578063e73e14bf1161006f578063e73e14bf14610829578063fab1e74714610866578063fbd95a3914610891578063fc0c546a146108ba578063fde327be146108e557610253565b8063ace1f5e11461077e578063d3c9cc26146107a7578063dd62ed3e146107c3578063e22f9ea61461080057610253565b80639d76ea58116100e75780639d76ea5814610694578063a0712d68146106bf578063a9059cbb146106e8578063aa4fb63a14610725578063ac44ff311461076257610253565b806376809ce3146105ea5780637acb7757146106155780639358928b1461063e57806395d89b411461066957610253565b8063278ecde11161019b57806340e58ee51161016a57806340e58ee51461050757806342966c681461053057806367d759fb1461055957806370a0823114610584578063711853ab146105c157610253565b8063278ecde1146104275780632c63f146146104505780633eb0db3b1461048d5780633f733e48146104ca57610253565b806318160ddd116101e257806318160ddd1461032e5780631d6b8b72146103595780632135d1091461039657806323b872dd146103bf578063246d9fe8146103fc57610253565b806306661abd1461025857806306fdde0314610283578063095ea7b3146102ae578063141961bc146102eb57610253565b36610253577fbd0faddf87043dd749c1b9d4dca8a12589b8cb5e2106832111ce23f219b14367345a6040516102499291906129a6565b60405180910390a1005b600080fd5b34801561026457600080fd5b5061026d610901565b60405161027a91906129cf565b60405180910390f35b34801561028f57600080fd5b50610298610907565b6040516102a59190612a83565b60405180910390f35b3480156102ba57600080fd5b506102d560048036038101906102d09190612b34565b610995565b6040516102e29190612b8f565b60405180910390f35b3480156102f757600080fd5b50610312600480360381019061030d9190612baa565b610a87565b6040516103259796959493929190612c05565b60405180910390f35b34801561033a57600080fd5b50610343610b16565b60405161035091906129cf565b60405180910390f35b34801561036557600080fd5b50610380600480360381019061037b9190612baa565b610b1c565b60405161038d9190612c74565b60405180910390f35b3480156103a257600080fd5b506103bd60048036038101906103b89190612c8f565b610b6a565b005b3480156103cb57600080fd5b506103e660048036038101906103e19190612cf6565b610c55565b6040516103f39190612b8f565b60405180910390f35b34801561040857600080fd5b50610411610d73565b60405161041e91906129cf565b60405180910390f35b34801561043357600080fd5b5061044e60048036038101906104499190612baa565b610d7d565b005b34801561045c57600080fd5b5061047760048036038101906104729190612d75565b610f40565b60405161048491906129cf565b60405180910390f35b34801561049957600080fd5b506104b460048036038101906104af9190612dc8565b61118a565b6040516104c191906129cf565b60405180910390f35b3480156104d657600080fd5b506104f160048036038101906104ec9190612e08565b6111c3565b6040516104fe91906129cf565b60405180910390f35b34801561051357600080fd5b5061052e60048036038101906105299190612baa565b6111da565b005b34801561053c57600080fd5b5061055760048036038101906105529190612baa565b611467565b005b34801561056557600080fd5b5061056e61153f565b60405161057b91906129cf565b60405180910390f35b34801561059057600080fd5b506105ab60048036038101906105a69190612e08565b611545565b6040516105b891906129cf565b60405180910390f35b3480156105cd57600080fd5b506105e860048036038101906105e39190612dc8565b61155d565b005b3480156105f657600080fd5b506105ff611754565b60405161060c9190612e51565b60405180910390f35b34801561062157600080fd5b5061063c60048036038101906106379190612e6c565b611767565b005b34801561064a57600080fd5b50610653611865565b60405161066091906129cf565b60405180910390f35b34801561067557600080fd5b5061067e61186b565b60405161068b9190612a83565b60405180910390f35b3480156106a057600080fd5b506106a96118f9565b6040516106b69190612c74565b60405180910390f35b3480156106cb57600080fd5b506106e660048036038101906106e19190612baa565b61191d565b005b3480156106f457600080fd5b5061070f600480360381019061070a9190612b34565b6119f5565b60405161071c9190612b8f565b60405180910390f35b34801561073157600080fd5b5061074c60048036038101906107479190612e6c565b611b12565b60405161075991906129cf565b60405180910390f35b61077c60048036038101906107779190612eac565b611b37565b005b34801561078a57600080fd5b506107a560048036038101906107a09190612e6c565b611c55565b005b6107c160048036038101906107bc9190612baa565b611e53565b005b3480156107cf57600080fd5b506107ea60048036038101906107e59190612eff565b611ee3565b6040516107f791906129cf565b60405180910390f35b34801561080c57600080fd5b5061082760048036038101906108229190612b34565b611f08565b005b34801561083557600080fd5b50610850600480360381019061084b9190612e08565b6120c5565b60405161085d91906129cf565b60405180910390f35b34801561087257600080fd5b5061087b6122f7565b60405161088891906129cf565b60405180910390f35b34801561089d57600080fd5b506108b860048036038101906108b39190612cf6565b6122fd565b005b3480156108c657600080fd5b506108cf612433565b6040516108dc9190612f9e565b60405180910390f35b6108ff60048036038101906108fa9190612dc8565b612457565b005b600c5481565b6008805461091490612fe8565b80601f016020809104026020016040519081016040528092919081815260200182805461094090612fe8565b801561098d5780601f106109625761010080835404028352916020019161098d565b820191906000526020600020905b81548152906001019060200180831161097057829003601f168201915b505050505081565b600081600760003373ffffffffffffffffffffffffffffffffffffffff1673ffffffffffffffffffffffffffffffffffffffff16815260200190815260200160002060008573ffffffffffffffffffffffffffffffffffffffff1673ffffffffffffffffffffffffffffffffffffffff168152602001908152602001600020819055508273ffffffffffffffffffffffffffffffffffffffff163373ffffffffffffffffffffffffffffffffffffffff167f8c5be1e5ebec7d5bd14f71427d1e84f3dd0314c0f7b2291e5b200ac8c7c3b92584604051610a7591906129cf565b60405180910390a36001905092915050565b600d6020528060005260406000206000915090508060000160009054906101000a900473ffffffffffffffffffffffffffffffffffffffff16908060010154908060020154908060030154908060040160009054906101000a900463ffffffff16908060040160049054906101000a900463ffffffff16908060040160089054906101000a900460ff16905087565b60045481565b60018181548110610b2c57600080fd5b90600052602060002090600202016000915090508060000160009054906101000a900473ffffffffffffffffffffffffffffffffffffffff16905081565b6004548210610bae576040517f08c379a0000000000000000000000000000000000000000000000000000000008152600401610ba590613066565b60405180910390fd5b81600660008373ffffffffffffffffffffffffffffffffffffffff1673ffffffffffffffffffffffffffffffffffffffff1681526020019081526020016000206000828254610bfd91906130b5565b925050819055508260046000828254610c16919061310b565b925050819055508160056000828254610c2f91906130b5565b925050819055508360036000828254610c48919061310b565b9250508190555050505050565b600081600660008673ffffffffffffffffffffffffffffffffffffffff1673ffffffffffffffffffffffffffffffffffffffff1681526020019081526020016000206000828254610ca6919061310b565b9250508190555081600660008573ffffffffffffffffffffffffffffffffffffffff1673ffffffffffffffffffffffffffffffffffffffff1681526020019081526020016000206000828254610cfc91906130b5565b925050819055508273ffffffffffffffffffffffffffffffffffffffff168473ffffffffffffffffffffffffffffffffffffffff167fddf252ad1be2c89b69c2b068fc378daa952ba7f163c4a11628f55a4df523b3ef84604051610d6091906129cf565b60405180910390a3600190509392505050565b6000600354905090565b6000600d600083815260200190815260200160002090506000600e600084815260200190815260200160002060003373ffffffffffffffffffffffffffffffffffffffff1673ffffffffffffffffffffffffffffffffffffffff16815260200190815260200160002054905060003373ffffffffffffffffffffffffffffffffffffffff1682604051610e0f90613170565b60006040518083038185875af1925050503d8060008114610e4c576040519150601f19603f3d011682016040523d82523d6000602084013e610e51565b606091505b5050905080610e95576040517f08c379a0000000000000000000000000000000000000000000000000000000008152600401610e8c906131d1565b60405180910390fd5b6000600e600086815260200190815260200160002060003373ffffffffffffffffffffffffffffffffffffffff1673ffffffffffffffffffffffffffffffffffffffff168152602001908152602001600020819055503373ffffffffffffffffffffffffffffffffffffffff16847f21e12a7cad0da5928167e1084ea4d5fdf8d9af66657a2543a9ac76a0ca08147784604051610f3291906129cf565b60405180910390a350505050565b6000428363ffffffff161015610f8b576040517f08c379a0000000000000000000000000000000000000000000000000000000008152600401610f829061323d565b60405180910390fd5b8263ffffffff168263ffffffff161015610fda576040517f08c379a0000000000000000000000000000000000000000000000000000000008152600401610fd1906132a9565b60405180910390fd5b6276a70042610fe991906130b5565b8263ffffffff161115611031576040517f08c379a000000000000000000000000000000000000000000000000000000000815260040161102890613315565b60405180910390fd5b6001600c600082825461104491906130b5565b925050819055506000600d6000600c5481526020019081526020016000209050338160000160006101000a81548173ffffffffffffffffffffffffffffffffffffffff021916908373ffffffffffffffffffffffffffffffffffffffff1602179055506000816001018190555084816002018190555060008160030181905550838160040160006101000a81548163ffffffff021916908363ffffffff160217905550828160040160046101000a81548163ffffffff021916908363ffffffff16021790555060008160040160086101000a81548160ff0219169083151502179055503373ffffffffffffffffffffffffffffffffffffffff167f0601cd0d650b473037e838a2696d41e654433d065b3f56b28d1d3302e44a304f600c548787876040516111759493929190613335565b60405180910390a2600c549150509392505050565b6000805482603c854261119d919061310b565b6111a791906133a9565b6111b191906133da565b6111bb91906133a9565b905092915050565b6000806111cf836120c5565b905080915050919050565b6000600d60008381526020019081526020016000206040518060e00160405290816000820160009054906101000a900473ffffffffffffffffffffffffffffffffffffffff1673ffffffffffffffffffffffffffffffffffffffff1673ffffffffffffffffffffffffffffffffffffffff1681526020016001820154815260200160028201548152602001600382015481526020016004820160009054906101000a900463ffffffff1663ffffffff1663ffffffff1681526020016004820160049054906101000a900463ffffffff1663ffffffff1663ffffffff1681526020016004820160089054906101000a900460ff1615151515815250509050806000015173ffffffffffffffffffffffffffffffffffffffff163373ffffffffffffffffffffffffffffffffffffffff1614611349576040517f08c379a000000000000000000000000000000000000000000000000000000000815260040161134090613480565b60405180910390fd5b806080015163ffffffff164210611395576040517f08c379a000000000000000000000000000000000000000000000000000000000815260040161138c906134ec565b60405180910390fd5b600d6000838152602001908152602001600020600080820160006101000a81549073ffffffffffffffffffffffffffffffffffffffff02191690556001820160009055600282016000905560038201600090556004820160006101000a81549063ffffffff02191690556004820160046101000a81549063ffffffff02191690556004820160086101000a81549060ff021916905550507f8bf30e7ff26833413be5f69e1d373744864d600b664204b4a2f9844a8eedb9ed8260405161145b91906129cf565b60405180910390a15050565b80600660003373ffffffffffffffffffffffffffffffffffffffff1673ffffffffffffffffffffffffffffffffffffffff16815260200190815260200160002060008282546114b6919061310b565b9250508190555080600560008282546114cf919061310b565b92505081905550600073ffffffffffffffffffffffffffffffffffffffff163373ffffffffffffffffffffffffffffffffffffffff167fddf252ad1be2c89b69c2b068fc378daa952ba7f163c4a11628f55a4df523b3ef8360405161153491906129cf565b60405180910390a350565b60035481565b60066020528060005260406000206000915090505481565b6000600d600084815260200190815260200160002090508060040160049054906101000a900463ffffffff1663ffffffff164211156115d1576040517f08c379a00000000000000000000000000000000000000000000000000000000081526004016115c890613558565b60405180910390fd5b60003373ffffffffffffffffffffffffffffffffffffffff16836040516115f790613170565b60006040518083038185875af1925050503d8060008114611634576040519150601f19603f3d011682016040523d82523d6000602084013e611639565b606091505b505090508061167d576040517f08c379a0000000000000000000000000000000000000000000000000000000008152600401611674906131d1565b60405180910390fd5b82826003016000828254611691919061310b565b9250508190555082600e600086815260200190815260200160002060003373ffffffffffffffffffffffffffffffffffffffff1673ffffffffffffffffffffffffffffffffffffffff16815260200190815260200160002060008282546116f8919061310b565b925050819055503373ffffffffffffffffffffffffffffffffffffffff16847f2eeeab891b26a214d1b25749f88a406bdea852bd8c9bfda977e0ef8114c180ba8560405161174691906129cf565b60405180910390a350505050565b600a60009054906101000a900460ff1681565b600660008273ffffffffffffffffffffffffffffffffffffffff1673ffffffffffffffffffffffffffffffffffffffff168152602001908152602001600020548211156117e9576040517f08c379a00000000000000000000000000000000000000000000000000000000081526004016117e0906135c4565b60405180910390fd5b6117f2826126aa565b81600660008373ffffffffffffffffffffffffffffffffffffffff1673ffffffffffffffffffffffffffffffffffffffff1681526020019081526020016000206000828254611841919061310b565b92505081905550816005600082825461185a919061310b565b925050819055505050565b60055481565b6009805461187890612fe8565b80601f01602080910402602001604051908101604052809291908181526020018280546118a490612fe8565b80156118f15780601f106118c6576101008083540402835291602001916118f1565b820191906000526020600020905b8154815290600101906020018083116118d457829003601f168201915b505050505081565b7f000000000000000000000000000000000000000000000000000000000000000081565b80600660003073ffffffffffffffffffffffffffffffffffffffff1673ffffffffffffffffffffffffffffffffffffffff168152602001908152602001600020600082825461196c91906130b5565b92505081905550806004600082825461198591906130b5565b925050819055503073ffffffffffffffffffffffffffffffffffffffff16600073ffffffffffffffffffffffffffffffffffffffff167fddf252ad1be2c89b69c2b068fc378daa952ba7f163c4a11628f55a4df523b3ef836040516119ea91906129cf565b60405180910390a350565b600081600660003373ffffffffffffffffffffffffffffffffffffffff1673ffffffffffffffffffffffffffffffffffffffff1681526020019081526020016000206000828254611a46919061310b565b9250508190555081600660008573ffffffffffffffffffffffffffffffffffffffff1673ffffffffffffffffffffffffffffffffffffffff1681526020019081526020016000206000828254611a9c91906130b5565b925050819055508273ffffffffffffffffffffffffffffffffffffffff163373ffffffffffffffffffffffffffffffffffffffff167fddf252ad1be2c89b69c2b068fc378daa952ba7f163c4a11628f55a4df523b3ef84604051611b0091906129cf565b60405180910390a36001905092915050565b600e602052816000526040600020602052806000526040600020600091509150505481565b6000600d6000858152602001908152602001600020905060008273ffffffffffffffffffffffffffffffffffffffff1684604051611b7490613170565b60006040518083038185875af1925050503d8060008114611bb1576040519150601f19603f3d011682016040523d82523d6000602084013e611bb6565b606091505b5050905080611bfa576040517f08c379a0000000000000000000000000000000000000000000000000000000008152600401611bf1906131d1565b60405180910390fd5b60018260040160086101000a81548160ff0219169083151502179055507f7bb2b3c10797baccb6f8c4791f1edd6ca2f0d028ee0eda64b01a9a57e3a653f785604051611c4691906129cf565b60405180910390a15050505050565b6000600e600084815260200190815260200160002060008373ffffffffffffffffffffffffffffffffffffffff1673ffffffffffffffffffffffffffffffffffffffff1681526020019081526020016000205411611ce8576040517f08c379a0000000000000000000000000000000000000000000000000000000008152600401611cdf90613630565b60405180910390fd5b7f000000000000000000000000000000000000000000000000000000000000000073ffffffffffffffffffffffffffffffffffffffff1663fbd95a397f00000000000000000000000000000000000000000000000000000000000000008366038d7ea4c68000600e600088815260200190815260200160002060008773ffffffffffffffffffffffffffffffffffffffff1673ffffffffffffffffffffffffffffffffffffffff16815260200190815260200160002054611da991906133a9565b6040518463ffffffff1660e01b8152600401611dc793929190613650565b600060405180830381600087803b158015611de157600080fd5b505af1158015611df5573d6000803e3d6000fd5b505050506000600e600084815260200190815260200160002060008373ffffffffffffffffffffffffffffffffffffffff1673ffffffffffffffffffffffffffffffffffffffff168152602001908152602001600020819055505050565b7f000000000000000000000000000000000000000000000000000000000000000073ffffffffffffffffffffffffffffffffffffffff1663e22f9ea630836040518363ffffffff1660e01b8152600401611eae929190613687565b600060405180830381600087803b158015611ec857600080fd5b505af1158015611edc573d6000803e3d6000fd5b5050505050565b6007602052816000526040600020602052806000526040600020600091509150505481565b7f909c57d5c6ac08245cf2a6de3900e2b868513fa59099b92b27d8db823d92df9c600660003073ffffffffffffffffffffffffffffffffffffffff1673ffffffffffffffffffffffffffffffffffffffff16815260200190815260200160002054604051611f7691906129cf565b60405180910390a180600660003073ffffffffffffffffffffffffffffffffffffffff1673ffffffffffffffffffffffffffffffffffffffff1681526020019081526020016000206000828254611fcd919061310b565b9250508190555080600660008473ffffffffffffffffffffffffffffffffffffffff1673ffffffffffffffffffffffffffffffffffffffff168152602001908152602001600020600082825461202391906130b5565b92505081905550806004600082825461203c919061310b565b92505081905550806005600082825461205591906130b5565b925050819055508173ffffffffffffffffffffffffffffffffffffffff163073ffffffffffffffffffffffffffffffffffffffff167fddf252ad1be2c89b69c2b068fc378daa952ba7f163c4a11628f55a4df523b3ef836040516120b991906129cf565b60405180910390a35050565b60008060006040518060400160405280600081526020016001600260008873ffffffffffffffffffffffffffffffffffffffff1673ffffffffffffffffffffffffffffffffffffffff168152602001908152602001600020548154811061212f5761212e6136b0565b5b9060005260206000209060020201600101805480602002602001604051908101604052809291908181526020016000905b8282101561220657838290600052602060002090600402016040518060800160405290816000820160009054906101000a900473ffffffffffffffffffffffffffffffffffffffff1673ffffffffffffffffffffffffffffffffffffffff1673ffffffffffffffffffffffffffffffffffffffff168152602001600182015481526020016002820154815260200160038201548152505081526020019060010190612160565b50505050815250905060005b8160200151518110156122de57600061226f8360200151838151811061223b5761223a6136b0565b5b6020026020010151604001518460200151848151811061225e5761225d6136b0565b5b60200260200101516020015161118a565b90508083602001518381518110612289576122886136b0565b5b60200260200101516060018181525050826020015182815181106122b0576122af6136b0565b5b602002602001015160600151846122c791906130b5565b9350506001816122d791906130b5565b9050612212565b5081816000018181525050806000015192505050919050565b600b5481565b8060045411612341576040517f08c379a000000000000000000000000000000000000000000000000000000000815260040161233890613066565b60405180910390fd5b8060046000828254612353919061310b565b92505081905550806005600082825461236c91906130b5565b9250508190555080600660008473ffffffffffffffffffffffffffffffffffffffff1673ffffffffffffffffffffffffffffffffffffffff16815260200190815260200160002060008282546123c291906130b5565b925050819055508173ffffffffffffffffffffffffffffffffffffffff168373ffffffffffffffffffffffffffffffffffffffff167fddf252ad1be2c89b69c2b068fc378daa952ba7f163c4a11628f55a4df523b3ef8360405161242691906129cf565b60405180910390a3505050565b7f000000000000000000000000000000000000000000000000000000000000000081565b6000600d60008481526020019081526020016000209050600082116124b1576040517f08c379a00000000000000000000000000000000000000000000000000000000081526004016124a89061372b565b60405180910390fd5b6000600e600085815260200190815260200160002060003373ffffffffffffffffffffffffffffffffffffffff1673ffffffffffffffffffffffffffffffffffffffff16815260200190815260200160002054141561252757600181600101600082825461251f91906130b5565b925050819055505b60003073ffffffffffffffffffffffffffffffffffffffff168360405161254d90613170565b60006040518083038185875af1925050503d806000811461258a576040519150601f19603f3d011682016040523d82523d6000602084013e61258f565b606091505b50509050806125d3576040517f08c379a00000000000000000000000000000000000000000000000000000000081526004016125ca906131d1565b60405180910390fd5b828260030160008282546125e791906130b5565b9250508190555082600e600086815260200190815260200160002060003373ffffffffffffffffffffffffffffffffffffffff1673ffffffffffffffffffffffffffffffffffffffff168152602001908152602001600020600082825461264e91906130b5565b925050819055503373ffffffffffffffffffffffffffffffffffffffff16847f06bdb975df800a73232998e71ed585d536222f1dfeaa622d7f62a23ada686c828560405161269c91906129cf565b60405180910390a350505050565b600081116126ed576040517f08c379a00000000000000000000000000000000000000000000000000000000081526004016126e490613797565b60405180910390fd5b6000600260003373ffffffffffffffffffffffffffffffffffffffff1673ffffffffffffffffffffffffffffffffffffffff1681526020019081526020016000205490506000429050600082141561274b57612748336128a8565b91505b6001828154811061275f5761275e6136b0565b5b906000526020600020906002020160010160405180608001604052803373ffffffffffffffffffffffffffffffffffffffff1681526020018581526020018381526020016000815250908060018154018082558091505060019003906000526020600020906004020160009091909190915060008201518160000160006101000a81548173ffffffffffffffffffffffffffffffffffffffff021916908373ffffffffffffffffffffffffffffffffffffffff1602179055506020820151816001015560408201518160020155606082015181600301555050826003600082825461284a91906130b5565b925050819055503373ffffffffffffffffffffffffffffffffffffffff167fb4caaf29adda3eefee3ad552a8e85058589bf834c7466cae4ee58787f70589ed84848460405161289b939291906137b7565b60405180910390a2505050565b600060018081600181540180825580915050039060005260206000209050506000600180805490506128da919061310b565b905082600182815481106128f1576128f06136b0565b5b906000526020600020906002020160000160006101000a81548173ffffffffffffffffffffffffffffffffffffffff021916908373ffffffffffffffffffffffffffffffffffffffff16021790555080600260008573ffffffffffffffffffffffffffffffffffffffff1673ffffffffffffffffffffffffffffffffffffffff1681526020019081526020016000208190555080915050919050565b6000819050919050565b6129a08161298d565b82525050565b60006040820190506129bb6000830185612997565b6129c86020830184612997565b9392505050565b60006020820190506129e46000830184612997565b92915050565b600081519050919050565b600082825260208201905092915050565b60005b83811015612a24578082015181840152602081019050612a09565b83811115612a33576000848401525b50505050565b6000601f19601f8301169050919050565b6000612a55826129ea565b612a5f81856129f5565b9350612a6f818560208601612a06565b612a7881612a39565b840191505092915050565b60006020820190508181036000830152612a9d8184612a4a565b905092915050565b600080fd5b600073ffffffffffffffffffffffffffffffffffffffff82169050919050565b6000612ad582612aaa565b9050919050565b612ae581612aca565b8114612af057600080fd5b50565b600081359050612b0281612adc565b92915050565b612b118161298d565b8114612b1c57600080fd5b50565b600081359050612b2e81612b08565b92915050565b60008060408385031215612b4b57612b4a612aa5565b5b6000612b5985828601612af3565b9250506020612b6a85828601612b1f565b9150509250929050565b60008115159050919050565b612b8981612b74565b82525050565b6000602082019050612ba46000830184612b80565b92915050565b600060208284031215612bc057612bbf612aa5565b5b6000612bce84828501612b1f565b91505092915050565b612be081612aca565b82525050565b600063ffffffff82169050919050565b612bff81612be6565b82525050565b600060e082019050612c1a600083018a612bd7565b612c276020830189612997565b612c346040830188612997565b612c416060830187612997565b612c4e6080830186612bf6565b612c5b60a0830185612bf6565b612c6860c0830184612b80565b98975050505050505050565b6000602082019050612c896000830184612bd7565b92915050565b60008060008060808587031215612ca957612ca8612aa5565b5b6000612cb787828801612b1f565b9450506020612cc887828801612b1f565b9350506040612cd987828801612b1f565b9250506060612cea87828801612af3565b91505092959194509250565b600080600060608486031215612d0f57612d0e612aa5565b5b6000612d1d86828701612af3565b9350506020612d2e86828701612af3565b9250506040612d3f86828701612b1f565b9150509250925092565b612d5281612be6565b8114612d5d57600080fd5b50565b600081359050612d6f81612d49565b92915050565b600080600060608486031215612d8e57612d8d612aa5565b5b6000612d9c86828701612b1f565b9350506020612dad86828701612d60565b9250506040612dbe86828701612d60565b9150509250925092565b60008060408385031215612ddf57612dde612aa5565b5b6000612ded85828601612b1f565b9250506020612dfe85828601612b1f565b9150509250929050565b600060208284031215612e1e57612e1d612aa5565b5b6000612e2c84828501612af3565b91505092915050565b600060ff82169050919050565b612e4b81612e35565b82525050565b6000602082019050612e666000830184612e42565b92915050565b60008060408385031215612e8357612e82612aa5565b5b6000612e9185828601612b1f565b9250506020612ea285828601612af3565b9150509250929050565b600080600060608486031215612ec557612ec4612aa5565b5b6000612ed386828701612b1f565b9350506020612ee486828701612b1f565b9250506040612ef586828701612af3565b9150509250925092565b60008060408385031215612f1657612f15612aa5565b5b6000612f2485828601612af3565b9250506020612f3585828601612af3565b9150509250929050565b6000819050919050565b6000612f64612f5f612f5a84612aaa565b612f3f565b612aaa565b9050919050565b6000612f7682612f49565b9050919050565b6000612f8882612f6b565b9050919050565b612f9881612f7d565b82525050565b6000602082019050612fb36000830184612f8f565b92915050565b7f4e487b7100000000000000000000000000000000000000000000000000000000600052602260045260246000fd5b6000600282049050600182168061300057607f821691505b6020821081141561301457613013612fb9565b5b50919050565b7f4e6f7420656e6f75676820737570706c79000000000000000000000000000000600082015250565b60006130506011836129f5565b915061305b8261301a565b602082019050919050565b6000602082019050818103600083015261307f81613043565b9050919050565b7f4e487b7100000000000000000000000000000000000000000000000000000000600052601160045260246000fd5b60006130c08261298d565b91506130cb8361298d565b9250827fffffffffffffffffffffffffffffffffffffffffffffffffffffffffffffffff03821115613100576130ff613086565b5b828201905092915050565b60006131168261298d565b91506131218361298d565b92508282101561313457613133613086565b5b828203905092915050565b600081905092915050565b50565b600061315a60008361313f565b91506131658261314a565b600082019050919050565b600061317b8261314d565b9150819050919050565b7f43616c6c206661696c6564000000000000000000000000000000000000000000600082015250565b60006131bb600b836129f5565b91506131c682613185565b602082019050919050565b600060208201905081810360008301526131ea816131ae565b9050919050565b7f5374617274206174203c206e6f77000000000000000000000000000000000000600082015250565b6000613227600e836129f5565b9150613232826131f1565b602082019050919050565b600060208201905081810360008301526132568161321a565b9050919050565b7f656e64206174203c207374617274206174000000000000000000000000000000600082015250565b60006132936011836129f5565b915061329e8261325d565b602082019050919050565b600060208201905081810360008301526132c281613286565b9050919050565b7f656e64206174203e206d6178206475726174696f6e0000000000000000000000600082015250565b60006132ff6015836129f5565b915061330a826132c9565b602082019050919050565b6000602082019050818103600083015261332e816132f2565b9050919050565b600060808201905061334a6000830187612997565b6133576020830186612997565b6133646040830185612bf6565b6133716060830184612bf6565b95945050505050565b7f4e487b7100000000000000000000000000000000000000000000000000000000600052601260045260246000fd5b60006133b48261298d565b91506133bf8361298d565b9250826133cf576133ce61337a565b5b828204905092915050565b60006133e58261298d565b91506133f08361298d565b9250817fffffffffffffffffffffffffffffffffffffffffffffffffffffffffffffffff048311821515161561342957613428613086565b5b828202905092915050565b7f4e6f742063726561746f72000000000000000000000000000000000000000000600082015250565b600061346a600b836129f5565b915061347582613434565b602082019050919050565b600060208201905081810360008301526134998161345d565b9050919050565b7f7374617274656400000000000000000000000000000000000000000000000000600082015250565b60006134d66007836129f5565b91506134e1826134a0565b602082019050919050565b60006020820190508181036000830152613505816134c9565b9050919050565b7f456e646564000000000000000000000000000000000000000000000000000000600082015250565b60006135426005836129f5565b915061354d8261350c565b602082019050919050565b6000602082019050818103600083015261357181613535565b9050919050565b7f4e6f7420656e6f75676820746f6b656e73000000000000000000000000000000600082015250565b60006135ae6011836129f5565b91506135b982613578565b602082019050919050565b600060208201905081810360008301526135dd816135a1565b9050919050565b7f4e6f7468696e6720706c65646765640000000000000000000000000000000000600082015250565b600061361a600f836129f5565b9150613625826135e4565b602082019050919050565b600060208201905081810360008301526136498161360d565b9050919050565b60006060820190506136656000830186612bd7565b6136726020830185612bd7565b61367f6040830184612997565b949350505050565b600060408201905061369c6000830185612bd7565b6136a96020830184612997565b9392505050565b7f4e487b7100000000000000000000000000000000000000000000000000000000600052603260045260246000fd5b7f416d6f756e742073686f756c6420626520626967676572207468616e20300000600082015250565b6000613715601e836129f5565b9150613720826136df565b602082019050919050565b6000602082019050818103600083015261374481613708565b9050919050565b7f43616e6e6f74207374616b65206e6f7468696e67000000000000000000000000600082015250565b60006137816014836129f5565b915061378c8261374b565b602082019050919050565b600060208201905081810360008301526137b081613774565b9050919050565b60006060820190506137cc6000830186612997565b6137d96020830185612997565b6137e66040830184612997565b94935050505056fea26469706673582212209b531cb45d30ef2b0339afb7485572754e90ee633323e9c9e25651dc51908eab64736f6c634300080a0033",
  "linkReferences": {},
  "deployedLinkReferences": {}
}