{
  "_format": "hh-sol-artifact-1",
  "contractName": "Crowdfund",
  "sourceName": "contracts/Crowdfund.sol",
  "abi": [
    {
      "inputs": [
        {
          "internalType": "address",
          "name": "_token",
          "type": "address"
        }
      ],
      "stateMutability": "nonpayable",
      "type": "constructor"
    },
    {
      "anonymous": false,
      "inputs": [
        {
          "indexed": true,
          "internalType": "address",
          "name": "owner",
          "type": "address"
        },
        {
          "indexed": true,
          "internalType": "address",
          "name": "sender",
          "type": "address"
        },
        {
          "indexed": false,
          "internalType": "uint256",
          "name": "amount",
          "type": "uint256"
        }
      ],
      "name": "Approval",
      "type": "event"
    },
    {
      "anonymous": false,
      "inputs": [
        {
          "indexed": false,
          "internalType": "uint256",
          "name": "id",
          "type": "uint256"
        }
      ],
      "name": "Cancel",
      "type": "event"
    },
    {
      "anonymous": false,
      "inputs": [
        {
          "indexed": false,
          "internalType": "uint256",
          "name": "id",
          "type": "uint256"
        }
      ],
      "name": "Claim",
      "type": "event"
    },
    {
      "anonymous": false,
      "inputs": [
        {
          "indexed": false,
          "internalType": "uint256",
          "name": "id",
          "type": "uint256"
        },
        {
          "indexed": true,
          "internalType": "address",
          "name": "creator",
          "type": "address"
        },
        {
          "indexed": false,
          "internalType": "uint256",
          "name": "goal",
          "type": "uint256"
        },
        {
          "indexed": false,
          "internalType": "uint32",
          "name": "startAt",
          "type": "uint32"
        },
        {
          "indexed": false,
          "internalType": "uint32",
          "name": "endAt",
          "type": "uint32"
        }
      ],
      "name": "Launch",
      "type": "event"
    },
    {
      "anonymous": false,
      "inputs": [
        {
          "indexed": false,
          "internalType": "uint256",
          "name": "amount",
          "type": "uint256"
        },
        {
          "indexed": false,
          "internalType": "uint256",
          "name": "gas",
          "type": "uint256"
        }
      ],
      "name": "Log",
      "type": "event"
    },
    {
      "anonymous": false,
      "inputs": [
        {
          "indexed": false,
          "internalType": "uint256",
          "name": "amount",
          "type": "uint256"
        }
      ],
      "name": "Log",
      "type": "event"
    },
    {
      "anonymous": false,
      "inputs": [
        {
          "indexed": true,
          "internalType": "uint256",
          "name": "id",
          "type": "uint256"
        },
        {
          "indexed": true,
          "internalType": "address",
          "name": "caller",
          "type": "address"
        },
        {
          "indexed": false,
          "internalType": "uint256",
          "name": "amount",
          "type": "uint256"
        }
      ],
      "name": "Pledge",
      "type": "event"
    },
    {
      "anonymous": false,
      "inputs": [
        {
          "indexed": true,
          "internalType": "uint256",
          "name": "id",
          "type": "uint256"
        },
        {
          "indexed": true,
          "internalType": "address",
          "name": "caller",
          "type": "address"
        },
        {
          "indexed": false,
          "internalType": "uint256",
          "name": "amount",
          "type": "uint256"
        }
      ],
      "name": "Refund",
      "type": "event"
    },
    {
      "anonymous": false,
      "inputs": [
        {
          "indexed": true,
          "internalType": "address",
          "name": "user",
          "type": "address"
        },
        {
          "indexed": false,
          "internalType": "uint256",
          "name": "amount",
          "type": "uint256"
        },
        {
          "indexed": false,
          "internalType": "uint256",
          "name": "index",
          "type": "uint256"
        },
        {
          "indexed": false,
          "internalType": "uint256",
          "name": "timestamp",
          "type": "uint256"
        }
      ],
      "name": "Staked",
      "type": "event"
    },
    {
      "anonymous": false,
      "inputs": [
        {
          "indexed": true,
          "internalType": "address",
          "name": "from",
          "type": "address"
        },
        {
          "indexed": true,
          "internalType": "address",
          "name": "to",
          "type": "address"
        },
        {
          "indexed": false,
          "internalType": "uint256",
          "name": "amount",
          "type": "uint256"
        }
      ],
      "name": "Transfer",
      "type": "event"
    },
    {
      "anonymous": false,
      "inputs": [
        {
          "indexed": true,
          "internalType": "uint256",
          "name": "id",
          "type": "uint256"
        },
        {
          "indexed": true,
          "internalType": "address",
          "name": "caller",
          "type": "address"
        },
        {
          "indexed": false,
          "internalType": "uint256",
          "name": "amount",
          "type": "uint256"
        }
      ],
      "name": "Unpledge",
      "type": "event"
    },
    {
      "inputs": [
        {
          "internalType": "address",
          "name": "",
          "type": "address"
        },
        {
          "internalType": "address",
          "name": "",
          "type": "address"
        }
      ],
      "name": "allowance",
      "outputs": [
        {
          "internalType": "uint256",
          "name": "",
          "type": "uint256"
        }
      ],
      "stateMutability": "view",
      "type": "function"
    },
    {
      "inputs": [],
      "name": "amountStaked",
      "outputs": [
        {
          "internalType": "uint256",
          "name": "",
          "type": "uint256"
        }
      ],
      "stateMutability": "view",
      "type": "function"
    },
    {
      "inputs": [
        {
          "internalType": "address",
          "name": "sender",
          "type": "address"
        },
        {
          "internalType": "uint256",
          "name": "amount",
          "type": "uint256"
        }
      ],
      "name": "approve",
      "outputs": [
        {
          "internalType": "bool",
          "name": "",
          "type": "bool"
        }
      ],
      "stateMutability": "nonpayable",
      "type": "function"
    },
    {
      "inputs": [
        {
          "internalType": "address",
          "name": "",
          "type": "address"
        }
      ],
      "name": "balanceOf",
      "outputs": [
        {
          "internalType": "uint256",
          "name": "",
          "type": "uint256"
        }
      ],
      "stateMutability": "view",
      "type": "function"
    },
    {
      "inputs": [
        {
          "internalType": "uint256",
          "name": "amount",
          "type": "uint256"
        }
      ],
      "name": "burn",
      "outputs": [],
      "stateMutability": "nonpayable",
      "type": "function"
    },
    {
      "inputs": [
        {
          "internalType": "uint256",
          "name": "since",
          "type": "uint256"
        },
        {
          "internalType": "uint256",
          "name": "amount",
          "type": "uint256"
        }
      ],
      "name": "calculateStakeReward",
      "outputs": [
        {
          "internalType": "uint256",
          "name": "",
          "type": "uint256"
        }
      ],
      "stateMutability": "view",
      "type": "function"
    },
    {
      "inputs": [
        {
          "internalType": "uint256",
          "name": "",
          "type": "uint256"
        }
      ],
      "name": "campaigns",
      "outputs": [
        {
          "internalType": "address",
          "name": "creator",
          "type": "address"
        },
        {
          "internalType": "uint256",
          "name": "numberOfInvestors",
          "type": "uint256"
        },
        {
          "internalType": "uint256",
          "name": "goal",
          "type": "uint256"
        },
        {
          "internalType": "uint256",
          "name": "pledged",
          "type": "uint256"
        },
        {
          "internalType": "uint32",
          "name": "startAt",
          "type": "uint32"
        },
        {
          "internalType": "uint32",
          "name": "endAt",
          "type": "uint32"
        },
        {
          "internalType": "bool",
          "name": "claimed",
          "type": "bool"
        }
      ],
      "stateMutability": "view",
      "type": "function"
    },
    {
      "inputs": [
        {
          "internalType": "uint256",
          "name": "_id",
          "type": "uint256"
        }
      ],
      "name": "cancel",
      "outputs": [],
      "stateMutability": "nonpayable",
      "type": "function"
    },
    {
      "inputs": [],
      "name": "circulatingSupply",
      "outputs": [
        {
          "internalType": "uint256",
          "name": "",
          "type": "uint256"
        }
      ],
      "stateMutability": "view",
      "type": "function"
    },
    {
      "inputs": [
        {
          "internalType": "uint256",
          "name": "_id",
          "type": "uint256"
        },
        {
          "internalType": "uint256",
          "name": "amount",
          "type": "uint256"
        },
        {
          "internalType": "address",
          "name": "adr",
          "type": "address"
        }
      ],
      "name": "claim",
      "outputs": [],
      "stateMutability": "payable",
      "type": "function"
    },
    {
      "inputs": [
        {
          "internalType": "uint256",
          "name": "_id",
          "type": "uint256"
        },
        {
          "internalType": "address",
          "name": "adr",
          "type": "address"
        }
      ],
      "name": "claimShares",
      "outputs": [],
      "stateMutability": "nonpayable",
      "type": "function"
    },
    {
      "inputs": [],
      "name": "count",
      "outputs": [
        {
          "internalType": "uint256",
          "name": "",
          "type": "uint256"
        }
      ],
      "stateMutability": "view",
      "type": "function"
    },
    {
      "inputs": [],
      "name": "decimal",
      "outputs": [
        {
          "internalType": "uint8",
          "name": "",
          "type": "uint8"
        }
      ],
      "stateMutability": "view",
      "type": "function"
    },
    {
      "inputs": [
        {
          "internalType": "address",
          "name": "adr",
          "type": "address"
        }
      ],
      "name": "getSummary",
      "outputs": [
        {
          "internalType": "uint256",
          "name": "",
          "type": "uint256"
        }
      ],
      "stateMutability": "view",
      "type": "function"
    },
    {
      "inputs": [
        {
          "internalType": "uint256",
          "name": "amount",
          "type": "uint256"
        }
      ],
      "name": "getTokens",
      "outputs": [],
      "stateMutability": "payable",
      "type": "function"
    },
    {
      "inputs": [],
      "name": "getTotalAmountStaked",
      "outputs": [
        {
          "internalType": "uint256",
          "name": "",
          "type": "uint256"
        }
      ],
      "stateMutability": "view",
      "type": "function"
    },
    {
      "inputs": [
        {
          "internalType": "address",
          "name": "_staker",
          "type": "address"
        }
      ],
      "name": "hasStake",
      "outputs": [
        {
          "internalType": "uint256",
          "name": "",
          "type": "uint256"
        }
      ],
      "stateMutability": "view",
      "type": "function"
    },
    {
      "inputs": [
        {
          "internalType": "address",
          "name": "",
          "type": "address"
        },
        {
          "internalType": "uint256",
          "name": "",
          "type": "uint256"
        }
      ],
      "name": "investors",
      "outputs": [
        {
          "internalType": "uint256",
          "name": "",
          "type": "uint256"
        }
      ],
      "stateMutability": "view",
      "type": "function"
    },
    {
      "inputs": [
        {
          "internalType": "uint256",
          "name": "_goal",
          "type": "uint256"
        },
        {
          "internalType": "uint32",
          "name": "_startAt",
          "type": "uint32"
        },
        {
          "internalType": "uint32",
          "name": "_endAt",
          "type": "uint32"
        }
      ],
      "name": "launch",
      "outputs": [
        {
          "internalType": "uint256",
          "name": "",
          "type": "uint256"
        }
      ],
      "stateMutability": "nonpayable",
      "type": "function"
    },
    {
      "inputs": [
        {
          "internalType": "uint256",
          "name": "amount",
          "type": "uint256"
        }
      ],
      "name": "mint",
      "outputs": [],
      "stateMutability": "nonpayable",
      "type": "function"
    },
    {
      "inputs": [],
      "name": "name",
      "outputs": [
        {
          "internalType": "string",
          "name": "",
          "type": "string"
        }
      ],
      "stateMutability": "view",
      "type": "function"
    },
    {
      "inputs": [
        {
          "internalType": "uint256",
          "name": "_id",
          "type": "uint256"
        },
        {
          "internalType": "uint256",
          "name": "_amount",
          "type": "uint256"
        },
        {
          "internalType": "address",
          "name": "adr",
          "type": "address"
        }
      ],
      "name": "pledge",
      "outputs": [],
      "stateMutability": "payable",
      "type": "function"
    },
    {
      "inputs": [
        {
          "internalType": "uint256",
          "name": "",
          "type": "uint256"
        },
        {
          "internalType": "address",
          "name": "",
          "type": "address"
        }
      ],
      "name": "pledgedAmount",
      "outputs": [
        {
          "internalType": "uint256",
          "name": "",
          "type": "uint256"
        }
      ],
      "stateMutability": "view",
      "type": "function"
    },
    {
      "inputs": [
        {
          "internalType": "uint256",
          "name": "_id",
          "type": "uint256"
        }
      ],
      "name": "refund",
      "outputs": [],
      "stateMutability": "nonpayable",
      "type": "function"
    },
    {
      "inputs": [
        {
          "internalType": "address",
          "name": "sender",
          "type": "address"
        },
        {
          "internalType": "address",
          "name": "recipient",
          "type": "address"
        },
        {
          "internalType": "uint256",
          "name": "amount",
          "type": "uint256"
        }
      ],
      "name": "sendToAddress",
      "outputs": [],
      "stateMutability": "nonpayable",
      "type": "function"
    },
    {
      "inputs": [
        {
          "internalType": "address",
          "name": "recipient",
          "type": "address"
        },
        {
          "internalType": "uint256",
          "name": "amount",
          "type": "uint256"
        }
      ],
      "name": "sendToContract",
      "outputs": [],
      "stateMutability": "nonpayable",
      "type": "function"
    },
    {
      "inputs": [
        {
          "internalType": "uint256",
          "name": "_amount",
          "type": "uint256"
        },
        {
          "internalType": "address",
          "name": "adr",
          "type": "address"
        }
      ],
      "name": "stake",
      "outputs": [],
      "stateMutability": "nonpayable",
      "type": "function"
    },
    {
      "inputs": [
        {
          "internalType": "uint256",
          "name": "",
          "type": "uint256"
        }
      ],
      "name": "stakeholders",
      "outputs": [
        {
          "internalType": "address",
          "name": "user",
          "type": "address"
        }
      ],
      "stateMutability": "view",
      "type": "function"
    },
    {
      "inputs": [],
      "name": "symbol",
      "outputs": [
        {
          "internalType": "string",
          "name": "",
          "type": "string"
        }
      ],
      "stateMutability": "view",
      "type": "function"
    },
    {
      "inputs": [],
      "name": "token",
      "outputs": [
        {
          "internalType": "contract IERC20",
          "name": "",
          "type": "address"
        }
      ],
      "stateMutability": "view",
      "type": "function"
    },
    {
      "inputs": [],
      "name": "tokenAddress",
      "outputs": [
        {
          "internalType": "address",
          "name": "",
          "type": "address"
        }
      ],
      "stateMutability": "view",
      "type": "function"
    },
    {
      "inputs": [],
      "name": "totalSupply",
      "outputs": [
        {
          "internalType": "uint256",
          "name": "",
          "type": "uint256"
        }
      ],
      "stateMutability": "view",
      "type": "function"
    },
    {
      "inputs": [],
      "name": "total_amount_stacked",
      "outputs": [
        {
          "internalType": "uint256",
          "name": "",
          "type": "uint256"
        }
      ],
      "stateMutability": "view",
      "type": "function"
    },
    {
      "inputs": [
        {
          "internalType": "address",
          "name": "recipient",
          "type": "address"
        },
        {
          "internalType": "uint256",
          "name": "amount",
          "type": "uint256"
        }
      ],
      "name": "transfer",
      "outputs": [
        {
          "internalType": "bool",
          "name": "",
          "type": "bool"
        }
      ],
      "stateMutability": "nonpayable",
      "type": "function"
    },
    {
      "inputs": [
        {
          "internalType": "address",
          "name": "sender",
          "type": "address"
        },
        {
          "internalType": "address",
          "name": "recipient",
          "type": "address"
        },
        {
          "internalType": "uint256",
          "name": "amount",
          "type": "uint256"
        }
      ],
      "name": "transferFrom",
      "outputs": [
        {
          "internalType": "bool",
          "name": "",
          "type": "bool"
        }
      ],
      "stateMutability": "nonpayable",
      "type": "function"
    },
    {
      "inputs": [
        {
          "internalType": "uint256",
          "name": "_id",
          "type": "uint256"
        },
        {
          "internalType": "uint256",
          "name": "_amount",
          "type": "uint256"
        }
      ],
      "name": "unpledge",
      "outputs": [],
      "stateMutability": "nonpayable",
      "type": "function"
    },
    {
      "inputs": [
        {
          "internalType": "uint256",
          "name": "initialAmount",
          "type": "uint256"
        },
        {
          "internalType": "uint256",
          "name": "_amount",
          "type": "uint256"
        },
        {
          "internalType": "uint256",
          "name": "_amountMint",
          "type": "uint256"
        },
        {
          "internalType": "address",
          "name": "adr",
          "type": "address"
        }
      ],
      "name": "withdrawStake",
      "outputs": [],
      "stateMutability": "nonpayable",
      "type": "function"
    },
    {
      "stateMutability": "payable",
      "type": "receive"
    }
  ],
  "bytecode": "0x60c06040526103e860005560006003556040518060400160405280600481526020017f5465737400000000000000000000000000000000000000000000000000000000815250600890805190602001906200005c92919062000186565b506040518060400160405280600481526020017f544553540000000000000000000000000000000000000000000000000000000081525060099080519060200190620000aa92919062000186565b506012600a60006101000a81548160ff021916908360ff160217905550348015620000d457600080fd5b5060405162003c7638038062003c768339818101604052810190620000fa9190620002a0565b60018081600181540180825580915050039060005260206000209050508073ffffffffffffffffffffffffffffffffffffffff1660808173ffffffffffffffffffffffffffffffffffffffff16815250508073ffffffffffffffffffffffffffffffffffffffff1660a08173ffffffffffffffffffffffffffffffffffffffff16815250505062000337565b828054620001949062000301565b90600052602060002090601f016020900481019282620001b8576000855562000204565b82601f10620001d357805160ff191683800117855562000204565b8280016001018555821562000204579182015b8281111562000203578251825591602001919060010190620001e6565b5b50905062000213919062000217565b5090565b5b808211156200023257600081600090555060010162000218565b5090565b600080fd5b600073ffffffffffffffffffffffffffffffffffffffff82169050919050565b600062000268826200023b565b9050919050565b6200027a816200025b565b81146200028657600080fd5b50565b6000815190506200029a816200026f565b92915050565b600060208284031215620002b957620002b862000236565b5b6000620002c98482850162000289565b91505092915050565b7f4e487b7100000000000000000000000000000000000000000000000000000000600052602260045260246000fd5b600060028204905060018216806200031a57607f821691505b60208210811415620003315762000330620002d2565b5b50919050565b60805160a0516139046200037260003960008181611c2e015261205901526000818161201d01528181612188015261276801526139046000f3fe60806040526004361061021e5760003560e01c8063711853ab11610123578063aa4fb63a116100ab578063e22f9ea61161006f578063e22f9ea614610864578063e73e14bf1461088d578063fab1e747146108ca578063fbd95a39146108f5578063fc0c546a1461091e5761025e565b8063aa4fb63a14610789578063ac44ff31146107c6578063ace1f5e1146107e2578063d3c9cc261461080b578063dd62ed3e146108275761025e565b80639358928b116100f25780639358928b146106a257806395d89b41146106cd5780639d76ea58146106f8578063a0712d6814610723578063a9059cbb1461074c5761025e565b8063711853ab146105e857806376809ce31461061157806379ebb6c41461063c5780637acb7757146106795761025e565b8063278ecde1116101a657806340e58ee51161017557806340e58ee51461051257806342966c681461053b5780635888a3e41461056457806367d759fb1461058057806370a08231146105ab5761025e565b8063278ecde1146104325780632c63f1461461045b5780633eb0db3b146104985780633f733e48146104d55761025e565b806318160ddd116101ed57806318160ddd146103395780631d6b8b72146103645780632135d109146103a157806323b872dd146103ca578063246d9fe8146104075761025e565b806306661abd1461026357806306fdde031461028e578063095ea7b3146102b9578063141961bc146102f65761025e565b3661025e577fbd0faddf87043dd749c1b9d4dca8a12589b8cb5e2106832111ce23f219b14367345a604051610254929190612a86565b60405180910390a1005b600080fd5b34801561026f57600080fd5b50610278610949565b6040516102859190612aaf565b60405180910390f35b34801561029a57600080fd5b506102a361094f565b6040516102b09190612b63565b60405180910390f35b3480156102c557600080fd5b506102e060048036038101906102db9190612c14565b6109dd565b6040516102ed9190612c6f565b60405180910390f35b34801561030257600080fd5b5061031d60048036038101906103189190612c8a565b610acf565b6040516103309796959493929190612ce5565b60405180910390f35b34801561034557600080fd5b5061034e610b5e565b60405161035b9190612aaf565b60405180910390f35b34801561037057600080fd5b5061038b60048036038101906103869190612c8a565b610b64565b6040516103989190612d54565b60405180910390f35b3480156103ad57600080fd5b506103c860048036038101906103c39190612d6f565b610bb2565b005b3480156103d657600080fd5b506103f160048036038101906103ec9190612dd6565b610c9d565b6040516103fe9190612c6f565b60405180910390f35b34801561041357600080fd5b5061041c610dbb565b6040516104299190612aaf565b60405180910390f35b34801561043e57600080fd5b5061045960048036038101906104549190612c8a565b610dc5565b005b34801561046757600080fd5b50610482600480360381019061047d9190612e55565b610f88565b60405161048f9190612aaf565b60405180910390f35b3480156104a457600080fd5b506104bf60048036038101906104ba9190612ea8565b6111d2565b6040516104cc9190612aaf565b60405180910390f35b3480156104e157600080fd5b506104fc60048036038101906104f79190612ee8565b61120b565b6040516105099190612aaf565b60405180910390f35b34801561051e57600080fd5b5061053960048036038101906105349190612c8a565b611222565b005b34801561054757600080fd5b50610562600480360381019061055d9190612c8a565b6114af565b005b61057e60048036038101906105799190612f15565b611587565b005b34801561058c57600080fd5b50610595611841565b6040516105a29190612aaf565b60405180910390f35b3480156105b757600080fd5b506105d260048036038101906105cd9190612ee8565b611847565b6040516105df9190612aaf565b60405180910390f35b3480156105f457600080fd5b5061060f600480360381019061060a9190612ea8565b61185f565b005b34801561061d57600080fd5b50610626611a56565b6040516106339190612f84565b60405180910390f35b34801561064857600080fd5b50610663600480360381019061065e9190612c14565b611a69565b6040516106709190612aaf565b60405180910390f35b34801561068557600080fd5b506106a0600480360381019061069b9190612f9f565b611a9a565b005b3480156106ae57600080fd5b506106b7611b98565b6040516106c49190612aaf565b60405180910390f35b3480156106d957600080fd5b506106e2611b9e565b6040516106ef9190612b63565b60405180910390f35b34801561070457600080fd5b5061070d611c2c565b60405161071a9190612d54565b60405180910390f35b34801561072f57600080fd5b5061074a60048036038101906107459190612c8a565b611c50565b005b34801561075857600080fd5b50610773600480360381019061076e9190612c14565b611d28565b6040516107809190612c6f565b60405180910390f35b34801561079557600080fd5b506107b060048036038101906107ab9190612f9f565b611e45565b6040516107bd9190612aaf565b60405180910390f35b6107e060048036038101906107db9190612f15565b611e6a565b005b3480156107ee57600080fd5b5061080960048036038101906108049190612f9f565b611f88565b005b61082560048036038101906108209190612c8a565b612186565b005b34801561083357600080fd5b5061084e60048036038101906108499190612fdf565b612216565b60405161085b9190612aaf565b60405180910390f35b34801561087057600080fd5b5061088b60048036038101906108869190612c14565b61223b565b005b34801561089957600080fd5b506108b460048036038101906108af9190612ee8565b6123f8565b6040516108c19190612aaf565b60405180910390f35b3480156108d657600080fd5b506108df61262a565b6040516108ec9190612aaf565b60405180910390f35b34801561090157600080fd5b5061091c60048036038101906109179190612dd6565b612630565b005b34801561092a57600080fd5b50610933612766565b604051610940919061307e565b60405180910390f35b600c5481565b6008805461095c906130c8565b80601f0160208091040260200160405190810160405280929190818152602001828054610988906130c8565b80156109d55780601f106109aa576101008083540402835291602001916109d5565b820191906000526020600020905b8154815290600101906020018083116109b857829003601f168201915b505050505081565b600081600760003373ffffffffffffffffffffffffffffffffffffffff1673ffffffffffffffffffffffffffffffffffffffff16815260200190815260200160002060008573ffffffffffffffffffffffffffffffffffffffff1673ffffffffffffffffffffffffffffffffffffffff168152602001908152602001600020819055508273ffffffffffffffffffffffffffffffffffffffff163373ffffffffffffffffffffffffffffffffffffffff167f8c5be1e5ebec7d5bd14f71427d1e84f3dd0314c0f7b2291e5b200ac8c7c3b92584604051610abd9190612aaf565b60405180910390a36001905092915050565b600d6020528060005260406000206000915090508060000160009054906101000a900473ffffffffffffffffffffffffffffffffffffffff16908060010154908060020154908060030154908060040160009054906101000a900463ffffffff16908060040160049054906101000a900463ffffffff16908060040160089054906101000a900460ff16905087565b60045481565b60018181548110610b7457600080fd5b90600052602060002090600202016000915090508060000160009054906101000a900473ffffffffffffffffffffffffffffffffffffffff16905081565b6004548210610bf6576040517f08c379a0000000000000000000000000000000000000000000000000000000008152600401610bed90613146565b60405180910390fd5b81600660008373ffffffffffffffffffffffffffffffffffffffff1673ffffffffffffffffffffffffffffffffffffffff1681526020019081526020016000206000828254610c459190613195565b925050819055508260046000828254610c5e91906131eb565b925050819055508160056000828254610c779190613195565b925050819055508360036000828254610c9091906131eb565b9250508190555050505050565b600081600660008673ffffffffffffffffffffffffffffffffffffffff1673ffffffffffffffffffffffffffffffffffffffff1681526020019081526020016000206000828254610cee91906131eb565b9250508190555081600660008573ffffffffffffffffffffffffffffffffffffffff1673ffffffffffffffffffffffffffffffffffffffff1681526020019081526020016000206000828254610d449190613195565b925050819055508273ffffffffffffffffffffffffffffffffffffffff168473ffffffffffffffffffffffffffffffffffffffff167fddf252ad1be2c89b69c2b068fc378daa952ba7f163c4a11628f55a4df523b3ef84604051610da89190612aaf565b60405180910390a3600190509392505050565b6000600354905090565b6000600d600083815260200190815260200160002090506000600e600084815260200190815260200160002060003373ffffffffffffffffffffffffffffffffffffffff1673ffffffffffffffffffffffffffffffffffffffff16815260200190815260200160002054905060003373ffffffffffffffffffffffffffffffffffffffff1682604051610e5790613250565b60006040518083038185875af1925050503d8060008114610e94576040519150601f19603f3d011682016040523d82523d6000602084013e610e99565b606091505b5050905080610edd576040517f08c379a0000000000000000000000000000000000000000000000000000000008152600401610ed4906132b1565b60405180910390fd5b6000600e600086815260200190815260200160002060003373ffffffffffffffffffffffffffffffffffffffff1673ffffffffffffffffffffffffffffffffffffffff168152602001908152602001600020819055503373ffffffffffffffffffffffffffffffffffffffff16847f21e12a7cad0da5928167e1084ea4d5fdf8d9af66657a2543a9ac76a0ca08147784604051610f7a9190612aaf565b60405180910390a350505050565b6000428363ffffffff161015610fd3576040517f08c379a0000000000000000000000000000000000000000000000000000000008152600401610fca9061331d565b60405180910390fd5b8263ffffffff168263ffffffff161015611022576040517f08c379a000000000000000000000000000000000000000000000000000000000815260040161101990613389565b60405180910390fd5b6276a700426110319190613195565b8263ffffffff161115611079576040517f08c379a0000000000000000000000000000000000000000000000000000000008152600401611070906133f5565b60405180910390fd5b6001600c600082825461108c9190613195565b925050819055506000600d6000600c5481526020019081526020016000209050338160000160006101000a81548173ffffffffffffffffffffffffffffffffffffffff021916908373ffffffffffffffffffffffffffffffffffffffff1602179055506000816001018190555084816002018190555060008160030181905550838160040160006101000a81548163ffffffff021916908363ffffffff160217905550828160040160046101000a81548163ffffffff021916908363ffffffff16021790555060008160040160086101000a81548160ff0219169083151502179055503373ffffffffffffffffffffffffffffffffffffffff167f0601cd0d650b473037e838a2696d41e654433d065b3f56b28d1d3302e44a304f600c548787876040516111bd9493929190613415565b60405180910390a2600c549150509392505050565b6000805482603c85426111e591906131eb565b6111ef9190613489565b6111f991906134ba565b6112039190613489565b905092915050565b600080611217836123f8565b905080915050919050565b6000600d60008381526020019081526020016000206040518060e00160405290816000820160009054906101000a900473ffffffffffffffffffffffffffffffffffffffff1673ffffffffffffffffffffffffffffffffffffffff1673ffffffffffffffffffffffffffffffffffffffff1681526020016001820154815260200160028201548152602001600382015481526020016004820160009054906101000a900463ffffffff1663ffffffff1663ffffffff1681526020016004820160049054906101000a900463ffffffff1663ffffffff1663ffffffff1681526020016004820160089054906101000a900460ff1615151515815250509050806000015173ffffffffffffffffffffffffffffffffffffffff163373ffffffffffffffffffffffffffffffffffffffff1614611391576040517f08c379a000000000000000000000000000000000000000000000000000000000815260040161138890613560565b60405180910390fd5b806080015163ffffffff1642106113dd576040517f08c379a00000000000000000000000000000000000000000000000000000000081526004016113d4906135cc565b60405180910390fd5b600d6000838152602001908152602001600020600080820160006101000a81549073ffffffffffffffffffffffffffffffffffffffff02191690556001820160009055600282016000905560038201600090556004820160006101000a81549063ffffffff02191690556004820160046101000a81549063ffffffff02191690556004820160086101000a81549060ff021916905550507f8bf30e7ff26833413be5f69e1d373744864d600b664204b4a2f9844a8eedb9ed826040516114a39190612aaf565b60405180910390a15050565b80600660003373ffffffffffffffffffffffffffffffffffffffff1673ffffffffffffffffffffffffffffffffffffffff16815260200190815260200160002060008282546114fe91906131eb565b92505081905550806005600082825461151791906131eb565b92505081905550600073ffffffffffffffffffffffffffffffffffffffff163373ffffffffffffffffffffffffffffffffffffffff167fddf252ad1be2c89b69c2b068fc378daa952ba7f163c4a11628f55a4df523b3ef8360405161157c9190612aaf565b60405180910390a350565b6000600d60008581526020019081526020016000209050600083116115e1576040517f08c379a00000000000000000000000000000000000000000000000000000000081526004016115d890613638565b60405180910390fd5b6000600e600086815260200190815260200160002060003373ffffffffffffffffffffffffffffffffffffffff1673ffffffffffffffffffffffffffffffffffffffff1681526020019081526020016000205414156116bd57600181600101600082825461164f9190613195565b92505081905550600f60008373ffffffffffffffffffffffffffffffffffffffff1673ffffffffffffffffffffffffffffffffffffffff1681526020019081526020016000208490806001815401808255809150506001900390600052602060002001600090919091909150555b60003073ffffffffffffffffffffffffffffffffffffffff16846040516116e390613250565b60006040518083038185875af1925050503d8060008114611720576040519150601f19603f3d011682016040523d82523d6000602084013e611725565b606091505b5050905080611769576040517f08c379a0000000000000000000000000000000000000000000000000000000008152600401611760906132b1565b60405180910390fd5b8382600301600082825461177d9190613195565b9250508190555083600e600087815260200190815260200160002060003373ffffffffffffffffffffffffffffffffffffffff1673ffffffffffffffffffffffffffffffffffffffff16815260200190815260200160002060008282546117e49190613195565b925050819055503373ffffffffffffffffffffffffffffffffffffffff16857f06bdb975df800a73232998e71ed585d536222f1dfeaa622d7f62a23ada686c82866040516118329190612aaf565b60405180910390a35050505050565b60035481565b60066020528060005260406000206000915090505481565b6000600d600084815260200190815260200160002090508060040160049054906101000a900463ffffffff1663ffffffff164211156118d3576040517f08c379a00000000000000000000000000000000000000000000000000000000081526004016118ca906136a4565b60405180910390fd5b60003373ffffffffffffffffffffffffffffffffffffffff16836040516118f990613250565b60006040518083038185875af1925050503d8060008114611936576040519150601f19603f3d011682016040523d82523d6000602084013e61193b565b606091505b505090508061197f576040517f08c379a0000000000000000000000000000000000000000000000000000000008152600401611976906132b1565b60405180910390fd5b8282600301600082825461199391906131eb565b9250508190555082600e600086815260200190815260200160002060003373ffffffffffffffffffffffffffffffffffffffff1673ffffffffffffffffffffffffffffffffffffffff16815260200190815260200160002060008282546119fa91906131eb565b925050819055503373ffffffffffffffffffffffffffffffffffffffff16847f2eeeab891b26a214d1b25749f88a406bdea852bd8c9bfda977e0ef8114c180ba85604051611a489190612aaf565b60405180910390a350505050565b600a60009054906101000a900460ff1681565b600f6020528160005260406000208181548110611a8557600080fd5b90600052602060002001600091509150505481565b600660008273ffffffffffffffffffffffffffffffffffffffff1673ffffffffffffffffffffffffffffffffffffffff16815260200190815260200160002054821115611b1c576040517f08c379a0000000000000000000000000000000000000000000000000000000008152600401611b1390613710565b60405180910390fd5b611b258261278a565b81600660008373ffffffffffffffffffffffffffffffffffffffff1673ffffffffffffffffffffffffffffffffffffffff1681526020019081526020016000206000828254611b7491906131eb565b925050819055508160056000828254611b8d91906131eb565b925050819055505050565b60055481565b60098054611bab906130c8565b80601f0160208091040260200160405190810160405280929190818152602001828054611bd7906130c8565b8015611c245780601f10611bf957610100808354040283529160200191611c24565b820191906000526020600020905b815481529060010190602001808311611c0757829003601f168201915b505050505081565b7f000000000000000000000000000000000000000000000000000000000000000081565b80600660003073ffffffffffffffffffffffffffffffffffffffff1673ffffffffffffffffffffffffffffffffffffffff1681526020019081526020016000206000828254611c9f9190613195565b925050819055508060046000828254611cb89190613195565b925050819055503073ffffffffffffffffffffffffffffffffffffffff16600073ffffffffffffffffffffffffffffffffffffffff167fddf252ad1be2c89b69c2b068fc378daa952ba7f163c4a11628f55a4df523b3ef83604051611d1d9190612aaf565b60405180910390a350565b600081600660003373ffffffffffffffffffffffffffffffffffffffff1673ffffffffffffffffffffffffffffffffffffffff1681526020019081526020016000206000828254611d7991906131eb565b9250508190555081600660008573ffffffffffffffffffffffffffffffffffffffff1673ffffffffffffffffffffffffffffffffffffffff1681526020019081526020016000206000828254611dcf9190613195565b925050819055508273ffffffffffffffffffffffffffffffffffffffff163373ffffffffffffffffffffffffffffffffffffffff167fddf252ad1be2c89b69c2b068fc378daa952ba7f163c4a11628f55a4df523b3ef84604051611e339190612aaf565b60405180910390a36001905092915050565b600e602052816000526040600020602052806000526040600020600091509150505481565b6000600d6000858152602001908152602001600020905060008273ffffffffffffffffffffffffffffffffffffffff1684604051611ea790613250565b60006040518083038185875af1925050503d8060008114611ee4576040519150601f19603f3d011682016040523d82523d6000602084013e611ee9565b606091505b5050905080611f2d576040517f08c379a0000000000000000000000000000000000000000000000000000000008152600401611f24906132b1565b60405180910390fd5b60018260040160086101000a81548160ff0219169083151502179055507f7bb2b3c10797baccb6f8c4791f1edd6ca2f0d028ee0eda64b01a9a57e3a653f785604051611f799190612aaf565b60405180910390a15050505050565b6000600e600084815260200190815260200160002060008373ffffffffffffffffffffffffffffffffffffffff1673ffffffffffffffffffffffffffffffffffffffff168152602001908152602001600020541161201b576040517f08c379a00000000000000000000000000000000000000000000000000000000081526004016120129061377c565b60405180910390fd5b7f000000000000000000000000000000000000000000000000000000000000000073ffffffffffffffffffffffffffffffffffffffff1663fbd95a397f00000000000000000000000000000000000000000000000000000000000000008366038d7ea4c68000600e600088815260200190815260200160002060008773ffffffffffffffffffffffffffffffffffffffff1673ffffffffffffffffffffffffffffffffffffffff168152602001908152602001600020546120dc9190613489565b6040518463ffffffff1660e01b81526004016120fa9392919061379c565b600060405180830381600087803b15801561211457600080fd5b505af1158015612128573d6000803e3d6000fd5b505050506000600e600084815260200190815260200160002060008373ffffffffffffffffffffffffffffffffffffffff1673ffffffffffffffffffffffffffffffffffffffff168152602001908152602001600020819055505050565b7f000000000000000000000000000000000000000000000000000000000000000073ffffffffffffffffffffffffffffffffffffffff1663e22f9ea630836040518363ffffffff1660e01b81526004016121e19291906137d3565b600060405180830381600087803b1580156121fb57600080fd5b505af115801561220f573d6000803e3d6000fd5b5050505050565b6007602052816000526040600020602052806000526040600020600091509150505481565b7f909c57d5c6ac08245cf2a6de3900e2b868513fa59099b92b27d8db823d92df9c600660003073ffffffffffffffffffffffffffffffffffffffff1673ffffffffffffffffffffffffffffffffffffffff168152602001908152602001600020546040516122a99190612aaf565b60405180910390a180600660003073ffffffffffffffffffffffffffffffffffffffff1673ffffffffffffffffffffffffffffffffffffffff168152602001908152602001600020600082825461230091906131eb565b9250508190555080600660008473ffffffffffffffffffffffffffffffffffffffff1673ffffffffffffffffffffffffffffffffffffffff16815260200190815260200160002060008282546123569190613195565b92505081905550806004600082825461236f91906131eb565b9250508190555080600560008282546123889190613195565b925050819055508173ffffffffffffffffffffffffffffffffffffffff163073ffffffffffffffffffffffffffffffffffffffff167fddf252ad1be2c89b69c2b068fc378daa952ba7f163c4a11628f55a4df523b3ef836040516123ec9190612aaf565b60405180910390a35050565b60008060006040518060400160405280600081526020016001600260008873ffffffffffffffffffffffffffffffffffffffff1673ffffffffffffffffffffffffffffffffffffffff1681526020019081526020016000205481548110612462576124616137fc565b5b9060005260206000209060020201600101805480602002602001604051908101604052809291908181526020016000905b8282101561253957838290600052602060002090600402016040518060800160405290816000820160009054906101000a900473ffffffffffffffffffffffffffffffffffffffff1673ffffffffffffffffffffffffffffffffffffffff1673ffffffffffffffffffffffffffffffffffffffff168152602001600182015481526020016002820154815260200160038201548152505081526020019060010190612493565b50505050815250905060005b8160200151518110156126115760006125a28360200151838151811061256e5761256d6137fc565b5b60200260200101516040015184602001518481518110612591576125906137fc565b5b6020026020010151602001516111d2565b905080836020015183815181106125bc576125bb6137fc565b5b60200260200101516060018181525050826020015182815181106125e3576125e26137fc565b5b602002602001015160600151846125fa9190613195565b93505060018161260a9190613195565b9050612545565b5081816000018181525050806000015192505050919050565b600b5481565b8060045411612674576040517f08c379a000000000000000000000000000000000000000000000000000000000815260040161266b90613146565b60405180910390fd5b806004600082825461268691906131eb565b92505081905550806005600082825461269f9190613195565b9250508190555080600660008473ffffffffffffffffffffffffffffffffffffffff1673ffffffffffffffffffffffffffffffffffffffff16815260200190815260200160002060008282546126f59190613195565b925050819055508173ffffffffffffffffffffffffffffffffffffffff168373ffffffffffffffffffffffffffffffffffffffff167fddf252ad1be2c89b69c2b068fc378daa952ba7f163c4a11628f55a4df523b3ef836040516127599190612aaf565b60405180910390a3505050565b7f000000000000000000000000000000000000000000000000000000000000000081565b600081116127cd576040517f08c379a00000000000000000000000000000000000000000000000000000000081526004016127c490613877565b60405180910390fd5b6000600260003373ffffffffffffffffffffffffffffffffffffffff1673ffffffffffffffffffffffffffffffffffffffff1681526020019081526020016000205490506000429050600082141561282b5761282833612988565b91505b6001828154811061283f5761283e6137fc565b5b906000526020600020906002020160010160405180608001604052803373ffffffffffffffffffffffffffffffffffffffff1681526020018581526020018381526020016000815250908060018154018082558091505060019003906000526020600020906004020160009091909190915060008201518160000160006101000a81548173ffffffffffffffffffffffffffffffffffffffff021916908373ffffffffffffffffffffffffffffffffffffffff1602179055506020820151816001015560408201518160020155606082015181600301555050826003600082825461292a9190613195565b925050819055503373ffffffffffffffffffffffffffffffffffffffff167fb4caaf29adda3eefee3ad552a8e85058589bf834c7466cae4ee58787f70589ed84848460405161297b93929190613897565b60405180910390a2505050565b600060018081600181540180825580915050039060005260206000209050506000600180805490506129ba91906131eb565b905082600182815481106129d1576129d06137fc565b5b906000526020600020906002020160000160006101000a81548173ffffffffffffffffffffffffffffffffffffffff021916908373ffffffffffffffffffffffffffffffffffffffff16021790555080600260008573ffffffffffffffffffffffffffffffffffffffff1673ffffffffffffffffffffffffffffffffffffffff1681526020019081526020016000208190555080915050919050565b6000819050919050565b612a8081612a6d565b82525050565b6000604082019050612a9b6000830185612a77565b612aa86020830184612a77565b9392505050565b6000602082019050612ac46000830184612a77565b92915050565b600081519050919050565b600082825260208201905092915050565b60005b83811015612b04578082015181840152602081019050612ae9565b83811115612b13576000848401525b50505050565b6000601f19601f8301169050919050565b6000612b3582612aca565b612b3f8185612ad5565b9350612b4f818560208601612ae6565b612b5881612b19565b840191505092915050565b60006020820190508181036000830152612b7d8184612b2a565b905092915050565b600080fd5b600073ffffffffffffffffffffffffffffffffffffffff82169050919050565b6000612bb582612b8a565b9050919050565b612bc581612baa565b8114612bd057600080fd5b50565b600081359050612be281612bbc565b92915050565b612bf181612a6d565b8114612bfc57600080fd5b50565b600081359050612c0e81612be8565b92915050565b60008060408385031215612c2b57612c2a612b85565b5b6000612c3985828601612bd3565b9250506020612c4a85828601612bff565b9150509250929050565b60008115159050919050565b612c6981612c54565b82525050565b6000602082019050612c846000830184612c60565b92915050565b600060208284031215612ca057612c9f612b85565b5b6000612cae84828501612bff565b91505092915050565b612cc081612baa565b82525050565b600063ffffffff82169050919050565b612cdf81612cc6565b82525050565b600060e082019050612cfa600083018a612cb7565b612d076020830189612a77565b612d146040830188612a77565b612d216060830187612a77565b612d2e6080830186612cd6565b612d3b60a0830185612cd6565b612d4860c0830184612c60565b98975050505050505050565b6000602082019050612d696000830184612cb7565b92915050565b60008060008060808587031215612d8957612d88612b85565b5b6000612d9787828801612bff565b9450506020612da887828801612bff565b9350506040612db987828801612bff565b9250506060612dca87828801612bd3565b91505092959194509250565b600080600060608486031215612def57612dee612b85565b5b6000612dfd86828701612bd3565b9350506020612e0e86828701612bd3565b9250506040612e1f86828701612bff565b9150509250925092565b612e3281612cc6565b8114612e3d57600080fd5b50565b600081359050612e4f81612e29565b92915050565b600080600060608486031215612e6e57612e6d612b85565b5b6000612e7c86828701612bff565b9350506020612e8d86828701612e40565b9250506040612e9e86828701612e40565b9150509250925092565b60008060408385031215612ebf57612ebe612b85565b5b6000612ecd85828601612bff565b9250506020612ede85828601612bff565b9150509250929050565b600060208284031215612efe57612efd612b85565b5b6000612f0c84828501612bd3565b91505092915050565b600080600060608486031215612f2e57612f2d612b85565b5b6000612f3c86828701612bff565b9350506020612f4d86828701612bff565b9250506040612f5e86828701612bd3565b9150509250925092565b600060ff82169050919050565b612f7e81612f68565b82525050565b6000602082019050612f996000830184612f75565b92915050565b60008060408385031215612fb657612fb5612b85565b5b6000612fc485828601612bff565b9250506020612fd585828601612bd3565b9150509250929050565b60008060408385031215612ff657612ff5612b85565b5b600061300485828601612bd3565b925050602061301585828601612bd3565b9150509250929050565b6000819050919050565b600061304461303f61303a84612b8a565b61301f565b612b8a565b9050919050565b600061305682613029565b9050919050565b60006130688261304b565b9050919050565b6130788161305d565b82525050565b6000602082019050613093600083018461306f565b92915050565b7f4e487b7100000000000000000000000000000000000000000000000000000000600052602260045260246000fd5b600060028204905060018216806130e057607f821691505b602082108114156130f4576130f3613099565b5b50919050565b7f4e6f7420656e6f75676820737570706c79000000000000000000000000000000600082015250565b6000613130601183612ad5565b915061313b826130fa565b602082019050919050565b6000602082019050818103600083015261315f81613123565b9050919050565b7f4e487b7100000000000000000000000000000000000000000000000000000000600052601160045260246000fd5b60006131a082612a6d565b91506131ab83612a6d565b9250827fffffffffffffffffffffffffffffffffffffffffffffffffffffffffffffffff038211156131e0576131df613166565b5b828201905092915050565b60006131f682612a6d565b915061320183612a6d565b92508282101561321457613213613166565b5b828203905092915050565b600081905092915050565b50565b600061323a60008361321f565b91506132458261322a565b600082019050919050565b600061325b8261322d565b9150819050919050565b7f43616c6c206661696c6564000000000000000000000000000000000000000000600082015250565b600061329b600b83612ad5565b91506132a682613265565b602082019050919050565b600060208201905081810360008301526132ca8161328e565b9050919050565b7f5374617274206174203c206e6f77000000000000000000000000000000000000600082015250565b6000613307600e83612ad5565b9150613312826132d1565b602082019050919050565b60006020820190508181036000830152613336816132fa565b9050919050565b7f656e64206174203c207374617274206174000000000000000000000000000000600082015250565b6000613373601183612ad5565b915061337e8261333d565b602082019050919050565b600060208201905081810360008301526133a281613366565b9050919050565b7f656e64206174203e206d6178206475726174696f6e0000000000000000000000600082015250565b60006133df601583612ad5565b91506133ea826133a9565b602082019050919050565b6000602082019050818103600083015261340e816133d2565b9050919050565b600060808201905061342a6000830187612a77565b6134376020830186612a77565b6134446040830185612cd6565b6134516060830184612cd6565b95945050505050565b7f4e487b7100000000000000000000000000000000000000000000000000000000600052601260045260246000fd5b600061349482612a6d565b915061349f83612a6d565b9250826134af576134ae61345a565b5b828204905092915050565b60006134c582612a6d565b91506134d083612a6d565b9250817fffffffffffffffffffffffffffffffffffffffffffffffffffffffffffffffff048311821515161561350957613508613166565b5b828202905092915050565b7f4e6f742063726561746f72000000000000000000000000000000000000000000600082015250565b600061354a600b83612ad5565b915061355582613514565b602082019050919050565b600060208201905081810360008301526135798161353d565b9050919050565b7f7374617274656400000000000000000000000000000000000000000000000000600082015250565b60006135b6600783612ad5565b91506135c182613580565b602082019050919050565b600060208201905081810360008301526135e5816135a9565b9050919050565b7f416d6f756e742073686f756c6420626520626967676572207468616e20300000600082015250565b6000613622601e83612ad5565b915061362d826135ec565b602082019050919050565b6000602082019050818103600083015261365181613615565b9050919050565b7f456e646564000000000000000000000000000000000000000000000000000000600082015250565b600061368e600583612ad5565b915061369982613658565b602082019050919050565b600060208201905081810360008301526136bd81613681565b9050919050565b7f4e6f7420656e6f75676820746f6b656e73000000000000000000000000000000600082015250565b60006136fa601183612ad5565b9150613705826136c4565b602082019050919050565b60006020820190508181036000830152613729816136ed565b9050919050565b7f4e6f7468696e6720706c65646765640000000000000000000000000000000000600082015250565b6000613766600f83612ad5565b915061377182613730565b602082019050919050565b6000602082019050818103600083015261379581613759565b9050919050565b60006060820190506137b16000830186612cb7565b6137be6020830185612cb7565b6137cb6040830184612a77565b949350505050565b60006040820190506137e86000830185612cb7565b6137f56020830184612a77565b9392505050565b7f4e487b7100000000000000000000000000000000000000000000000000000000600052603260045260246000fd5b7f43616e6e6f74207374616b65206e6f7468696e67000000000000000000000000600082015250565b6000613861601483612ad5565b915061386c8261382b565b602082019050919050565b6000602082019050818103600083015261389081613854565b9050919050565b60006060820190506138ac6000830186612a77565b6138b96020830185612a77565b6138c66040830184612a77565b94935050505056fea2646970667358221220852a0222008bf1c1b24ef2f9264fe1c55cd7fda55f1b67be0c5b975bc2e0574064736f6c634300080a0033",
  "linkReferences": {},
  "deployedLinkReferences": {}
}