{
  "_format": "hh-sol-artifact-1",
  "contractName": "Crowdfund",
  "sourceName": "contracts/Crowdfund.sol",
  "abi": [
    {
      "inputs": [
        {
          "internalType": "address",
          "name": "_token",
          "type": "address"
        }
      ],
      "stateMutability": "nonpayable",
      "type": "constructor"
    },
    {
      "anonymous": false,
      "inputs": [
        {
          "indexed": true,
          "internalType": "address",
          "name": "owner",
          "type": "address"
        },
        {
          "indexed": true,
          "internalType": "address",
          "name": "sender",
          "type": "address"
        },
        {
          "indexed": false,
          "internalType": "uint256",
          "name": "amount",
          "type": "uint256"
        }
      ],
      "name": "Approval",
      "type": "event"
    },
    {
      "anonymous": false,
      "inputs": [
        {
          "indexed": false,
          "internalType": "uint256",
          "name": "id",
          "type": "uint256"
        }
      ],
      "name": "Cancel",
      "type": "event"
    },
    {
      "anonymous": false,
      "inputs": [
        {
          "indexed": false,
          "internalType": "uint256",
          "name": "id",
          "type": "uint256"
        }
      ],
      "name": "Claim",
      "type": "event"
    },
    {
      "anonymous": false,
      "inputs": [
        {
          "indexed": false,
          "internalType": "uint256",
          "name": "id",
          "type": "uint256"
        },
        {
          "indexed": true,
          "internalType": "address",
          "name": "creator",
          "type": "address"
        },
        {
          "indexed": false,
          "internalType": "uint256",
          "name": "goal",
          "type": "uint256"
        },
        {
          "indexed": false,
          "internalType": "uint32",
          "name": "startAt",
          "type": "uint32"
        },
        {
          "indexed": false,
          "internalType": "uint32",
          "name": "endAt",
          "type": "uint32"
        }
      ],
      "name": "Launch",
      "type": "event"
    },
    {
      "anonymous": false,
      "inputs": [
        {
          "indexed": false,
          "internalType": "uint256",
          "name": "amount",
          "type": "uint256"
        },
        {
          "indexed": false,
          "internalType": "uint256",
          "name": "gas",
          "type": "uint256"
        }
      ],
      "name": "Log",
      "type": "event"
    },
    {
      "anonymous": false,
      "inputs": [
        {
          "indexed": false,
          "internalType": "uint256",
          "name": "amount",
          "type": "uint256"
        }
      ],
      "name": "Log",
      "type": "event"
    },
    {
      "anonymous": false,
      "inputs": [
        {
          "indexed": true,
          "internalType": "uint256",
          "name": "id",
          "type": "uint256"
        },
        {
          "indexed": true,
          "internalType": "address",
          "name": "caller",
          "type": "address"
        },
        {
          "indexed": false,
          "internalType": "uint256",
          "name": "amount",
          "type": "uint256"
        }
      ],
      "name": "Pledge",
      "type": "event"
    },
    {
      "anonymous": false,
      "inputs": [
        {
          "indexed": true,
          "internalType": "uint256",
          "name": "id",
          "type": "uint256"
        },
        {
          "indexed": true,
          "internalType": "address",
          "name": "caller",
          "type": "address"
        },
        {
          "indexed": false,
          "internalType": "uint256",
          "name": "amount",
          "type": "uint256"
        }
      ],
      "name": "Refund",
      "type": "event"
    },
    {
      "anonymous": false,
      "inputs": [
        {
          "indexed": true,
          "internalType": "address",
          "name": "user",
          "type": "address"
        },
        {
          "indexed": false,
          "internalType": "uint256",
          "name": "amount",
          "type": "uint256"
        },
        {
          "indexed": false,
          "internalType": "uint256",
          "name": "index",
          "type": "uint256"
        },
        {
          "indexed": false,
          "internalType": "uint256",
          "name": "timestamp",
          "type": "uint256"
        }
      ],
      "name": "Staked",
      "type": "event"
    },
    {
      "anonymous": false,
      "inputs": [
        {
          "indexed": true,
          "internalType": "address",
          "name": "from",
          "type": "address"
        },
        {
          "indexed": true,
          "internalType": "address",
          "name": "to",
          "type": "address"
        },
        {
          "indexed": false,
          "internalType": "uint256",
          "name": "amount",
          "type": "uint256"
        }
      ],
      "name": "Transfer",
      "type": "event"
    },
    {
      "anonymous": false,
      "inputs": [
        {
          "indexed": true,
          "internalType": "uint256",
          "name": "id",
          "type": "uint256"
        },
        {
          "indexed": true,
          "internalType": "address",
          "name": "caller",
          "type": "address"
        },
        {
          "indexed": false,
          "internalType": "uint256",
          "name": "amount",
          "type": "uint256"
        }
      ],
      "name": "Unpledge",
      "type": "event"
    },
    {
      "inputs": [
        {
          "internalType": "address",
          "name": "",
          "type": "address"
        },
        {
          "internalType": "address",
          "name": "",
          "type": "address"
        }
      ],
      "name": "allowance",
      "outputs": [
        {
          "internalType": "uint256",
          "name": "",
          "type": "uint256"
        }
      ],
      "stateMutability": "view",
      "type": "function"
    },
    {
      "inputs": [],
      "name": "amountStaked",
      "outputs": [
        {
          "internalType": "uint256",
          "name": "",
          "type": "uint256"
        }
      ],
      "stateMutability": "view",
      "type": "function"
    },
    {
      "inputs": [
        {
          "internalType": "address",
          "name": "sender",
          "type": "address"
        },
        {
          "internalType": "uint256",
          "name": "amount",
          "type": "uint256"
        }
      ],
      "name": "approve",
      "outputs": [
        {
          "internalType": "bool",
          "name": "",
          "type": "bool"
        }
      ],
      "stateMutability": "nonpayable",
      "type": "function"
    },
    {
      "inputs": [
        {
          "internalType": "address",
          "name": "",
          "type": "address"
        }
      ],
      "name": "balanceOf",
      "outputs": [
        {
          "internalType": "uint256",
          "name": "",
          "type": "uint256"
        }
      ],
      "stateMutability": "view",
      "type": "function"
    },
    {
      "inputs": [
        {
          "internalType": "uint256",
          "name": "amount",
          "type": "uint256"
        }
      ],
      "name": "burn",
      "outputs": [],
      "stateMutability": "nonpayable",
      "type": "function"
    },
    {
      "inputs": [
        {
          "internalType": "uint256",
          "name": "",
          "type": "uint256"
        }
      ],
      "name": "campaigns",
      "outputs": [
        {
          "internalType": "address",
          "name": "creator",
          "type": "address"
        },
        {
          "internalType": "uint256",
          "name": "numberOfInvestors",
          "type": "uint256"
        },
        {
          "internalType": "uint256",
          "name": "goal",
          "type": "uint256"
        },
        {
          "internalType": "uint256",
          "name": "pledged",
          "type": "uint256"
        },
        {
          "internalType": "uint32",
          "name": "startAt",
          "type": "uint32"
        },
        {
          "internalType": "uint32",
          "name": "endAt",
          "type": "uint32"
        },
        {
          "internalType": "bool",
          "name": "claimed",
          "type": "bool"
        }
      ],
      "stateMutability": "view",
      "type": "function"
    },
    {
      "inputs": [
        {
          "internalType": "uint256",
          "name": "_id",
          "type": "uint256"
        }
      ],
      "name": "cancel",
      "outputs": [],
      "stateMutability": "nonpayable",
      "type": "function"
    },
    {
      "inputs": [],
      "name": "circulatingSupply",
      "outputs": [
        {
          "internalType": "uint256",
          "name": "",
          "type": "uint256"
        }
      ],
      "stateMutability": "view",
      "type": "function"
    },
    {
      "inputs": [
        {
          "internalType": "uint256",
          "name": "_id",
          "type": "uint256"
        }
      ],
      "name": "claim",
      "outputs": [],
      "stateMutability": "payable",
      "type": "function"
    },
    {
      "inputs": [
        {
          "internalType": "uint256",
          "name": "_id",
          "type": "uint256"
        }
      ],
      "name": "claimShares",
      "outputs": [],
      "stateMutability": "nonpayable",
      "type": "function"
    },
    {
      "inputs": [],
      "name": "count",
      "outputs": [
        {
          "internalType": "uint256",
          "name": "",
          "type": "uint256"
        }
      ],
      "stateMutability": "view",
      "type": "function"
    },
    {
      "inputs": [],
      "name": "decimal",
      "outputs": [
        {
          "internalType": "uint8",
          "name": "",
          "type": "uint8"
        }
      ],
      "stateMutability": "view",
      "type": "function"
    },
    {
      "inputs": [
        {
          "internalType": "address",
          "name": "_staker",
          "type": "address"
        }
      ],
      "name": "getSummary",
      "outputs": [
        {
          "components": [
            {
              "internalType": "address",
              "name": "user",
              "type": "address"
            },
            {
              "components": [
                {
                  "internalType": "address",
                  "name": "user",
                  "type": "address"
                },
                {
                  "internalType": "uint256",
                  "name": "amount",
                  "type": "uint256"
                },
                {
                  "internalType": "uint256",
                  "name": "since",
                  "type": "uint256"
                },
                {
                  "internalType": "uint256",
                  "name": "claimable",
                  "type": "uint256"
                }
              ],
              "internalType": "struct Staking.Stake[]",
              "name": "address_stakes",
              "type": "tuple[]"
            }
          ],
          "internalType": "struct Staking.Stakeholder",
          "name": "",
          "type": "tuple"
        }
      ],
      "stateMutability": "view",
      "type": "function"
    },
    {
      "inputs": [],
      "name": "getSummary",
      "outputs": [],
      "stateMutability": "nonpayable",
      "type": "function"
    },
    {
      "inputs": [
        {
          "internalType": "uint256",
          "name": "amount",
          "type": "uint256"
        }
      ],
      "name": "getTokens",
      "outputs": [],
      "stateMutability": "payable",
      "type": "function"
    },
    {
      "inputs": [
        {
          "internalType": "address",
          "name": "_staker",
          "type": "address"
        }
      ],
      "name": "hasStake",
      "outputs": [
        {
          "internalType": "uint256",
          "name": "",
          "type": "uint256"
        }
      ],
      "stateMutability": "view",
      "type": "function"
    },
    {
      "inputs": [
        {
          "internalType": "uint256",
          "name": "_goal",
          "type": "uint256"
        },
        {
          "internalType": "uint32",
          "name": "_startAt",
          "type": "uint32"
        },
        {
          "internalType": "uint32",
          "name": "_endAt",
          "type": "uint32"
        }
      ],
      "name": "launch",
      "outputs": [
        {
          "internalType": "uint256",
          "name": "",
          "type": "uint256"
        }
      ],
      "stateMutability": "nonpayable",
      "type": "function"
    },
    {
      "inputs": [
        {
          "internalType": "uint256",
          "name": "amount",
          "type": "uint256"
        }
      ],
      "name": "mint",
      "outputs": [],
      "stateMutability": "nonpayable",
      "type": "function"
    },
    {
      "inputs": [],
      "name": "name",
      "outputs": [
        {
          "internalType": "string",
          "name": "",
          "type": "string"
        }
      ],
      "stateMutability": "view",
      "type": "function"
    },
    {
      "inputs": [
        {
          "internalType": "uint256",
          "name": "_id",
          "type": "uint256"
        },
        {
          "internalType": "uint256",
          "name": "_amount",
          "type": "uint256"
        }
      ],
      "name": "pledge",
      "outputs": [],
      "stateMutability": "payable",
      "type": "function"
    },
    {
      "inputs": [
        {
          "internalType": "uint256",
          "name": "",
          "type": "uint256"
        },
        {
          "internalType": "address",
          "name": "",
          "type": "address"
        }
      ],
      "name": "pledgedAmount",
      "outputs": [
        {
          "internalType": "uint256",
          "name": "",
          "type": "uint256"
        }
      ],
      "stateMutability": "view",
      "type": "function"
    },
    {
      "inputs": [
        {
          "internalType": "uint256",
          "name": "_id",
          "type": "uint256"
        }
      ],
      "name": "refund",
      "outputs": [],
      "stateMutability": "nonpayable",
      "type": "function"
    },
    {
      "inputs": [
        {
          "internalType": "address",
          "name": "sender",
          "type": "address"
        },
        {
          "internalType": "address",
          "name": "recipient",
          "type": "address"
        },
        {
          "internalType": "uint256",
          "name": "amount",
          "type": "uint256"
        }
      ],
      "name": "sendToAddress",
      "outputs": [],
      "stateMutability": "nonpayable",
      "type": "function"
    },
    {
      "inputs": [
        {
          "internalType": "address",
          "name": "recipient",
          "type": "address"
        },
        {
          "internalType": "uint256",
          "name": "amount",
          "type": "uint256"
        }
      ],
      "name": "sendToContract",
      "outputs": [],
      "stateMutability": "nonpayable",
      "type": "function"
    },
    {
      "inputs": [
        {
          "internalType": "uint256",
          "name": "_amount",
          "type": "uint256"
        }
      ],
      "name": "stake",
      "outputs": [],
      "stateMutability": "nonpayable",
      "type": "function"
    },
    {
      "inputs": [],
      "name": "stakerSummart",
      "outputs": [
        {
          "components": [
            {
              "internalType": "address",
              "name": "user",
              "type": "address"
            },
            {
              "components": [
                {
                  "internalType": "address",
                  "name": "user",
                  "type": "address"
                },
                {
                  "internalType": "uint256",
                  "name": "amount",
                  "type": "uint256"
                },
                {
                  "internalType": "uint256",
                  "name": "since",
                  "type": "uint256"
                },
                {
                  "internalType": "uint256",
                  "name": "claimable",
                  "type": "uint256"
                }
              ],
              "internalType": "struct Staking.Stake[]",
              "name": "address_stakes",
              "type": "tuple[]"
            }
          ],
          "internalType": "struct Staking.Stakeholder",
          "name": "",
          "type": "tuple"
        }
      ],
      "stateMutability": "view",
      "type": "function"
    },
    {
      "inputs": [],
      "name": "symbol",
      "outputs": [
        {
          "internalType": "string",
          "name": "",
          "type": "string"
        }
      ],
      "stateMutability": "view",
      "type": "function"
    },
    {
      "inputs": [],
      "name": "token",
      "outputs": [
        {
          "internalType": "contract IERC20",
          "name": "",
          "type": "address"
        }
      ],
      "stateMutability": "view",
      "type": "function"
    },
    {
      "inputs": [],
      "name": "tokenAddress",
      "outputs": [
        {
          "internalType": "address",
          "name": "",
          "type": "address"
        }
      ],
      "stateMutability": "view",
      "type": "function"
    },
    {
      "inputs": [],
      "name": "totalSupply",
      "outputs": [
        {
          "internalType": "uint256",
          "name": "",
          "type": "uint256"
        }
      ],
      "stateMutability": "view",
      "type": "function"
    },
    {
      "inputs": [
        {
          "internalType": "address",
          "name": "recipient",
          "type": "address"
        },
        {
          "internalType": "uint256",
          "name": "amount",
          "type": "uint256"
        }
      ],
      "name": "transfer",
      "outputs": [
        {
          "internalType": "bool",
          "name": "",
          "type": "bool"
        }
      ],
      "stateMutability": "nonpayable",
      "type": "function"
    },
    {
      "inputs": [
        {
          "internalType": "address",
          "name": "sender",
          "type": "address"
        },
        {
          "internalType": "address",
          "name": "recipient",
          "type": "address"
        },
        {
          "internalType": "uint256",
          "name": "amount",
          "type": "uint256"
        }
      ],
      "name": "transferFrom",
      "outputs": [
        {
          "internalType": "bool",
          "name": "",
          "type": "bool"
        }
      ],
      "stateMutability": "nonpayable",
      "type": "function"
    },
    {
      "inputs": [
        {
          "internalType": "uint256",
          "name": "_id",
          "type": "uint256"
        },
        {
          "internalType": "uint256",
          "name": "_amount",
          "type": "uint256"
        }
      ],
      "name": "unpledge",
      "outputs": [],
      "stateMutability": "nonpayable",
      "type": "function"
    },
    {
      "inputs": [
        {
          "internalType": "uint256",
          "name": "_amount",
          "type": "uint256"
        },
        {
          "internalType": "uint256",
          "name": "stake_index",
          "type": "uint256"
        }
      ],
      "name": "withdrawStake",
      "outputs": [],
      "stateMutability": "nonpayable",
      "type": "function"
    },
    {
      "stateMutability": "payable",
      "type": "receive"
    }
  ],
  "bytecode": "0x60c06040526103e86000556040518060400160405280600481526020017f5465737400000000000000000000000000000000000000000000000000000000815250600790805190602001906200005792919062000181565b506040518060400160405280600481526020017f544553540000000000000000000000000000000000000000000000000000000081525060089080519060200190620000a592919062000181565b506012600960006101000a81548160ff021916908360ff160217905550348015620000cf57600080fd5b5060405162004363380380620043638339818101604052810190620000f591906200029b565b60018081600181540180825580915050039060005260206000209050508073ffffffffffffffffffffffffffffffffffffffff1660808173ffffffffffffffffffffffffffffffffffffffff16815250508073ffffffffffffffffffffffffffffffffffffffff1660a08173ffffffffffffffffffffffffffffffffffffffff16815250505062000332565b8280546200018f90620002fc565b90600052602060002090601f016020900481019282620001b35760008555620001ff565b82601f10620001ce57805160ff1916838001178555620001ff565b82800160010185558215620001ff579182015b82811115620001fe578251825591602001919060010190620001e1565b5b5090506200020e919062000212565b5090565b5b808211156200022d57600081600090555060010162000213565b5090565b600080fd5b600073ffffffffffffffffffffffffffffffffffffffff82169050919050565b6000620002638262000236565b9050919050565b620002758162000256565b81146200028157600080fd5b50565b60008151905062000295816200026a565b92915050565b600060208284031215620002b457620002b362000231565b5b6000620002c48482850162000284565b91505092915050565b7f4e487b7100000000000000000000000000000000000000000000000000000000600052602260045260246000fd5b600060028204905060018216806200031557607f821691505b602082108114156200032c576200032b620002cd565b5b50919050565b60805160a051613ffd620003666000396000611b75015260008181611f5b0152818161204f01526126510152613ffd6000f3fe6080604052600436106101fd5760003560e01c80639358928b1161010d578063d3c9cc26116100a0578063f1fdf4691161006f578063f1fdf46914610799578063fab1e747146107c2578063fbd95a39146107ed578063fc0c546a14610816578063fde327be146108415761023d565b8063d3c9cc26146106da578063dd62ed3e146106f6578063e22f9ea614610733578063e73e14bf1461075c5761023d565b8063a694fc3a116100dc578063a694fc3a1461060e578063a9059cbb14610637578063aa4fb63a14610674578063c68e45b7146106b15761023d565b80639358928b1461056457806395d89b411461058f5780639d76ea58146105ba578063a0712d68146105e55761023d565b806336e4392b1161019057806340e58ee51161015f57806340e58ee51461048157806342966c68146104aa57806370a08231146104d3578063711853ab1461051057806376809ce3146105395761023d565b806336e4392b146103e6578063379607f5146104115780633f733e481461042d5780634051ddac1461046a5761023d565b806318160ddd116101cc57806318160ddd1461031857806323b872dd14610343578063278ecde1146103805780632c63f146146103a95761023d565b806306661abd1461024257806306fdde031461026d578063095ea7b314610298578063141961bc146102d55761023d565b3661023d577fbd0faddf87043dd749c1b9d4dca8a12589b8cb5e2106832111ce23f219b14367345a604051610233929190612ee2565b60405180910390a1005b600080fd5b34801561024e57600080fd5b5061025761085d565b6040516102649190612f0b565b60405180910390f35b34801561027957600080fd5b50610282610863565b60405161028f9190612fbf565b60405180910390f35b3480156102a457600080fd5b506102bf60048036038101906102ba9190613070565b6108f1565b6040516102cc91906130cb565b60405180910390f35b3480156102e157600080fd5b506102fc60048036038101906102f791906130e6565b6109e3565b60405161030f9796959493929190613141565b60405180910390f35b34801561032457600080fd5b5061032d610a72565b60405161033a9190612f0b565b60405180910390f35b34801561034f57600080fd5b5061036a600480360381019061036591906131b0565b610a78565b60405161037791906130cb565b60405180910390f35b34801561038c57600080fd5b506103a760048036038101906103a291906130e6565b610c29565b005b3480156103b557600080fd5b506103d060048036038101906103cb919061322f565b610e92565b6040516103dd9190612f0b565b60405180910390f35b3480156103f257600080fd5b506103fb6110dc565b60405161040891906133e1565b60405180910390f35b61042b600480360381019061042691906130e6565b6110f2565b005b34801561043957600080fd5b50610454600480360381019061044f9190613403565b61139d565b60405161046191906133e1565b60405180910390f35b34801561047657600080fd5b5061047f611541565b005b34801561048d57600080fd5b506104a860048036038101906104a391906130e6565b611558565b005b3480156104b657600080fd5b506104d160048036038101906104cc91906130e6565b6117e5565b005b3480156104df57600080fd5b506104fa60048036038101906104f59190613403565b6118bd565b6040516105079190612f0b565b60405180910390f35b34801561051c57600080fd5b5061053760048036038101906105329190613430565b6118d5565b005b34801561054557600080fd5b5061054e611acc565b60405161055b919061348c565b60405180910390f35b34801561057057600080fd5b50610579611adf565b6040516105869190612f0b565b60405180910390f35b34801561059b57600080fd5b506105a4611ae5565b6040516105b19190612fbf565b60405180910390f35b3480156105c657600080fd5b506105cf611b73565b6040516105dc91906134a7565b60405180910390f35b3480156105f157600080fd5b5061060c600480360381019061060791906130e6565b611b97565b005b34801561061a57600080fd5b50610635600480360381019061063091906130e6565b611c88565b005b34801561064357600080fd5b5061065e60048036038101906106599190613070565b611d84565b60405161066b91906130cb565b60405180910390f35b34801561068057600080fd5b5061069b600480360381019061069691906134c2565b611ea1565b6040516106a89190612f0b565b60405180910390f35b3480156106bd57600080fd5b506106d860048036038101906106d391906130e6565b611ec6565b005b6106f460048036038101906106ef91906130e6565b61204d565b005b34801561070257600080fd5b5061071d60048036038101906107189190613502565b6120dd565b60405161072a9190612f0b565b60405180910390f35b34801561073f57600080fd5b5061075a60048036038101906107559190613070565b612102565b005b34801561076857600080fd5b50610783600480360381019061077e9190613403565b61228d565b6040516107909190612f0b565b60405180910390f35b3480156107a557600080fd5b506107c060048036038101906107bb9190613430565b612498565b005b3480156107ce57600080fd5b506107d7612533565b6040516107e49190612f0b565b60405180910390f35b3480156107f957600080fd5b50610814600480360381019061080f91906131b0565b612539565b005b34801561082257600080fd5b5061082b61264f565b60405161083891906135a1565b60405180910390f35b61085b60048036038101906108569190613430565b612673565b005b600b5481565b60078054610870906135eb565b80601f016020809104026020016040519081016040528092919081815260200182805461089c906135eb565b80156108e95780601f106108be576101008083540402835291602001916108e9565b820191906000526020600020905b8154815290600101906020018083116108cc57829003601f168201915b505050505081565b600081600660003373ffffffffffffffffffffffffffffffffffffffff1673ffffffffffffffffffffffffffffffffffffffff16815260200190815260200160002060008573ffffffffffffffffffffffffffffffffffffffff1673ffffffffffffffffffffffffffffffffffffffff168152602001908152602001600020819055508273ffffffffffffffffffffffffffffffffffffffff163373ffffffffffffffffffffffffffffffffffffffff167f8c5be1e5ebec7d5bd14f71427d1e84f3dd0314c0f7b2291e5b200ac8c7c3b925846040516109d19190612f0b565b60405180910390a36001905092915050565b600c6020528060005260406000206000915090508060000160009054906101000a900473ffffffffffffffffffffffffffffffffffffffff16908060010154908060020154908060030154908060040160009054906101000a900463ffffffff16908060040160049054906101000a900463ffffffff16908060040160089054906101000a900460ff16905087565b60035481565b600081600660008673ffffffffffffffffffffffffffffffffffffffff1673ffffffffffffffffffffffffffffffffffffffff16815260200190815260200160002060003373ffffffffffffffffffffffffffffffffffffffff1673ffffffffffffffffffffffffffffffffffffffff1681526020019081526020016000206000828254610b06919061364c565b9250508190555081600560008673ffffffffffffffffffffffffffffffffffffffff1673ffffffffffffffffffffffffffffffffffffffff1681526020019081526020016000206000828254610b5c919061364c565b9250508190555081600560008573ffffffffffffffffffffffffffffffffffffffff1673ffffffffffffffffffffffffffffffffffffffff1681526020019081526020016000206000828254610bb29190613680565b925050819055508273ffffffffffffffffffffffffffffffffffffffff168473ffffffffffffffffffffffffffffffffffffffff167fddf252ad1be2c89b69c2b068fc378daa952ba7f163c4a11628f55a4df523b3ef84604051610c169190612f0b565b60405180910390a3600190509392505050565b6000600c600083815260200190815260200160002090508060040160049054906101000a900463ffffffff1663ffffffff164211610c9c576040517f08c379a0000000000000000000000000000000000000000000000000000000008152600401610c9390613722565b60405180910390fd5b8060020154816003015410610ce6576040517f08c379a0000000000000000000000000000000000000000000000000000000008152600401610cdd9061378e565b60405180910390fd5b6000600d600084815260200190815260200160002060003373ffffffffffffffffffffffffffffffffffffffff1673ffffffffffffffffffffffffffffffffffffffff16815260200190815260200160002054905060003373ffffffffffffffffffffffffffffffffffffffff1682604051610d61906137df565b60006040518083038185875af1925050503d8060008114610d9e576040519150601f19603f3d011682016040523d82523d6000602084013e610da3565b606091505b5050905080610de7576040517f08c379a0000000000000000000000000000000000000000000000000000000008152600401610dde90613840565b60405180910390fd5b6000600d600086815260200190815260200160002060003373ffffffffffffffffffffffffffffffffffffffff1673ffffffffffffffffffffffffffffffffffffffff168152602001908152602001600020819055503373ffffffffffffffffffffffffffffffffffffffff16847f21e12a7cad0da5928167e1084ea4d5fdf8d9af66657a2543a9ac76a0ca08147784604051610e849190612f0b565b60405180910390a350505050565b6000428363ffffffff161015610edd576040517f08c379a0000000000000000000000000000000000000000000000000000000008152600401610ed4906138ac565b60405180910390fd5b8263ffffffff168263ffffffff161015610f2c576040517f08c379a0000000000000000000000000000000000000000000000000000000008152600401610f2390613918565b60405180910390fd5b6276a70042610f3b9190613680565b8263ffffffff161115610f83576040517f08c379a0000000000000000000000000000000000000000000000000000000008152600401610f7a90613984565b60405180910390fd5b6001600b6000828254610f969190613680565b925050819055506000600c6000600b5481526020019081526020016000209050338160000160006101000a81548173ffffffffffffffffffffffffffffffffffffffff021916908373ffffffffffffffffffffffffffffffffffffffff1602179055506000816001018190555084816002018190555060008160030181905550838160040160006101000a81548163ffffffff021916908363ffffffff160217905550828160040160046101000a81548163ffffffff021916908363ffffffff16021790555060008160040160086101000a81548160ff0219169083151502179055503373ffffffffffffffffffffffffffffffffffffffff167f0601cd0d650b473037e838a2696d41e654433d065b3f56b28d1d3302e44a304f600b548787876040516110c794939291906139a4565b60405180910390a2600b549150509392505050565b6110e4612e99565b6110ed3361139d565b905090565b6000600c600083815260200190815260200160002090508060000160009054906101000a900473ffffffffffffffffffffffffffffffffffffffff1673ffffffffffffffffffffffffffffffffffffffff163373ffffffffffffffffffffffffffffffffffffffff161461119b576040517f08c379a000000000000000000000000000000000000000000000000000000000815260040161119290613a35565b60405180910390fd5b8060040160049054906101000a900463ffffffff1663ffffffff1642116111f7576040517f08c379a00000000000000000000000000000000000000000000000000000000081526004016111ee90613722565b60405180910390fd5b806002015481600301541015611242576040517f08c379a000000000000000000000000000000000000000000000000000000000815260040161123990613aa1565b60405180910390fd5b8060040160089054906101000a900460ff1615611294576040517f08c379a000000000000000000000000000000000000000000000000000000000815260040161128b90613b0d565b60405180910390fd5b60003373ffffffffffffffffffffffffffffffffffffffff1682600301546040516112be906137df565b60006040518083038185875af1925050503d80600081146112fb576040519150601f19603f3d011682016040523d82523d6000602084013e611300565b606091505b5050905080611344576040517f08c379a000000000000000000000000000000000000000000000000000000000815260040161133b90613840565b60405180910390fd5b60018260040160086101000a81548160ff0219169083151502179055507f7bb2b3c10797baccb6f8c4791f1edd6ca2f0d028ee0eda64b01a9a57e3a653f7836040516113909190612f0b565b60405180910390a1505050565b6113a5612e99565b6001600260008473ffffffffffffffffffffffffffffffffffffffff1673ffffffffffffffffffffffffffffffffffffffff16815260200190815260200160002054815481106113f8576113f7613b2d565b5b90600052602060002090600202016040518060400160405290816000820160009054906101000a900473ffffffffffffffffffffffffffffffffffffffff1673ffffffffffffffffffffffffffffffffffffffff1673ffffffffffffffffffffffffffffffffffffffff16815260200160018201805480602002602001604051908101604052809291908181526020016000905b8282101561153257838290600052602060002090600402016040518060800160405290816000820160009054906101000a900473ffffffffffffffffffffffffffffffffffffffff1673ffffffffffffffffffffffffffffffffffffffff1673ffffffffffffffffffffffffffffffffffffffff16815260200160018201548152602001600282015481526020016003820154815250508152602001906001019061148c565b50505050815250509050919050565b600061154c3361228d565b905080600a8190555050565b6000600c60008381526020019081526020016000206040518060e00160405290816000820160009054906101000a900473ffffffffffffffffffffffffffffffffffffffff1673ffffffffffffffffffffffffffffffffffffffff1673ffffffffffffffffffffffffffffffffffffffff1681526020016001820154815260200160028201548152602001600382015481526020016004820160009054906101000a900463ffffffff1663ffffffff1663ffffffff1681526020016004820160049054906101000a900463ffffffff1663ffffffff1663ffffffff1681526020016004820160089054906101000a900460ff1615151515815250509050806000015173ffffffffffffffffffffffffffffffffffffffff163373ffffffffffffffffffffffffffffffffffffffff16146116c7576040517f08c379a00000000000000000000000000000000000000000000000000000000081526004016116be90613a35565b60405180910390fd5b806080015163ffffffff164210611713576040517f08c379a000000000000000000000000000000000000000000000000000000000815260040161170a90613ba8565b60405180910390fd5b600c6000838152602001908152602001600020600080820160006101000a81549073ffffffffffffffffffffffffffffffffffffffff02191690556001820160009055600282016000905560038201600090556004820160006101000a81549063ffffffff02191690556004820160046101000a81549063ffffffff02191690556004820160086101000a81549060ff021916905550507f8bf30e7ff26833413be5f69e1d373744864d600b664204b4a2f9844a8eedb9ed826040516117d99190612f0b565b60405180910390a15050565b80600560003373ffffffffffffffffffffffffffffffffffffffff1673ffffffffffffffffffffffffffffffffffffffff1681526020019081526020016000206000828254611834919061364c565b92505081905550806004600082825461184d919061364c565b92505081905550600073ffffffffffffffffffffffffffffffffffffffff163373ffffffffffffffffffffffffffffffffffffffff167fddf252ad1be2c89b69c2b068fc378daa952ba7f163c4a11628f55a4df523b3ef836040516118b29190612f0b565b60405180910390a350565b60056020528060005260406000206000915090505481565b6000600c600084815260200190815260200160002090508060040160049054906101000a900463ffffffff1663ffffffff16421115611949576040517f08c379a000000000000000000000000000000000000000000000000000000000815260040161194090613c14565b60405180910390fd5b60003373ffffffffffffffffffffffffffffffffffffffff168360405161196f906137df565b60006040518083038185875af1925050503d80600081146119ac576040519150601f19603f3d011682016040523d82523d6000602084013e6119b1565b606091505b50509050806119f5576040517f08c379a00000000000000000000000000000000000000000000000000000000081526004016119ec90613840565b60405180910390fd5b82826003016000828254611a09919061364c565b9250508190555082600d600086815260200190815260200160002060003373ffffffffffffffffffffffffffffffffffffffff1673ffffffffffffffffffffffffffffffffffffffff1681526020019081526020016000206000828254611a70919061364c565b925050819055503373ffffffffffffffffffffffffffffffffffffffff16847f2eeeab891b26a214d1b25749f88a406bdea852bd8c9bfda977e0ef8114c180ba85604051611abe9190612f0b565b60405180910390a350505050565b600960009054906101000a900460ff1681565b60045481565b60088054611af2906135eb565b80601f0160208091040260200160405190810160405280929190818152602001828054611b1e906135eb565b8015611b6b5780601f10611b4057610100808354040283529160200191611b6b565b820191906000526020600020905b815481529060010190602001808311611b4e57829003601f168201915b505050505081565b7f000000000000000000000000000000000000000000000000000000000000000081565b80600560003073ffffffffffffffffffffffffffffffffffffffff1673ffffffffffffffffffffffffffffffffffffffff1681526020019081526020016000206000828254611be69190613680565b925050819055508060036000828254611bff9190613680565b925050819055508060046000828254611c189190613680565b925050819055503073ffffffffffffffffffffffffffffffffffffffff16600073ffffffffffffffffffffffffffffffffffffffff167fddf252ad1be2c89b69c2b068fc378daa952ba7f163c4a11628f55a4df523b3ef83604051611c7d9190612f0b565b60405180910390a350565b600560003373ffffffffffffffffffffffffffffffffffffffff1673ffffffffffffffffffffffffffffffffffffffff168152602001908152602001600020548110611d09576040517f08c379a0000000000000000000000000000000000000000000000000000000008152600401611d0090613c80565b60405180910390fd5b611d12816128c6565b80600560003373ffffffffffffffffffffffffffffffffffffffff1673ffffffffffffffffffffffffffffffffffffffff1681526020019081526020016000206000828254611d61919061364c565b925050819055508060046000828254611d7a919061364c565b9250508190555050565b600081600560003373ffffffffffffffffffffffffffffffffffffffff1673ffffffffffffffffffffffffffffffffffffffff1681526020019081526020016000206000828254611dd5919061364c565b9250508190555081600560008573ffffffffffffffffffffffffffffffffffffffff1673ffffffffffffffffffffffffffffffffffffffff1681526020019081526020016000206000828254611e2b9190613680565b925050819055508273ffffffffffffffffffffffffffffffffffffffff163373ffffffffffffffffffffffffffffffffffffffff167fddf252ad1be2c89b69c2b068fc378daa952ba7f163c4a11628f55a4df523b3ef84604051611e8f9190612f0b565b60405180910390a36001905092915050565b600d602052816000526040600020602052806000526040600020600091509150505481565b6000600d600083815260200190815260200160002060003373ffffffffffffffffffffffffffffffffffffffff1673ffffffffffffffffffffffffffffffffffffffff1681526020019081526020016000205411611f59576040517f08c379a0000000000000000000000000000000000000000000000000000000008152600401611f5090613cec565b60405180910390fd5b7f000000000000000000000000000000000000000000000000000000000000000073ffffffffffffffffffffffffffffffffffffffff1663fbd95a393033662386f26fc10000600d600087815260200190815260200160002060003373ffffffffffffffffffffffffffffffffffffffff1673ffffffffffffffffffffffffffffffffffffffff16815260200190815260200160002054611ffa9190613d3b565b6040518463ffffffff1660e01b815260040161201893929190613d6c565b600060405180830381600087803b15801561203257600080fd5b505af1158015612046573d6000803e3d6000fd5b5050505050565b7f000000000000000000000000000000000000000000000000000000000000000073ffffffffffffffffffffffffffffffffffffffff1663e22f9ea630836040518363ffffffff1660e01b81526004016120a8929190613da3565b600060405180830381600087803b1580156120c257600080fd5b505af11580156120d6573d6000803e3d6000fd5b5050505050565b6006602052816000526040600020602052806000526040600020600091509150505481565b7f909c57d5c6ac08245cf2a6de3900e2b868513fa59099b92b27d8db823d92df9c600560003073ffffffffffffffffffffffffffffffffffffffff1673ffffffffffffffffffffffffffffffffffffffff168152602001908152602001600020546040516121709190612f0b565b60405180910390a180600560003073ffffffffffffffffffffffffffffffffffffffff1673ffffffffffffffffffffffffffffffffffffffff16815260200190815260200160002060008282546121c7919061364c565b9250508190555080600560008473ffffffffffffffffffffffffffffffffffffffff1673ffffffffffffffffffffffffffffffffffffffff168152602001908152602001600020600082825461221d9190613680565b925050819055508173ffffffffffffffffffffffffffffffffffffffff163073ffffffffffffffffffffffffffffffffffffffff167fddf252ad1be2c89b69c2b068fc378daa952ba7f163c4a11628f55a4df523b3ef836040516122819190612f0b565b60405180910390a35050565b60008060006040518060400160405280600081526020016001600260008873ffffffffffffffffffffffffffffffffffffffff1673ffffffffffffffffffffffffffffffffffffffff16815260200190815260200160002054815481106122f7576122f6613b2d565b5b9060005260206000209060020201600101805480602002602001604051908101604052809291908181526020016000905b828210156123ce57838290600052602060002090600402016040518060800160405290816000820160009054906101000a900473ffffffffffffffffffffffffffffffffffffffff1673ffffffffffffffffffffffffffffffffffffffff1673ffffffffffffffffffffffffffffffffffffffff168152602001600182015481526020016002820154815260200160038201548152505081526020019060010190612328565b50505050815250905060005b81602001515181101561247f5760006124108360200151838151811061240357612402613b2d565b5b6020026020010151612aab565b9050808360200151838151811061242a57612429613b2d565b5b602002602001015160600181815250508260200151828151811061245157612450613b2d565b5b602002602001015160600151846124689190613680565b9350506001816124789190613680565b90506123da565b5081816000018181525050806000015192505050919050565b60006124a48383612aeb565b905080600560003373ffffffffffffffffffffffffffffffffffffffff1673ffffffffffffffffffffffffffffffffffffffff16815260200190815260200160002060008282546124f59190613680565b92505081905550806003600082825461250e9190613680565b9250508190555080600460008282546125279190613680565b92505081905550505050565b600a5481565b80600560008573ffffffffffffffffffffffffffffffffffffffff1673ffffffffffffffffffffffffffffffffffffffff1681526020019081526020016000206000828254612588919061364c565b9250508190555080600560008473ffffffffffffffffffffffffffffffffffffffff1673ffffffffffffffffffffffffffffffffffffffff16815260200190815260200160002060008282546125de9190613680565b925050819055508173ffffffffffffffffffffffffffffffffffffffff168373ffffffffffffffffffffffffffffffffffffffff167fddf252ad1be2c89b69c2b068fc378daa952ba7f163c4a11628f55a4df523b3ef836040516126429190612f0b565b60405180910390a3505050565b7f000000000000000000000000000000000000000000000000000000000000000081565b6000600c60008481526020019081526020016000209050600082116126cd576040517f08c379a00000000000000000000000000000000000000000000000000000000081526004016126c490613e18565b60405180910390fd5b6000600d600085815260200190815260200160002060003373ffffffffffffffffffffffffffffffffffffffff1673ffffffffffffffffffffffffffffffffffffffff16815260200190815260200160002054141561274357600181600101600082825461273b9190613680565b925050819055505b60003073ffffffffffffffffffffffffffffffffffffffff1683604051612769906137df565b60006040518083038185875af1925050503d80600081146127a6576040519150601f19603f3d011682016040523d82523d6000602084013e6127ab565b606091505b50509050806127ef576040517f08c379a00000000000000000000000000000000000000000000000000000000081526004016127e690613840565b60405180910390fd5b828260030160008282546128039190613680565b9250508190555082600d600086815260200190815260200160002060003373ffffffffffffffffffffffffffffffffffffffff1673ffffffffffffffffffffffffffffffffffffffff168152602001908152602001600020600082825461286a9190613680565b925050819055503373ffffffffffffffffffffffffffffffffffffffff16847f06bdb975df800a73232998e71ed585d536222f1dfeaa622d7f62a23ada686c82856040516128b89190612f0b565b60405180910390a350505050565b60008111612909576040517f08c379a000000000000000000000000000000000000000000000000000000000815260040161290090613e84565b60405180910390fd5b6000600260003373ffffffffffffffffffffffffffffffffffffffff1673ffffffffffffffffffffffffffffffffffffffff168152602001908152602001600020549050600042905060008214156129675761296433612db4565b91505b6001828154811061297b5761297a613b2d565b5b906000526020600020906002020160010160405180608001604052803373ffffffffffffffffffffffffffffffffffffffff1681526020018581526020018381526020016000815250908060018154018082558091505060019003906000526020600020906004020160009091909190915060008201518160000160006101000a81548173ffffffffffffffffffffffffffffffffffffffff021916908373ffffffffffffffffffffffffffffffffffffffff16021790555060208201518160010155604082015181600201556060820151816003015550503373ffffffffffffffffffffffffffffffffffffffff167fb4caaf29adda3eefee3ad552a8e85058589bf834c7466cae4ee58787f70589ed848484604051612a9e93929190613ea4565b60405180910390a2505050565b600080548260200151603c846040015142612ac6919061364c565b612ad09190613d3b565b612ada9190613edb565b612ae49190613d3b565b9050919050565b600080600260003373ffffffffffffffffffffffffffffffffffffffff1673ffffffffffffffffffffffffffffffffffffffff168152602001908152602001600020549050600060018281548110612b4657612b45613b2d565b5b90600052602060002090600202016001018481548110612b6957612b68613b2d565b5b90600052602060002090600402016040518060800160405290816000820160009054906101000a900473ffffffffffffffffffffffffffffffffffffffff1673ffffffffffffffffffffffffffffffffffffffff1673ffffffffffffffffffffffffffffffffffffffff168152602001600182015481526020016002820154815260200160038201548152505090508481602001511015612c3f576040517f08c379a0000000000000000000000000000000000000000000000000000000008152600401612c3690613fa7565b60405180910390fd5b6000612c4a82612aab565b9050858260200151612c5c919061364c565b826020018181525050600082602001511415612cfe5760018381548110612c8657612c85613b2d565b5b90600052602060002090600202016001018581548110612ca957612ca8613b2d565b5b9060005260206000209060040201600080820160006101000a81549073ffffffffffffffffffffffffffffffffffffffff02191690556001820160009055600282016000905560038201600090555050612d9d565b816020015160018481548110612d1757612d16613b2d565b5b90600052602060002090600202016001018681548110612d3a57612d39613b2d565b5b9060005260206000209060040201600101819055504260018481548110612d6457612d63613b2d565b5b90600052602060002090600202016001018681548110612d8757612d86613b2d565b5b9060005260206000209060040201600201819055505b8086612da99190613680565b935050505092915050565b60006001808160018154018082558091505003906000526020600020905050600060018080549050612de6919061364c565b90508260018281548110612dfd57612dfc613b2d565b5b906000526020600020906002020160000160006101000a81548173ffffffffffffffffffffffffffffffffffffffff021916908373ffffffffffffffffffffffffffffffffffffffff16021790555080600260008573ffffffffffffffffffffffffffffffffffffffff1673ffffffffffffffffffffffffffffffffffffffff1681526020019081526020016000208190555080915050919050565b6040518060400160405280600073ffffffffffffffffffffffffffffffffffffffff168152602001606081525090565b6000819050919050565b612edc81612ec9565b82525050565b6000604082019050612ef76000830185612ed3565b612f046020830184612ed3565b9392505050565b6000602082019050612f206000830184612ed3565b92915050565b600081519050919050565b600082825260208201905092915050565b60005b83811015612f60578082015181840152602081019050612f45565b83811115612f6f576000848401525b50505050565b6000601f19601f8301169050919050565b6000612f9182612f26565b612f9b8185612f31565b9350612fab818560208601612f42565b612fb481612f75565b840191505092915050565b60006020820190508181036000830152612fd98184612f86565b905092915050565b600080fd5b600073ffffffffffffffffffffffffffffffffffffffff82169050919050565b600061301182612fe6565b9050919050565b61302181613006565b811461302c57600080fd5b50565b60008135905061303e81613018565b92915050565b61304d81612ec9565b811461305857600080fd5b50565b60008135905061306a81613044565b92915050565b6000806040838503121561308757613086612fe1565b5b60006130958582860161302f565b92505060206130a68582860161305b565b9150509250929050565b60008115159050919050565b6130c5816130b0565b82525050565b60006020820190506130e060008301846130bc565b92915050565b6000602082840312156130fc576130fb612fe1565b5b600061310a8482850161305b565b91505092915050565b61311c81613006565b82525050565b600063ffffffff82169050919050565b61313b81613122565b82525050565b600060e082019050613156600083018a613113565b6131636020830189612ed3565b6131706040830188612ed3565b61317d6060830187612ed3565b61318a6080830186613132565b61319760a0830185613132565b6131a460c08301846130bc565b98975050505050505050565b6000806000606084860312156131c9576131c8612fe1565b5b60006131d78682870161302f565b93505060206131e88682870161302f565b92505060406131f98682870161305b565b9150509250925092565b61320c81613122565b811461321757600080fd5b50565b60008135905061322981613203565b92915050565b60008060006060848603121561324857613247612fe1565b5b60006132568682870161305b565b93505060206132678682870161321a565b92505060406132788682870161321a565b9150509250925092565b61328b81613006565b82525050565b600081519050919050565b600082825260208201905092915050565b6000819050602082019050919050565b6132c681612ec9565b82525050565b6080820160008201516132e26000850182613282565b5060208201516132f560208501826132bd565b50604082015161330860408501826132bd565b50606082015161331b60608501826132bd565b50505050565b600061332d83836132cc565b60808301905092915050565b6000602082019050919050565b600061335182613291565b61335b818561329c565b9350613366836132ad565b8060005b8381101561339757815161337e8882613321565b975061338983613339565b92505060018101905061336a565b5085935050505092915050565b60006040830160008301516133bc6000860182613282565b50602083015184820360208601526133d48282613346565b9150508091505092915050565b600060208201905081810360008301526133fb81846133a4565b905092915050565b60006020828403121561341957613418612fe1565b5b60006134278482850161302f565b91505092915050565b6000806040838503121561344757613446612fe1565b5b60006134558582860161305b565b92505060206134668582860161305b565b9150509250929050565b600060ff82169050919050565b61348681613470565b82525050565b60006020820190506134a1600083018461347d565b92915050565b60006020820190506134bc6000830184613113565b92915050565b600080604083850312156134d9576134d8612fe1565b5b60006134e78582860161305b565b92505060206134f88582860161302f565b9150509250929050565b6000806040838503121561351957613518612fe1565b5b60006135278582860161302f565b92505060206135388582860161302f565b9150509250929050565b6000819050919050565b600061356761356261355d84612fe6565b613542565b612fe6565b9050919050565b60006135798261354c565b9050919050565b600061358b8261356e565b9050919050565b61359b81613580565b82525050565b60006020820190506135b66000830184613592565b92915050565b7f4e487b7100000000000000000000000000000000000000000000000000000000600052602260045260246000fd5b6000600282049050600182168061360357607f821691505b60208210811415613617576136166135bc565b5b50919050565b7f4e487b7100000000000000000000000000000000000000000000000000000000600052601160045260246000fd5b600061365782612ec9565b915061366283612ec9565b9250828210156136755761367461361d565b5b828203905092915050565b600061368b82612ec9565b915061369683612ec9565b9250827fffffffffffffffffffffffffffffffffffffffffffffffffffffffffffffffff038211156136cb576136ca61361d565b5b828201905092915050565b7f4e6f7420656e6465640000000000000000000000000000000000000000000000600082015250565b600061370c600983612f31565b9150613717826136d6565b602082019050919050565b6000602082019050818103600083015261373b816136ff565b9050919050565b7f706c6564676564203c20676f616c000000000000000000000000000000000000600082015250565b6000613778600e83612f31565b915061378382613742565b602082019050919050565b600060208201905081810360008301526137a78161376b565b9050919050565b600081905092915050565b50565b60006137c96000836137ae565b91506137d4826137b9565b600082019050919050565b60006137ea826137bc565b9150819050919050565b7f43616c6c206661696c6564000000000000000000000000000000000000000000600082015250565b600061382a600b83612f31565b9150613835826137f4565b602082019050919050565b600060208201905081810360008301526138598161381d565b9050919050565b7f5374617274206174203c206e6f77000000000000000000000000000000000000600082015250565b6000613896600e83612f31565b91506138a182613860565b602082019050919050565b600060208201905081810360008301526138c581613889565b9050919050565b7f656e64206174203c207374617274206174000000000000000000000000000000600082015250565b6000613902601183612f31565b915061390d826138cc565b602082019050919050565b60006020820190508181036000830152613931816138f5565b9050919050565b7f656e64206174203e206d6178206475726174696f6e0000000000000000000000600082015250565b600061396e601583612f31565b915061397982613938565b602082019050919050565b6000602082019050818103600083015261399d81613961565b9050919050565b60006080820190506139b96000830187612ed3565b6139c66020830186612ed3565b6139d36040830185613132565b6139e06060830184613132565b95945050505050565b7f4e6f742063726561746f72000000000000000000000000000000000000000000600082015250565b6000613a1f600b83612f31565b9150613a2a826139e9565b602082019050919050565b60006020820190508181036000830152613a4e81613a12565b9050919050565b7f706c65646765203c20676f616c00000000000000000000000000000000000000600082015250565b6000613a8b600d83612f31565b9150613a9682613a55565b602082019050919050565b60006020820190508181036000830152613aba81613a7e565b9050919050565b7f436c61696d656400000000000000000000000000000000000000000000000000600082015250565b6000613af7600783612f31565b9150613b0282613ac1565b602082019050919050565b60006020820190508181036000830152613b2681613aea565b9050919050565b7f4e487b7100000000000000000000000000000000000000000000000000000000600052603260045260246000fd5b7f7374617274656400000000000000000000000000000000000000000000000000600082015250565b6000613b92600783612f31565b9150613b9d82613b5c565b602082019050919050565b60006020820190508181036000830152613bc181613b85565b9050919050565b7f456e646564000000000000000000000000000000000000000000000000000000600082015250565b6000613bfe600583612f31565b9150613c0982613bc8565b602082019050919050565b60006020820190508181036000830152613c2d81613bf1565b9050919050565b7f4e6f7420656e6f75676820746f6b656e73000000000000000000000000000000600082015250565b6000613c6a601183612f31565b9150613c7582613c34565b602082019050919050565b60006020820190508181036000830152613c9981613c5d565b9050919050565b7f4e6f7468696e6720706c65646765640000000000000000000000000000000000600082015250565b6000613cd6600f83612f31565b9150613ce182613ca0565b602082019050919050565b60006020820190508181036000830152613d0581613cc9565b9050919050565b7f4e487b7100000000000000000000000000000000000000000000000000000000600052601260045260246000fd5b6000613d4682612ec9565b9150613d5183612ec9565b925082613d6157613d60613d0c565b5b828204905092915050565b6000606082019050613d816000830186613113565b613d8e6020830185613113565b613d9b6040830184612ed3565b949350505050565b6000604082019050613db86000830185613113565b613dc56020830184612ed3565b9392505050565b7f416d6f756e742073686f756c6420626520626967676572207468616e20300000600082015250565b6000613e02601e83612f31565b9150613e0d82613dcc565b602082019050919050565b60006020820190508181036000830152613e3181613df5565b9050919050565b7f43616e6e6f74207374616b65206e6f7468696e67000000000000000000000000600082015250565b6000613e6e601483612f31565b9150613e7982613e38565b602082019050919050565b60006020820190508181036000830152613e9d81613e61565b9050919050565b6000606082019050613eb96000830186612ed3565b613ec66020830185612ed3565b613ed36040830184612ed3565b949350505050565b6000613ee682612ec9565b9150613ef183612ec9565b9250817fffffffffffffffffffffffffffffffffffffffffffffffffffffffffffffffff0483118215151615613f2a57613f2961361d565b5b828202905092915050565b7f5374616b696e673a2043616e6e6f74207769746864726177206d6f726520746860008201527f616e20796f752068617665207374616b65640000000000000000000000000000602082015250565b6000613f91603283612f31565b9150613f9c82613f35565b604082019050919050565b60006020820190508181036000830152613fc081613f84565b905091905056fea26469706673582212203cff9cb9ac784490ecc4f6c51369a01b7f1f662dd1568302b20ca4747efcee5e64736f6c634300080a0033",
  "linkReferences": {},
  "deployedLinkReferences": {}
}