{
  "_format": "hh-sol-artifact-1",
  "contractName": "Crowdfund",
  "sourceName": "contracts/Crowdfund.sol",
  "abi": [
    {
      "inputs": [
        {
          "internalType": "address",
          "name": "_token",
          "type": "address"
        }
      ],
      "stateMutability": "nonpayable",
      "type": "constructor"
    },
    {
      "anonymous": false,
      "inputs": [
        {
          "indexed": true,
          "internalType": "address",
          "name": "owner",
          "type": "address"
        },
        {
          "indexed": true,
          "internalType": "address",
          "name": "sender",
          "type": "address"
        },
        {
          "indexed": false,
          "internalType": "uint256",
          "name": "amount",
          "type": "uint256"
        }
      ],
      "name": "Approval",
      "type": "event"
    },
    {
      "anonymous": false,
      "inputs": [
        {
          "indexed": false,
          "internalType": "uint256",
          "name": "id",
          "type": "uint256"
        }
      ],
      "name": "Cancel",
      "type": "event"
    },
    {
      "anonymous": false,
      "inputs": [
        {
          "indexed": false,
          "internalType": "uint256",
          "name": "id",
          "type": "uint256"
        }
      ],
      "name": "Claim",
      "type": "event"
    },
    {
      "anonymous": false,
      "inputs": [
        {
          "indexed": false,
          "internalType": "uint256",
          "name": "id",
          "type": "uint256"
        },
        {
          "indexed": true,
          "internalType": "address",
          "name": "creator",
          "type": "address"
        },
        {
          "indexed": false,
          "internalType": "uint256",
          "name": "goal",
          "type": "uint256"
        },
        {
          "indexed": false,
          "internalType": "uint32",
          "name": "startAt",
          "type": "uint32"
        },
        {
          "indexed": false,
          "internalType": "uint32",
          "name": "endAt",
          "type": "uint32"
        }
      ],
      "name": "Launch",
      "type": "event"
    },
    {
      "anonymous": false,
      "inputs": [
        {
          "indexed": false,
          "internalType": "uint256",
          "name": "amount",
          "type": "uint256"
        },
        {
          "indexed": false,
          "internalType": "uint256",
          "name": "gas",
          "type": "uint256"
        }
      ],
      "name": "Log",
      "type": "event"
    },
    {
      "anonymous": false,
      "inputs": [
        {
          "indexed": false,
          "internalType": "uint256",
          "name": "amount",
          "type": "uint256"
        }
      ],
      "name": "Log",
      "type": "event"
    },
    {
      "anonymous": false,
      "inputs": [
        {
          "indexed": true,
          "internalType": "uint256",
          "name": "id",
          "type": "uint256"
        },
        {
          "indexed": true,
          "internalType": "address",
          "name": "caller",
          "type": "address"
        },
        {
          "indexed": false,
          "internalType": "uint256",
          "name": "amount",
          "type": "uint256"
        }
      ],
      "name": "Pledge",
      "type": "event"
    },
    {
      "anonymous": false,
      "inputs": [
        {
          "indexed": true,
          "internalType": "uint256",
          "name": "id",
          "type": "uint256"
        },
        {
          "indexed": true,
          "internalType": "address",
          "name": "caller",
          "type": "address"
        },
        {
          "indexed": false,
          "internalType": "uint256",
          "name": "amount",
          "type": "uint256"
        }
      ],
      "name": "Refund",
      "type": "event"
    },
    {
      "anonymous": false,
      "inputs": [
        {
          "indexed": true,
          "internalType": "address",
          "name": "user",
          "type": "address"
        },
        {
          "indexed": false,
          "internalType": "uint256",
          "name": "amount",
          "type": "uint256"
        },
        {
          "indexed": false,
          "internalType": "uint256",
          "name": "index",
          "type": "uint256"
        },
        {
          "indexed": false,
          "internalType": "uint256",
          "name": "timestamp",
          "type": "uint256"
        }
      ],
      "name": "Staked",
      "type": "event"
    },
    {
      "anonymous": false,
      "inputs": [
        {
          "indexed": true,
          "internalType": "address",
          "name": "from",
          "type": "address"
        },
        {
          "indexed": true,
          "internalType": "address",
          "name": "to",
          "type": "address"
        },
        {
          "indexed": false,
          "internalType": "uint256",
          "name": "amount",
          "type": "uint256"
        }
      ],
      "name": "Transfer",
      "type": "event"
    },
    {
      "anonymous": false,
      "inputs": [
        {
          "indexed": true,
          "internalType": "uint256",
          "name": "id",
          "type": "uint256"
        },
        {
          "indexed": true,
          "internalType": "address",
          "name": "caller",
          "type": "address"
        },
        {
          "indexed": false,
          "internalType": "uint256",
          "name": "amount",
          "type": "uint256"
        }
      ],
      "name": "Unpledge",
      "type": "event"
    },
    {
      "inputs": [
        {
          "internalType": "address",
          "name": "",
          "type": "address"
        },
        {
          "internalType": "address",
          "name": "",
          "type": "address"
        }
      ],
      "name": "allowance",
      "outputs": [
        {
          "internalType": "uint256",
          "name": "",
          "type": "uint256"
        }
      ],
      "stateMutability": "view",
      "type": "function"
    },
    {
      "inputs": [],
      "name": "amountStaked",
      "outputs": [
        {
          "internalType": "uint256",
          "name": "",
          "type": "uint256"
        }
      ],
      "stateMutability": "view",
      "type": "function"
    },
    {
      "inputs": [
        {
          "internalType": "address",
          "name": "sender",
          "type": "address"
        },
        {
          "internalType": "uint256",
          "name": "amount",
          "type": "uint256"
        }
      ],
      "name": "approve",
      "outputs": [
        {
          "internalType": "bool",
          "name": "",
          "type": "bool"
        }
      ],
      "stateMutability": "nonpayable",
      "type": "function"
    },
    {
      "inputs": [
        {
          "internalType": "address",
          "name": "",
          "type": "address"
        }
      ],
      "name": "balanceOf",
      "outputs": [
        {
          "internalType": "uint256",
          "name": "",
          "type": "uint256"
        }
      ],
      "stateMutability": "view",
      "type": "function"
    },
    {
      "inputs": [
        {
          "internalType": "uint256",
          "name": "amount",
          "type": "uint256"
        }
      ],
      "name": "burn",
      "outputs": [],
      "stateMutability": "nonpayable",
      "type": "function"
    },
    {
      "inputs": [
        {
          "internalType": "uint256",
          "name": "since",
          "type": "uint256"
        },
        {
          "internalType": "uint256",
          "name": "amount",
          "type": "uint256"
        }
      ],
      "name": "calculateStakeReward",
      "outputs": [
        {
          "internalType": "uint256",
          "name": "",
          "type": "uint256"
        }
      ],
      "stateMutability": "view",
      "type": "function"
    },
    {
      "inputs": [
        {
          "internalType": "uint256",
          "name": "",
          "type": "uint256"
        }
      ],
      "name": "campaigns",
      "outputs": [
        {
          "internalType": "address",
          "name": "creator",
          "type": "address"
        },
        {
          "internalType": "uint256",
          "name": "numberOfInvestors",
          "type": "uint256"
        },
        {
          "internalType": "uint256",
          "name": "goal",
          "type": "uint256"
        },
        {
          "internalType": "uint256",
          "name": "pledged",
          "type": "uint256"
        },
        {
          "internalType": "uint32",
          "name": "startAt",
          "type": "uint32"
        },
        {
          "internalType": "uint32",
          "name": "endAt",
          "type": "uint32"
        },
        {
          "internalType": "bool",
          "name": "claimed",
          "type": "bool"
        }
      ],
      "stateMutability": "view",
      "type": "function"
    },
    {
      "inputs": [
        {
          "internalType": "uint256",
          "name": "_id",
          "type": "uint256"
        }
      ],
      "name": "cancel",
      "outputs": [],
      "stateMutability": "nonpayable",
      "type": "function"
    },
    {
      "inputs": [],
      "name": "circulatingSupply",
      "outputs": [
        {
          "internalType": "uint256",
          "name": "",
          "type": "uint256"
        }
      ],
      "stateMutability": "view",
      "type": "function"
    },
    {
      "inputs": [
        {
          "internalType": "uint256",
          "name": "_id",
          "type": "uint256"
        },
        {
          "internalType": "uint256",
          "name": "amount",
          "type": "uint256"
        },
        {
          "internalType": "address",
          "name": "adr",
          "type": "address"
        }
      ],
      "name": "claim",
      "outputs": [],
      "stateMutability": "payable",
      "type": "function"
    },
    {
      "inputs": [
        {
          "internalType": "uint256",
          "name": "_id",
          "type": "uint256"
        },
        {
          "internalType": "address",
          "name": "adr",
          "type": "address"
        }
      ],
      "name": "claimShares",
      "outputs": [],
      "stateMutability": "nonpayable",
      "type": "function"
    },
    {
      "inputs": [],
      "name": "count",
      "outputs": [
        {
          "internalType": "uint256",
          "name": "",
          "type": "uint256"
        }
      ],
      "stateMutability": "view",
      "type": "function"
    },
    {
      "inputs": [],
      "name": "decimal",
      "outputs": [
        {
          "internalType": "uint8",
          "name": "",
          "type": "uint8"
        }
      ],
      "stateMutability": "view",
      "type": "function"
    },
    {
      "inputs": [
        {
          "internalType": "address",
          "name": "adr",
          "type": "address"
        }
      ],
      "name": "getSummary",
      "outputs": [
        {
          "internalType": "uint256",
          "name": "",
          "type": "uint256"
        }
      ],
      "stateMutability": "view",
      "type": "function"
    },
    {
      "inputs": [
        {
          "internalType": "uint256",
          "name": "amount",
          "type": "uint256"
        }
      ],
      "name": "getTokens",
      "outputs": [],
      "stateMutability": "payable",
      "type": "function"
    },
    {
      "inputs": [],
      "name": "getTotalAmountStaked",
      "outputs": [
        {
          "internalType": "uint256",
          "name": "",
          "type": "uint256"
        }
      ],
      "stateMutability": "view",
      "type": "function"
    },
    {
      "inputs": [],
      "name": "getTotalStakes",
      "outputs": [
        {
          "internalType": "uint256",
          "name": "",
          "type": "uint256"
        }
      ],
      "stateMutability": "view",
      "type": "function"
    },
    {
      "inputs": [
        {
          "internalType": "address",
          "name": "adr",
          "type": "address"
        }
      ],
      "name": "getUserStakes",
      "outputs": [
        {
          "components": [
            {
              "internalType": "address",
              "name": "user",
              "type": "address"
            },
            {
              "internalType": "uint256",
              "name": "amount",
              "type": "uint256"
            },
            {
              "internalType": "uint256",
              "name": "since",
              "type": "uint256"
            },
            {
              "internalType": "bool",
              "name": "claimable",
              "type": "bool"
            },
            {
              "internalType": "uint256",
              "name": "id",
              "type": "uint256"
            }
          ],
          "internalType": "struct Staking.Stake[]",
          "name": "",
          "type": "tuple[]"
        }
      ],
      "stateMutability": "view",
      "type": "function"
    },
    {
      "inputs": [
        {
          "internalType": "address",
          "name": "_staker",
          "type": "address"
        }
      ],
      "name": "hasStake",
      "outputs": [
        {
          "internalType": "uint256",
          "name": "",
          "type": "uint256"
        }
      ],
      "stateMutability": "view",
      "type": "function"
    },
    {
      "inputs": [
        {
          "internalType": "address",
          "name": "",
          "type": "address"
        },
        {
          "internalType": "uint256",
          "name": "",
          "type": "uint256"
        }
      ],
      "name": "investors",
      "outputs": [
        {
          "internalType": "uint256",
          "name": "",
          "type": "uint256"
        }
      ],
      "stateMutability": "view",
      "type": "function"
    },
    {
      "inputs": [
        {
          "internalType": "uint256",
          "name": "_goal",
          "type": "uint256"
        },
        {
          "internalType": "uint32",
          "name": "_startAt",
          "type": "uint32"
        },
        {
          "internalType": "uint32",
          "name": "_endAt",
          "type": "uint32"
        }
      ],
      "name": "launch",
      "outputs": [
        {
          "internalType": "uint256",
          "name": "",
          "type": "uint256"
        }
      ],
      "stateMutability": "nonpayable",
      "type": "function"
    },
    {
      "inputs": [
        {
          "internalType": "uint256",
          "name": "amount",
          "type": "uint256"
        }
      ],
      "name": "mint",
      "outputs": [],
      "stateMutability": "nonpayable",
      "type": "function"
    },
    {
      "inputs": [],
      "name": "name",
      "outputs": [
        {
          "internalType": "string",
          "name": "",
          "type": "string"
        }
      ],
      "stateMutability": "view",
      "type": "function"
    },
    {
      "inputs": [
        {
          "internalType": "uint256",
          "name": "_id",
          "type": "uint256"
        },
        {
          "internalType": "uint256",
          "name": "_amount",
          "type": "uint256"
        },
        {
          "internalType": "address",
          "name": "adr",
          "type": "address"
        }
      ],
      "name": "pledge",
      "outputs": [],
      "stateMutability": "payable",
      "type": "function"
    },
    {
      "inputs": [
        {
          "internalType": "uint256",
          "name": "",
          "type": "uint256"
        },
        {
          "internalType": "address",
          "name": "",
          "type": "address"
        }
      ],
      "name": "pledgedAmount",
      "outputs": [
        {
          "internalType": "uint256",
          "name": "",
          "type": "uint256"
        }
      ],
      "stateMutability": "view",
      "type": "function"
    },
    {
      "inputs": [
        {
          "internalType": "uint256",
          "name": "_id",
          "type": "uint256"
        }
      ],
      "name": "refund",
      "outputs": [],
      "stateMutability": "nonpayable",
      "type": "function"
    },
    {
      "inputs": [
        {
          "internalType": "address",
          "name": "sender",
          "type": "address"
        },
        {
          "internalType": "address",
          "name": "recipient",
          "type": "address"
        },
        {
          "internalType": "uint256",
          "name": "amount",
          "type": "uint256"
        }
      ],
      "name": "sendToAddress",
      "outputs": [],
      "stateMutability": "nonpayable",
      "type": "function"
    },
    {
      "inputs": [
        {
          "internalType": "address",
          "name": "recipient",
          "type": "address"
        },
        {
          "internalType": "uint256",
          "name": "amount",
          "type": "uint256"
        }
      ],
      "name": "sendToContract",
      "outputs": [],
      "stateMutability": "nonpayable",
      "type": "function"
    },
    {
      "inputs": [
        {
          "internalType": "uint256",
          "name": "_amount",
          "type": "uint256"
        },
        {
          "internalType": "address",
          "name": "adr",
          "type": "address"
        },
        {
          "internalType": "uint256",
          "name": "id",
          "type": "uint256"
        }
      ],
      "name": "stake",
      "outputs": [],
      "stateMutability": "nonpayable",
      "type": "function"
    },
    {
      "inputs": [
        {
          "internalType": "uint256",
          "name": "",
          "type": "uint256"
        }
      ],
      "name": "stakeholders",
      "outputs": [
        {
          "internalType": "address",
          "name": "user",
          "type": "address"
        }
      ],
      "stateMutability": "view",
      "type": "function"
    },
    {
      "inputs": [],
      "name": "symbol",
      "outputs": [
        {
          "internalType": "string",
          "name": "",
          "type": "string"
        }
      ],
      "stateMutability": "view",
      "type": "function"
    },
    {
      "inputs": [],
      "name": "token",
      "outputs": [
        {
          "internalType": "contract IERC20",
          "name": "",
          "type": "address"
        }
      ],
      "stateMutability": "view",
      "type": "function"
    },
    {
      "inputs": [],
      "name": "tokenAddress",
      "outputs": [
        {
          "internalType": "address",
          "name": "",
          "type": "address"
        }
      ],
      "stateMutability": "view",
      "type": "function"
    },
    {
      "inputs": [],
      "name": "totalSupply",
      "outputs": [
        {
          "internalType": "uint256",
          "name": "",
          "type": "uint256"
        }
      ],
      "stateMutability": "view",
      "type": "function"
    },
    {
      "inputs": [],
      "name": "total_amount_stacked",
      "outputs": [
        {
          "internalType": "uint256",
          "name": "",
          "type": "uint256"
        }
      ],
      "stateMutability": "view",
      "type": "function"
    },
    {
      "inputs": [
        {
          "internalType": "address",
          "name": "recipient",
          "type": "address"
        },
        {
          "internalType": "uint256",
          "name": "amount",
          "type": "uint256"
        }
      ],
      "name": "transfer",
      "outputs": [
        {
          "internalType": "bool",
          "name": "",
          "type": "bool"
        }
      ],
      "stateMutability": "nonpayable",
      "type": "function"
    },
    {
      "inputs": [
        {
          "internalType": "address",
          "name": "sender",
          "type": "address"
        },
        {
          "internalType": "address",
          "name": "recipient",
          "type": "address"
        },
        {
          "internalType": "uint256",
          "name": "amount",
          "type": "uint256"
        }
      ],
      "name": "transferFrom",
      "outputs": [
        {
          "internalType": "bool",
          "name": "",
          "type": "bool"
        }
      ],
      "stateMutability": "nonpayable",
      "type": "function"
    },
    {
      "inputs": [
        {
          "internalType": "uint256",
          "name": "_id",
          "type": "uint256"
        },
        {
          "internalType": "uint256",
          "name": "_amount",
          "type": "uint256"
        }
      ],
      "name": "unpledge",
      "outputs": [],
      "stateMutability": "nonpayable",
      "type": "function"
    },
    {
      "inputs": [
        {
          "internalType": "uint256",
          "name": "initialAmount",
          "type": "uint256"
        },
        {
          "internalType": "uint256",
          "name": "_amount",
          "type": "uint256"
        },
        {
          "internalType": "uint256",
          "name": "_amountMint",
          "type": "uint256"
        },
        {
          "internalType": "address",
          "name": "adr",
          "type": "address"
        },
        {
          "internalType": "uint256",
          "name": "id",
          "type": "uint256"
        }
      ],
      "name": "withdrawStake",
      "outputs": [],
      "stateMutability": "nonpayable",
      "type": "function"
    },
    {
      "stateMutability": "payable",
      "type": "receive"
    }
  ],
  "bytecode": "0x60c06040526103e8600055600060015560006004556040518060400160405280600881526020017f47656d73746f6e65000000000000000000000000000000000000000000000000815250600990805190602001906200006192919062000191565b506040518060400160405280600381526020017f474d530000000000000000000000000000000000000000000000000000000000815250600a9080519060200190620000af92919062000191565b506003600b60006101000a81548160ff021916908360ff1602179055506000600d55348015620000de57600080fd5b5060405162004267380380620042678339818101604052810190620001049190620002ab565b6002600181600181540180825580915050039060005260206000209050508073ffffffffffffffffffffffffffffffffffffffff1660808173ffffffffffffffffffffffffffffffffffffffff16815250508073ffffffffffffffffffffffffffffffffffffffff1660a08173ffffffffffffffffffffffffffffffffffffffff16815250505062000342565b8280546200019f906200030c565b90600052602060002090601f016020900481019282620001c357600085556200020f565b82601f10620001de57805160ff19168380011785556200020f565b828001600101855582156200020f579182015b828111156200020e578251825591602001919060010190620001f1565b5b5090506200021e919062000222565b5090565b5b808211156200023d57600081600090555060010162000223565b5090565b600080fd5b600073ffffffffffffffffffffffffffffffffffffffff82169050919050565b6000620002738262000246565b9050919050565b620002858162000266565b81146200029157600080fd5b50565b600081519050620002a5816200027a565b92915050565b600060208284031215620002c457620002c362000241565b5b6000620002d48482850162000294565b91505092915050565b7f4e487b7100000000000000000000000000000000000000000000000000000000600052602260045260246000fd5b600060028204905060018216806200032557607f821691505b602082108114156200033c576200033b620002dd565b5b50919050565b60805160a051613eea6200037d60003960008181612032015261245d015260008181612421015281816125990152612b3c0152613eea6000f3fe6080604052600436106102345760003560e01c8063711853ab1161012e578063aa4fb63a116100ab578063e22f9ea61161006f578063e22f9ea6146108e2578063e73e14bf1461090b578063fab1e74714610948578063fbd95a3914610973578063fc0c546a1461099c57610274565b8063aa4fb63a14610807578063ac44ff3114610844578063ace1f5e114610860578063d3c9cc2614610889578063dd62ed3e146108a557610274565b80639358928b116100f25780639358928b1461072057806395d89b411461074b5780639d76ea5814610776578063a0712d68146107a1578063a9059cbb146107ca57610274565b8063711853ab1461062957806376809ce31461065257806378dbb0bc1461067d57806379ebb6c4146106a6578063842e2981146106e357610274565b80632c63f146116101bc5780635888a3e4116101805780635888a3e41461055157806367d759fb1461056d57806368c33627146105985780636e9c931c146105c357806370a08231146105ec57610274565b80632c63f146146104485780633eb0db3b146104855780633f733e48146104c257806340e58ee5146104ff57806342966c681461052857610274565b806318160ddd1161020357806318160ddd1461034f5780631d6b8b721461037a57806323b872dd146103b7578063246d9fe8146103f4578063278ecde11461041f57610274565b806306661abd1461027957806306fdde03146102a4578063095ea7b3146102cf578063141961bc1461030c57610274565b36610274577fbd0faddf87043dd749c1b9d4dca8a12589b8cb5e2106832111ce23f219b14367345a60405161026a929190612e9f565b60405180910390a1005b600080fd5b34801561028557600080fd5b5061028e6109c7565b60405161029b9190612ec8565b60405180910390f35b3480156102b057600080fd5b506102b96109cd565b6040516102c69190612f7c565b60405180910390f35b3480156102db57600080fd5b506102f660048036038101906102f1919061302d565b610a5b565b6040516103039190613088565b60405180910390f35b34801561031857600080fd5b50610333600480360381019061032e91906130a3565b610b4d565b60405161034697969594939291906130fe565b60405180910390f35b34801561035b57600080fd5b50610364610bdc565b6040516103719190612ec8565b60405180910390f35b34801561038657600080fd5b506103a1600480360381019061039c91906130a3565b610be2565b6040516103ae919061316d565b60405180910390f35b3480156103c357600080fd5b506103de60048036038101906103d99190613188565b610c30565b6040516103eb9190613088565b60405180910390f35b34801561040057600080fd5b50610409610d4e565b6040516104169190612ec8565b60405180910390f35b34801561042b57600080fd5b50610446600480360381019061044191906130a3565b610d58565b005b34801561045457600080fd5b5061046f600480360381019061046a9190613207565b610f52565b60405161047c9190612ec8565b60405180910390f35b34801561049157600080fd5b506104ac60048036038101906104a7919061325a565b61119c565b6040516104b99190612ec8565b60405180910390f35b3480156104ce57600080fd5b506104e960048036038101906104e4919061329a565b6111d5565b6040516104f69190612ec8565b60405180910390f35b34801561050b57600080fd5b50610526600480360381019061052191906130a3565b6111ec565b005b34801561053457600080fd5b5061054f600480360381019061054a91906130a3565b611479565b005b61056b600480360381019061056691906132c7565b611551565b005b34801561057957600080fd5b50610582611942565b60405161058f9190612ec8565b60405180910390f35b3480156105a457600080fd5b506105ad611948565b6040516105ba9190612ec8565b60405180910390f35b3480156105cf57600080fd5b506105ea60048036038101906105e5919061331a565b611952565b005b3480156105f857600080fd5b50610613600480360381019061060e919061329a565b611a53565b6040516106209190612ec8565b60405180910390f35b34801561063557600080fd5b50610650600480360381019061064b919061325a565b611a6b565b005b34801561065e57600080fd5b50610667611c62565b6040516106749190613389565b60405180910390f35b34801561068957600080fd5b506106a4600480360381019061069f91906133a4565b611c75565b005b3480156106b257600080fd5b506106cd60048036038101906106c8919061302d565b611e0d565b6040516106da9190612ec8565b60405180910390f35b3480156106ef57600080fd5b5061070a6004803603810190610705919061329a565b611e3e565b6040516107179190613563565b60405180910390f35b34801561072c57600080fd5b50610735611f9c565b6040516107429190612ec8565b60405180910390f35b34801561075757600080fd5b50610760611fa2565b60405161076d9190612f7c565b60405180910390f35b34801561078257600080fd5b5061078b612030565b604051610798919061316d565b60405180910390f35b3480156107ad57600080fd5b506107c860048036038101906107c391906130a3565b612054565b005b3480156107d657600080fd5b506107f160048036038101906107ec919061302d565b61212c565b6040516107fe9190613088565b60405180910390f35b34801561081357600080fd5b5061082e60048036038101906108299190613585565b612249565b60405161083b9190612ec8565b60405180910390f35b61085e600480360381019061085991906132c7565b61226e565b005b34801561086c57600080fd5b5061088760048036038101906108829190613585565b61238c565b005b6108a3600480360381019061089e91906130a3565b612597565b005b3480156108b157600080fd5b506108cc60048036038101906108c791906135c5565b612627565b6040516108d99190612ec8565b60405180910390f35b3480156108ee57600080fd5b506109096004803603810190610904919061302d565b61264c565b005b34801561091757600080fd5b50610932600480360381019061092d919061329a565b612809565b60405161093f9190612ec8565b60405180910390f35b34801561095457600080fd5b5061095d6129fe565b60405161096a9190612ec8565b60405180910390f35b34801561097f57600080fd5b5061099a60048036038101906109959190613188565b612a04565b005b3480156109a857600080fd5b506109b1612b3a565b6040516109be9190613664565b60405180910390f35b600d5481565b600980546109da906136ae565b80601f0160208091040260200160405190810160405280929190818152602001828054610a06906136ae565b8015610a535780601f10610a2857610100808354040283529160200191610a53565b820191906000526020600020905b815481529060010190602001808311610a3657829003601f168201915b505050505081565b600081600860003373ffffffffffffffffffffffffffffffffffffffff1673ffffffffffffffffffffffffffffffffffffffff16815260200190815260200160002060008573ffffffffffffffffffffffffffffffffffffffff1673ffffffffffffffffffffffffffffffffffffffff168152602001908152602001600020819055508273ffffffffffffffffffffffffffffffffffffffff163373ffffffffffffffffffffffffffffffffffffffff167f8c5be1e5ebec7d5bd14f71427d1e84f3dd0314c0f7b2291e5b200ac8c7c3b92584604051610b3b9190612ec8565b60405180910390a36001905092915050565b600e6020528060005260406000206000915090508060000160009054906101000a900473ffffffffffffffffffffffffffffffffffffffff16908060010154908060020154908060030154908060040160009054906101000a900463ffffffff16908060040160049054906101000a900463ffffffff16908060040160089054906101000a900460ff16905087565b60055481565b60028181548110610bf257600080fd5b90600052602060002090600202016000915090508060000160009054906101000a900473ffffffffffffffffffffffffffffffffffffffff16905081565b600081600760008673ffffffffffffffffffffffffffffffffffffffff1673ffffffffffffffffffffffffffffffffffffffff1681526020019081526020016000206000828254610c81919061370f565b9250508190555081600760008573ffffffffffffffffffffffffffffffffffffffff1673ffffffffffffffffffffffffffffffffffffffff1681526020019081526020016000206000828254610cd79190613743565b925050819055508273ffffffffffffffffffffffffffffffffffffffff168473ffffffffffffffffffffffffffffffffffffffff167fddf252ad1be2c89b69c2b068fc378daa952ba7f163c4a11628f55a4df523b3ef84604051610d3b9190612ec8565b60405180910390a3600190509392505050565b6000600454905090565b6000600e600083815260200190815260200160002090506000600f600084815260200190815260200160002060003373ffffffffffffffffffffffffffffffffffffffff1673ffffffffffffffffffffffffffffffffffffffff16815260200190815260200160002054905060003373ffffffffffffffffffffffffffffffffffffffff1682604051610dea906137ca565b60006040518083038185875af1925050503d8060008114610e27576040519150601f19603f3d011682016040523d82523d6000602084013e610e2c565b606091505b5050905080610e70576040517f08c379a0000000000000000000000000000000000000000000000000000000008152600401610e679061382b565b60405180910390fd5b6000600f600086815260200190815260200160002060003373ffffffffffffffffffffffffffffffffffffffff1673ffffffffffffffffffffffffffffffffffffffff1681526020019081526020016000208190555081836003016000828254610eda919061370f565b925050819055506001836001016000828254610ef6919061370f565b925050819055503373ffffffffffffffffffffffffffffffffffffffff16847f21e12a7cad0da5928167e1084ea4d5fdf8d9af66657a2543a9ac76a0ca08147784604051610f449190612ec8565b60405180910390a350505050565b6000428363ffffffff161015610f9d576040517f08c379a0000000000000000000000000000000000000000000000000000000008152600401610f9490613897565b60405180910390fd5b8263ffffffff168263ffffffff161015610fec576040517f08c379a0000000000000000000000000000000000000000000000000000000008152600401610fe390613903565b60405180910390fd5b6276a70042610ffb9190613743565b8263ffffffff161115611043576040517f08c379a000000000000000000000000000000000000000000000000000000000815260040161103a9061396f565b60405180910390fd5b6000600e6000600d5481526020019081526020016000209050338160000160006101000a81548173ffffffffffffffffffffffffffffffffffffffff021916908373ffffffffffffffffffffffffffffffffffffffff1602179055506000816001018190555084816002018190555060008160030181905550838160040160006101000a81548163ffffffff021916908363ffffffff160217905550828160040160046101000a81548163ffffffff021916908363ffffffff16021790555060008160040160086101000a81548160ff0219169083151502179055506001600d60008282546111329190613743565b925050819055503373ffffffffffffffffffffffffffffffffffffffff167f0601cd0d650b473037e838a2696d41e654433d065b3f56b28d1d3302e44a304f600d54878787604051611187949392919061398f565b60405180910390a2600d549150509392505050565b6000805482603c85426111af919061370f565b6111b99190613a03565b6111c39190613a34565b6111cd9190613a03565b905092915050565b6000806111e183612809565b905080915050919050565b6000600e60008381526020019081526020016000206040518060e00160405290816000820160009054906101000a900473ffffffffffffffffffffffffffffffffffffffff1673ffffffffffffffffffffffffffffffffffffffff1673ffffffffffffffffffffffffffffffffffffffff1681526020016001820154815260200160028201548152602001600382015481526020016004820160009054906101000a900463ffffffff1663ffffffff1663ffffffff1681526020016004820160049054906101000a900463ffffffff1663ffffffff1663ffffffff1681526020016004820160089054906101000a900460ff1615151515815250509050806000015173ffffffffffffffffffffffffffffffffffffffff163373ffffffffffffffffffffffffffffffffffffffff161461135b576040517f08c379a000000000000000000000000000000000000000000000000000000000815260040161135290613ada565b60405180910390fd5b806080015163ffffffff1642106113a7576040517f08c379a000000000000000000000000000000000000000000000000000000000815260040161139e90613b46565b60405180910390fd5b600e6000838152602001908152602001600020600080820160006101000a81549073ffffffffffffffffffffffffffffffffffffffff02191690556001820160009055600282016000905560038201600090556004820160006101000a81549063ffffffff02191690556004820160046101000a81549063ffffffff02191690556004820160086101000a81549060ff021916905550507f8bf30e7ff26833413be5f69e1d373744864d600b664204b4a2f9844a8eedb9ed8260405161146d9190612ec8565b60405180910390a15050565b80600760003373ffffffffffffffffffffffffffffffffffffffff1673ffffffffffffffffffffffffffffffffffffffff16815260200190815260200160002060008282546114c8919061370f565b9250508190555080600660008282546114e1919061370f565b92505081905550600073ffffffffffffffffffffffffffffffffffffffff163373ffffffffffffffffffffffffffffffffffffffff167fddf252ad1be2c89b69c2b068fc378daa952ba7f163c4a11628f55a4df523b3ef836040516115469190612ec8565b60405180910390a350565b6000600e60008581526020019081526020016000209050600083116115ab576040517f08c379a00000000000000000000000000000000000000000000000000000000081526004016115a290613bb2565b60405180910390fd5b6000600f600086815260200190815260200160002060003373ffffffffffffffffffffffffffffffffffffffff1673ffffffffffffffffffffffffffffffffffffffff1681526020019081526020016000205414156116875760018160010160008282546116199190613743565b92505081905550601060008373ffffffffffffffffffffffffffffffffffffffff1673ffffffffffffffffffffffffffffffffffffffff1681526020019081526020016000208490806001815401808255809150506001900390600052602060002001600090919091909150555b60003073ffffffffffffffffffffffffffffffffffffffff16846040516116ad906137ca565b60006040518083038185875af1925050503d80600081146116ea576040519150601f19603f3d011682016040523d82523d6000602084013e6116ef565b606091505b5050905080611733576040517f08c379a000000000000000000000000000000000000000000000000000000000815260040161172a9061382b565b60405180910390fd5b838260030160008282546117479190613743565b9250508190555083600f600087815260200190815260200160002060003373ffffffffffffffffffffffffffffffffffffffff1673ffffffffffffffffffffffffffffffffffffffff16815260200190815260200160002060008282546117ae9190613743565b9250508190555081600e60008781526020019081526020016000206000820160009054906101000a900473ffffffffffffffffffffffffffffffffffffffff168160000160006101000a81548173ffffffffffffffffffffffffffffffffffffffff021916908373ffffffffffffffffffffffffffffffffffffffff1602179055506001820154816001015560028201548160020155600382015481600301556004820160009054906101000a900463ffffffff168160040160006101000a81548163ffffffff021916908363ffffffff1602179055506004820160049054906101000a900463ffffffff168160040160046101000a81548163ffffffff021916908363ffffffff1602179055506004820160089054906101000a900460ff168160040160086101000a81548160ff0219169083151502179055509050503373ffffffffffffffffffffffffffffffffffffffff16857f06bdb975df800a73232998e71ed585d536222f1dfeaa622d7f62a23ada686c82866040516119339190612ec8565b60405180910390a35050505050565b60045481565b6000600154905090565b600760008373ffffffffffffffffffffffffffffffffffffffff1673ffffffffffffffffffffffffffffffffffffffff168152602001908152602001600020548311156119d4576040517f08c379a00000000000000000000000000000000000000000000000000000000081526004016119cb90613c1e565b60405180910390fd5b6119df838383612b5e565b82600760008473ffffffffffffffffffffffffffffffffffffffff1673ffffffffffffffffffffffffffffffffffffffff1681526020019081526020016000206000828254611a2e919061370f565b925050819055508260066000828254611a47919061370f565b92505081905550505050565b60076020528060005260406000206000915090505481565b6000600e600084815260200190815260200160002090508060040160049054906101000a900463ffffffff1663ffffffff16421115611adf576040517f08c379a0000000000000000000000000000000000000000000000000000000008152600401611ad690613c8a565b60405180910390fd5b60003373ffffffffffffffffffffffffffffffffffffffff1683604051611b05906137ca565b60006040518083038185875af1925050503d8060008114611b42576040519150601f19603f3d011682016040523d82523d6000602084013e611b47565b606091505b5050905080611b8b576040517f08c379a0000000000000000000000000000000000000000000000000000000008152600401611b829061382b565b60405180910390fd5b82826003016000828254611b9f919061370f565b9250508190555082600f600086815260200190815260200160002060003373ffffffffffffffffffffffffffffffffffffffff1673ffffffffffffffffffffffffffffffffffffffff1681526020019081526020016000206000828254611c06919061370f565b925050819055503373ffffffffffffffffffffffffffffffffffffffff16847f2eeeab891b26a214d1b25749f88a406bdea852bd8c9bfda977e0ef8114c180ba85604051611c549190612ec8565b60405180910390a350505050565b600b60009054906101000a900460ff1681565b6005548310611cb9576040517f08c379a0000000000000000000000000000000000000000000000000000000008152600401611cb090613cf6565b60405180910390fd5b6000600360008473ffffffffffffffffffffffffffffffffffffffff1673ffffffffffffffffffffffffffffffffffffffff168152602001908152602001600020549050600060028281548110611d1357611d12613d16565b5b90600052602060002090600202016001018381548110611d3657611d35613d16565b5b9060005260206000209060050201905060008160030160006101000a81548160ff02191690831515021790555084600760008673ffffffffffffffffffffffffffffffffffffffff1673ffffffffffffffffffffffffffffffffffffffff1681526020019081526020016000206000828254611db29190613743565b925050819055508560056000828254611dcb919061370f565b925050819055508460066000828254611de49190613743565b925050819055508660046000828254611dfd919061370f565b9250508190555050505050505050565b60106020528160005260406000208181548110611e2957600080fd5b90600052602060002001600091509150505481565b60606000600360008473ffffffffffffffffffffffffffffffffffffffff1673ffffffffffffffffffffffffffffffffffffffff168152602001908152602001600020549050600060028281548110611e9a57611e99613d16565b5b9060005260206000209060020201600101805480602002602001604051908101604052809291908181526020016000905b82821015611f8c57838290600052602060002090600502016040518060a00160405290816000820160009054906101000a900473ffffffffffffffffffffffffffffffffffffffff1673ffffffffffffffffffffffffffffffffffffffff1673ffffffffffffffffffffffffffffffffffffffff16815260200160018201548152602001600282015481526020016003820160009054906101000a900460ff1615151515815260200160048201548152505081526020019060010190611ecb565b5050505090508092505050919050565b60065481565b600a8054611faf906136ae565b80601f0160208091040260200160405190810160405280929190818152602001828054611fdb906136ae565b80156120285780601f10611ffd57610100808354040283529160200191612028565b820191906000526020600020905b81548152906001019060200180831161200b57829003601f168201915b505050505081565b7f000000000000000000000000000000000000000000000000000000000000000081565b80600760003073ffffffffffffffffffffffffffffffffffffffff1673ffffffffffffffffffffffffffffffffffffffff16815260200190815260200160002060008282546120a39190613743565b9250508190555080600560008282546120bc9190613743565b925050819055503073ffffffffffffffffffffffffffffffffffffffff16600073ffffffffffffffffffffffffffffffffffffffff167fddf252ad1be2c89b69c2b068fc378daa952ba7f163c4a11628f55a4df523b3ef836040516121219190612ec8565b60405180910390a350565b600081600760003373ffffffffffffffffffffffffffffffffffffffff1673ffffffffffffffffffffffffffffffffffffffff168152602001908152602001600020600082825461217d919061370f565b9250508190555081600760008573ffffffffffffffffffffffffffffffffffffffff1673ffffffffffffffffffffffffffffffffffffffff16815260200190815260200160002060008282546121d39190613743565b925050819055508273ffffffffffffffffffffffffffffffffffffffff163373ffffffffffffffffffffffffffffffffffffffff167fddf252ad1be2c89b69c2b068fc378daa952ba7f163c4a11628f55a4df523b3ef846040516122379190612ec8565b60405180910390a36001905092915050565b600f602052816000526040600020602052806000526040600020600091509150505481565b6000600e6000858152602001908152602001600020905060008273ffffffffffffffffffffffffffffffffffffffff16846040516122ab906137ca565b60006040518083038185875af1925050503d80600081146122e8576040519150601f19603f3d011682016040523d82523d6000602084013e6122ed565b606091505b5050905080612331576040517f08c379a00000000000000000000000000000000000000000000000000000000081526004016123289061382b565b60405180910390fd5b60018260040160086101000a81548160ff0219169083151502179055507f7bb2b3c10797baccb6f8c4791f1edd6ca2f0d028ee0eda64b01a9a57e3a653f78560405161237d9190612ec8565b60405180910390a15050505050565b6000600f600084815260200190815260200160002060008373ffffffffffffffffffffffffffffffffffffffff1673ffffffffffffffffffffffffffffffffffffffff168152602001908152602001600020541161241f576040517f08c379a000000000000000000000000000000000000000000000000000000000815260040161241690613d91565b60405180910390fd5b7f000000000000000000000000000000000000000000000000000000000000000073ffffffffffffffffffffffffffffffffffffffff1663fbd95a397f0000000000000000000000000000000000000000000000000000000000000000836103e866038d7ea4c68000600f600089815260200190815260200160002060008873ffffffffffffffffffffffffffffffffffffffff1673ffffffffffffffffffffffffffffffffffffffff168152602001908152602001600020546124e39190613a03565b6124ed9190613a34565b6040518463ffffffff1660e01b815260040161250b93929190613db1565b600060405180830381600087803b15801561252557600080fd5b505af1158015612539573d6000803e3d6000fd5b505050506000600f600084815260200190815260200160002060008373ffffffffffffffffffffffffffffffffffffffff1673ffffffffffffffffffffffffffffffffffffffff168152602001908152602001600020819055505050565b7f000000000000000000000000000000000000000000000000000000000000000073ffffffffffffffffffffffffffffffffffffffff1663e22f9ea630836040518363ffffffff1660e01b81526004016125f2929190613de8565b600060405180830381600087803b15801561260c57600080fd5b505af1158015612620573d6000803e3d6000fd5b5050505050565b6008602052816000526040600020602052806000526040600020600091509150505481565b7f909c57d5c6ac08245cf2a6de3900e2b868513fa59099b92b27d8db823d92df9c600760003073ffffffffffffffffffffffffffffffffffffffff1673ffffffffffffffffffffffffffffffffffffffff168152602001908152602001600020546040516126ba9190612ec8565b60405180910390a180600760003073ffffffffffffffffffffffffffffffffffffffff1673ffffffffffffffffffffffffffffffffffffffff1681526020019081526020016000206000828254612711919061370f565b9250508190555080600760008473ffffffffffffffffffffffffffffffffffffffff1673ffffffffffffffffffffffffffffffffffffffff16815260200190815260200160002060008282546127679190613743565b925050819055508060056000828254612780919061370f565b9250508190555080600660008282546127999190613743565b925050819055508173ffffffffffffffffffffffffffffffffffffffff163073ffffffffffffffffffffffffffffffffffffffff167fddf252ad1be2c89b69c2b068fc378daa952ba7f163c4a11628f55a4df523b3ef836040516127fd9190612ec8565b60405180910390a35050565b60008060006040518060400160405280600081526020016002600360008873ffffffffffffffffffffffffffffffffffffffff1673ffffffffffffffffffffffffffffffffffffffff168152602001908152602001600020548154811061287357612872613d16565b5b9060005260206000209060020201600101805480602002602001604051908101604052809291908181526020016000905b8282101561296557838290600052602060002090600502016040518060a00160405290816000820160009054906101000a900473ffffffffffffffffffffffffffffffffffffffff1673ffffffffffffffffffffffffffffffffffffffff1673ffffffffffffffffffffffffffffffffffffffff16815260200160018201548152602001600282015481526020016003820160009054906101000a900460ff16151515158152602001600482015481525050815260200190600101906128a4565b50505050815250905060005b8160200151518110156129e55760006129ce8360200151838151811061299a57612999613d16565b5b602002602001015160400151846020015184815181106129bd576129bc613d16565b5b60200260200101516020015161119c565b9050506001816129de9190613743565b9050612971565b5081816000018181525050806000015192505050919050565b600c5481565b8060055411612a48576040517f08c379a0000000000000000000000000000000000000000000000000000000008152600401612a3f90613cf6565b60405180910390fd5b8060056000828254612a5a919061370f565b925050819055508060066000828254612a739190613743565b9250508190555080600760008473ffffffffffffffffffffffffffffffffffffffff1673ffffffffffffffffffffffffffffffffffffffff1681526020019081526020016000206000828254612ac99190613743565b925050819055508173ffffffffffffffffffffffffffffffffffffffff168373ffffffffffffffffffffffffffffffffffffffff167fddf252ad1be2c89b69c2b068fc378daa952ba7f163c4a11628f55a4df523b3ef83604051612b2d9190612ec8565b60405180910390a3505050565b7f000000000000000000000000000000000000000000000000000000000000000081565b60008311612ba1576040517f08c379a0000000000000000000000000000000000000000000000000000000008152600401612b9890613e5d565b60405180910390fd5b6000600360008473ffffffffffffffffffffffffffffffffffffffff1673ffffffffffffffffffffffffffffffffffffffff16815260200190815260200160002054905060004290506000821415612bff57612bfc84612d9f565b91505b60028281548110612c1357612c12613d16565b5b90600052602060002090600202016001016040518060a001604052808673ffffffffffffffffffffffffffffffffffffffff16815260200187815260200183815260200160011515815260200185815250908060018154018082558091505060019003906000526020600020906005020160009091909190915060008201518160000160006101000a81548173ffffffffffffffffffffffffffffffffffffffff021916908373ffffffffffffffffffffffffffffffffffffffff160217905550602082015181600101556040820151816002015560608201518160030160006101000a81548160ff0219169083151502179055506080820151816004015550508460046000828254612d269190613743565b925050819055506001806000828254612d3f9190613743565b925050819055508373ffffffffffffffffffffffffffffffffffffffff167fb4caaf29adda3eefee3ad552a8e85058589bf834c7466cae4ee58787f70589ed868484604051612d9093929190613e7d565b60405180910390a25050505050565b600060026001816001815401808255809150500390600052602060002090505060006001600280549050612dd3919061370f565b90508260028281548110612dea57612de9613d16565b5b906000526020600020906002020160000160006101000a81548173ffffffffffffffffffffffffffffffffffffffff021916908373ffffffffffffffffffffffffffffffffffffffff16021790555080600360008573ffffffffffffffffffffffffffffffffffffffff1673ffffffffffffffffffffffffffffffffffffffff1681526020019081526020016000208190555080915050919050565b6000819050919050565b612e9981612e86565b82525050565b6000604082019050612eb46000830185612e90565b612ec16020830184612e90565b9392505050565b6000602082019050612edd6000830184612e90565b92915050565b600081519050919050565b600082825260208201905092915050565b60005b83811015612f1d578082015181840152602081019050612f02565b83811115612f2c576000848401525b50505050565b6000601f19601f8301169050919050565b6000612f4e82612ee3565b612f588185612eee565b9350612f68818560208601612eff565b612f7181612f32565b840191505092915050565b60006020820190508181036000830152612f968184612f43565b905092915050565b600080fd5b600073ffffffffffffffffffffffffffffffffffffffff82169050919050565b6000612fce82612fa3565b9050919050565b612fde81612fc3565b8114612fe957600080fd5b50565b600081359050612ffb81612fd5565b92915050565b61300a81612e86565b811461301557600080fd5b50565b60008135905061302781613001565b92915050565b6000806040838503121561304457613043612f9e565b5b600061305285828601612fec565b925050602061306385828601613018565b9150509250929050565b60008115159050919050565b6130828161306d565b82525050565b600060208201905061309d6000830184613079565b92915050565b6000602082840312156130b9576130b8612f9e565b5b60006130c784828501613018565b91505092915050565b6130d981612fc3565b82525050565b600063ffffffff82169050919050565b6130f8816130df565b82525050565b600060e082019050613113600083018a6130d0565b6131206020830189612e90565b61312d6040830188612e90565b61313a6060830187612e90565b61314760808301866130ef565b61315460a08301856130ef565b61316160c0830184613079565b98975050505050505050565b600060208201905061318260008301846130d0565b92915050565b6000806000606084860312156131a1576131a0612f9e565b5b60006131af86828701612fec565b93505060206131c086828701612fec565b92505060406131d186828701613018565b9150509250925092565b6131e4816130df565b81146131ef57600080fd5b50565b600081359050613201816131db565b92915050565b6000806000606084860312156132205761321f612f9e565b5b600061322e86828701613018565b935050602061323f868287016131f2565b9250506040613250868287016131f2565b9150509250925092565b6000806040838503121561327157613270612f9e565b5b600061327f85828601613018565b925050602061329085828601613018565b9150509250929050565b6000602082840312156132b0576132af612f9e565b5b60006132be84828501612fec565b91505092915050565b6000806000606084860312156132e0576132df612f9e565b5b60006132ee86828701613018565b93505060206132ff86828701613018565b925050604061331086828701612fec565b9150509250925092565b60008060006060848603121561333357613332612f9e565b5b600061334186828701613018565b935050602061335286828701612fec565b925050604061336386828701613018565b9150509250925092565b600060ff82169050919050565b6133838161336d565b82525050565b600060208201905061339e600083018461337a565b92915050565b600080600080600060a086880312156133c0576133bf612f9e565b5b60006133ce88828901613018565b95505060206133df88828901613018565b94505060406133f088828901613018565b935050606061340188828901612fec565b925050608061341288828901613018565b9150509295509295909350565b600081519050919050565b600082825260208201905092915050565b6000819050602082019050919050565b61345481612fc3565b82525050565b61346381612e86565b82525050565b6134728161306d565b82525050565b60a08201600082015161348e600085018261344b565b5060208201516134a1602085018261345a565b5060408201516134b4604085018261345a565b5060608201516134c76060850182613469565b5060808201516134da608085018261345a565b50505050565b60006134ec8383613478565b60a08301905092915050565b6000602082019050919050565b60006135108261341f565b61351a818561342a565b93506135258361343b565b8060005b8381101561355657815161353d88826134e0565b9750613548836134f8565b925050600181019050613529565b5085935050505092915050565b6000602082019050818103600083015261357d8184613505565b905092915050565b6000806040838503121561359c5761359b612f9e565b5b60006135aa85828601613018565b92505060206135bb85828601612fec565b9150509250929050565b600080604083850312156135dc576135db612f9e565b5b60006135ea85828601612fec565b92505060206135fb85828601612fec565b9150509250929050565b6000819050919050565b600061362a61362561362084612fa3565b613605565b612fa3565b9050919050565b600061363c8261360f565b9050919050565b600061364e82613631565b9050919050565b61365e81613643565b82525050565b60006020820190506136796000830184613655565b92915050565b7f4e487b7100000000000000000000000000000000000000000000000000000000600052602260045260246000fd5b600060028204905060018216806136c657607f821691505b602082108114156136da576136d961367f565b5b50919050565b7f4e487b7100000000000000000000000000000000000000000000000000000000600052601160045260246000fd5b600061371a82612e86565b915061372583612e86565b925082821015613738576137376136e0565b5b828203905092915050565b600061374e82612e86565b915061375983612e86565b9250827fffffffffffffffffffffffffffffffffffffffffffffffffffffffffffffffff0382111561378e5761378d6136e0565b5b828201905092915050565b600081905092915050565b50565b60006137b4600083613799565b91506137bf826137a4565b600082019050919050565b60006137d5826137a7565b9150819050919050565b7f43616c6c206661696c6564000000000000000000000000000000000000000000600082015250565b6000613815600b83612eee565b9150613820826137df565b602082019050919050565b6000602082019050818103600083015261384481613808565b9050919050565b7f5374617274206174203c206e6f77000000000000000000000000000000000000600082015250565b6000613881600e83612eee565b915061388c8261384b565b602082019050919050565b600060208201905081810360008301526138b081613874565b9050919050565b7f656e64206174203c207374617274206174000000000000000000000000000000600082015250565b60006138ed601183612eee565b91506138f8826138b7565b602082019050919050565b6000602082019050818103600083015261391c816138e0565b9050919050565b7f656e64206174203e206d6178206475726174696f6e0000000000000000000000600082015250565b6000613959601583612eee565b915061396482613923565b602082019050919050565b600060208201905081810360008301526139888161394c565b9050919050565b60006080820190506139a46000830187612e90565b6139b16020830186612e90565b6139be60408301856130ef565b6139cb60608301846130ef565b95945050505050565b7f4e487b7100000000000000000000000000000000000000000000000000000000600052601260045260246000fd5b6000613a0e82612e86565b9150613a1983612e86565b925082613a2957613a286139d4565b5b828204905092915050565b6000613a3f82612e86565b9150613a4a83612e86565b9250817fffffffffffffffffffffffffffffffffffffffffffffffffffffffffffffffff0483118215151615613a8357613a826136e0565b5b828202905092915050565b7f4e6f742063726561746f72000000000000000000000000000000000000000000600082015250565b6000613ac4600b83612eee565b9150613acf82613a8e565b602082019050919050565b60006020820190508181036000830152613af381613ab7565b9050919050565b7f7374617274656400000000000000000000000000000000000000000000000000600082015250565b6000613b30600783612eee565b9150613b3b82613afa565b602082019050919050565b60006020820190508181036000830152613b5f81613b23565b9050919050565b7f416d6f756e742073686f756c6420626520626967676572207468616e20300000600082015250565b6000613b9c601e83612eee565b9150613ba782613b66565b602082019050919050565b60006020820190508181036000830152613bcb81613b8f565b9050919050565b7f4e6f7420656e6f75676820746f6b656e73000000000000000000000000000000600082015250565b6000613c08601183612eee565b9150613c1382613bd2565b602082019050919050565b60006020820190508181036000830152613c3781613bfb565b9050919050565b7f456e646564000000000000000000000000000000000000000000000000000000600082015250565b6000613c74600583612eee565b9150613c7f82613c3e565b602082019050919050565b60006020820190508181036000830152613ca381613c67565b9050919050565b7f4e6f7420656e6f75676820737570706c79000000000000000000000000000000600082015250565b6000613ce0601183612eee565b9150613ceb82613caa565b602082019050919050565b60006020820190508181036000830152613d0f81613cd3565b9050919050565b7f4e487b7100000000000000000000000000000000000000000000000000000000600052603260045260246000fd5b7f4e6f7468696e6720706c65646765640000000000000000000000000000000000600082015250565b6000613d7b600f83612eee565b9150613d8682613d45565b602082019050919050565b60006020820190508181036000830152613daa81613d6e565b9050919050565b6000606082019050613dc660008301866130d0565b613dd360208301856130d0565b613de06040830184612e90565b949350505050565b6000604082019050613dfd60008301856130d0565b613e0a6020830184612e90565b9392505050565b7f43616e6e6f74207374616b65206e6f7468696e67000000000000000000000000600082015250565b6000613e47601483612eee565b9150613e5282613e11565b602082019050919050565b60006020820190508181036000830152613e7681613e3a565b9050919050565b6000606082019050613e926000830186612e90565b613e9f6020830185612e90565b613eac6040830184612e90565b94935050505056fea2646970667358221220197e5ff1dca22f27f653f9bd8f9abeb4b1096cff14bf7a2e02b15836fe28dd2564736f6c634300080a0033",
  "linkReferences": {},
  "deployedLinkReferences": {}
}