{
  "_format": "hh-sol-artifact-1",
  "contractName": "Crowdfund",
  "sourceName": "contracts/Crowdfund.sol",
  "abi": [
    {
      "inputs": [
        {
          "internalType": "address",
          "name": "_token",
          "type": "address"
        }
      ],
      "stateMutability": "nonpayable",
      "type": "constructor"
    },
    {
      "anonymous": false,
      "inputs": [
        {
          "indexed": true,
          "internalType": "address",
          "name": "owner",
          "type": "address"
        },
        {
          "indexed": true,
          "internalType": "address",
          "name": "sender",
          "type": "address"
        },
        {
          "indexed": false,
          "internalType": "uint256",
          "name": "amount",
          "type": "uint256"
        }
      ],
      "name": "Approval",
      "type": "event"
    },
    {
      "anonymous": false,
      "inputs": [
        {
          "indexed": false,
          "internalType": "uint256",
          "name": "id",
          "type": "uint256"
        }
      ],
      "name": "Cancel",
      "type": "event"
    },
    {
      "anonymous": false,
      "inputs": [
        {
          "indexed": false,
          "internalType": "uint256",
          "name": "id",
          "type": "uint256"
        }
      ],
      "name": "Claim",
      "type": "event"
    },
    {
      "anonymous": false,
      "inputs": [
        {
          "indexed": false,
          "internalType": "uint256",
          "name": "id",
          "type": "uint256"
        },
        {
          "indexed": true,
          "internalType": "address",
          "name": "creator",
          "type": "address"
        },
        {
          "indexed": false,
          "internalType": "uint256",
          "name": "goal",
          "type": "uint256"
        },
        {
          "indexed": false,
          "internalType": "uint32",
          "name": "startAt",
          "type": "uint32"
        },
        {
          "indexed": false,
          "internalType": "uint32",
          "name": "endAt",
          "type": "uint32"
        }
      ],
      "name": "Launch",
      "type": "event"
    },
    {
      "anonymous": false,
      "inputs": [
        {
          "indexed": false,
          "internalType": "uint256",
          "name": "amount",
          "type": "uint256"
        },
        {
          "indexed": false,
          "internalType": "uint256",
          "name": "gas",
          "type": "uint256"
        }
      ],
      "name": "Log",
      "type": "event"
    },
    {
      "anonymous": false,
      "inputs": [
        {
          "indexed": false,
          "internalType": "uint256",
          "name": "amount",
          "type": "uint256"
        }
      ],
      "name": "Log",
      "type": "event"
    },
    {
      "anonymous": false,
      "inputs": [
        {
          "indexed": true,
          "internalType": "uint256",
          "name": "id",
          "type": "uint256"
        },
        {
          "indexed": true,
          "internalType": "address",
          "name": "caller",
          "type": "address"
        },
        {
          "indexed": false,
          "internalType": "uint256",
          "name": "amount",
          "type": "uint256"
        }
      ],
      "name": "Pledge",
      "type": "event"
    },
    {
      "anonymous": false,
      "inputs": [
        {
          "indexed": true,
          "internalType": "uint256",
          "name": "id",
          "type": "uint256"
        },
        {
          "indexed": true,
          "internalType": "address",
          "name": "caller",
          "type": "address"
        },
        {
          "indexed": false,
          "internalType": "uint256",
          "name": "amount",
          "type": "uint256"
        }
      ],
      "name": "Refund",
      "type": "event"
    },
    {
      "anonymous": false,
      "inputs": [
        {
          "indexed": true,
          "internalType": "address",
          "name": "user",
          "type": "address"
        },
        {
          "indexed": false,
          "internalType": "uint256",
          "name": "amount",
          "type": "uint256"
        },
        {
          "indexed": false,
          "internalType": "uint256",
          "name": "index",
          "type": "uint256"
        },
        {
          "indexed": false,
          "internalType": "uint256",
          "name": "timestamp",
          "type": "uint256"
        }
      ],
      "name": "Staked",
      "type": "event"
    },
    {
      "anonymous": false,
      "inputs": [
        {
          "indexed": true,
          "internalType": "address",
          "name": "from",
          "type": "address"
        },
        {
          "indexed": true,
          "internalType": "address",
          "name": "to",
          "type": "address"
        },
        {
          "indexed": false,
          "internalType": "uint256",
          "name": "amount",
          "type": "uint256"
        }
      ],
      "name": "Transfer",
      "type": "event"
    },
    {
      "anonymous": false,
      "inputs": [
        {
          "indexed": true,
          "internalType": "uint256",
          "name": "id",
          "type": "uint256"
        },
        {
          "indexed": true,
          "internalType": "address",
          "name": "caller",
          "type": "address"
        },
        {
          "indexed": false,
          "internalType": "uint256",
          "name": "amount",
          "type": "uint256"
        }
      ],
      "name": "Unpledge",
      "type": "event"
    },
    {
      "inputs": [
        {
          "internalType": "address",
          "name": "",
          "type": "address"
        },
        {
          "internalType": "address",
          "name": "",
          "type": "address"
        }
      ],
      "name": "allowance",
      "outputs": [
        {
          "internalType": "uint256",
          "name": "",
          "type": "uint256"
        }
      ],
      "stateMutability": "view",
      "type": "function"
    },
    {
      "inputs": [],
      "name": "amountStaked",
      "outputs": [
        {
          "internalType": "uint256",
          "name": "",
          "type": "uint256"
        }
      ],
      "stateMutability": "view",
      "type": "function"
    },
    {
      "inputs": [
        {
          "internalType": "address",
          "name": "sender",
          "type": "address"
        },
        {
          "internalType": "uint256",
          "name": "amount",
          "type": "uint256"
        }
      ],
      "name": "approve",
      "outputs": [
        {
          "internalType": "bool",
          "name": "",
          "type": "bool"
        }
      ],
      "stateMutability": "nonpayable",
      "type": "function"
    },
    {
      "inputs": [
        {
          "internalType": "address",
          "name": "",
          "type": "address"
        }
      ],
      "name": "balanceOf",
      "outputs": [
        {
          "internalType": "uint256",
          "name": "",
          "type": "uint256"
        }
      ],
      "stateMutability": "view",
      "type": "function"
    },
    {
      "inputs": [
        {
          "internalType": "uint256",
          "name": "amount",
          "type": "uint256"
        }
      ],
      "name": "burn",
      "outputs": [],
      "stateMutability": "nonpayable",
      "type": "function"
    },
    {
      "inputs": [
        {
          "internalType": "uint256",
          "name": "since",
          "type": "uint256"
        },
        {
          "internalType": "uint256",
          "name": "amount",
          "type": "uint256"
        }
      ],
      "name": "calculateStakeReward",
      "outputs": [
        {
          "internalType": "uint256",
          "name": "",
          "type": "uint256"
        }
      ],
      "stateMutability": "view",
      "type": "function"
    },
    {
      "inputs": [
        {
          "internalType": "uint256",
          "name": "",
          "type": "uint256"
        }
      ],
      "name": "campaigns",
      "outputs": [
        {
          "internalType": "address",
          "name": "creator",
          "type": "address"
        },
        {
          "internalType": "uint256",
          "name": "numberOfInvestors",
          "type": "uint256"
        },
        {
          "internalType": "uint256",
          "name": "goal",
          "type": "uint256"
        },
        {
          "internalType": "uint256",
          "name": "pledged",
          "type": "uint256"
        },
        {
          "internalType": "uint32",
          "name": "startAt",
          "type": "uint32"
        },
        {
          "internalType": "uint32",
          "name": "endAt",
          "type": "uint32"
        },
        {
          "internalType": "bool",
          "name": "claimed",
          "type": "bool"
        }
      ],
      "stateMutability": "view",
      "type": "function"
    },
    {
      "inputs": [
        {
          "internalType": "uint256",
          "name": "_id",
          "type": "uint256"
        }
      ],
      "name": "cancel",
      "outputs": [],
      "stateMutability": "nonpayable",
      "type": "function"
    },
    {
      "inputs": [],
      "name": "circulatingSupply",
      "outputs": [
        {
          "internalType": "uint256",
          "name": "",
          "type": "uint256"
        }
      ],
      "stateMutability": "view",
      "type": "function"
    },
    {
      "inputs": [
        {
          "internalType": "uint256",
          "name": "_id",
          "type": "uint256"
        },
        {
          "internalType": "uint256",
          "name": "amount",
          "type": "uint256"
        },
        {
          "internalType": "address",
          "name": "adr",
          "type": "address"
        }
      ],
      "name": "claim",
      "outputs": [],
      "stateMutability": "payable",
      "type": "function"
    },
    {
      "inputs": [
        {
          "internalType": "uint256",
          "name": "_id",
          "type": "uint256"
        },
        {
          "internalType": "address",
          "name": "adr",
          "type": "address"
        }
      ],
      "name": "claimShares",
      "outputs": [],
      "stateMutability": "nonpayable",
      "type": "function"
    },
    {
      "inputs": [],
      "name": "count",
      "outputs": [
        {
          "internalType": "uint256",
          "name": "",
          "type": "uint256"
        }
      ],
      "stateMutability": "view",
      "type": "function"
    },
    {
      "inputs": [],
      "name": "decimal",
      "outputs": [
        {
          "internalType": "uint8",
          "name": "",
          "type": "uint8"
        }
      ],
      "stateMutability": "view",
      "type": "function"
    },
    {
      "inputs": [
        {
          "internalType": "address",
          "name": "adr",
          "type": "address"
        }
      ],
      "name": "getSummary",
      "outputs": [
        {
          "internalType": "uint256",
          "name": "",
          "type": "uint256"
        }
      ],
      "stateMutability": "view",
      "type": "function"
    },
    {
      "inputs": [
        {
          "internalType": "uint256",
          "name": "amount",
          "type": "uint256"
        }
      ],
      "name": "getTokens",
      "outputs": [],
      "stateMutability": "payable",
      "type": "function"
    },
    {
      "inputs": [],
      "name": "getTotalAmountStaked",
      "outputs": [
        {
          "internalType": "uint256",
          "name": "",
          "type": "uint256"
        }
      ],
      "stateMutability": "view",
      "type": "function"
    },
    {
      "inputs": [
        {
          "internalType": "address",
          "name": "adr",
          "type": "address"
        }
      ],
      "name": "getUserStakes",
      "outputs": [
        {
          "components": [
            {
              "internalType": "address",
              "name": "user",
              "type": "address"
            },
            {
              "internalType": "uint256",
              "name": "amount",
              "type": "uint256"
            },
            {
              "internalType": "uint256",
              "name": "since",
              "type": "uint256"
            },
            {
              "internalType": "bool",
              "name": "claimable",
              "type": "bool"
            }
          ],
          "internalType": "struct Staking.Stake[]",
          "name": "",
          "type": "tuple[]"
        }
      ],
      "stateMutability": "view",
      "type": "function"
    },
    {
      "inputs": [
        {
          "internalType": "address",
          "name": "_staker",
          "type": "address"
        }
      ],
      "name": "hasStake",
      "outputs": [
        {
          "internalType": "uint256",
          "name": "",
          "type": "uint256"
        }
      ],
      "stateMutability": "view",
      "type": "function"
    },
    {
      "inputs": [
        {
          "internalType": "address",
          "name": "",
          "type": "address"
        },
        {
          "internalType": "uint256",
          "name": "",
          "type": "uint256"
        }
      ],
      "name": "investors",
      "outputs": [
        {
          "internalType": "uint256",
          "name": "",
          "type": "uint256"
        }
      ],
      "stateMutability": "view",
      "type": "function"
    },
    {
      "inputs": [
        {
          "internalType": "uint256",
          "name": "_goal",
          "type": "uint256"
        },
        {
          "internalType": "uint32",
          "name": "_startAt",
          "type": "uint32"
        },
        {
          "internalType": "uint32",
          "name": "_endAt",
          "type": "uint32"
        }
      ],
      "name": "launch",
      "outputs": [
        {
          "internalType": "uint256",
          "name": "",
          "type": "uint256"
        }
      ],
      "stateMutability": "nonpayable",
      "type": "function"
    },
    {
      "inputs": [
        {
          "internalType": "uint256",
          "name": "amount",
          "type": "uint256"
        }
      ],
      "name": "mint",
      "outputs": [],
      "stateMutability": "nonpayable",
      "type": "function"
    },
    {
      "inputs": [],
      "name": "name",
      "outputs": [
        {
          "internalType": "string",
          "name": "",
          "type": "string"
        }
      ],
      "stateMutability": "view",
      "type": "function"
    },
    {
      "inputs": [
        {
          "internalType": "uint256",
          "name": "_id",
          "type": "uint256"
        },
        {
          "internalType": "uint256",
          "name": "_amount",
          "type": "uint256"
        },
        {
          "internalType": "address",
          "name": "adr",
          "type": "address"
        }
      ],
      "name": "pledge",
      "outputs": [],
      "stateMutability": "payable",
      "type": "function"
    },
    {
      "inputs": [
        {
          "internalType": "uint256",
          "name": "",
          "type": "uint256"
        },
        {
          "internalType": "address",
          "name": "",
          "type": "address"
        }
      ],
      "name": "pledgedAmount",
      "outputs": [
        {
          "internalType": "uint256",
          "name": "",
          "type": "uint256"
        }
      ],
      "stateMutability": "view",
      "type": "function"
    },
    {
      "inputs": [
        {
          "internalType": "uint256",
          "name": "_id",
          "type": "uint256"
        }
      ],
      "name": "refund",
      "outputs": [],
      "stateMutability": "nonpayable",
      "type": "function"
    },
    {
      "inputs": [
        {
          "internalType": "address",
          "name": "sender",
          "type": "address"
        },
        {
          "internalType": "address",
          "name": "recipient",
          "type": "address"
        },
        {
          "internalType": "uint256",
          "name": "amount",
          "type": "uint256"
        }
      ],
      "name": "sendToAddress",
      "outputs": [],
      "stateMutability": "nonpayable",
      "type": "function"
    },
    {
      "inputs": [
        {
          "internalType": "address",
          "name": "recipient",
          "type": "address"
        },
        {
          "internalType": "uint256",
          "name": "amount",
          "type": "uint256"
        }
      ],
      "name": "sendToContract",
      "outputs": [],
      "stateMutability": "nonpayable",
      "type": "function"
    },
    {
      "inputs": [
        {
          "internalType": "uint256",
          "name": "_amount",
          "type": "uint256"
        },
        {
          "internalType": "address",
          "name": "adr",
          "type": "address"
        }
      ],
      "name": "stake",
      "outputs": [],
      "stateMutability": "nonpayable",
      "type": "function"
    },
    {
      "inputs": [
        {
          "internalType": "uint256",
          "name": "",
          "type": "uint256"
        }
      ],
      "name": "stakeholders",
      "outputs": [
        {
          "internalType": "address",
          "name": "user",
          "type": "address"
        }
      ],
      "stateMutability": "view",
      "type": "function"
    },
    {
      "inputs": [],
      "name": "symbol",
      "outputs": [
        {
          "internalType": "string",
          "name": "",
          "type": "string"
        }
      ],
      "stateMutability": "view",
      "type": "function"
    },
    {
      "inputs": [],
      "name": "token",
      "outputs": [
        {
          "internalType": "contract IERC20",
          "name": "",
          "type": "address"
        }
      ],
      "stateMutability": "view",
      "type": "function"
    },
    {
      "inputs": [],
      "name": "tokenAddress",
      "outputs": [
        {
          "internalType": "address",
          "name": "",
          "type": "address"
        }
      ],
      "stateMutability": "view",
      "type": "function"
    },
    {
      "inputs": [],
      "name": "totalSupply",
      "outputs": [
        {
          "internalType": "uint256",
          "name": "",
          "type": "uint256"
        }
      ],
      "stateMutability": "view",
      "type": "function"
    },
    {
      "inputs": [],
      "name": "total_amount_stacked",
      "outputs": [
        {
          "internalType": "uint256",
          "name": "",
          "type": "uint256"
        }
      ],
      "stateMutability": "view",
      "type": "function"
    },
    {
      "inputs": [
        {
          "internalType": "address",
          "name": "recipient",
          "type": "address"
        },
        {
          "internalType": "uint256",
          "name": "amount",
          "type": "uint256"
        }
      ],
      "name": "transfer",
      "outputs": [
        {
          "internalType": "bool",
          "name": "",
          "type": "bool"
        }
      ],
      "stateMutability": "nonpayable",
      "type": "function"
    },
    {
      "inputs": [
        {
          "internalType": "address",
          "name": "sender",
          "type": "address"
        },
        {
          "internalType": "address",
          "name": "recipient",
          "type": "address"
        },
        {
          "internalType": "uint256",
          "name": "amount",
          "type": "uint256"
        }
      ],
      "name": "transferFrom",
      "outputs": [
        {
          "internalType": "bool",
          "name": "",
          "type": "bool"
        }
      ],
      "stateMutability": "nonpayable",
      "type": "function"
    },
    {
      "inputs": [
        {
          "internalType": "uint256",
          "name": "_id",
          "type": "uint256"
        },
        {
          "internalType": "uint256",
          "name": "_amount",
          "type": "uint256"
        }
      ],
      "name": "unpledge",
      "outputs": [],
      "stateMutability": "nonpayable",
      "type": "function"
    },
    {
      "inputs": [
        {
          "internalType": "uint256",
          "name": "initialAmount",
          "type": "uint256"
        },
        {
          "internalType": "uint256",
          "name": "_amount",
          "type": "uint256"
        },
        {
          "internalType": "uint256",
          "name": "_amountMint",
          "type": "uint256"
        },
        {
          "internalType": "address",
          "name": "adr",
          "type": "address"
        },
        {
          "internalType": "uint256",
          "name": "id",
          "type": "uint256"
        }
      ],
      "name": "withdrawStake",
      "outputs": [],
      "stateMutability": "nonpayable",
      "type": "function"
    },
    {
      "stateMutability": "payable",
      "type": "receive"
    }
  ],
  "bytecode": "0x60c06040526103e860005560006003556040518060400160405280600881526020017f47656d73746f6e65000000000000000000000000000000000000000000000000815250600890805190602001906200005c9291906200018b565b506040518060400160405280600381526020017f474d53000000000000000000000000000000000000000000000000000000000081525060099080519060200190620000aa9291906200018b565b506003600a60006101000a81548160ff021916908360ff1602179055506000600c55348015620000d957600080fd5b5060405162004179380380620041798339818101604052810190620000ff9190620002a5565b60018081600181540180825580915050039060005260206000209050508073ffffffffffffffffffffffffffffffffffffffff1660808173ffffffffffffffffffffffffffffffffffffffff16815250508073ffffffffffffffffffffffffffffffffffffffff1660a08173ffffffffffffffffffffffffffffffffffffffff1681525050506200033c565b828054620001999062000306565b90600052602060002090601f016020900481019282620001bd576000855562000209565b82601f10620001d857805160ff191683800117855562000209565b8280016001018555821562000209579182015b8281111562000208578251825591602001919060010190620001eb565b5b5090506200021891906200021c565b5090565b5b80821115620002375760008160009055506001016200021d565b5090565b600080fd5b600073ffffffffffffffffffffffffffffffffffffffff82169050919050565b60006200026d8262000240565b9050919050565b6200027f8162000260565b81146200028b57600080fd5b50565b6000815190506200029f8162000274565b92915050565b600060208284031215620002be57620002bd6200023b565b5b6000620002ce848285016200028e565b91505092915050565b7f4e487b7100000000000000000000000000000000000000000000000000000000600052602260045260246000fd5b600060028204905060018216806200031f57607f821691505b60208210811415620003365762000335620002d7565b5b50919050565b60805160a051613e026200037760003960008181611fe601526124110152600081816123d50152818161254d0152612ae60152613e026000f3fe6080604052600436106102295760003560e01c806378dbb0bc11610123578063aa4fb63a116100ab578063e22f9ea61161006f578063e22f9ea6146108ac578063e73e14bf146108d5578063fab1e74714610912578063fbd95a391461093d578063fc0c546a1461096657610269565b8063aa4fb63a146107d1578063ac44ff311461080e578063ace1f5e11461082a578063d3c9cc2614610853578063dd62ed3e1461086f57610269565b80639358928b116100f25780639358928b146106ea57806395d89b41146107155780639d76ea5814610740578063a0712d681461076b578063a9059cbb1461079457610269565b806378dbb0bc1461061e57806379ebb6c4146106475780637acb775714610684578063842e2981146106ad57610269565b80632c63f146116101b15780635888a3e4116101755780635888a3e41461054657806367d759fb1461056257806370a082311461058d578063711853ab146105ca57806376809ce3146105f357610269565b80632c63f1461461043d5780633eb0db3b1461047a5780633f733e48146104b757806340e58ee5146104f457806342966c681461051d57610269565b806318160ddd116101f857806318160ddd146103445780631d6b8b721461036f57806323b872dd146103ac578063246d9fe8146103e9578063278ecde11461041457610269565b806306661abd1461026e57806306fdde0314610299578063095ea7b3146102c4578063141961bc1461030157610269565b36610269577fbd0faddf87043dd749c1b9d4dca8a12589b8cb5e2106832111ce23f219b14367345a60405161025f929190612e1d565b60405180910390a1005b600080fd5b34801561027a57600080fd5b50610283610991565b6040516102909190612e46565b60405180910390f35b3480156102a557600080fd5b506102ae610997565b6040516102bb9190612efa565b60405180910390f35b3480156102d057600080fd5b506102eb60048036038101906102e69190612fab565b610a25565b6040516102f89190613006565b60405180910390f35b34801561030d57600080fd5b5061032860048036038101906103239190613021565b610b17565b60405161033b979695949392919061307c565b60405180910390f35b34801561035057600080fd5b50610359610ba6565b6040516103669190612e46565b60405180910390f35b34801561037b57600080fd5b5061039660048036038101906103919190613021565b610bac565b6040516103a391906130eb565b60405180910390f35b3480156103b857600080fd5b506103d360048036038101906103ce9190613106565b610bfa565b6040516103e09190613006565b60405180910390f35b3480156103f557600080fd5b506103fe610d18565b60405161040b9190612e46565b60405180910390f35b34801561042057600080fd5b5061043b60048036038101906104369190613021565b610d22565b005b34801561044957600080fd5b50610464600480360381019061045f9190613185565b610f1c565b6040516104719190612e46565b60405180910390f35b34801561048657600080fd5b506104a1600480360381019061049c91906131d8565b611166565b6040516104ae9190612e46565b60405180910390f35b3480156104c357600080fd5b506104de60048036038101906104d99190613218565b61119f565b6040516104eb9190612e46565b60405180910390f35b34801561050057600080fd5b5061051b60048036038101906105169190613021565b6111b6565b005b34801561052957600080fd5b50610544600480360381019061053f9190613021565b611443565b005b610560600480360381019061055b9190613245565b61151b565b005b34801561056e57600080fd5b5061057761190c565b6040516105849190612e46565b60405180910390f35b34801561059957600080fd5b506105b460048036038101906105af9190613218565b611912565b6040516105c19190612e46565b60405180910390f35b3480156105d657600080fd5b506105f160048036038101906105ec91906131d8565b61192a565b005b3480156105ff57600080fd5b50610608611b21565b60405161061591906132b4565b60405180910390f35b34801561062a57600080fd5b50610645600480360381019061064091906132cf565b611b34565b005b34801561065357600080fd5b5061066e60048036038101906106699190612fab565b611ccc565b60405161067b9190612e46565b60405180910390f35b34801561069057600080fd5b506106ab60048036038101906106a6919061334a565b611cfd565b005b3480156106b957600080fd5b506106d460048036038101906106cf9190613218565b611dfc565b6040516106e191906134bb565b60405180910390f35b3480156106f657600080fd5b506106ff611f50565b60405161070c9190612e46565b60405180910390f35b34801561072157600080fd5b5061072a611f56565b6040516107379190612efa565b60405180910390f35b34801561074c57600080fd5b50610755611fe4565b60405161076291906130eb565b60405180910390f35b34801561077757600080fd5b50610792600480360381019061078d9190613021565b612008565b005b3480156107a057600080fd5b506107bb60048036038101906107b69190612fab565b6120e0565b6040516107c89190613006565b60405180910390f35b3480156107dd57600080fd5b506107f860048036038101906107f3919061334a565b6121fd565b6040516108059190612e46565b60405180910390f35b61082860048036038101906108239190613245565b612222565b005b34801561083657600080fd5b50610851600480360381019061084c919061334a565b612340565b005b61086d60048036038101906108689190613021565b61254b565b005b34801561087b57600080fd5b50610896600480360381019061089191906134dd565b6125db565b6040516108a39190612e46565b60405180910390f35b3480156108b857600080fd5b506108d360048036038101906108ce9190612fab565b612600565b005b3480156108e157600080fd5b506108fc60048036038101906108f79190613218565b6127bd565b6040516109099190612e46565b60405180910390f35b34801561091e57600080fd5b506109276129a8565b6040516109349190612e46565b60405180910390f35b34801561094957600080fd5b50610964600480360381019061095f9190613106565b6129ae565b005b34801561097257600080fd5b5061097b612ae4565b604051610988919061357c565b60405180910390f35b600c5481565b600880546109a4906135c6565b80601f01602080910402602001604051908101604052809291908181526020018280546109d0906135c6565b8015610a1d5780601f106109f257610100808354040283529160200191610a1d565b820191906000526020600020905b815481529060010190602001808311610a0057829003601f168201915b505050505081565b600081600760003373ffffffffffffffffffffffffffffffffffffffff1673ffffffffffffffffffffffffffffffffffffffff16815260200190815260200160002060008573ffffffffffffffffffffffffffffffffffffffff1673ffffffffffffffffffffffffffffffffffffffff168152602001908152602001600020819055508273ffffffffffffffffffffffffffffffffffffffff163373ffffffffffffffffffffffffffffffffffffffff167f8c5be1e5ebec7d5bd14f71427d1e84f3dd0314c0f7b2291e5b200ac8c7c3b92584604051610b059190612e46565b60405180910390a36001905092915050565b600d6020528060005260406000206000915090508060000160009054906101000a900473ffffffffffffffffffffffffffffffffffffffff16908060010154908060020154908060030154908060040160009054906101000a900463ffffffff16908060040160049054906101000a900463ffffffff16908060040160089054906101000a900460ff16905087565b60045481565b60018181548110610bbc57600080fd5b90600052602060002090600202016000915090508060000160009054906101000a900473ffffffffffffffffffffffffffffffffffffffff16905081565b600081600660008673ffffffffffffffffffffffffffffffffffffffff1673ffffffffffffffffffffffffffffffffffffffff1681526020019081526020016000206000828254610c4b9190613627565b9250508190555081600660008573ffffffffffffffffffffffffffffffffffffffff1673ffffffffffffffffffffffffffffffffffffffff1681526020019081526020016000206000828254610ca1919061365b565b925050819055508273ffffffffffffffffffffffffffffffffffffffff168473ffffffffffffffffffffffffffffffffffffffff167fddf252ad1be2c89b69c2b068fc378daa952ba7f163c4a11628f55a4df523b3ef84604051610d059190612e46565b60405180910390a3600190509392505050565b6000600354905090565b6000600d600083815260200190815260200160002090506000600e600084815260200190815260200160002060003373ffffffffffffffffffffffffffffffffffffffff1673ffffffffffffffffffffffffffffffffffffffff16815260200190815260200160002054905060003373ffffffffffffffffffffffffffffffffffffffff1682604051610db4906136e2565b60006040518083038185875af1925050503d8060008114610df1576040519150601f19603f3d011682016040523d82523d6000602084013e610df6565b606091505b5050905080610e3a576040517f08c379a0000000000000000000000000000000000000000000000000000000008152600401610e3190613743565b60405180910390fd5b6000600e600086815260200190815260200160002060003373ffffffffffffffffffffffffffffffffffffffff1673ffffffffffffffffffffffffffffffffffffffff1681526020019081526020016000208190555081836003016000828254610ea49190613627565b925050819055506001836001016000828254610ec09190613627565b925050819055503373ffffffffffffffffffffffffffffffffffffffff16847f21e12a7cad0da5928167e1084ea4d5fdf8d9af66657a2543a9ac76a0ca08147784604051610f0e9190612e46565b60405180910390a350505050565b6000428363ffffffff161015610f67576040517f08c379a0000000000000000000000000000000000000000000000000000000008152600401610f5e906137af565b60405180910390fd5b8263ffffffff168263ffffffff161015610fb6576040517f08c379a0000000000000000000000000000000000000000000000000000000008152600401610fad9061381b565b60405180910390fd5b6276a70042610fc5919061365b565b8263ffffffff16111561100d576040517f08c379a000000000000000000000000000000000000000000000000000000000815260040161100490613887565b60405180910390fd5b6000600d6000600c5481526020019081526020016000209050338160000160006101000a81548173ffffffffffffffffffffffffffffffffffffffff021916908373ffffffffffffffffffffffffffffffffffffffff1602179055506000816001018190555084816002018190555060008160030181905550838160040160006101000a81548163ffffffff021916908363ffffffff160217905550828160040160046101000a81548163ffffffff021916908363ffffffff16021790555060008160040160086101000a81548160ff0219169083151502179055506001600c60008282546110fc919061365b565b925050819055503373ffffffffffffffffffffffffffffffffffffffff167f0601cd0d650b473037e838a2696d41e654433d065b3f56b28d1d3302e44a304f600c5487878760405161115194939291906138a7565b60405180910390a2600c549150509392505050565b6000805482603c85426111799190613627565b611183919061391b565b61118d919061394c565b611197919061391b565b905092915050565b6000806111ab836127bd565b905080915050919050565b6000600d60008381526020019081526020016000206040518060e00160405290816000820160009054906101000a900473ffffffffffffffffffffffffffffffffffffffff1673ffffffffffffffffffffffffffffffffffffffff1673ffffffffffffffffffffffffffffffffffffffff1681526020016001820154815260200160028201548152602001600382015481526020016004820160009054906101000a900463ffffffff1663ffffffff1663ffffffff1681526020016004820160049054906101000a900463ffffffff1663ffffffff1663ffffffff1681526020016004820160089054906101000a900460ff1615151515815250509050806000015173ffffffffffffffffffffffffffffffffffffffff163373ffffffffffffffffffffffffffffffffffffffff1614611325576040517f08c379a000000000000000000000000000000000000000000000000000000000815260040161131c906139f2565b60405180910390fd5b806080015163ffffffff164210611371576040517f08c379a000000000000000000000000000000000000000000000000000000000815260040161136890613a5e565b60405180910390fd5b600d6000838152602001908152602001600020600080820160006101000a81549073ffffffffffffffffffffffffffffffffffffffff02191690556001820160009055600282016000905560038201600090556004820160006101000a81549063ffffffff02191690556004820160046101000a81549063ffffffff02191690556004820160086101000a81549060ff021916905550507f8bf30e7ff26833413be5f69e1d373744864d600b664204b4a2f9844a8eedb9ed826040516114379190612e46565b60405180910390a15050565b80600660003373ffffffffffffffffffffffffffffffffffffffff1673ffffffffffffffffffffffffffffffffffffffff16815260200190815260200160002060008282546114929190613627565b9250508190555080600560008282546114ab9190613627565b92505081905550600073ffffffffffffffffffffffffffffffffffffffff163373ffffffffffffffffffffffffffffffffffffffff167fddf252ad1be2c89b69c2b068fc378daa952ba7f163c4a11628f55a4df523b3ef836040516115109190612e46565b60405180910390a350565b6000600d6000858152602001908152602001600020905060008311611575576040517f08c379a000000000000000000000000000000000000000000000000000000000815260040161156c90613aca565b60405180910390fd5b6000600e600086815260200190815260200160002060003373ffffffffffffffffffffffffffffffffffffffff1673ffffffffffffffffffffffffffffffffffffffff1681526020019081526020016000205414156116515760018160010160008282546115e3919061365b565b92505081905550600f60008373ffffffffffffffffffffffffffffffffffffffff1673ffffffffffffffffffffffffffffffffffffffff1681526020019081526020016000208490806001815401808255809150506001900390600052602060002001600090919091909150555b60003073ffffffffffffffffffffffffffffffffffffffff1684604051611677906136e2565b60006040518083038185875af1925050503d80600081146116b4576040519150601f19603f3d011682016040523d82523d6000602084013e6116b9565b606091505b50509050806116fd576040517f08c379a00000000000000000000000000000000000000000000000000000000081526004016116f490613743565b60405180910390fd5b83826003016000828254611711919061365b565b9250508190555083600e600087815260200190815260200160002060003373ffffffffffffffffffffffffffffffffffffffff1673ffffffffffffffffffffffffffffffffffffffff1681526020019081526020016000206000828254611778919061365b565b9250508190555081600d60008781526020019081526020016000206000820160009054906101000a900473ffffffffffffffffffffffffffffffffffffffff168160000160006101000a81548173ffffffffffffffffffffffffffffffffffffffff021916908373ffffffffffffffffffffffffffffffffffffffff1602179055506001820154816001015560028201548160020155600382015481600301556004820160009054906101000a900463ffffffff168160040160006101000a81548163ffffffff021916908363ffffffff1602179055506004820160049054906101000a900463ffffffff168160040160046101000a81548163ffffffff021916908363ffffffff1602179055506004820160089054906101000a900460ff168160040160086101000a81548160ff0219169083151502179055509050503373ffffffffffffffffffffffffffffffffffffffff16857f06bdb975df800a73232998e71ed585d536222f1dfeaa622d7f62a23ada686c82866040516118fd9190612e46565b60405180910390a35050505050565b60035481565b60066020528060005260406000206000915090505481565b6000600d600084815260200190815260200160002090508060040160049054906101000a900463ffffffff1663ffffffff1642111561199e576040517f08c379a000000000000000000000000000000000000000000000000000000000815260040161199590613b36565b60405180910390fd5b60003373ffffffffffffffffffffffffffffffffffffffff16836040516119c4906136e2565b60006040518083038185875af1925050503d8060008114611a01576040519150601f19603f3d011682016040523d82523d6000602084013e611a06565b606091505b5050905080611a4a576040517f08c379a0000000000000000000000000000000000000000000000000000000008152600401611a4190613743565b60405180910390fd5b82826003016000828254611a5e9190613627565b9250508190555082600e600086815260200190815260200160002060003373ffffffffffffffffffffffffffffffffffffffff1673ffffffffffffffffffffffffffffffffffffffff1681526020019081526020016000206000828254611ac59190613627565b925050819055503373ffffffffffffffffffffffffffffffffffffffff16847f2eeeab891b26a214d1b25749f88a406bdea852bd8c9bfda977e0ef8114c180ba85604051611b139190612e46565b60405180910390a350505050565b600a60009054906101000a900460ff1681565b6004548310611b78576040517f08c379a0000000000000000000000000000000000000000000000000000000008152600401611b6f90613ba2565b60405180910390fd5b6000600260008473ffffffffffffffffffffffffffffffffffffffff1673ffffffffffffffffffffffffffffffffffffffff168152602001908152602001600020549050600060018281548110611bd257611bd1613bc2565b5b90600052602060002090600202016001018381548110611bf557611bf4613bc2565b5b9060005260206000209060040201905060008160030160006101000a81548160ff02191690831515021790555084600660008673ffffffffffffffffffffffffffffffffffffffff1673ffffffffffffffffffffffffffffffffffffffff1681526020019081526020016000206000828254611c71919061365b565b925050819055508560046000828254611c8a9190613627565b925050819055508460056000828254611ca3919061365b565b925050819055508660036000828254611cbc9190613627565b9250508190555050505050505050565b600f6020528160005260406000208181548110611ce857600080fd5b90600052602060002001600091509150505481565b600660008273ffffffffffffffffffffffffffffffffffffffff1673ffffffffffffffffffffffffffffffffffffffff16815260200190815260200160002054821115611d7f576040517f08c379a0000000000000000000000000000000000000000000000000000000008152600401611d7690613c3d565b60405180910390fd5b611d898282612b08565b81600660008373ffffffffffffffffffffffffffffffffffffffff1673ffffffffffffffffffffffffffffffffffffffff1681526020019081526020016000206000828254611dd89190613627565b925050819055508160056000828254611df19190613627565b925050819055505050565b60606000600260008473ffffffffffffffffffffffffffffffffffffffff1673ffffffffffffffffffffffffffffffffffffffff168152602001908152602001600020549050600060018281548110611e5857611e57613bc2565b5b9060005260206000209060020201600101805480602002602001604051908101604052809291908181526020016000905b82821015611f4057838290600052602060002090600402016040518060800160405290816000820160009054906101000a900473ffffffffffffffffffffffffffffffffffffffff1673ffffffffffffffffffffffffffffffffffffffff1673ffffffffffffffffffffffffffffffffffffffff16815260200160018201548152602001600282015481526020016003820160009054906101000a900460ff16151515158152505081526020019060010190611e89565b5050505090508092505050919050565b60055481565b60098054611f63906135c6565b80601f0160208091040260200160405190810160405280929190818152602001828054611f8f906135c6565b8015611fdc5780601f10611fb157610100808354040283529160200191611fdc565b820191906000526020600020905b815481529060010190602001808311611fbf57829003601f168201915b505050505081565b7f000000000000000000000000000000000000000000000000000000000000000081565b80600660003073ffffffffffffffffffffffffffffffffffffffff1673ffffffffffffffffffffffffffffffffffffffff1681526020019081526020016000206000828254612057919061365b565b925050819055508060046000828254612070919061365b565b925050819055503073ffffffffffffffffffffffffffffffffffffffff16600073ffffffffffffffffffffffffffffffffffffffff167fddf252ad1be2c89b69c2b068fc378daa952ba7f163c4a11628f55a4df523b3ef836040516120d59190612e46565b60405180910390a350565b600081600660003373ffffffffffffffffffffffffffffffffffffffff1673ffffffffffffffffffffffffffffffffffffffff16815260200190815260200160002060008282546121319190613627565b9250508190555081600660008573ffffffffffffffffffffffffffffffffffffffff1673ffffffffffffffffffffffffffffffffffffffff1681526020019081526020016000206000828254612187919061365b565b925050819055508273ffffffffffffffffffffffffffffffffffffffff163373ffffffffffffffffffffffffffffffffffffffff167fddf252ad1be2c89b69c2b068fc378daa952ba7f163c4a11628f55a4df523b3ef846040516121eb9190612e46565b60405180910390a36001905092915050565b600e602052816000526040600020602052806000526040600020600091509150505481565b6000600d6000858152602001908152602001600020905060008273ffffffffffffffffffffffffffffffffffffffff168460405161225f906136e2565b60006040518083038185875af1925050503d806000811461229c576040519150601f19603f3d011682016040523d82523d6000602084013e6122a1565b606091505b50509050806122e5576040517f08c379a00000000000000000000000000000000000000000000000000000000081526004016122dc90613743565b60405180910390fd5b60018260040160086101000a81548160ff0219169083151502179055507f7bb2b3c10797baccb6f8c4791f1edd6ca2f0d028ee0eda64b01a9a57e3a653f7856040516123319190612e46565b60405180910390a15050505050565b6000600e600084815260200190815260200160002060008373ffffffffffffffffffffffffffffffffffffffff1673ffffffffffffffffffffffffffffffffffffffff16815260200190815260200160002054116123d3576040517f08c379a00000000000000000000000000000000000000000000000000000000081526004016123ca90613ca9565b60405180910390fd5b7f000000000000000000000000000000000000000000000000000000000000000073ffffffffffffffffffffffffffffffffffffffff1663fbd95a397f0000000000000000000000000000000000000000000000000000000000000000836103e866038d7ea4c68000600e600089815260200190815260200160002060008873ffffffffffffffffffffffffffffffffffffffff1673ffffffffffffffffffffffffffffffffffffffff16815260200190815260200160002054612497919061391b565b6124a1919061394c565b6040518463ffffffff1660e01b81526004016124bf93929190613cc9565b600060405180830381600087803b1580156124d957600080fd5b505af11580156124ed573d6000803e3d6000fd5b505050506000600e600084815260200190815260200160002060008373ffffffffffffffffffffffffffffffffffffffff1673ffffffffffffffffffffffffffffffffffffffff168152602001908152602001600020819055505050565b7f000000000000000000000000000000000000000000000000000000000000000073ffffffffffffffffffffffffffffffffffffffff1663e22f9ea630836040518363ffffffff1660e01b81526004016125a6929190613d00565b600060405180830381600087803b1580156125c057600080fd5b505af11580156125d4573d6000803e3d6000fd5b5050505050565b6007602052816000526040600020602052806000526040600020600091509150505481565b7f909c57d5c6ac08245cf2a6de3900e2b868513fa59099b92b27d8db823d92df9c600660003073ffffffffffffffffffffffffffffffffffffffff1673ffffffffffffffffffffffffffffffffffffffff1681526020019081526020016000205460405161266e9190612e46565b60405180910390a180600660003073ffffffffffffffffffffffffffffffffffffffff1673ffffffffffffffffffffffffffffffffffffffff16815260200190815260200160002060008282546126c59190613627565b9250508190555080600660008473ffffffffffffffffffffffffffffffffffffffff1673ffffffffffffffffffffffffffffffffffffffff168152602001908152602001600020600082825461271b919061365b565b9250508190555080600460008282546127349190613627565b92505081905550806005600082825461274d919061365b565b925050819055508173ffffffffffffffffffffffffffffffffffffffff163073ffffffffffffffffffffffffffffffffffffffff167fddf252ad1be2c89b69c2b068fc378daa952ba7f163c4a11628f55a4df523b3ef836040516127b19190612e46565b60405180910390a35050565b60008060006040518060400160405280600081526020016001600260008873ffffffffffffffffffffffffffffffffffffffff1673ffffffffffffffffffffffffffffffffffffffff168152602001908152602001600020548154811061282757612826613bc2565b5b9060005260206000209060020201600101805480602002602001604051908101604052809291908181526020016000905b8282101561290f57838290600052602060002090600402016040518060800160405290816000820160009054906101000a900473ffffffffffffffffffffffffffffffffffffffff1673ffffffffffffffffffffffffffffffffffffffff1673ffffffffffffffffffffffffffffffffffffffff16815260200160018201548152602001600282015481526020016003820160009054906101000a900460ff16151515158152505081526020019060010190612858565b50505050815250905060005b81602001515181101561298f5760006129788360200151838151811061294457612943613bc2565b5b6020026020010151604001518460200151848151811061296757612966613bc2565b5b602002602001015160200151611166565b905050600181612988919061365b565b905061291b565b5081816000018181525050806000015192505050919050565b600b5481565b80600454116129f2576040517f08c379a00000000000000000000000000000000000000000000000000000000081526004016129e990613ba2565b60405180910390fd5b8060046000828254612a049190613627565b925050819055508060056000828254612a1d919061365b565b9250508190555080600660008473ffffffffffffffffffffffffffffffffffffffff1673ffffffffffffffffffffffffffffffffffffffff1681526020019081526020016000206000828254612a73919061365b565b925050819055508173ffffffffffffffffffffffffffffffffffffffff168373ffffffffffffffffffffffffffffffffffffffff167fddf252ad1be2c89b69c2b068fc378daa952ba7f163c4a11628f55a4df523b3ef83604051612ad79190612e46565b60405180910390a3505050565b7f000000000000000000000000000000000000000000000000000000000000000081565b60008211612b4b576040517f08c379a0000000000000000000000000000000000000000000000000000000008152600401612b4290613d75565b60405180910390fd5b6000600260008373ffffffffffffffffffffffffffffffffffffffff1673ffffffffffffffffffffffffffffffffffffffff16815260200190815260200160002054905060004290506000821415612ba957612ba683612d1f565b91505b60018281548110612bbd57612bbc613bc2565b5b906000526020600020906002020160010160405180608001604052808573ffffffffffffffffffffffffffffffffffffffff16815260200186815260200183815260200160011515815250908060018154018082558091505060019003906000526020600020906004020160009091909190915060008201518160000160006101000a81548173ffffffffffffffffffffffffffffffffffffffff021916908373ffffffffffffffffffffffffffffffffffffffff160217905550602082015181600101556040820151816002015560608201518160030160006101000a81548160ff02191690831515021790555050508360036000828254612cc0919061365b565b925050819055508273ffffffffffffffffffffffffffffffffffffffff167fb4caaf29adda3eefee3ad552a8e85058589bf834c7466cae4ee58787f70589ed858484604051612d1193929190613d95565b60405180910390a250505050565b60006001808160018154018082558091505003906000526020600020905050600060018080549050612d519190613627565b90508260018281548110612d6857612d67613bc2565b5b906000526020600020906002020160000160006101000a81548173ffffffffffffffffffffffffffffffffffffffff021916908373ffffffffffffffffffffffffffffffffffffffff16021790555080600260008573ffffffffffffffffffffffffffffffffffffffff1673ffffffffffffffffffffffffffffffffffffffff1681526020019081526020016000208190555080915050919050565b6000819050919050565b612e1781612e04565b82525050565b6000604082019050612e326000830185612e0e565b612e3f6020830184612e0e565b9392505050565b6000602082019050612e5b6000830184612e0e565b92915050565b600081519050919050565b600082825260208201905092915050565b60005b83811015612e9b578082015181840152602081019050612e80565b83811115612eaa576000848401525b50505050565b6000601f19601f8301169050919050565b6000612ecc82612e61565b612ed68185612e6c565b9350612ee6818560208601612e7d565b612eef81612eb0565b840191505092915050565b60006020820190508181036000830152612f148184612ec1565b905092915050565b600080fd5b600073ffffffffffffffffffffffffffffffffffffffff82169050919050565b6000612f4c82612f21565b9050919050565b612f5c81612f41565b8114612f6757600080fd5b50565b600081359050612f7981612f53565b92915050565b612f8881612e04565b8114612f9357600080fd5b50565b600081359050612fa581612f7f565b92915050565b60008060408385031215612fc257612fc1612f1c565b5b6000612fd085828601612f6a565b9250506020612fe185828601612f96565b9150509250929050565b60008115159050919050565b61300081612feb565b82525050565b600060208201905061301b6000830184612ff7565b92915050565b60006020828403121561303757613036612f1c565b5b600061304584828501612f96565b91505092915050565b61305781612f41565b82525050565b600063ffffffff82169050919050565b6130768161305d565b82525050565b600060e082019050613091600083018a61304e565b61309e6020830189612e0e565b6130ab6040830188612e0e565b6130b86060830187612e0e565b6130c5608083018661306d565b6130d260a083018561306d565b6130df60c0830184612ff7565b98975050505050505050565b6000602082019050613100600083018461304e565b92915050565b60008060006060848603121561311f5761311e612f1c565b5b600061312d86828701612f6a565b935050602061313e86828701612f6a565b925050604061314f86828701612f96565b9150509250925092565b6131628161305d565b811461316d57600080fd5b50565b60008135905061317f81613159565b92915050565b60008060006060848603121561319e5761319d612f1c565b5b60006131ac86828701612f96565b93505060206131bd86828701613170565b92505060406131ce86828701613170565b9150509250925092565b600080604083850312156131ef576131ee612f1c565b5b60006131fd85828601612f96565b925050602061320e85828601612f96565b9150509250929050565b60006020828403121561322e5761322d612f1c565b5b600061323c84828501612f6a565b91505092915050565b60008060006060848603121561325e5761325d612f1c565b5b600061326c86828701612f96565b935050602061327d86828701612f96565b925050604061328e86828701612f6a565b9150509250925092565b600060ff82169050919050565b6132ae81613298565b82525050565b60006020820190506132c960008301846132a5565b92915050565b600080600080600060a086880312156132eb576132ea612f1c565b5b60006132f988828901612f96565b955050602061330a88828901612f96565b945050604061331b88828901612f96565b935050606061332c88828901612f6a565b925050608061333d88828901612f96565b9150509295509295909350565b6000806040838503121561336157613360612f1c565b5b600061336f85828601612f96565b925050602061338085828601612f6a565b9150509250929050565b600081519050919050565b600082825260208201905092915050565b6000819050602082019050919050565b6133bf81612f41565b82525050565b6133ce81612e04565b82525050565b6133dd81612feb565b82525050565b6080820160008201516133f960008501826133b6565b50602082015161340c60208501826133c5565b50604082015161341f60408501826133c5565b50606082015161343260608501826133d4565b50505050565b600061344483836133e3565b60808301905092915050565b6000602082019050919050565b60006134688261338a565b6134728185613395565b935061347d836133a6565b8060005b838110156134ae5781516134958882613438565b97506134a083613450565b925050600181019050613481565b5085935050505092915050565b600060208201905081810360008301526134d5818461345d565b905092915050565b600080604083850312156134f4576134f3612f1c565b5b600061350285828601612f6a565b925050602061351385828601612f6a565b9150509250929050565b6000819050919050565b600061354261353d61353884612f21565b61351d565b612f21565b9050919050565b600061355482613527565b9050919050565b600061356682613549565b9050919050565b6135768161355b565b82525050565b6000602082019050613591600083018461356d565b92915050565b7f4e487b7100000000000000000000000000000000000000000000000000000000600052602260045260246000fd5b600060028204905060018216806135de57607f821691505b602082108114156135f2576135f1613597565b5b50919050565b7f4e487b7100000000000000000000000000000000000000000000000000000000600052601160045260246000fd5b600061363282612e04565b915061363d83612e04565b9250828210156136505761364f6135f8565b5b828203905092915050565b600061366682612e04565b915061367183612e04565b9250827fffffffffffffffffffffffffffffffffffffffffffffffffffffffffffffffff038211156136a6576136a56135f8565b5b828201905092915050565b600081905092915050565b50565b60006136cc6000836136b1565b91506136d7826136bc565b600082019050919050565b60006136ed826136bf565b9150819050919050565b7f43616c6c206661696c6564000000000000000000000000000000000000000000600082015250565b600061372d600b83612e6c565b9150613738826136f7565b602082019050919050565b6000602082019050818103600083015261375c81613720565b9050919050565b7f5374617274206174203c206e6f77000000000000000000000000000000000000600082015250565b6000613799600e83612e6c565b91506137a482613763565b602082019050919050565b600060208201905081810360008301526137c88161378c565b9050919050565b7f656e64206174203c207374617274206174000000000000000000000000000000600082015250565b6000613805601183612e6c565b9150613810826137cf565b602082019050919050565b60006020820190508181036000830152613834816137f8565b9050919050565b7f656e64206174203e206d6178206475726174696f6e0000000000000000000000600082015250565b6000613871601583612e6c565b915061387c8261383b565b602082019050919050565b600060208201905081810360008301526138a081613864565b9050919050565b60006080820190506138bc6000830187612e0e565b6138c96020830186612e0e565b6138d6604083018561306d565b6138e3606083018461306d565b95945050505050565b7f4e487b7100000000000000000000000000000000000000000000000000000000600052601260045260246000fd5b600061392682612e04565b915061393183612e04565b925082613941576139406138ec565b5b828204905092915050565b600061395782612e04565b915061396283612e04565b9250817fffffffffffffffffffffffffffffffffffffffffffffffffffffffffffffffff048311821515161561399b5761399a6135f8565b5b828202905092915050565b7f4e6f742063726561746f72000000000000000000000000000000000000000000600082015250565b60006139dc600b83612e6c565b91506139e7826139a6565b602082019050919050565b60006020820190508181036000830152613a0b816139cf565b9050919050565b7f7374617274656400000000000000000000000000000000000000000000000000600082015250565b6000613a48600783612e6c565b9150613a5382613a12565b602082019050919050565b60006020820190508181036000830152613a7781613a3b565b9050919050565b7f416d6f756e742073686f756c6420626520626967676572207468616e20300000600082015250565b6000613ab4601e83612e6c565b9150613abf82613a7e565b602082019050919050565b60006020820190508181036000830152613ae381613aa7565b9050919050565b7f456e646564000000000000000000000000000000000000000000000000000000600082015250565b6000613b20600583612e6c565b9150613b2b82613aea565b602082019050919050565b60006020820190508181036000830152613b4f81613b13565b9050919050565b7f4e6f7420656e6f75676820737570706c79000000000000000000000000000000600082015250565b6000613b8c601183612e6c565b9150613b9782613b56565b602082019050919050565b60006020820190508181036000830152613bbb81613b7f565b9050919050565b7f4e487b7100000000000000000000000000000000000000000000000000000000600052603260045260246000fd5b7f4e6f7420656e6f75676820746f6b656e73000000000000000000000000000000600082015250565b6000613c27601183612e6c565b9150613c3282613bf1565b602082019050919050565b60006020820190508181036000830152613c5681613c1a565b9050919050565b7f4e6f7468696e6720706c65646765640000000000000000000000000000000000600082015250565b6000613c93600f83612e6c565b9150613c9e82613c5d565b602082019050919050565b60006020820190508181036000830152613cc281613c86565b9050919050565b6000606082019050613cde600083018661304e565b613ceb602083018561304e565b613cf86040830184612e0e565b949350505050565b6000604082019050613d15600083018561304e565b613d226020830184612e0e565b9392505050565b7f43616e6e6f74207374616b65206e6f7468696e67000000000000000000000000600082015250565b6000613d5f601483612e6c565b9150613d6a82613d29565b602082019050919050565b60006020820190508181036000830152613d8e81613d52565b9050919050565b6000606082019050613daa6000830186612e0e565b613db76020830185612e0e565b613dc46040830184612e0e565b94935050505056fea264697066735822122082756c785b9061a2d9778b224c1afddf136482fec24e6ac1e954a260703490ce64736f6c634300080a0033",
  "linkReferences": {},
  "deployedLinkReferences": {}
}